Component: ARM Compiler 6.13.1 Tool: armlink [5d895400]

==============================================================================

Section Cross References

    gd_qsfp56_fr4_main.o(.text.main) refers to gd32e501_initialize.o(.text.GD32E501_Power_on_Initial) for GD32E501_Power_on_Initial
    gd_qsfp56_fr4_main.o(.text.main) refers to poweron_table.o(.text.PowerON_Table_Init) for PowerON_Table_Init
    gd_qsfp56_fr4_main.o(.text.main) refers to poweron_sequencing.o(.text.PowerOn_Sequencing_Control) for PowerOn_Sequencing_Control
    gd_qsfp56_fr4_main.o(.text.main) refers to poweron_table.o(.bss.CALIB_MEMORY_MAP) for CALIB_MEMORY_MAP
    gd_qsfp56_fr4_main.o(.text.main) refers to poweron_sequencing.o(.text.ModSelL_Function) for ModSelL_Function
    gd_qsfp56_fr4_main.o(.text.main) refers to qsfpdd_msa_statemachine.o(.text.QSFPDD_MSA_StateMachine) for QSFPDD_MSA_StateMachine
    gd_qsfp56_fr4_main.o(.text.main) refers to poweron_sequencing.o(.text.MCU_READ_WRITE_DEIVCE_COMMAND_CONTROL) for MCU_READ_WRITE_DEIVCE_COMMAND_CONTROL
    gd_qsfp56_fr4_main.o(.text.main) refers to gd32e501_s_i2c0_pb67.o(.text.SRMA_Flash_Function) for SRMA_Flash_Function
    gd_qsfp56_fr4_main.o(.ARM.exidx.text.main) refers to gd_qsfp56_fr4_main.o(.text.main) for [Anonymous Symbol]
    gd32e501_adc_control.o(.text.GET_ADC_Value_Data) refers to gd32e501_adc.o(.text.adc_inserted_channel_config) for adc_inserted_channel_config
    gd32e501_adc_control.o(.text.GET_ADC_Value_Data) refers to gd32e501_adc.o(.text.adc_software_trigger_enable) for adc_software_trigger_enable
    gd32e501_adc_control.o(.text.GET_ADC_Value_Data) refers to gd32e501_adc.o(.text.adc_flag_get) for adc_flag_get
    gd32e501_adc_control.o(.text.GET_ADC_Value_Data) refers to gd32e501_adc.o(.text.adc_flag_clear) for adc_flag_clear
    gd32e501_adc_control.o(.text.GET_ADC_Value_Data) refers to dfltui.o(.text) for __aeabi_ui2d
    gd32e501_adc_control.o(.text.GET_ADC_Value_Data) refers to dmul.o(.text) for __aeabi_dmul
    gd32e501_adc_control.o(.text.GET_ADC_Value_Data) refers to dfixi.o(.text) for __aeabi_d2iz
    gd32e501_adc_control.o(.ARM.exidx.text.GET_ADC_Value_Data) refers to gd32e501_adc_control.o(.text.GET_ADC_Value_Data) for [Anonymous Symbol]
    gd32e501_adc_control.o(.text.GET_GD_Temperature) refers to gd32e501_adc.o(.text.adc_inserted_channel_config) for adc_inserted_channel_config
==============================================================================

Removing Unused input sections from the image.

    Removing gd_qsfp56_fr4_main.o(.text), (0 bytes).
    Removing gd_qsfp56_fr4_main.o(.ARM.exidx.text.main), (8 bytes).
    Removing gd32e501_adc_control.o(.text), (0 bytes).
    Removing gd32e501_adc_control.o(.ARM.exidx.text.GET_ADC_Value_Data), (8 bytes).
    Removing gd32e501_adc_control.o(.ARM.exidx.text.GET_GD_Temperature), (8 bytes).
    Removing gd32e501_flash_rw.o(.text), (0 bytes).
    Removing gd32e501_flash_rw.o(.ARM.exidx.text.Swap_Bytes), (8 bytes).
    Removing gd32e501_flash_rw.o(.ARM.exidx.text.GDMCU_Flash_Erase), (8 bytes).
    Removing gd32e501_flash_rw.o(.text.GDMCU_Flasg_DoubleWord), (52 bytes).
    Removing gd32e501_flash_rw.o(.ARM.exidx.text.GDMCU_Flasg_DoubleWord), (8 bytes).
    Removing gd32e501_flash_rw.o(.text.GDMCU_FLash_HIGHLOEWordWrite), (100 bytes).
    Removing gd32e501_flash_rw.o(.ARM.exidx.text.GDMCU_FLash_HIGHLOEWordWrite), (8 bytes).
    Removing gd32e501_flash_rw.o(.ARM.exidx.text.GDMCU_FLash_WordWrite), (8 bytes).
    Removing gd32e501_flash_rw.o(.text.GDMCU_FMC_WRITE_FUNCTION), (168 bytes).
    Removing gd32e501_flash_rw.o(.ARM.exidx.text.GDMCU_FMC_WRITE_FUNCTION), (8 bytes).
    Removing gd32e501_flash_rw.o(.ARM.exidx.text.GDMCU_FMC_BytesWRITE_FUNCTION), (8 bytes).
    Removing gd32e501_flash_rw.o(.ARM.exidx.text.GDMCU_FMC_READ_DATA), (8 bytes).
    Removing gd32e501_flash_rw.o(.ARM.exidx.text.GDMCU_FMC_READ_FUNCTION), (8 bytes).
==============================================================================

Image Symbol Table

    Local Symbols

    Symbol Name                              Value     Ov Type        Size  Object(Section)

    ../clib/microlib/init/entry.s            0x00000000   Number         0  entry.o ABSOLUTE
    ../clib/microlib/init/entry.s            0x00000000   Number         0  entry2.o ABSOLUTE
    ../clib/microlib/init/entry.s            0x00000000   Number         0  entry5.o ABSOLUTE
    ../clib/microlib/init/entry.s            0x00000000   Number         0  entry7a.o ABSOLUTE
    ../clib/microlib/init/entry.s            0x00000000   Number         0  entry7b.o ABSOLUTE
    ../clib/microlib/init/entry.s            0x00000000   Number         0  entry8a.o ABSOLUTE
    ../clib/microlib/init/entry.s            0x00000000   Number         0  entry8b.o ABSOLUTE
    ../clib/microlib/init/entry.s            0x00000000   Number         0  entry9a.o ABSOLUTE
    ../clib/microlib/init/entry.s            0x00000000   Number         0  entry9b.o ABSOLUTE
    ../clib/microlib/init/entry.s            0x00000000   Number         0  entry10a.o ABSOLUTE
    ../clib/microlib/init/entry.s            0x00000000   Number         0  entry10b.o ABSOLUTE
    ../clib/microlib/init/entry.s            0x00000000   Number         0  entry11a.o ABSOLUTE
    ../clib/microlib/init/entry.s            0x00000000   Number         0  entry11b.o ABSOLUTE
    ../clib/microlib/longlong.c              0x00000000   Number         0  llshl.o ABSOLUTE
    ../clib/microlib/longlong.c              0x00000000   Number         0  llushr.o ABSOLUTE
    ../clib/microlib/longlong.c              0x00000000   Number         0  llsshr.o ABSOLUTE
    ../clib/microlib/string/memcpy.c         0x00000000   Number         0  memcpya.o ABSOLUTE
    ../clib/microlib/string/memcpy.c         0x00000000   Number         0  memcpyb.o ABSOLUTE
    ../clib/microlib/string/memset.c         0x00000000   Number         0  memseta.o ABSOLUTE
    ../clib/microlib/stubs.s                 0x00000000   Number         0  iusefp.o ABSOLUTE
    ../fplib/microlib/fpadd.c                0x00000000   Number         0  dadd.o ABSOLUTE
    ../fplib/microlib/fpdiv.c                0x00000000   Number         0  ddiv.o ABSOLUTE
    ../fplib/microlib/fpepilogue.c           0x00000000   Number         0  depilogue.o ABSOLUTE
    ../fplib/microlib/fpfix.c                0x00000000   Number         0  dfixi.o ABSOLUTE
    ../fplib/microlib/fpflt.c                0x00000000   Number         0  dflti.o ABSOLUTE
    ../fplib/microlib/fpflt.c                0x00000000   Number         0  dfltui.o ABSOLUTE
    ../fplib/microlib/fpmul.c                0x00000000   Number         0  dmul.o ABSOLUTE
    ..\GD32E501_System\startup_gd32e501.s    0x00000000   Number         0  startup_gd32e501.o ABSOLUTE
    Acacia_SIP_LDD.c                         0x00000000   Number         0  acacia_sip_ldd.o ABSOLUTE
    DSP.c                                    0x00000000   Number         0  dsp.o ABSOLUTE
    DSP_Line_Side.c                          0x00000000   Number         0  dsp_line_side.o ABSOLUTE
    DSP_System_Side.c                        0x00000000   Number         0  dsp_system_side.o ABSOLUTE
    GD32E501_ADC_Control.c                   0x00000000   Number         0  gd32e501_adc_control.o ABSOLUTE
    GD32E501_Flash_RW.c                      0x00000000   Number         0  gd32e501_flash_rw.o ABSOLUTE
    GD32E501_Initialize.c                    0x00000000   Number         0  gd32e501_initialize.o ABSOLUTE
    GD32E501_M_I2C1_PB34.c                   0x00000000   Number         0  gd32e501_m_i2c1_pb34.o ABSOLUTE
    GD32E501_M_I2C2_PC78.c                   0x00000000   Number         0  gd32e501_m_i2c2_pc78.o ABSOLUTE
    GD32E501_M_I2C3_PC1011.c                 0x00000000   Number         0  gd32e501_m_i2c3_pc1011.o ABSOLUTE
    GD32E501_SPI.c                           0x00000000   Number         0  gd32e501_spi.o ABSOLUTE
    GD32E501_S_I2C0_PB67.c                   0x00000000   Number         0  gd32e501_s_i2c0_pb67.o ABSOLUTE
    GD_QSFP56_FR4_Main.c                     0x00000000   Number         0  gd_qsfp56_fr4_main.o ABSOLUTE
    MPS5490_IDAC.c                           0x00000000   Number         0  mps5490_idac.o ABSOLUTE
    PowerOn_Sequencing.c                     0x00000000   Number         0  poweron_sequencing.o ABSOLUTE
    PowerOn_Table.c                          0x00000000   Number         0  poweron_table.o ABSOLUTE
    QSFPDD_MSA_AW.c                          0x00000000   Number         0  qsfpdd_msa_aw.o ABSOLUTE
    QSFPDD_MSA_DDMI.c                        0x00000000   Number         0  qsfpdd_msa_ddmi.o ABSOLUTE
    QSFPDD_MSA_Optional_Control.c            0x00000000   Number         0  qsfpdd_msa_optional_control.o ABSOLUTE
    QSFPDD_MSA_StateMachine.c                0x00000000   Number         0  qsfpdd_msa_statemachine.o ABSOLUTE
    acacia_TIA.c                             0x00000000   Number         0  acacia_tia.o ABSOLUTE
    dc.s                                     0x00000000   Number         0  dc.o ABSOLUTE
    gd32e501_adc.c                           0x00000000   Number         0  gd32e501_adc.o ABSOLUTE
    gd32e501_cla.c                           0x00000000   Number         0  gd32e501_cla.o ABSOLUTE
    gd32e501_cmp.c                           0x00000000   Number         0  gd32e501_cmp.o ABSOLUTE
    gd32e501_crc.c                           0x00000000   Number         0  gd32e501_crc.o ABSOLUTE
    gd32e501_dac.c                           0x00000000   Number         0  gd32e501_dac.o ABSOLUTE
    gd32e501_dbg.c                           0x00000000   Number         0  gd32e501_dbg.o ABSOLUTE
    gd32e501_dma.c                           0x00000000   Number         0  gd32e501_dma.o ABSOLUTE
    gd32e501_exti.c                          0x00000000   Number         0  gd32e501_exti.o ABSOLUTE
    gd32e501_fmc.c                           0x00000000   Number         0  gd32e501_fmc.o ABSOLUTE
    gd32e501_fwdgt.c                         0x00000000   Number         0  gd32e501_fwdgt.o ABSOLUTE
    gd32e501_gpio.c                          0x00000000   Number         0  gd32e501_gpio.o ABSOLUTE
    gd32e501_i2c.c                           0x00000000   Number         0  gd32e501_i2c.o ABSOLUTE
    gd32e501_it.c                            0x00000000   Number         0  gd32e501_it.o ABSOLUTE
    gd32e501_mdio.c                          0x00000000   Number         0  gd32e501_mdio.o ABSOLUTE
    gd32e501_misc.c                          0x00000000   Number         0  gd32e501_misc.o ABSOLUTE
    gd32e501_pmu.c                           0x00000000   Number         0  gd32e501_pmu.o ABSOLUTE
    gd32e501_rcu.c                           0x00000000   Number         0  gd32e501_rcu.o ABSOLUTE
    gd32e501_rtc.c                           0x00000000   Number         0  gd32e501_rtc.o ABSOLUTE
    gd32e501_spi.c                           0x00000000   Number         0  gd32e501_spi_1.o ABSOLUTE
    gd32e501_syscfg.c                        0x00000000   Number         0  gd32e501_syscfg.o ABSOLUTE
    gd32e501_timer.c                         0x00000000   Number         0  gd32e501_timer.o ABSOLUTE
    gd32e501_usart.c                         0x00000000   Number         0  gd32e501_usart.o ABSOLUTE
    gd32e501_wwdgt.c                         0x00000000   Number         0  gd32e501_wwdgt.o ABSOLUTE
    handlers.s                               0x00000000   Number         0  handlers.o ABSOLUTE
    init.s                                   0x00000000   Number         0  init.o ABSOLUTE
    system_gd32e501.c                        0x00000000   Number         0  system_gd32e501.o ABSOLUTE
    systick.c                                0x00000000   Number         0  systick.o ABSOLUTE
    RESET                                    0x08000000   Section      340  startup_gd32e501.o(RESET)
    .ARM.Collect$$$$00000000                 0x08000154   Section        0  entry.o(.ARM.Collect$$$$00000000)
    .ARM.Collect$$$$00000001                 0x08000154   Section        4  entry2.o(.ARM.Collect$$$$00000001)
    .ARM.Collect$$$$00000004                 0x08000158   Section        4  entry5.o(.ARM.Collect$$$$00000004)
    .ARM.Collect$$$$00000008                 0x0800015c   Section        0  entry7b.o(.ARM.Collect$$$$00000008)
    .ARM.Collect$$$$0000000A                 0x0800015c   Section        0  entry8b.o(.ARM.Collect$$$$0000000A)
    .ARM.Collect$$$$0000000B                 0x0800015c   Section        8  entry9a.o(.ARM.Collect$$$$0000000B)
    __lit__00000000                          0x08000164   Data           4  entry2.o(.ARM.Collect$$$$00002712)
    .ARM.Collect$$$$0000000D                 0x08000164   Section        0  entry10a.o(.ARM.Collect$$$$0000000D)
    .ARM.Collect$$$$0000000F                 0x08000164   Section        0  entry11a.o(.ARM.Collect$$$$0000000F)
    .ARM.Collect$$$$00002712                 0x08000164   Section        4  entry2.o(.ARM.Collect$$$$00002712)
    $v0                                      0x08000168   Number         0  startup_gd32e501.o(.text)
    .text                                    0x08000168   Section       36  startup_gd32e501.o(.text)
    .text                                    0x0800018c   Section        0  memcpya.o(.text)
    .text                                    0x080001b0   Section        0  memseta.o(.text)
    .text                                    0x080001d4   Section        0  dadd.o(.text)
    .text                                    0x08000322   Section        0  dmul.o(.text)
    .text                                    0x08000406   Section        0  ddiv.o(.text)
    .text                                    0x080004e4   Section        0  dflti.o(.text)
    .text                                    0x08000506   Section        0  dfltui.o(.text)
    .text                                    0x08000520   Section        0  dfixi.o(.text)
    .text                                    0x0800055e   Section        0  llshl.o(.text)
    .text                                    0x0800057c   Section        0  llushr.o(.text)
    .text                                    0x0800059c   Section        0  llsshr.o(.text)
    .text                                    0x080005c0   Section        0  iusefp.o(.text)
    .text                                    0x080005c0   Section        0  depilogue.o(.text)
    .text                                    0x0800067c   Section       36  init.o(.text)
    [Anonymous Symbol]                       0x080006a0   Section        0  gd32e501_initialize.o(.text.ADC_Config_Initial)
    [Anonymous Symbol]                       0x080006ec   Section        0  acacia_sip_ldd.o(.text.Acaaia_LDD_Direct_Control)
    [Anonymous Symbol]                       0x08000760   Section        0  acacia_tia.o(.text.Acaaia_TIA_Direct_Control)
    [Anonymous Symbol]                       0x08000840   Section        0  acacia_sip_ldd.o(.text.Acacia_LDD_Interface_test)
    [Anonymous Symbol]                       0x0800085c   Section        0  acacia_sip_ldd.o(.text.Acacia_LDD_Read_ALL)
    [Anonymous Symbol]                       0x0800098c   Section        0  acacia_sip_ldd.o(.text.Acacia_LDD_Write_ALL)
    [Anonymous Symbol]                       0x08000a9c   Section        0  acacia_tia.o(.text.Acacia_TIA_Interfacer_test)
    [Anonymous Symbol]                       0x08000ad0   Section        0  acacia_tia.o(.text.Acacia_TIA_Read_ALL)
    [Anonymous Symbol]                       0x08000cac   Section        0  acacia_tia.o(.text.Acacia_TIA_Write_ALL)
    [Anonymous Symbol]                       0x08000eb8   Section        0  qsfpdd_msa_ddmi.o(.text.BIAS_TxPower_Monitor)
    [Anonymous Symbol]                       0x08001834   Section        0  dsp.o(.text.BRCM_Control_READ_Data)
    [Anonymous Symbol]                       0x0800192c   Section        0  dsp.o(.text.BRCM_Control_WRITE_Data)
    [Anonymous Symbol]                       0x08001a20   Section        0  dsp.o(.text.BRCM_READ_Data)
    [Anonymous Symbol]                       0x08001b18   Section        0  dsp.o(.text.BRCM_WRITE_Data)
    [Anonymous Symbol]                       0x08001c08   Section        0  qsfpdd_msa_ddmi.o(.text.CAL_Function)
    [Anonymous Symbol]                       0x08001c50   Section        0  qsfpdd_msa_aw.o(.text.CMIS40_RXLOS_LOL_AW)
    [Anonymous Symbol]                       0x08001d80   Section        0  qsfpdd_msa_aw.o(.text.CMIS40_TXLOS_LOL_AW)
    [Anonymous Symbol]                       0x08001ec8   Section        0  qsfpdd_msa_statemachine.o(.text.Calculate_Page01h_Checksum)
    [Anonymous Symbol]                       0x08001f24   Section        0  poweron_table.o(.text.CheckSum_Calculate)
    [Anonymous Symbol]                       0x08001fb8   Section        0  qsfpdd_msa_aw.o(.text.Clear_Flag)
    [Anonymous Symbol]                       0x080022b8   Section        0  qsfpdd_msa_aw.o(.text.Clear_Module_state_Byte8)
    [Anonymous Symbol]                       0x0800230c   Section        0  qsfpdd_msa_aw.o(.text.Clear_VCC_TEMP_Flag)
    [Anonymous Symbol]                       0x0800237c   Section        0  qsfpdd_msa_optional_control.o(.text.Configuration_Error_code_Feedback)
    [Anonymous Symbol]                       0x08002468   Section        0  qsfpdd_msa_aw.o(.text.DDMI_AW_Monitor)
    [Anonymous Symbol]                       0x08002474   Section        0  dsp.o(.text.DSP87400_CAPI_CW_CMD)
    [Anonymous Symbol]                       0x080024b4   Section        0  dsp.o(.text.DSP87400_CAPI_Command_response)
    [Anonymous Symbol]                       0x0800255c   Section        0  dsp.o(.text.DSP87400_EEPROM_AVS_UcReady_CHECK)
    [Anonymous Symbol]                       0x080025c8   Section        0  dsp.o(.text.DSP87400_PAM4_COMMAND_ID_SET_CONFIG_INFO_CORE_IP_CW)
    [Anonymous Symbol]                       0x080026b4   Section        0  dsp.o(.text.DSP87400_host_cfg_st_lane_cw_cfg_rdy)
    [Anonymous Symbol]                       0x08002710   Section        0  dsp.o(.text.DSP87400_host_lane_cfg_done)
    [Anonymous Symbol]                       0x08002794   Section        0  dsp.o(.text.DSP87400_line_cfg_st_lane_cw_cfg_rdy)
    [Anonymous Symbol]                       0x080027c8   Section        0  dsp.o(.text.DSP87400_line_lane_cfg_done)
    [Anonymous Symbol]                       0x08002830   Section        0  dsp.o(.text.DSP_Init)
    [Anonymous Symbol]                       0x08002884   Section        0  dsp_line_side.o(.text.DSP_LineSide_Loopback_SET)
    [Anonymous Symbol]                       0x08002a18   Section        0  dsp_line_side.o(.text.DSP_LineSide_PRBS_Info_GET)
    [Anonymous Symbol]                       0x08002c28   Section        0  dsp_line_side.o(.text.DSP_LineSide_TRX_Polarity_SET)
    [Anonymous Symbol]                       0x08002e70   Section        0  dsp_line_side.o(.text.DSP_LineSide_TX_FIR_SET)
    [Anonymous Symbol]                       0x08003220   Section        0  dsp_line_side.o(.text.DSP_Line_Side_Digital_Loopback_SET)
    [Anonymous Symbol]                       0x08003254   Section        0  dsp_line_side.o(.text.DSP_Line_Side_LOL)
    [Anonymous Symbol]                       0x080032b0   Section        0  dsp_line_side.o(.text.DSP_Line_Side_PRBS_SET)
    [Anonymous Symbol]                       0x08003468   Section        0  dsp_line_side.o(.text.DSP_Line_Side_Remote_Loopback_SET)
    [Anonymous Symbol]                       0x0800349c   Section        0  poweron_sequencing.o(.text.DSP_PowerON_Seq_Control)
    [Anonymous Symbol]                       0x080034f0   Section        0  dsp_system_side.o(.text.DSP_SystemSide_Loopback_SET)
    [Anonymous Symbol]                       0x0800378c   Section        0  dsp_system_side.o(.text.DSP_SystemSide_PRBS_Info_GET)
    [Anonymous Symbol]                       0x08003a14   Section        0  dsp_system_side.o(.text.DSP_SystemSide_TRX_Polarity_SET)
    [Anonymous Symbol]                       0x08003e70   Section        0  dsp_system_side.o(.text.DSP_SystemSide_TRX_Squelch_SET)
    [Anonymous Symbol]                       0x0800410c   Section        0  dsp_system_side.o(.text.DSP_System_Side_Digital_Loopback_SET)
    [Anonymous Symbol]                       0x08004140   Section        0  dsp_system_side.o(.text.DSP_System_Side_LOL)
    [Anonymous Symbol]                       0x080041e0   Section        0  dsp_system_side.o(.text.DSP_System_Side_PRBS_SET)
    [Anonymous Symbol]                       0x08004464   Section        0  dsp_system_side.o(.text.DSP_System_Side_RX_Squelch_SET)
    [Anonymous Symbol]                       0x08004498   Section        0  dsp_system_side.o(.text.DSP_System_Side_Remote_Loopback_SET)
    [Anonymous Symbol]                       0x080044cc   Section        0  dsp_system_side.o(.text.DSP_System_Side_TX_FIR_SET)
    [Anonymous Symbol]                       0x08004b18   Section        0  dsp_system_side.o(.text.DSP_System_Side_TX_Squelch_SET)
    [Anonymous Symbol]                       0x08004b4c   Section        0  gd32e501_m_i2c1_pb34.o(.text.Delay_I2C1)
    [Anonymous Symbol]                       0x08004b64   Section        0  gd32e501_m_i2c2_pc78.o(.text.Delay_I2C2)
    [Anonymous Symbol]                       0x08004b7c   Section        0  poweron_table.o(.text.Device_Table_Get_Data)
    [Anonymous Symbol]                       0x08004c4c   Section        0  gd32e501_it.o(.text.EXTI0_1_IRQHandler)
    [Anonymous Symbol]                       0x08004c50   Section        0  gd32e501_initialize.o(.text.GD32E501_GPIO_Analogy_initial)
    [Anonymous Symbol]                       0x08004d3c   Section        0  gd32e501_initialize.o(.text.GD32E501_GPIO_OP_initial)
    [Anonymous Symbol]                       0x08004da8   Section        0  gd32e501_initialize.o(.text.GD32E501_GPIO_PP_initial)
    [Anonymous Symbol]                       0x08004ee4   Section        0  gd32e501_initialize.o(.text.GD32E501_Power_on_Initial)
    [Anonymous Symbol]                       0x08004f0c   Section        0  gd32e501_flash_rw.o(.text.GDMCU_FLash_WordWrite)
    [Anonymous Symbol]                       0x08004fa4   Section        0  gd32e501_flash_rw.o(.text.GDMCU_FMC_BytesWRITE_FUNCTION)
    [Anonymous Symbol]                       0x080050ac   Section        0  gd32e501_flash_rw.o(.text.GDMCU_FMC_READ_DATA)
    [Anonymous Symbol]                       0x080050c4   Section        0  gd32e501_flash_rw.o(.text.GDMCU_FMC_READ_FUNCTION)
    [Anonymous Symbol]                       0x08005110   Section        0  gd32e501_flash_rw.o(.text.GDMCU_Flash_Erase)
    [Anonymous Symbol]                       0x0800513c   Section        0  gd32e501_initialize.o(.text.GD_System_Periph_Clock_Enable)
    [Anonymous Symbol]                       0x080051b8   Section        0  gd32e501_adc_control.o(.text.GET_ADC_Value_Data)
    [Anonymous Symbol]                       0x08005258   Section        0  gd32e501_adc_control.o(.text.GET_GD_Temperature)
    [Anonymous Symbol]                       0x08005350   Section        0  gd32e501_m_i2c1_pb34.o(.text.GPIO_Configuration_I2C1)
    [Anonymous Symbol]                       0x080053e0   Section        0  gd32e501_m_i2c2_pc78.o(.text.GPIO_Configuration_I2C2_PC78)
    [Anonymous Symbol]                       0x08005474   Section        0  qsfpdd_msa_statemachine.o(.text.Get_AppSelCode_Result)
    [Anonymous Symbol]                       0x080054ac   Section        0  poweron_table.o(.text.Get_CH_Data)
    [Anonymous Symbol]                       0x080054f0   Section        0  qsfpdd_msa_optional_control.o(.text.Get_LineSide_PRBS_Pattern)
    [Anonymous Symbol]                       0x08005630   Section        0  dsp.o(.text.Get_NRZ_Default_System_Side)
    [Anonymous Symbol]                       0x0800567c   Section        0  poweron_sequencing.o(.text.Get_Power_C_Status)
    [Anonymous Symbol]                       0x0800577c   Section        0  poweron_table.o(.text.Get_QDD_MSA_Optional_Control_Table)
    [Anonymous Symbol]                       0x080057f4   Section        0  qsfpdd_msa_optional_control.o(.text.Get_Rx_Output_Max_Value)
    [Anonymous Symbol]                       0x08005834   Section        0  qsfpdd_msa_optional_control.o(.text.Get_SystemSide_PRBS_Pattern)
    [Anonymous Symbol]                       0x08005974   Section        0  qsfpdd_msa_statemachine.o(.text.Get_module_Power_Monitor)
    [Anonymous Symbol]                       0x080059e4   Section        0  qsfpdd_msa_optional_control.o(.text.HOST_Side_Generator_Pattern_Control_P13)
    [Anonymous Symbol]                       0x08005ca4   Section        0  gd32e501_it.o(.text.HardFault_Handler)
    [Anonymous Symbol]                       0x08005ca8   Section        0  qsfpdd_msa_optional_control.o(.text.Host_Side_LoopBack_P13)
    [Anonymous Symbol]                       0x08005f9c   Section        0  gd32e501_s_i2c0_pb67.o(.text.I2C0_ER_IRQHandler)
    [Anonymous Symbol]                       0x080060bc   Section        0  gd32e501_s_i2c0_pb67.o(.text.I2C0_EV_IRQHandler)
    [Anonymous Symbol]                       0x08006948   Section        0  poweron_table.o(.text.Init_Rx_Output_Values)
    [Anonymous Symbol]                       0x08006af4   Section        0  poweron_sequencing.o(.text.Internal_Voltage_Power_Down)
    [Anonymous Symbol]                       0x08006b9c   Section        0  poweron_sequencing.o(.text.Internal_Voltage_Power_up_Seq)
    [Anonymous Symbol]                       0x08006c90   Section        0  dsp_line_side.o(.text.Line_Side_ALL_CH1_CH4_Control_P86)
    [Anonymous Symbol]                       0x08006cf8   Section        0  poweron_sequencing.o(.text.MCU_READ_WRITE_DEIVCE_COMMAND_CONTROL)
    [Anonymous Symbol]                       0x08006ddc   Section        0  gd32e501_m_i2c1_pb34.o(.text.MI2C1_WordADR_R_PB34)
    [Anonymous Symbol]                       0x08007094   Section        0  gd32e501_m_i2c1_pb34.o(.text.MI2C1_WordADR_W_PB34)
    [Anonymous Symbol]                       0x08007308   Section        0  gd32e501_m_i2c2_pc78.o(.text.MI2C2_WordADR_R_PC78)
    [Anonymous Symbol]                       0x080075c8   Section        0  gd32e501_m_i2c2_pc78.o(.text.MI2C2_WordADR_W_PC78)
    [Anonymous Symbol]                       0x0800780c   Section        0  mps5490_idac.o(.text.MP5490_Direct_Control)
    [Anonymous Symbol]                       0x08007880   Section        0  mps5490_idac.o(.text.MP5490_LDD_Interface_test)
    [Anonymous Symbol]                       0x08007964   Section        0  mps5490_idac.o(.text.MP5490_Read_AllData)
    [Anonymous Symbol]                       0x08007b1c   Section        0  mps5490_idac.o(.text.MP5490_Write_Control_Data)
    [Anonymous Symbol]                       0x08007c1c   Section        0  qsfpdd_msa_statemachine.o(.text.MSA_Configure_Appsel_CODE_Check)
    [Anonymous Symbol]                       0x08008110   Section        0  qsfpdd_msa_statemachine.o(.text.MSA_DDMI_Function)
    [Anonymous Symbol]                       0x080081c4   Section        0  qsfpdd_msa_statemachine.o(.text.MSA_DataPathState_P11H_80)
    [Anonymous Symbol]                       0x08008200   Section        0  qsfpdd_msa_statemachine.o(.text.MSA_Rx_OUTPUT_Control_P10H_8A)
    [Anonymous Symbol]                       0x08008364   Section        0  qsfpdd_msa_statemachine.o(.text.MSA_Tx_Squelch_Control_P10H_83)
    [Anonymous Symbol]                       0x080084e0   Section        0  gd32e501_m_i2c1_pb34.o(.text.Master_I2C1_ByteREAD_PB34)
    [Anonymous Symbol]                       0x080086d4   Section        0  gd32e501_m_i2c1_pb34.o(.text.Master_I2C1_ByteWrite_PB34)
    [Anonymous Symbol]                       0x0800888c   Section        0  gd32e501_m_i2c1_pb34.o(.text.Master_I2C1_PB34_Init)
    [Anonymous Symbol]                       0x080088e4   Section        0  gd32e501_initialize.o(.text.Master_I2C1_PB34_Initial)
    [Anonymous Symbol]                       0x08008990   Section        0  gd32e501_m_i2c2_pc78.o(.text.Master_I2C2_ByteREAD_PC78)
    [Anonymous Symbol]                       0x08008b8c   Section        0  gd32e501_m_i2c2_pc78.o(.text.Master_I2C2_ByteWrite_PC78)
    [Anonymous Symbol]                       0x08008d08   Section        0  gd32e501_m_i2c2_pc78.o(.text.Master_I2C2_PB78_Init)
    [Anonymous Symbol]                       0x08008d60   Section        0  gd32e501_initialize.o(.text.Master_I2C2_PC78_Initial)
    [Anonymous Symbol]                       0x08008e10   Section        0  qsfpdd_msa_optional_control.o(.text.Media_Side_Generator_Pattern_Control_P13)
    [Anonymous Symbol]                       0x080090d0   Section        0  qsfpdd_msa_optional_control.o(.text.Media_Side_LoopBack_P13)
    [Anonymous Symbol]                       0x080093c4   Section        0  poweron_sequencing.o(.text.ModSelL_Function)
    [Anonymous Symbol]                       0x080093fc   Section        0  qsfpdd_msa_statemachine.o(.text.Modeule_MGMT_INIT)
    [Anonymous Symbol]                       0x080094c8   Section        0  qsfpdd_msa_statemachine.o(.text.Module_Global_Control_P0H_26)
    [Anonymous Symbol]                       0x08009510   Section        0  qsfpdd_msa_statemachine.o(.text.Module_State_P0H_03)
    [Anonymous Symbol]                       0x0800952c   Section        0  gd32e501_it.o(.text.NMI_Handler)
    [Anonymous Symbol]                       0x08009530   Section        0  qsfpdd_msa_optional_control.o(.text.P13_diagnostic_features)
    [Anonymous Symbol]                       0x08009544   Section        0  poweron_table.o(.text.Page13_Default)
    [Anonymous Symbol]                       0x08009588   Section        0  gd32e501_s_i2c0_pb67.o(.text.PassWord_Function)
    [Anonymous Symbol]                       0x08009670   Section        0  gd32e501_it.o(.text.PendSV_Handler)
    [Anonymous Symbol]                       0x08009674   Section        0  poweron_table.o(.text.PowerON_Table_Init)
    [Anonymous Symbol]                       0x08009690   Section        0  poweron_sequencing.o(.text.PowerOn_Sequencing_Control)
    [Anonymous Symbol]                       0x080096a0   Section        0  qsfpdd_msa_optional_control.o(.text.QDD_DSP_Tap_ReLoader)
    [Anonymous Symbol]                       0x08009848   Section        0  qsfpdd_msa_optional_control.o(.text.QDD_MSA_CTLE_PRE_POST_AMP_CONTROL)
    [Anonymous Symbol]                       0x08009890   Section        0  poweron_table.o(.text.QDD_MSA_Init_SETTING)
    [Anonymous Symbol]                       0x080098c4   Section        0  poweron_table.o(.text.QDD_MSA_PAGE11_ControlByte)
    [Anonymous Symbol]                       0x0800998c   Section        0  qsfpdd_msa_statemachine.o(.text.QSFPDD_DDMI_ONLY_ADC_GET)
    [Anonymous Symbol]                       0x080099a8   Section        0  qsfpdd_msa_ddmi.o(.text.QSFPDD_DDMI_StateMachine)
    [Anonymous Symbol]                       0x08009afc   Section        0  qsfpdd_msa_statemachine.o(.text.QSFPDD_MSA_StateMachine)
    [Anonymous Symbol]                       0x0800a034   Section        0  qsfpdd_msa_aw.o(.text.QSFPDD_RxPower_AW)
    [Anonymous Symbol]                       0x0800a424   Section        0  poweron_table.o(.text.QSFPDD_Table_GetDate)
    [Anonymous Symbol]                       0x0800a488   Section        0  qsfpdd_msa_aw.o(.text.QSFPDD_Temperature_VCC_AW)
    [Anonymous Symbol]                       0x0800a694   Section        0  qsfpdd_msa_optional_control.o(.text.RX_AMP_OutSwing_Control)
    [Anonymous Symbol]                       0x0800aa48   Section        0  qsfpdd_msa_ddmi.o(.text.RX_POWER_M_CH0_CH7)
    [Anonymous Symbol]                       0x0800b1bc   Section        0  qsfpdd_msa_optional_control.o(.text.RX_Post_Control)
    [Anonymous Symbol]                       0x0800b4f0   Section        0  qsfpdd_msa_optional_control.o(.text.RX_Pre_Control)
    [Anonymous Symbol]                       0x0800b824   Section        0  gd32e501_m_i2c2_pc78.o(.text.Resume_IIC)
    [Anonymous Symbol]                       0x0800b918   Section        0  gd32e501_m_i2c1_pb34.o(.text.Resume_IIC_I2C1)
    [Anonymous Symbol]                       0x0800ba0c   Section        0  qsfpdd_msa_optional_control.o(.text.Rx_Output_Limit_Check)
    [Anonymous Symbol]                       0x0800c5d4   Section        0  dsp.o(.text.SET_CHIP_MODE_2X53G_KP4PAM_TO_1X106G_KP4PAM)
    [Anonymous Symbol]                       0x0800c684   Section        0  dsp.o(.text.SET_DSP_CHIP_MODE)
    [Anonymous Symbol]                       0x0800c6b4   Section        0  poweron_sequencing.o(.text.SET_Power_Control)
    [Anonymous Symbol]                       0x0800c7f8   Section        0  gd32e501_s_i2c0_pb67.o(.text.SRMA_Flash_Function)
    [Anonymous Symbol]                       0x0800c8a4   Section        0  gd32e501_it.o(.text.SVC_Handler)
    [Anonymous Symbol]                       0x0800c8a8   Section        0  gd32e501_initialize.o(.text.Slave_I2C0_PB67_Initial)
    [Anonymous Symbol]                       0x0800c964   Section        0  gd32e501_flash_rw.o(.text.Swap_Bytes)
    SysTick_Config                           0x0800c985   Thumb Code    82  systick.o(.text.SysTick_Config)
    [Anonymous Symbol]                       0x0800c984   Section        0  systick.o(.text.SysTick_Config)
    [Anonymous Symbol]                       0x0800c9d8   Section        0  gd32e501_it.o(.text.SysTick_Handler)
    [Anonymous Symbol]                       0x0800c9e0   Section        0  system_gd32e501.o(.text.SystemInit)
    [Anonymous Symbol]                       0x0800cab4   Section        0  dsp_system_side.o(.text.System_Side_ALL_CH1_CH4_Control_P87)
    [Anonymous Symbol]                       0x0800cb1c   Section        0  dsp_system_side.o(.text.System_Side_ALL_CH1_CH4_Control_P8E)
    [Anonymous Symbol]                       0x0800cb8c   Section        0  dsp.o(.text.TEST_DSP_Command_Direct_Control)
    [Anonymous Symbol]                       0x0800cbfc   Section        0  qsfpdd_msa_statemachine.o(.text.TX_DIS_FUNCTION)
    [Anonymous Symbol]                       0x0800cdb4   Section        0  qsfpdd_msa_ddmi.o(.text.Temp_CAL)
    [Anonymous Symbol]                       0x0800ce00   Section        0  qsfpdd_msa_ddmi.o(.text.Temperature_Monitor)
    [Anonymous Symbol]                       0x0800cea8   Section        0  dsp.o(.text.Trigger_CMD_Update_DSP_REG)
    [Anonymous Symbol]                       0x0800ceb8   Section        0  gd32e501_s_i2c0_pb67.o(.text.Update_SRAM_Data)
    [Anonymous Symbol]                       0x0800d61c   Section        0  qsfpdd_msa_ddmi.o(.text.VCC_Monitor)
    [Anonymous Symbol]                       0x0800d678   Section        0  gd32e501_s_i2c0_pb67.o(.text.Write_SRAM_TO_Flash)
    __NVIC_EnableIRQ                         0x0800e035   Thumb Code    52  gd32e501_misc.o(.text.__NVIC_EnableIRQ)
    [Anonymous Symbol]                       0x0800e034   Section        0  gd32e501_misc.o(.text.__NVIC_EnableIRQ)
    __NVIC_SetPriority                       0x0800e069   Thumb Code    68  systick.o(.text.__NVIC_SetPriority)
    [Anonymous Symbol]                       0x0800e068   Section        0  systick.o(.text.__NVIC_SetPriority)
    __NVIC_SetPriority                       0x0800e0ad   Thumb Code    68  gd32e501_misc.o(.text.__NVIC_SetPriority)
    [Anonymous Symbol]                       0x0800e0ac   Section        0  gd32e501_misc.o(.text.__NVIC_SetPriority)
    __NVIC_SystemReset                       0x0800e0f1   Thumb Code    38  qsfpdd_msa_statemachine.o(.text.__NVIC_SystemReset)
    [Anonymous Symbol]                       0x0800e0f0   Section        0  qsfpdd_msa_statemachine.o(.text.__NVIC_SystemReset)
    [Anonymous Symbol]                       0x0800e118   Section        0  gd32e501_adc.o(.text.adc_calibration_enable)
    [Anonymous Symbol]                       0x0800e168   Section        0  gd32e501_adc.o(.text.adc_channel_length_config)
    [Anonymous Symbol]                       0x0800e1e0   Section        0  gd32e501_adc.o(.text.adc_data_alignment_config)
    [Anonymous Symbol]                       0x0800e214   Section        0  gd32e501_adc.o(.text.adc_enable)
    [Anonymous Symbol]                       0x0800e23c   Section        0  gd32e501_adc.o(.text.adc_external_trigger_config)
    [Anonymous Symbol]                       0x0800e2d4   Section        0  gd32e501_adc.o(.text.adc_external_trigger_source_config)
    [Anonymous Symbol]                       0x0800e33c   Section        0  gd32e501_adc.o(.text.adc_flag_clear)
    [Anonymous Symbol]                       0x0800e358   Section        0  gd32e501_adc.o(.text.adc_flag_get)
    [Anonymous Symbol]                       0x0800e384   Section        0  gd32e501_adc.o(.text.adc_inserted_channel_config)
    [Anonymous Symbol]                       0x0800e484   Section        0  gd32e501_adc.o(.text.adc_software_trigger_enable)
    [Anonymous Symbol]                       0x0800e4cc   Section        0  gd32e501_adc.o(.text.adc_special_function_config)
    [Anonymous Symbol]                       0x0800e59c   Section        0  gd32e501_adc.o(.text.adc_tempsensor_vrefint_enable)
    [Anonymous Symbol]                       0x0800e5b0   Section        0  systick.o(.text.delay_1ms)
    [Anonymous Symbol]                       0x0800e5d8   Section        0  systick.o(.text.delay_decrement)
    [Anonymous Symbol]                       0x0800e5fc   Section        0  gd32e501_fmc.o(.text.fmc_bank0_flag_clear)
    [Anonymous Symbol]                       0x0800e614   Section        0  gd32e501_fmc.o(.text.fmc_bank0_ready_wait)
    [Anonymous Symbol]                       0x0800e670   Section        0  gd32e501_fmc.o(.text.fmc_bank0_state_get)
    [Anonymous Symbol]                       0x0800e6d4   Section        0  gd32e501_fmc.o(.text.fmc_bank1_ready_wait)
    [Anonymous Symbol]                       0x0800e730   Section        0  gd32e501_fmc.o(.text.fmc_bank1_state_get)
    [Anonymous Symbol]                       0x0800e794   Section        0  gd32e501_fmc.o(.text.fmc_lock)
    [Anonymous Symbol]                       0x0800e7b8   Section        0  gd32e501_fmc.o(.text.fmc_page_erase)
    [Anonymous Symbol]                       0x0800e964   Section        0  gd32e501_fmc.o(.text.fmc_unlock)
    [Anonymous Symbol]                       0x0800e9c8   Section        0  gd32e501_fwdgt.o(.text.fwdgt_config)
    [Anonymous Symbol]                       0x0800ead0   Section        0  gd32e501_fwdgt.o(.text.fwdgt_enable)
    [Anonymous Symbol]                       0x0800eae0   Section        0  gd32e501_gpio.o(.text.gpio_af_set)
    [Anonymous Symbol]                       0x0800ebbc   Section        0  gd32e501_gpio.o(.text.gpio_bit_reset)
    [Anonymous Symbol]                       0x0800ebcc   Section        0  gd32e501_gpio.o(.text.gpio_bit_set)
    [Anonymous Symbol]                       0x0800ebdc   Section        0  gd32e501_gpio.o(.text.gpio_input_bit_get)
    [Anonymous Symbol]                       0x0800ec08   Section        0  gd32e501_gpio.o(.text.gpio_mode_set)
    [Anonymous Symbol]                       0x0800eca8   Section        0  gd32e501_gpio.o(.text.gpio_output_bit_get)
    [Anonymous Symbol]                       0x0800ecd4   Section        0  gd32e501_gpio.o(.text.gpio_output_options_set)
    [Anonymous Symbol]                       0x0800ed70   Section        0  gd32e501_i2c.o(.text.i2c_address_config)
    [Anonymous Symbol]                       0x0800ed98   Section        0  gd32e501_i2c.o(.text.i2c_automatic_end_disable)
    [Anonymous Symbol]                       0x0800edac   Section        0  gd32e501_i2c.o(.text.i2c_automatic_end_enable)
    [Anonymous Symbol]                       0x0800edc0   Section        0  gd32e501_i2c.o(.text.i2c_data_receive)
    [Anonymous Symbol]                       0x0800edd0   Section        0  gd32e501_i2c.o(.text.i2c_data_transmit)
    [Anonymous Symbol]                       0x0800ede4   Section        0  gd32e501_i2c.o(.text.i2c_deinit)
    [Anonymous Symbol]                       0x0800ee58   Section        0  gd32e501_i2c.o(.text.i2c_disable)
    [Anonymous Symbol]                       0x0800ee6c   Section        0  gd32e501_i2c.o(.text.i2c_enable)
    [Anonymous Symbol]                       0x0800ee80   Section        0  gd32e501_i2c.o(.text.i2c_flag_clear)
    [Anonymous Symbol]                       0x0800ee94   Section        0  gd32e501_i2c.o(.text.i2c_flag_get)
    [Anonymous Symbol]                       0x0800eec0   Section        0  gd32e501_i2c.o(.text.i2c_idle_clock_timeout_config)
    [Anonymous Symbol]                       0x0800eee0   Section        0  gd32e501_i2c.o(.text.i2c_interrupt_enable)
    [Anonymous Symbol]                       0x0800eef4   Section        0  gd32e501_i2c.o(.text.i2c_interrupt_flag_clear)
    [Anonymous Symbol]                       0x0800ef14   Section        0  gd32e501_i2c.o(.text.i2c_interrupt_flag_get)
    [Anonymous Symbol]                       0x0800ef78   Section        0  gd32e501_i2c.o(.text.i2c_master_addressing)
    [Anonymous Symbol]                       0x0800efb0   Section        0  gd32e501_i2c.o(.text.i2c_master_clock_config)
    [Anonymous Symbol]                       0x0800efec   Section        0  gd32e501_i2c.o(.text.i2c_reload_disable)
    [Anonymous Symbol]                       0x0800f000   Section        0  gd32e501_i2c.o(.text.i2c_reload_enable)
    [Anonymous Symbol]                       0x0800f014   Section        0  gd32e501_i2c.o(.text.i2c_start_on_bus)
    [Anonymous Symbol]                       0x0800f028   Section        0  gd32e501_i2c.o(.text.i2c_stop_on_bus)
    [Anonymous Symbol]                       0x0800f03c   Section        0  gd32e501_i2c.o(.text.i2c_timing_config)
    [Anonymous Symbol]                       0x0800f098   Section        0  gd32e501_i2c.o(.text.i2c_transfer_byte_number_config)
    [Anonymous Symbol]                       0x0800f0b8   Section        0  gd32e501_initialize.o(.text.irc40k_config)
    [Anonymous Symbol]                       0x0800f0d0   Section        0  gd_qsfp56_fr4_main.o(.text.main)
    [Anonymous Symbol]                       0x0800f10c   Section        0  gd32e501_misc.o(.text.nvic_irq_enable)
    [Anonymous Symbol]                       0x0800f138   Section        0  gd32e501_misc.o(.text.nvic_vector_table_set)
    [Anonymous Symbol]                       0x0800f15c   Section        0  gd32e501_rcu.o(.text.rcu_adc_clock_config)
    [Anonymous Symbol]                       0x0800f30c   Section        0  gd32e501_rcu.o(.text.rcu_flag_get)
    [Anonymous Symbol]                       0x0800f350   Section        0  gd32e501_rcu.o(.text.rcu_osci_on)
    [Anonymous Symbol]                       0x0800f380   Section        0  gd32e501_rcu.o(.text.rcu_osci_stab_wait)
    [Anonymous Symbol]                       0x0800f5e4   Section        0  gd32e501_rcu.o(.text.rcu_periph_clock_disable)
    [Anonymous Symbol]                       0x0800f614   Section        0  gd32e501_rcu.o(.text.rcu_periph_clock_enable)
    [Anonymous Symbol]                       0x0800f644   Section        0  gd32e501_rcu.o(.text.rcu_periph_reset_disable)
    [Anonymous Symbol]                       0x0800f674   Section        0  gd32e501_rcu.o(.text.rcu_periph_reset_enable)
    [Anonymous Symbol]                       0x0800f6a4   Section        0  gd32e501_syscfg.o(.text.syscfg_vref_enable)
    system_clock_100m_irc8m                  0x0800f6b5   Thumb Code   256  system_gd32e501.o(.text.system_clock_100m_irc8m)
    [Anonymous Symbol]                       0x0800f6b4   Section        0  system_gd32e501.o(.text.system_clock_100m_irc8m)
    system_clock_config                      0x0800f7b5   Thumb Code     8  system_gd32e501.o(.text.system_clock_config)
    [Anonymous Symbol]                       0x0800f7b4   Section        0  system_gd32e501.o(.text.system_clock_config)
    [Anonymous Symbol]                       0x0800f7bc   Section        0  systick.o(.text.systick_config)
    i.__scatterload_copy                     0x0800f7f8   Section       14  handlers.o(i.__scatterload_copy)
    i.__scatterload_null                     0x0800f806   Section        2  handlers.o(i.__scatterload_null)
    i.__scatterload_zeroinit                 0x0800f808   Section       14  handlers.o(i.__scatterload_zeroinit)
    delay                                    0x20000aa4   Data           4  systick.o(.bss.delay)
    [Anonymous Symbol]                       0x20000aa4   Section        0  systick.o(.bss.delay)
    STACK                                    0x20000aa8   Section     1024  startup_gd32e501.o(STACK)

    Global Symbols

    Symbol Name                              Value     Ov Type        Size  Object(Section)

    BuildAttributes$$THM_ISAv4$P$D$K$B$S$8M$VFPi5$EXTD16$VFPS$VFMA$PE$A:L22UL41UL21$X:L11$S22US41US21$IEEE1$IW$~IW$USESV6$~STKCKD$USESV7$~SHL$OSPACE$ROPI$EBA8$MICROLIB$REQ8$PRES8$EABIv2 0x00000000   Number         0  anon$$obj.o ABSOLUTE
    __cpp_initialize__aeabi_                  - Undefined Weak Reference
    __cxa_finalize                            - Undefined Weak Reference
    __decompress                              - Undefined Weak Reference
    _clock_init                               - Undefined Weak Reference
    _microlib_exit                            - Undefined Weak Reference
    __Vectors_Size                           0x00000154   Number         0  startup_gd32e501.o ABSOLUTE
    __Vectors                                0x08000000   Data           4  startup_gd32e501.o(RESET)
    __Vectors_End                            0x08000154   Data           0  startup_gd32e501.o(RESET)
    __main                                   0x08000155   Thumb Code     0  entry.o(.ARM.Collect$$$$00000000)
    _main_stk                                0x08000155   Thumb Code     0  entry2.o(.ARM.Collect$$$$00000001)
    _main_scatterload                        0x08000159   Thumb Code     0  entry5.o(.ARM.Collect$$$$00000004)
    __main_after_scatterload                 0x0800015d   Thumb Code     0  entry5.o(.ARM.Collect$$$$00000004)
    _main_clock                              0x0800015d   Thumb Code     0  entry7b.o(.ARM.Collect$$$$00000008)
    _main_cpp_init                           0x0800015d   Thumb Code     0  entry8b.o(.ARM.Collect$$$$0000000A)
    _main_init                               0x0800015d   Thumb Code     0  entry9a.o(.ARM.Collect$$$$0000000B)
    __rt_final_cpp                           0x08000165   Thumb Code     0  entry10a.o(.ARM.Collect$$$$0000000D)
    __rt_final_exit                          0x08000165   Thumb Code     0  entry11a.o(.ARM.Collect$$$$0000000F)
    Reset_Handler                            0x08000169   Thumb Code     8  startup_gd32e501.o(.text)
    MemManage_Handler                        0x08000175   Thumb Code     2  startup_gd32e501.o(.text)
    BusFault_Handler                         0x08000177   Thumb Code     2  startup_gd32e501.o(.text)
    UsageFault_Handler                       0x08000179   Thumb Code     2  startup_gd32e501.o(.text)
    DebugMon_Handler                         0x0800017d   Thumb Code     2  startup_gd32e501.o(.text)
    ADC_CMP_IRQHandler                       0x08000183   Thumb Code     0  startup_gd32e501.o(.text)
    CLA_IRQHandler                           0x08000183   Thumb Code     0  startup_gd32e501.o(.text)
    DMA_Channel0_IRQHandler                  0x08000183   Thumb Code     0  startup_gd32e501.o(.text)
    DMA_Channel1_2_IRQHandler                0x08000183   Thumb Code     0  startup_gd32e501.o(.text)
    DMA_Channel3_4_IRQHandler                0x08000183   Thumb Code     0  startup_gd32e501.o(.text)
    DMA_Channel5_6_IRQHandler                0x08000183   Thumb Code     0  startup_gd32e501.o(.text)
    EXTI2_3_IRQHandler                       0x08000183   Thumb Code     0  startup_gd32e501.o(.text)
    EXTI4_15_IRQHandler                      0x08000183   Thumb Code     0  startup_gd32e501.o(.text)
    FMC_IRQHandler                           0x08000183   Thumb Code     0  startup_gd32e501.o(.text)
    FPU_IRQHandler                           0x08000183   Thumb Code     0  startup_gd32e501.o(.text)
    I2C1_ER_IRQHandler                       0x08000183   Thumb Code     0  startup_gd32e501.o(.text)
    I2C1_EV_IRQHandler                       0x08000183   Thumb Code     0  startup_gd32e501.o(.text)
    I2C2_ER_IRQHandler                       0x08000183   Thumb Code     0  startup_gd32e501.o(.text)
    I2C2_EV_IRQHandler                       0x08000183   Thumb Code     0  startup_gd32e501.o(.text)
    LVD_IRQHandler                           0x08000183   Thumb Code     0  startup_gd32e501.o(.text)
    MDIO_IRQHandler                          0x08000183   Thumb Code     0  startup_gd32e501.o(.text)
    RCU_IRQHandler                           0x08000183   Thumb Code     0  startup_gd32e501.o(.text)
    RTC_IRQHandler                           0x08000183   Thumb Code     0  startup_gd32e501.o(.text)
    SPI0_IRQHandler                          0x08000183   Thumb Code     0  startup_gd32e501.o(.text)
    SPI1_IRQHandler                          0x08000183   Thumb Code     0  startup_gd32e501.o(.text)
    SPI2_IRQHandler                          0x08000183   Thumb Code     0  startup_gd32e501.o(.text)
    TIMER0_BRK_UP_TRG_COM_IRQHandler         0x08000183   Thumb Code     0  startup_gd32e501.o(.text)
    TIMER0_Channel_IRQHandler                0x08000183   Thumb Code     0  startup_gd32e501.o(.text)
    TIMER13_IRQHandler                       0x08000183   Thumb Code     0  startup_gd32e501.o(.text)
    TIMER14_IRQHandler                       0x08000183   Thumb Code     0  startup_gd32e501.o(.text)
    TIMER15_IRQHandler                       0x08000183   Thumb Code     0  startup_gd32e501.o(.text)
    TIMER16_IRQHandler                       0x08000183   Thumb Code     0  startup_gd32e501.o(.text)
    TIMER1_IRQHandler                        0x08000183   Thumb Code     0  startup_gd32e501.o(.text)
    TIMER2_IRQHandler                        0x08000183   Thumb Code     0  startup_gd32e501.o(.text)
    TIMER5_DAC0_1_IRQHandler                 0x08000183   Thumb Code     0  startup_gd32e501.o(.text)
    TIMER6_DAC2_3_IRQHandler                 0x08000183   Thumb Code     0  startup_gd32e501.o(.text)
    USART0_IRQHandler                        0x08000183   Thumb Code     0  startup_gd32e501.o(.text)
    USART1_IRQHandler                        0x08000183   Thumb Code     0  startup_gd32e501.o(.text)
    WWDGT_IRQHandler                         0x08000183   Thumb Code     0  startup_gd32e501.o(.text)
    __aeabi_memcpy                           0x0800018d   Thumb Code    36  memcpya.o(.text)
    __aeabi_memcpy4                          0x0800018d   Thumb Code     0  memcpya.o(.text)
    __aeabi_memcpy8                          0x0800018d   Thumb Code     0  memcpya.o(.text)
    __aeabi_memset                           0x080001b1   Thumb Code    14  memseta.o(.text)
    __aeabi_memset4                          0x080001b1   Thumb Code     0  memseta.o(.text)
    __aeabi_memset8                          0x080001b1   Thumb Code     0  memseta.o(.text)
    __aeabi_memclr                           0x080001bf   Thumb Code     4  memseta.o(.text)
    __aeabi_memclr4                          0x080001bf   Thumb Code     0  memseta.o(.text)
    __aeabi_memclr8                          0x080001bf   Thumb Code     0  memseta.o(.text)
    _memset$wrapper                          0x080001c3   Thumb Code    18  memseta.o(.text)
    __aeabi_dadd                             0x080001d5   Thumb Code   322  dadd.o(.text)
    __aeabi_dsub                             0x08000317   Thumb Code     6  dadd.o(.text)
    __aeabi_drsub                            0x0800031d   Thumb Code     6  dadd.o(.text)
    __aeabi_dmul                             0x08000323   Thumb Code   228  dmul.o(.text)
    __aeabi_ddiv                             0x08000407   Thumb Code   222  ddiv.o(.text)
    __aeabi_i2d                              0x080004e5   Thumb Code    34  dflti.o(.text)
    __aeabi_ui2d                             0x08000507   Thumb Code    26  dfltui.o(.text)
    __aeabi_d2iz                             0x08000521   Thumb Code    62  dfixi.o(.text)
    __aeabi_llsl                             0x0800055f   Thumb Code    30  llshl.o(.text)
    _ll_shift_l                              0x0800055f   Thumb Code     0  llshl.o(.text)
    __aeabi_llsr                             0x0800057d   Thumb Code    32  llushr.o(.text)
    _ll_ushift_r                             0x0800057d   Thumb Code     0  llushr.o(.text)
    __aeabi_lasr                             0x0800059d   Thumb Code    36  llsshr.o(.text)
    _ll_sshift_r                             0x0800059d   Thumb Code     0  llsshr.o(.text)
    __I$use$fp                               0x080005c1   Thumb Code     0  iusefp.o(.text)
    _double_round                            0x080005c1   Thumb Code    30  depilogue.o(.text)
    _double_epilogue                         0x080005df   Thumb Code   156  depilogue.o(.text)
    __scatterload                            0x0800067d   Thumb Code    28  init.o(.text)
    __scatterload_rt2                        0x0800067d   Thumb Code     0  init.o(.text)
    ADC_Config_Initial                       0x080006a1   Thumb Code    74  gd32e501_initialize.o(.text.ADC_Config_Initial)
    Acaaia_LDD_Direct_Control                0x080006ed   Thumb Code   116  acacia_sip_ldd.o(.text.Acaaia_LDD_Direct_Control)
    Acaaia_TIA_Direct_Control                0x08000761   Thumb Code   224  acacia_tia.o(.text.Acaaia_TIA_Direct_Control)
    Acacia_LDD_Interface_test                0x08000841   Thumb Code    26  acacia_sip_ldd.o(.text.Acacia_LDD_Interface_test)
    Acacia_LDD_Read_ALL                      0x0800085d   Thumb Code   302  acacia_sip_ldd.o(.text.Acacia_LDD_Read_ALL)
    Acacia_LDD_Write_ALL                     0x0800098d   Thumb Code   270  acacia_sip_ldd.o(.text.Acacia_LDD_Write_ALL)
    Acacia_TIA_Interfacer_test               0x08000a9d   Thumb Code    50  acacia_tia.o(.text.Acacia_TIA_Interfacer_test)
    Acacia_TIA_Read_ALL                      0x08000ad1   Thumb Code   474  acacia_tia.o(.text.Acacia_TIA_Read_ALL)
    Acacia_TIA_Write_ALL                     0x08000cad   Thumb Code   524  acacia_tia.o(.text.Acacia_TIA_Write_ALL)
    BIAS_TxPower_Monitor                     0x08000eb9   Thumb Code  2428  qsfpdd_msa_ddmi.o(.text.BIAS_TxPower_Monitor)
    BRCM_Control_READ_Data                   0x08001835   Thumb Code   248  dsp.o(.text.BRCM_Control_READ_Data)
    BRCM_Control_WRITE_Data                  0x0800192d   Thumb Code   244  dsp.o(.text.BRCM_Control_WRITE_Data)
    BRCM_READ_Data                           0x08001a21   Thumb Code   246  dsp.o(.text.BRCM_READ_Data)
    BRCM_WRITE_Data                          0x08001b19   Thumb Code   238  dsp.o(.text.BRCM_WRITE_Data)
    CAL_Function                             0x08001c09   Thumb Code    72  qsfpdd_msa_ddmi.o(.text.CAL_Function)
    CMIS40_RXLOS_LOL_AW                      0x08001c51   Thumb Code   304  qsfpdd_msa_aw.o(.text.CMIS40_RXLOS_LOL_AW)
    CMIS40_TXLOS_LOL_AW                      0x08001d81   Thumb Code   328  qsfpdd_msa_aw.o(.text.CMIS40_TXLOS_LOL_AW)
    Calculate_Page01h_Checksum               0x08001ec9   Thumb Code    92  qsfpdd_msa_statemachine.o(.text.Calculate_Page01h_Checksum)
    CheckSum_Calculate                       0x08001f25   Thumb Code   148  poweron_table.o(.text.CheckSum_Calculate)
    Clear_Flag                               0x08001fb9   Thumb Code   766  qsfpdd_msa_aw.o(.text.Clear_Flag)
    Clear_Module_state_Byte8                 0x080022b9   Thumb Code    82  qsfpdd_msa_aw.o(.text.Clear_Module_state_Byte8)
    Clear_VCC_TEMP_Flag                      0x0800230d   Thumb Code   112  qsfpdd_msa_aw.o(.text.Clear_VCC_TEMP_Flag)
    Configuration_Error_code_Feedback        0x0800237d   Thumb Code   236  qsfpdd_msa_optional_control.o(.text.Configuration_Error_code_Feedback)
    DDMI_AW_Monitor                          0x08002469   Thumb Code    12  qsfpdd_msa_aw.o(.text.DDMI_AW_Monitor)
    DSP87400_CAPI_CW_CMD                     0x08002475   Thumb Code    62  dsp.o(.text.DSP87400_CAPI_CW_CMD)
    DSP87400_CAPI_Command_response           0x080024b5   Thumb Code   168  dsp.o(.text.DSP87400_CAPI_Command_response)
    DSP87400_EEPROM_AVS_UcReady_CHECK        0x0800255d   Thumb Code   106  dsp.o(.text.DSP87400_EEPROM_AVS_UcReady_CHECK)
    DSP87400_PAM4_COMMAND_ID_SET_CONFIG_INFO_CORE_IP_CW 0x080025c9   Thumb Code   234  dsp.o(.text.DSP87400_PAM4_COMMAND_ID_SET_CONFIG_INFO_CORE_IP_CW)
    DSP87400_host_cfg_st_lane_cw_cfg_rdy     0x080026b5   Thumb Code    92  dsp.o(.text.DSP87400_host_cfg_st_lane_cw_cfg_rdy)
    DSP87400_host_lane_cfg_done              0x08002711   Thumb Code   132  dsp.o(.text.DSP87400_host_lane_cfg_done)
    DSP87400_line_cfg_st_lane_cw_cfg_rdy     0x08002795   Thumb Code    52  dsp.o(.text.DSP87400_line_cfg_st_lane_cw_cfg_rdy)
    DSP87400_line_lane_cfg_done              0x080027c9   Thumb Code   102  dsp.o(.text.DSP87400_line_lane_cfg_done)
    DSP_Init                                 0x08002831   Thumb Code    84  dsp.o(.text.DSP_Init)
    DSP_LineSide_Loopback_SET                0x08002885   Thumb Code   402  dsp_line_side.o(.text.DSP_LineSide_Loopback_SET)
    DSP_LineSide_PRBS_Info_GET               0x08002a19   Thumb Code   528  dsp_line_side.o(.text.DSP_LineSide_PRBS_Info_GET)
    DSP_LineSide_TRX_Polarity_SET            0x08002c29   Thumb Code   584  dsp_line_side.o(.text.DSP_LineSide_TRX_Polarity_SET)
    DSP_LineSide_TX_FIR_SET                  0x08002e71   Thumb Code   942  dsp_line_side.o(.text.DSP_LineSide_TX_FIR_SET)
    DSP_Line_Side_Digital_Loopback_SET       0x08003221   Thumb Code    50  dsp_line_side.o(.text.DSP_Line_Side_Digital_Loopback_SET)
    DSP_Line_Side_LOL                        0x08003255   Thumb Code    92  dsp_line_side.o(.text.DSP_Line_Side_LOL)
    DSP_Line_Side_PRBS_SET                   0x080032b1   Thumb Code   440  dsp_line_side.o(.text.DSP_Line_Side_PRBS_SET)
    DSP_Line_Side_Remote_Loopback_SET        0x08003469   Thumb Code    50  dsp_line_side.o(.text.DSP_Line_Side_Remote_Loopback_SET)
    DSP_PowerON_Seq_Control                  0x0800349d   Thumb Code    82  poweron_sequencing.o(.text.DSP_PowerON_Seq_Control)
    DSP_SystemSide_Loopback_SET              0x080034f1   Thumb Code   668  dsp_system_side.o(.text.DSP_SystemSide_Loopback_SET)
    DSP_SystemSide_PRBS_Info_GET             0x0800378d   Thumb Code   646  dsp_system_side.o(.text.DSP_SystemSide_PRBS_Info_GET)
    DSP_SystemSide_TRX_Polarity_SET          0x08003a15   Thumb Code  1116  dsp_system_side.o(.text.DSP_SystemSide_TRX_Polarity_SET)
    DSP_SystemSide_TRX_Squelch_SET           0x08003e71   Thumb Code   668  dsp_system_side.o(.text.DSP_SystemSide_TRX_Squelch_SET)
    DSP_System_Side_Digital_Loopback_SET     0x0800410d   Thumb Code    50  dsp_system_side.o(.text.DSP_System_Side_Digital_Loopback_SET)
    DSP_System_Side_LOL                      0x08004141   Thumb Code   160  dsp_system_side.o(.text.DSP_System_Side_LOL)
    DSP_System_Side_PRBS_SET                 0x080041e1   Thumb Code   642  dsp_system_side.o(.text.DSP_System_Side_PRBS_SET)
    DSP_System_Side_RX_Squelch_SET           0x08004465   Thumb Code    50  dsp_system_side.o(.text.DSP_System_Side_RX_Squelch_SET)
    DSP_System_Side_Remote_Loopback_SET      0x08004499   Thumb Code    50  dsp_system_side.o(.text.DSP_System_Side_Remote_Loopback_SET)
    DSP_System_Side_TX_FIR_SET               0x080044cd   Thumb Code  1610  dsp_system_side.o(.text.DSP_System_Side_TX_FIR_SET)
    DSP_System_Side_TX_Squelch_SET           0x08004b19   Thumb Code    50  dsp_system_side.o(.text.DSP_System_Side_TX_Squelch_SET)
    Delay_I2C1                               0x08004b4d   Thumb Code    24  gd32e501_m_i2c1_pb34.o(.text.Delay_I2C1)
    Delay_I2C2                               0x08004b65   Thumb Code    24  gd32e501_m_i2c2_pc78.o(.text.Delay_I2C2)
    Device_Table_Get_Data                    0x08004b7d   Thumb Code   208  poweron_table.o(.text.Device_Table_Get_Data)
    EXTI0_1_IRQHandler                       0x08004c4d   Thumb Code     2  gd32e501_it.o(.text.EXTI0_1_IRQHandler)
    GD32E501_GPIO_Analogy_initial            0x08004c51   Thumb Code   234  gd32e501_initialize.o(.text.GD32E501_GPIO_Analogy_initial)
    GD32E501_GPIO_OP_initial                 0x08004d3d   Thumb Code   108  gd32e501_initialize.o(.text.GD32E501_GPIO_OP_initial)
    GD32E501_GPIO_PP_initial                 0x08004da9   Thumb Code   316  gd32e501_initialize.o(.text.GD32E501_GPIO_PP_initial)
    GD32E501_Power_on_Initial                0x08004ee5   Thumb Code    40  gd32e501_initialize.o(.text.GD32E501_Power_on_Initial)
    GDMCU_FLash_WordWrite                    0x08004f0d   Thumb Code   150  gd32e501_flash_rw.o(.text.GDMCU_FLash_WordWrite)
    GDMCU_FMC_BytesWRITE_FUNCTION            0x08004fa5   Thumb Code   264  gd32e501_flash_rw.o(.text.GDMCU_FMC_BytesWRITE_FUNCTION)
    GDMCU_FMC_READ_DATA                      0x080050ad   Thumb Code    24  gd32e501_flash_rw.o(.text.GDMCU_FMC_READ_DATA)
    GDMCU_FMC_READ_FUNCTION                  0x080050c5   Thumb Code    74  gd32e501_flash_rw.o(.text.GDMCU_FMC_READ_FUNCTION)
    GDMCU_Flash_Erase                        0x08005111   Thumb Code    42  gd32e501_flash_rw.o(.text.GDMCU_Flash_Erase)
    GD_System_Periph_Clock_Enable            0x0800513d   Thumb Code   118  gd32e501_initialize.o(.text.GD_System_Periph_Clock_Enable)
    GET_ADC_Value_Data                       0x080051b9   Thumb Code   160  gd32e501_adc_control.o(.text.GET_ADC_Value_Data)
    GET_GD_Temperature                       0x08005259   Thumb Code   248  gd32e501_adc_control.o(.text.GET_GD_Temperature)
    GPIO_Configuration_I2C1                  0x08005351   Thumb Code   144  gd32e501_m_i2c1_pb34.o(.text.GPIO_Configuration_I2C1)
    GPIO_Configuration_I2C2_PC78             0x080053e1   Thumb Code   146  gd32e501_m_i2c2_pc78.o(.text.GPIO_Configuration_I2C2_PC78)
    Get_AppSelCode_Result                    0x08005475   Thumb Code    56  qsfpdd_msa_statemachine.o(.text.Get_AppSelCode_Result)
    Get_CH_Data                              0x080054ad   Thumb Code    66  poweron_table.o(.text.Get_CH_Data)
    Get_LineSide_PRBS_Pattern                0x080054f1   Thumb Code   318  qsfpdd_msa_optional_control.o(.text.Get_LineSide_PRBS_Pattern)
    Get_NRZ_Default_System_Side              0x08005631   Thumb Code    76  dsp.o(.text.Get_NRZ_Default_System_Side)
    Get_Power_C_Status                       0x0800567d   Thumb Code   254  poweron_sequencing.o(.text.Get_Power_C_Status)
    Get_QDD_MSA_Optional_Control_Table       0x0800577d   Thumb Code   120  poweron_table.o(.text.Get_QDD_MSA_Optional_Control_Table)
    Get_Rx_Output_Max_Value                  0x080057f5   Thumb Code    64  qsfpdd_msa_optional_control.o(.text.Get_Rx_Output_Max_Value)
    Get_SystemSide_PRBS_Pattern              0x08005835   Thumb Code   318  qsfpdd_msa_optional_control.o(.text.Get_SystemSide_PRBS_Pattern)
    Get_module_Power_Monitor                 0x08005975   Thumb Code   110  qsfpdd_msa_statemachine.o(.text.Get_module_Power_Monitor)
    HOST_Side_Generator_Pattern_Control_P13  0x080059e5   Thumb Code   702  qsfpdd_msa_optional_control.o(.text.HOST_Side_Generator_Pattern_Control_P13)
    HardFault_Handler                        0x08005ca5   Thumb Code     4  gd32e501_it.o(.text.HardFault_Handler)
    Host_Side_LoopBack_P13                   0x08005ca9   Thumb Code   756  qsfpdd_msa_optional_control.o(.text.Host_Side_LoopBack_P13)
    I2C0_ER_IRQHandler                       0x08005f9d   Thumb Code   288  gd32e501_s_i2c0_pb67.o(.text.I2C0_ER_IRQHandler)
    I2C0_EV_IRQHandler                       0x080060bd   Thumb Code  2186  gd32e501_s_i2c0_pb67.o(.text.I2C0_EV_IRQHandler)
    Init_Rx_Output_Values                    0x08006949   Thumb Code   426  poweron_table.o(.text.Init_Rx_Output_Values)
    Internal_Voltage_Power_Down              0x08006af5   Thumb Code   168  poweron_sequencing.o(.text.Internal_Voltage_Power_Down)
    Internal_Voltage_Power_up_Seq            0x08006b9d   Thumb Code   244  poweron_sequencing.o(.text.Internal_Voltage_Power_up_Seq)
    Line_Side_ALL_CH1_CH4_Control_P86        0x08006c91   Thumb Code   104  dsp_line_side.o(.text.Line_Side_ALL_CH1_CH4_Control_P86)
    MCU_READ_WRITE_DEIVCE_COMMAND_CONTROL    0x08006cf9   Thumb Code   228  poweron_sequencing.o(.text.MCU_READ_WRITE_DEIVCE_COMMAND_CONTROL)
    MI2C1_WordADR_R_PB34                     0x08006ddd   Thumb Code   694  gd32e501_m_i2c1_pb34.o(.text.MI2C1_WordADR_R_PB34)
    MI2C1_WordADR_W_PB34                     0x08007095   Thumb Code   626  gd32e501_m_i2c1_pb34.o(.text.MI2C1_WordADR_W_PB34)
    MI2C2_WordADR_R_PC78                     0x08007309   Thumb Code   704  gd32e501_m_i2c2_pc78.o(.text.MI2C2_WordADR_R_PC78)
    MI2C2_WordADR_W_PC78                     0x080075c9   Thumb Code   578  gd32e501_m_i2c2_pc78.o(.text.MI2C2_WordADR_W_PC78)
    MP5490_Direct_Control                    0x0800780d   Thumb Code   116  mps5490_idac.o(.text.MP5490_Direct_Control)
    MP5490_LDD_Interface_test                0x08007881   Thumb Code   228  mps5490_idac.o(.text.MP5490_LDD_Interface_test)
    MP5490_Read_AllData                      0x08007965   Thumb Code   440  mps5490_idac.o(.text.MP5490_Read_AllData)
    MP5490_Write_Control_Data                0x08007b1d   Thumb Code   256  mps5490_idac.o(.text.MP5490_Write_Control_Data)
    MSA_Configure_Appsel_CODE_Check          0x08007c1d   Thumb Code  1266  qsfpdd_msa_statemachine.o(.text.MSA_Configure_Appsel_CODE_Check)
    MSA_DDMI_Function                        0x08008111   Thumb Code   180  qsfpdd_msa_statemachine.o(.text.MSA_DDMI_Function)
    MSA_DataPathState_P11H_80                0x080081c5   Thumb Code    60  qsfpdd_msa_statemachine.o(.text.MSA_DataPathState_P11H_80)
    MSA_Rx_OUTPUT_Control_P10H_8A            0x08008201   Thumb Code   354  qsfpdd_msa_statemachine.o(.text.MSA_Rx_OUTPUT_Control_P10H_8A)
    MSA_Tx_Squelch_Control_P10H_83           0x08008365   Thumb Code   380  qsfpdd_msa_statemachine.o(.text.MSA_Tx_Squelch_Control_P10H_83)
    Master_I2C1_ByteREAD_PB34                0x080084e1   Thumb Code   500  gd32e501_m_i2c1_pb34.o(.text.Master_I2C1_ByteREAD_PB34)
    Master_I2C1_ByteWrite_PB34               0x080086d5   Thumb Code   438  gd32e501_m_i2c1_pb34.o(.text.Master_I2C1_ByteWrite_PB34)
    Master_I2C1_PB34_Init                    0x0800888d   Thumb Code    86  gd32e501_m_i2c1_pb34.o(.text.Master_I2C1_PB34_Init)
    Master_I2C1_PB34_Initial                 0x080088e5   Thumb Code   170  gd32e501_initialize.o(.text.Master_I2C1_PB34_Initial)
    Master_I2C2_ByteREAD_PC78                0x08008991   Thumb Code   508  gd32e501_m_i2c2_pc78.o(.text.Master_I2C2_ByteREAD_PC78)
    Master_I2C2_ByteWrite_PC78               0x08008b8d   Thumb Code   378  gd32e501_m_i2c2_pc78.o(.text.Master_I2C2_ByteWrite_PC78)
    Master_I2C2_PB78_Init                    0x08008d09   Thumb Code    86  gd32e501_m_i2c2_pc78.o(.text.Master_I2C2_PB78_Init)
    Master_I2C2_PC78_Initial                 0x08008d61   Thumb Code   176  gd32e501_initialize.o(.text.Master_I2C2_PC78_Initial)
    Media_Side_Generator_Pattern_Control_P13 0x08008e11   Thumb Code   702  qsfpdd_msa_optional_control.o(.text.Media_Side_Generator_Pattern_Control_P13)
    Media_Side_LoopBack_P13                  0x080090d1   Thumb Code   756  qsfpdd_msa_optional_control.o(.text.Media_Side_LoopBack_P13)
    ModSelL_Function                         0x080093c5   Thumb Code    54  poweron_sequencing.o(.text.ModSelL_Function)
    Modeule_MGMT_INIT                        0x080093fd   Thumb Code   204  qsfpdd_msa_statemachine.o(.text.Modeule_MGMT_INIT)
    Module_Global_Control_P0H_26             0x080094c9   Thumb Code    72  qsfpdd_msa_statemachine.o(.text.Module_Global_Control_P0H_26)
    Module_State_P0H_03                      0x08009511   Thumb Code    28  qsfpdd_msa_statemachine.o(.text.Module_State_P0H_03)
    NMI_Handler                              0x0800952d   Thumb Code     2  gd32e501_it.o(.text.NMI_Handler)
    P13_diagnostic_features                  0x08009531   Thumb Code    20  qsfpdd_msa_optional_control.o(.text.P13_diagnostic_features)
    Page13_Default                           0x08009545   Thumb Code    68  poweron_table.o(.text.Page13_Default)
    PassWord_Function                        0x08009589   Thumb Code   230  gd32e501_s_i2c0_pb67.o(.text.PassWord_Function)
    PendSV_Handler                           0x08009671   Thumb Code     2  gd32e501_it.o(.text.PendSV_Handler)
    PowerON_Table_Init                       0x08009675   Thumb Code    28  poweron_table.o(.text.PowerON_Table_Init)
    PowerOn_Sequencing_Control               0x08009691   Thumb Code    16  poweron_sequencing.o(.text.PowerOn_Sequencing_Control)
    QDD_DSP_Tap_ReLoader                     0x080096a1   Thumb Code   424  qsfpdd_msa_optional_control.o(.text.QDD_DSP_Tap_ReLoader)
    QDD_MSA_CTLE_PRE_POST_AMP_CONTROL        0x08009849   Thumb Code    72  qsfpdd_msa_optional_control.o(.text.QDD_MSA_CTLE_PRE_POST_AMP_CONTROL)
    QDD_MSA_Init_SETTING                     0x08009891   Thumb Code    52  poweron_table.o(.text.QDD_MSA_Init_SETTING)
    QDD_MSA_PAGE11_ControlByte               0x080098c5   Thumb Code   198  poweron_table.o(.text.QDD_MSA_PAGE11_ControlByte)
    QSFPDD_DDMI_ONLY_ADC_GET                 0x0800998d   Thumb Code    28  qsfpdd_msa_statemachine.o(.text.QSFPDD_DDMI_ONLY_ADC_GET)
    QSFPDD_DDMI_StateMachine                 0x080099a9   Thumb Code   340  qsfpdd_msa_ddmi.o(.text.QSFPDD_DDMI_StateMachine)
    QSFPDD_MSA_StateMachine                  0x08009afd   Thumb Code  1334  qsfpdd_msa_statemachine.o(.text.QSFPDD_MSA_StateMachine)
    QSFPDD_RxPower_AW                        0x0800a035   Thumb Code  1008  qsfpdd_msa_aw.o(.text.QSFPDD_RxPower_AW)
    QSFPDD_Table_GetDate                     0x0800a425   Thumb Code    98  poweron_table.o(.text.QSFPDD_Table_GetDate)
    QSFPDD_Temperature_VCC_AW                0x0800a489   Thumb Code   522  qsfpdd_msa_aw.o(.text.QSFPDD_Temperature_VCC_AW)
    RX_AMP_OutSwing_Control                  0x0800a695   Thumb Code   946  qsfpdd_msa_optional_control.o(.text.RX_AMP_OutSwing_Control)
    RX_POWER_M_CH0_CH7                       0x0800aa49   Thumb Code  1906  qsfpdd_msa_ddmi.o(.text.RX_POWER_M_CH0_CH7)
    RX_Post_Control                          0x0800b1bd   Thumb Code   818  qsfpdd_msa_optional_control.o(.text.RX_Post_Control)
    RX_Pre_Control                           0x0800b4f1   Thumb Code   818  qsfpdd_msa_optional_control.o(.text.RX_Pre_Control)
    Resume_IIC                               0x0800b825   Thumb Code   244  gd32e501_m_i2c2_pc78.o(.text.Resume_IIC)
    Resume_IIC_I2C1                          0x0800b919   Thumb Code   242  gd32e501_m_i2c1_pb34.o(.text.Resume_IIC_I2C1)
    Rx_Output_Limit_Check                    0x0800ba0d   Thumb Code  3016  qsfpdd_msa_optional_control.o(.text.Rx_Output_Limit_Check)
    SET_CHIP_MODE_2X53G_KP4PAM_TO_1X106G_KP4PAM 0x0800c5d5   Thumb Code   174  dsp.o(.text.SET_CHIP_MODE_2X53G_KP4PAM_TO_1X106G_KP4PAM)
    SET_DSP_CHIP_MODE                        0x0800c685   Thumb Code    48  dsp.o(.text.SET_DSP_CHIP_MODE)
    SET_Power_Control                        0x0800c6b5   Thumb Code   322  poweron_sequencing.o(.text.SET_Power_Control)
    SRMA_Flash_Function                      0x0800c7f9   Thumb Code   172  gd32e501_s_i2c0_pb67.o(.text.SRMA_Flash_Function)
    SVC_Handler                              0x0800c8a5   Thumb Code     2  gd32e501_it.o(.text.SVC_Handler)
    Slave_I2C0_PB67_Initial                  0x0800c8a9   Thumb Code   188  gd32e501_initialize.o(.text.Slave_I2C0_PB67_Initial)
    Swap_Bytes                               0x0800c965   Thumb Code    30  gd32e501_flash_rw.o(.text.Swap_Bytes)
    SysTick_Handler                          0x0800c9d9   Thumb Code     8  gd32e501_it.o(.text.SysTick_Handler)
    SystemInit                               0x0800c9e1   Thumb Code   212  system_gd32e501.o(.text.SystemInit)
    System_Side_ALL_CH1_CH4_Control_P87      0x0800cab5   Thumb Code   104  dsp_system_side.o(.text.System_Side_ALL_CH1_CH4_Control_P87)
    System_Side_ALL_CH1_CH4_Control_P8E      0x0800cb1d   Thumb Code   112  dsp_system_side.o(.text.System_Side_ALL_CH1_CH4_Control_P8E)
    TEST_DSP_Command_Direct_Control          0x0800cb8d   Thumb Code   110  dsp.o(.text.TEST_DSP_Command_Direct_Control)
    TX_DIS_FUNCTION                          0x0800cbfd   Thumb Code   440  qsfpdd_msa_statemachine.o(.text.TX_DIS_FUNCTION)
    Temp_CAL                                 0x0800cdb5   Thumb Code    74  qsfpdd_msa_ddmi.o(.text.Temp_CAL)
    Temperature_Monitor                      0x0800ce01   Thumb Code   168  qsfpdd_msa_ddmi.o(.text.Temperature_Monitor)
    Trigger_CMD_Update_DSP_REG               0x0800cea9   Thumb Code    16  dsp.o(.text.Trigger_CMD_Update_DSP_REG)
    Update_SRAM_Data                         0x0800ceb9   Thumb Code  1890  gd32e501_s_i2c0_pb67.o(.text.Update_SRAM_Data)
    VCC_Monitor                              0x0800d61d   Thumb Code    92  qsfpdd_msa_ddmi.o(.text.VCC_Monitor)
    Write_SRAM_TO_Flash                      0x0800d679   Thumb Code  2490  gd32e501_s_i2c0_pb67.o(.text.Write_SRAM_TO_Flash)
    adc_calibration_enable                   0x0800e119   Thumb Code    78  gd32e501_adc.o(.text.adc_calibration_enable)
    adc_channel_length_config                0x0800e169   Thumb Code   118  gd32e501_adc.o(.text.adc_channel_length_config)
    adc_data_alignment_config                0x0800e1e1   Thumb Code    52  gd32e501_adc.o(.text.adc_data_alignment_config)
    adc_enable                               0x0800e215   Thumb Code    38  gd32e501_adc.o(.text.adc_enable)
    adc_external_trigger_config              0x0800e23d   Thumb Code   152  gd32e501_adc.o(.text.adc_external_trigger_config)
    adc_external_trigger_source_config       0x0800e2d5   Thumb Code   102  gd32e501_adc.o(.text.adc_external_trigger_source_config)
    adc_flag_clear                           0x0800e33d   Thumb Code    26  gd32e501_adc.o(.text.adc_flag_clear)
    adc_flag_get                             0x0800e359   Thumb Code    44  gd32e501_adc.o(.text.adc_flag_get)
    adc_inserted_channel_config              0x0800e385   Thumb Code   256  gd32e501_adc.o(.text.adc_inserted_channel_config)
    adc_software_trigger_enable              0x0800e485   Thumb Code    72  gd32e501_adc.o(.text.adc_software_trigger_enable)
    adc_special_function_config              0x0800e4cd   Thumb Code   208  gd32e501_adc.o(.text.adc_special_function_config)
    adc_tempsensor_vrefint_enable            0x0800e59d   Thumb Code    18  gd32e501_adc.o(.text.adc_tempsensor_vrefint_enable)
    delay_1ms                                0x0800e5b1   Thumb Code    40  systick.o(.text.delay_1ms)
    delay_decrement                          0x0800e5d9   Thumb Code    34  systick.o(.text.delay_decrement)
    fmc_bank0_flag_clear                     0x0800e5fd   Thumb Code    24  gd32e501_fmc.o(.text.fmc_bank0_flag_clear)
    fmc_bank0_ready_wait                     0x0800e615   Thumb Code    92  gd32e501_fmc.o(.text.fmc_bank0_ready_wait)
    fmc_bank0_state_get                      0x0800e671   Thumb Code    98  gd32e501_fmc.o(.text.fmc_bank0_state_get)
    fmc_bank1_ready_wait                     0x0800e6d5   Thumb Code    92  gd32e501_fmc.o(.text.fmc_bank1_ready_wait)
    fmc_bank1_state_get                      0x0800e731   Thumb Code    98  gd32e501_fmc.o(.text.fmc_bank1_state_get)
    fmc_lock                                 0x0800e795   Thumb Code    34  gd32e501_fmc.o(.text.fmc_lock)
    fmc_page_erase                           0x0800e7b9   Thumb Code   428  gd32e501_fmc.o(.text.fmc_page_erase)
    fmc_unlock                               0x0800e965   Thumb Code    98  gd32e501_fmc.o(.text.fmc_unlock)
    fwdgt_config                             0x0800e9c9   Thumb Code   262  gd32e501_fwdgt.o(.text.fwdgt_config)
    fwdgt_enable                             0x0800ead1   Thumb Code    16  gd32e501_fwdgt.o(.text.fwdgt_enable)
    gpio_af_set                              0x0800eae1   Thumb Code   220  gd32e501_gpio.o(.text.gpio_af_set)
    gpio_bit_reset                           0x0800ebbd   Thumb Code    16  gd32e501_gpio.o(.text.gpio_bit_reset)
    gpio_bit_set                             0x0800ebcd   Thumb Code    16  gd32e501_gpio.o(.text.gpio_bit_set)
    gpio_input_bit_get                       0x0800ebdd   Thumb Code    42  gd32e501_gpio.o(.text.gpio_input_bit_get)
    gpio_mode_set                            0x0800ec09   Thumb Code   160  gd32e501_gpio.o(.text.gpio_mode_set)
    gpio_output_bit_get                      0x0800eca9   Thumb Code    42  gd32e501_gpio.o(.text.gpio_output_bit_get)
    gpio_output_options_set                  0x0800ecd5   Thumb Code   154  gd32e501_gpio.o(.text.gpio_output_options_set)
    i2c_address_config                       0x0800ed71   Thumb Code    40  gd32e501_i2c.o(.text.i2c_address_config)
    i2c_automatic_end_disable                0x0800ed99   Thumb Code    18  gd32e501_i2c.o(.text.i2c_automatic_end_disable)
    i2c_automatic_end_enable                 0x0800edad   Thumb Code    18  gd32e501_i2c.o(.text.i2c_automatic_end_enable)
    i2c_data_receive                         0x0800edc1   Thumb Code    14  gd32e501_i2c.o(.text.i2c_data_receive)
    i2c_data_transmit                        0x0800edd1   Thumb Code    18  gd32e501_i2c.o(.text.i2c_data_transmit)
    i2c_deinit                               0x0800ede5   Thumb Code   116  gd32e501_i2c.o(.text.i2c_deinit)
    i2c_disable                              0x0800ee59   Thumb Code    18  gd32e501_i2c.o(.text.i2c_disable)
    i2c_enable                               0x0800ee6d   Thumb Code    18  gd32e501_i2c.o(.text.i2c_enable)
    i2c_flag_clear                           0x0800ee81   Thumb Code    20  gd32e501_i2c.o(.text.i2c_flag_clear)
    i2c_flag_get                             0x0800ee95   Thumb Code    42  gd32e501_i2c.o(.text.i2c_flag_get)
    i2c_idle_clock_timeout_config            0x0800eec1   Thumb Code    30  gd32e501_i2c.o(.text.i2c_idle_clock_timeout_config)
    i2c_interrupt_enable                     0x0800eee1   Thumb Code    20  gd32e501_i2c.o(.text.i2c_interrupt_enable)
    i2c_interrupt_flag_clear                 0x0800eef5   Thumb Code    30  gd32e501_i2c.o(.text.i2c_interrupt_flag_clear)
    i2c_interrupt_flag_get                   0x0800ef15   Thumb Code   100  gd32e501_i2c.o(.text.i2c_interrupt_flag_get)
    i2c_master_addressing                    0x0800ef79   Thumb Code    54  gd32e501_i2c.o(.text.i2c_master_addressing)
    i2c_master_clock_config                  0x0800efb1   Thumb Code    60  gd32e501_i2c.o(.text.i2c_master_clock_config)
    i2c_reload_disable                       0x0800efed   Thumb Code    18  gd32e501_i2c.o(.text.i2c_reload_disable)
    i2c_reload_enable                        0x0800f001   Thumb Code    18  gd32e501_i2c.o(.text.i2c_reload_enable)
    i2c_start_on_bus                         0x0800f015   Thumb Code    18  gd32e501_i2c.o(.text.i2c_start_on_bus)
    i2c_stop_on_bus                          0x0800f029   Thumb Code    18  gd32e501_i2c.o(.text.i2c_stop_on_bus)
    i2c_timing_config                        0x0800f03d   Thumb Code    92  gd32e501_i2c.o(.text.i2c_timing_config)
    i2c_transfer_byte_number_config          0x0800f099   Thumb Code    32  gd32e501_i2c.o(.text.i2c_transfer_byte_number_config)
    irc40k_config                            0x0800f0b9   Thumb Code    24  gd32e501_initialize.o(.text.irc40k_config)
    main                                     0x0800f0d1   Thumb Code    60  gd_qsfp56_fr4_main.o(.text.main)
    nvic_irq_enable                          0x0800f10d   Thumb Code    44  gd32e501_misc.o(.text.nvic_irq_enable)
    nvic_vector_table_set                    0x0800f139   Thumb Code    36  gd32e501_misc.o(.text.nvic_vector_table_set)
    rcu_adc_clock_config                     0x0800f15d   Thumb Code   430  gd32e501_rcu.o(.text.rcu_adc_clock_config)
    rcu_flag_get                             0x0800f30d   Thumb Code    66  gd32e501_rcu.o(.text.rcu_flag_get)
    rcu_osci_on                              0x0800f351   Thumb Code    46  gd32e501_rcu.o(.text.rcu_osci_on)
    rcu_osci_stab_wait                       0x0800f381   Thumb Code   610  gd32e501_rcu.o(.text.rcu_osci_stab_wait)
    rcu_periph_clock_disable                 0x0800f5e5   Thumb Code    46  gd32e501_rcu.o(.text.rcu_periph_clock_disable)
    rcu_periph_clock_enable                  0x0800f615   Thumb Code    46  gd32e501_rcu.o(.text.rcu_periph_clock_enable)
    rcu_periph_reset_disable                 0x0800f645   Thumb Code    46  gd32e501_rcu.o(.text.rcu_periph_reset_disable)
    rcu_periph_reset_enable                  0x0800f675   Thumb Code    46  gd32e501_rcu.o(.text.rcu_periph_reset_enable)
    syscfg_vref_enable                       0x0800f6a5   Thumb Code    16  gd32e501_syscfg.o(.text.syscfg_vref_enable)
    systick_config                           0x0800f7bd   Thumb Code    60  systick.o(.text.systick_config)
    __scatterload_copy                       0x0800f7f9   Thumb Code    14  handlers.o(i.__scatterload_copy)
    __scatterload_null                       0x0800f807   Thumb Code     2  handlers.o(i.__scatterload_null)
    __scatterload_zeroinit                   0x0800f809   Thumb Code    14  handlers.o(i.__scatterload_zeroinit)
    Region$$Table$$Base                      0x0800f818   Number         0  anon$$obj.o(Region$$Table)
    Region$$Table$$Limit                     0x0800f838   Number         0  anon$$obj.o(Region$$Table)
    Bef_Tx_Disable                           0x20000000   Data           1  poweron_table.o(.data.Bef_Tx_Disable)
    ID_Debug_Info                            0x20000001   Data           9  gd32e501_s_i2c0_pb67.o(.data.ID_Debug_Info)
    INTF_CAPI_SW_CMD_ADR0                    0x2000000c   Data           4  dsp.o(.data.INTF_CAPI_SW_CMD_ADR0)
    INTF_CAPI_SW_CMD_ADR1                    0x20000010   Data           4  dsp.o(.data.INTF_CAPI_SW_CMD_ADR1)
    INTF_CAPI_SW_CMD_DATA0                   0x20000014   Data           4  dsp.o(.data.INTF_CAPI_SW_CMD_DATA0)
    INTF_CAPI_SW_CMD_DATA1                   0x20000018   Data           4  dsp.o(.data.INTF_CAPI_SW_CMD_DATA1)
    MCU_FW_VERSION                           0x2000001c   Data           2  poweron_table.o(.data.MCU_FW_VERSION)
    SHOW_RSSI_CH0                            0x2000001e   Data           1  qsfpdd_msa_ddmi.o(.data.SHOW_RSSI_CH0)
    SHOW_RSSI_CH1                            0x2000001f   Data           1  qsfpdd_msa_ddmi.o(.data.SHOW_RSSI_CH1)
    SHOW_RSSI_CH2                            0x20000020   Data           1  qsfpdd_msa_ddmi.o(.data.SHOW_RSSI_CH2)
    SHOW_RSSI_CH3                            0x20000021   Data           1  qsfpdd_msa_ddmi.o(.data.SHOW_RSSI_CH3)
    SHOW_RSSI_CH4                            0x20000022   Data           1  qsfpdd_msa_ddmi.o(.data.SHOW_RSSI_CH4)
    SHOW_RSSI_CH5                            0x20000023   Data           1  qsfpdd_msa_ddmi.o(.data.SHOW_RSSI_CH5)
    SHOW_RSSI_CH6                            0x20000024   Data           1  qsfpdd_msa_ddmi.o(.data.SHOW_RSSI_CH6)
    SHOW_RSSI_CH7                            0x20000025   Data           1  qsfpdd_msa_ddmi.o(.data.SHOW_RSSI_CH7)
    SystemCoreClock                          0x20000028   Data           4  system_gd32e501.o(.data.SystemCoreClock)
    AMP_C_RX1                                0x20000030   Data           1  qsfpdd_msa_optional_control.o(.bss.AMP_C_RX1)
    AMP_C_RX2                                0x20000031   Data           1  qsfpdd_msa_optional_control.o(.bss.AMP_C_RX2)
    AMP_C_RX3                                0x20000032   Data           1  qsfpdd_msa_optional_control.o(.bss.AMP_C_RX3)
    AMP_C_RX4                                0x20000033   Data           1  qsfpdd_msa_optional_control.o(.bss.AMP_C_RX4)
    AMP_C_RX5                                0x20000034   Data           1  qsfpdd_msa_optional_control.o(.bss.AMP_C_RX5)
    AMP_C_RX6                                0x20000035   Data           1  qsfpdd_msa_optional_control.o(.bss.AMP_C_RX6)
    AMP_C_RX7                                0x20000036   Data           1  qsfpdd_msa_optional_control.o(.bss.AMP_C_RX7)
    AMP_C_RX8                                0x20000037   Data           1  qsfpdd_msa_optional_control.o(.bss.AMP_C_RX8)
    AW_DDMI_Count                            0x20000038   Data           1  qsfpdd_msa_statemachine.o(.bss.AW_DDMI_Count)
    App_SELCode                              0x20000039   Data           1  qsfpdd_msa_statemachine.o(.bss.App_SELCode)
    BIAS_HA_LATCH                            0x2000003a   Data           1  qsfpdd_msa_aw.o(.bss.BIAS_HA_LATCH)
    BIAS_HW_LATCH                            0x2000003b   Data           1  qsfpdd_msa_aw.o(.bss.BIAS_HW_LATCH)
    Bef_Module_Global_Control                0x2000003c   Data           1  qsfpdd_msa_statemachine.o(.bss.Bef_Module_Global_Control)
    Bef_Rx_output                            0x2000003d   Data           1  poweron_table.o(.bss.Bef_Rx_output)
    Bef_Tx_output                            0x2000003e   Data           1  poweron_table.o(.bss.Bef_Tx_output)
    Bias_Current_CH0                         0x20000040   Data           2  qsfpdd_msa_ddmi.o(.bss.Bias_Current_CH0)
    Bias_Current_CH1                         0x20000042   Data           2  qsfpdd_msa_ddmi.o(.bss.Bias_Current_CH1)
    Bias_Current_CH2                         0x20000044   Data           2  qsfpdd_msa_ddmi.o(.bss.Bias_Current_CH2)
    Bias_Current_CH3                         0x20000046   Data           2  qsfpdd_msa_ddmi.o(.bss.Bias_Current_CH3)
    Bias_Current_CH4                         0x20000048   Data           2  qsfpdd_msa_ddmi.o(.bss.Bias_Current_CH4)
    Bias_Current_CH5                         0x2000004a   Data           2  qsfpdd_msa_ddmi.o(.bss.Bias_Current_CH5)
    Bias_Current_CH6                         0x2000004c   Data           2  qsfpdd_msa_ddmi.o(.bss.Bias_Current_CH6)
    Bias_Current_CH7                         0x2000004e   Data           2  qsfpdd_msa_ddmi.o(.bss.Bias_Current_CH7)
    CALIB_MEMORY_1_MAP                       0x20000050   Data         128  poweron_table.o(.bss.CALIB_MEMORY_1_MAP)
    CALIB_MEMORY_MAP                         0x200000d0   Data         128  poweron_table.o(.bss.CALIB_MEMORY_MAP)
    COMMAND_4700_DATA                        0x20000150   Data          72  dsp_line_side.o(.bss.COMMAND_4700_DATA)
    CTEL_Table                               0x20000198   Data          16  poweron_table.o(.bss.CTEL_Table)
    Clear_Correct_ADR                        0x200001a8   Data           1  gd32e501_s_i2c0_pb67.o(.bss.Clear_Correct_ADR)
    Config_Error_flag                        0x200001a9   Data           1  qsfpdd_msa_optional_control.o(.bss.Config_Error_flag)
    DATA_LEGHT                               0x200001aa   Data           1  gd32e501_s_i2c0_pb67.o(.bss.DATA_LEGHT)
    DDMI_DataCount                           0x200001ac   Data           2  qsfpdd_msa_statemachine.o(.bss.DDMI_DataCount)
    DDMI_Enable                              0x200001ae   Data           1  qsfpdd_msa_statemachine.o(.bss.DDMI_Enable)
    DDMI_Update_C                            0x200001af   Data           1  qsfpdd_msa_statemachine.o(.bss.DDMI_Update_C)
    DSP_Direct_Control_MEMORY_MAP            0x200001b0   Data         128  dsp.o(.bss.DSP_Direct_Control_MEMORY_MAP)
    DSP_Line_Side_PHY0_MEMORY_MAP            0x20000230   Data         128  dsp.o(.bss.DSP_Line_Side_PHY0_MEMORY_MAP)
    DSP_MODE_SET                             0x200002b0   Data           1  qsfpdd_msa_statemachine.o(.bss.DSP_MODE_SET)
    DSP_Ready_Flag                           0x200002b1   Data           1  dsp.o(.bss.DSP_Ready_Flag)
    DSP_System_Side_PHY0_MEMORY_MAP          0x200002b2   Data         128  dsp.o(.bss.DSP_System_Side_PHY0_MEMORY_MAP)
    DSP_System_Side_PHY1_MEMORY_MAP          0x20000332   Data         128  dsp.o(.bss.DSP_System_Side_PHY1_MEMORY_MAP)
    Data_count_I2C0                          0x200003b2   Data           1  gd32e501_s_i2c0_pb67.o(.bss.Data_count_I2C0)
    Error_code_Pass                          0x200003b3   Data           1  qsfpdd_msa_statemachine.o(.bss.Error_code_Pass)
    HOSTPASSWROD                             0x200003b4   Data           1  gd32e501_s_i2c0_pb67.o(.bss.HOSTPASSWROD)
    HW_Deinitialization_flag                 0x200003b5   Data           1  qsfpdd_msa_statemachine.o(.bss.HW_Deinitialization_flag)
    I2C_Data_Buffer                          0x200003b6   Data         256  gd32e501_s_i2c0_pb67.o(.bss.I2C_Data_Buffer)
    I2C_READY_FLG                            0x200004b6   Data           1  gd32e501_s_i2c0_pb67.o(.bss.I2C_READY_FLG)
    IntL_Status_RX                           0x200004b8   Data           2  qsfpdd_msa_aw.o(.bss.IntL_Status_RX)
    IntL_Status_TX                           0x200004ba   Data           2  qsfpdd_msa_aw.o(.bss.IntL_Status_TX)
    LDD_Control_MEMORY_MAP                   0x200004bc   Data         128  mps5490_idac.o(.bss.LDD_Control_MEMORY_MAP)
    MSA_Memory_ADR                           0x2000053c   Data           1  gd32e501_s_i2c0_pb67.o(.bss.MSA_Memory_ADR)
    ModuleDeactivatedT_Flag                  0x2000053d   Data           1  qsfpdd_msa_statemachine.o(.bss.ModuleDeactivatedT_Flag)
    Module_Status                            0x2000053e   Data           1  qsfpdd_msa_statemachine.o(.bss.Module_Status)
    OP_AMP_Table                             0x2000053f   Data          16  poweron_table.o(.bss.OP_AMP_Table)
    P13_B144_Bef                             0x2000054f   Data           1  qsfpdd_msa_optional_control.o(.bss.P13_B144_Bef)
    P13_B152_Bef                             0x20000550   Data           1  qsfpdd_msa_optional_control.o(.bss.P13_B152_Bef)
    P13_B180_Bef                             0x20000551   Data           1  qsfpdd_msa_optional_control.o(.bss.P13_B180_Bef)
    P13_B181_Bef                             0x20000552   Data           1  qsfpdd_msa_optional_control.o(.bss.P13_B181_Bef)
    P13_B182_Bef                             0x20000553   Data           1  qsfpdd_msa_optional_control.o(.bss.P13_B182_Bef)
    P13_B183_Bef                             0x20000554   Data           1  qsfpdd_msa_optional_control.o(.bss.P13_B183_Bef)
    PW_LEVE1                                 0x20000555   Data           4  poweron_table.o(.bss.PW_LEVE1)
    Post_Cursor_RX1                          0x20000559   Data           1  qsfpdd_msa_optional_control.o(.bss.Post_Cursor_RX1)
    Post_Cursor_RX2                          0x2000055a   Data           1  qsfpdd_msa_optional_control.o(.bss.Post_Cursor_RX2)
    Post_Cursor_RX3                          0x2000055b   Data           1  qsfpdd_msa_optional_control.o(.bss.Post_Cursor_RX3)
    Post_Cursor_RX4                          0x2000055c   Data           1  qsfpdd_msa_optional_control.o(.bss.Post_Cursor_RX4)
    Post_Cursor_RX5                          0x2000055d   Data           1  qsfpdd_msa_optional_control.o(.bss.Post_Cursor_RX5)
    Post_Cursor_RX6                          0x2000055e   Data           1  qsfpdd_msa_optional_control.o(.bss.Post_Cursor_RX6)
    Post_Cursor_RX7                          0x2000055f   Data           1  qsfpdd_msa_optional_control.o(.bss.Post_Cursor_RX7)
    Post_Cursor_RX8                          0x20000560   Data           1  qsfpdd_msa_optional_control.o(.bss.Post_Cursor_RX8)
    Post_Table                               0x20000561   Data          16  poweron_table.o(.bss.Post_Table)
    PowerON_AWEN_flag                        0x20000571   Data           1  qsfpdd_msa_statemachine.o(.bss.PowerON_AWEN_flag)
    Pre_Cursor_RX1                           0x20000572   Data           1  qsfpdd_msa_optional_control.o(.bss.Pre_Cursor_RX1)
    Pre_Cursor_RX2                           0x20000573   Data           1  qsfpdd_msa_optional_control.o(.bss.Pre_Cursor_RX2)
    Pre_Cursor_RX3                           0x20000574   Data           1  qsfpdd_msa_optional_control.o(.bss.Pre_Cursor_RX3)
    Pre_Cursor_RX4                           0x20000575   Data           1  qsfpdd_msa_optional_control.o(.bss.Pre_Cursor_RX4)
    Pre_Cursor_RX5                           0x20000576   Data           1  qsfpdd_msa_optional_control.o(.bss.Pre_Cursor_RX5)
    Pre_Cursor_RX6                           0x20000577   Data           1  qsfpdd_msa_optional_control.o(.bss.Pre_Cursor_RX6)
    Pre_Cursor_RX7                           0x20000578   Data           1  qsfpdd_msa_optional_control.o(.bss.Pre_Cursor_RX7)
    Pre_Cursor_RX8                           0x20000579   Data           1  qsfpdd_msa_optional_control.o(.bss.Pre_Cursor_RX8)
    Pre_Table                                0x2000057a   Data          16  poweron_table.o(.bss.Pre_Table)
    QSFPDD_A0                                0x2000058a   Data         256  poweron_table.o(.bss.QSFPDD_A0)
    QSFPDD_P0                                0x2000068a   Data         128  poweron_table.o(.bss.QSFPDD_P0)
    QSFPDD_P1                                0x2000070a   Data         128  poweron_table.o(.bss.QSFPDD_P1)
    QSFPDD_P10                               0x2000078a   Data         128  poweron_table.o(.bss.QSFPDD_P10)
    QSFPDD_P11                               0x2000080a   Data         128  poweron_table.o(.bss.QSFPDD_P11)
    QSFPDD_P13                               0x2000088a   Data         128  poweron_table.o(.bss.QSFPDD_P13)
    QSFPDD_P14                               0x2000090a   Data         128  poweron_table.o(.bss.QSFPDD_P14)
    QSFPDD_P2                                0x2000098a   Data         128  poweron_table.o(.bss.QSFPDD_P2)
    RxP_HA_LATCH                             0x20000a0a   Data           1  qsfpdd_msa_aw.o(.bss.RxP_HA_LATCH)
    RxP_HW_LATCH                             0x20000a0b   Data           1  qsfpdd_msa_aw.o(.bss.RxP_HW_LATCH)
    RxP_LA_LATCH                             0x20000a0c   Data           1  qsfpdd_msa_aw.o(.bss.RxP_LA_LATCH)
    RxP_LW_LATCH                             0x20000a0d   Data           1  qsfpdd_msa_aw.o(.bss.RxP_LW_LATCH)
    Rx_LOL_LATCH                             0x20000a0e   Data           1  qsfpdd_msa_aw.o(.bss.Rx_LOL_LATCH)
    Rx_LOS_LATCH                             0x20000a0f   Data           1  qsfpdd_msa_aw.o(.bss.Rx_LOS_LATCH)
    Rx_output_flag                           0x20000a10   Data           1  qsfpdd_msa_statemachine.o(.bss.Rx_output_flag)
    SW_Deinitialization_flag                 0x20000a11   Data           1  qsfpdd_msa_statemachine.o(.bss.SW_Deinitialization_flag)
    Signal_Status                            0x20000a12   Data           1  qsfpdd_msa_statemachine.o(.bss.Signal_Status)
    SoftWare_Init_flag                       0x20000a13   Data           1  qsfpdd_msa_statemachine.o(.bss.SoftWare_Init_flag)
    System_Side_Tab_Load                     0x20000a14   Data           1  qsfpdd_msa_optional_control.o(.bss.System_Side_Tab_Load)
    TIA_Control_MEMORY_MAP                   0x20000a16   Data         128  acacia_tia.o(.bss.TIA_Control_MEMORY_MAP)
    Temperature_Index                        0x20000a96   Data           1  qsfpdd_msa_ddmi.o(.bss.Temperature_Index)
    TxDIS_Power_flag                         0x20000a97   Data           1  qsfpdd_msa_statemachine.o(.bss.TxDIS_Power_flag)
    TxP_HA_LATCH                             0x20000a98   Data           1  qsfpdd_msa_aw.o(.bss.TxP_HA_LATCH)
    TxP_HW_LATCH                             0x20000a99   Data           1  qsfpdd_msa_aw.o(.bss.TxP_HW_LATCH)
    Tx_Disable_Flag                          0x20000a9a   Data           1  qsfpdd_msa_statemachine.o(.bss.Tx_Disable_Flag)
    Tx_LOL_LATCH                             0x20000a9b   Data           1  qsfpdd_msa_aw.o(.bss.Tx_LOL_LATCH)
    Tx_LOS_Buffer                            0x20000a9c   Data           1  qsfpdd_msa_aw.o(.bss.Tx_LOS_Buffer)
    Tx_LOS_LATCH                             0x20000a9d   Data           1  qsfpdd_msa_aw.o(.bss.Tx_LOS_LATCH)
    Tx_Los_Enable_Flag                       0x20000a9e   Data           1  qsfpdd_msa_statemachine.o(.bss.Tx_Los_Enable_Flag)
    Tx_output_flag                           0x20000a9f   Data           1  qsfpdd_msa_statemachine.o(.bss.Tx_output_flag)
    UPDATE_FLAG                              0x20000aa0   Data           1  gd32e501_s_i2c0_pb67.o(.bss.UPDATE_FLAG)
    VCC_Temperature_LATCH                    0x20000aa1   Data           1  qsfpdd_msa_aw.o(.bss.VCC_Temperature_LATCH)
    __initial_sp                             0x20000ea8   Data           0  startup_gd32e501.o(STACK)



==============================================================================

Memory Map of the image

  Image Entry point : 0x08000155

  Load Region LR_IROM1 (Base: 0x08000000, Size: 0x0000f868, Max: 0x00080000, ABSOLUTE)

    Execution Region ER_IROM1 (Exec base: 0x08000000, Load base: 0x08000000, Size: 0x0000f838, Max: 0x00080000, ABSOLUTE)

    Exec Addr    Load Addr    Size         Type   Attr      Idx    E Section Name        Object

    0x08000000   0x08000000   0x00000154   Data   RO         1771    RESET               startup_gd32e501.o
    0x08000154   0x08000154   0x00000000   Code   RO         2209  * .ARM.Collect$$$$00000000  mc_w.l(entry.o)
    0x08000154   0x08000154   0x00000004   Code   RO         2230    .ARM.Collect$$$$00000001  mc_w.l(entry2.o)
    0x08000158   0x08000158   0x00000004   Code   RO         2233    .ARM.Collect$$$$00000004  mc_w.l(entry5.o)
    0x0800015c   0x0800015c   0x00000000   Code   RO         2235    .ARM.Collect$$$$00000008  mc_w.l(entry7b.o)
    0x0800015c   0x0800015c   0x00000000   Code   RO         2237    .ARM.Collect$$$$0000000A  mc_w.l(entry8b.o)
    0x0800015c   0x0800015c   0x00000008   Code   RO         2238    .ARM.Collect$$$$0000000B  mc_w.l(entry9a.o)
    0x08000164   0x08000164   0x00000000   Code   RO         2240    .ARM.Collect$$$$0000000D  mc_w.l(entry10a.o)
    0x08000164   0x08000164   0x00000000   Code   RO         2242    .ARM.Collect$$$$0000000F  mc_w.l(entry11a.o)
    0x08000164   0x08000164   0x00000004   Code   RO         2231    .ARM.Collect$$$$00002712  mc_w.l(entry2.o)
    0x08000168   0x08000168   0x00000024   Code   RO         1772    .text               startup_gd32e501.o
    0x0800018c   0x0800018c   0x00000024   Code   RO         2212    .text               mc_w.l(memcpya.o)
    0x080001b0   0x080001b0   0x00000024   Code   RO         2214    .text               mc_w.l(memseta.o)
    0x080001d4   0x080001d4   0x0000014e   Code   RO         2218    .text               mf_w.l(dadd.o)
    0x08000322   0x08000322   0x000000e4   Code   RO         2220    .text               mf_w.l(dmul.o)
    0x08000406   0x08000406   0x000000de   Code   RO         2222    .text               mf_w.l(ddiv.o)
    0x080004e4   0x080004e4   0x00000022   Code   RO         2224    .text               mf_w.l(dflti.o)
    0x08000506   0x08000506   0x0000001a   Code   RO         2226    .text               mf_w.l(dfltui.o)
    0x08000520   0x08000520   0x0000003e   Code   RO         2228    .text               mf_w.l(dfixi.o)
    0x0800055e   0x0800055e   0x0000001e   Code   RO         2244    .text               mc_w.l(llshl.o)
    0x0800057c   0x0800057c   0x00000020   Code   RO         2246    .text               mc_w.l(llushr.o)
    0x0800059c   0x0800059c   0x00000024   Code   RO         2248    .text               mc_w.l(llsshr.o)
    0x080005c0   0x080005c0   0x00000000   Code   RO         2250    .text               mc_w.l(iusefp.o)
    0x080005c0   0x080005c0   0x000000ba   Code   RO         2251    .text               mf_w.l(depilogue.o)
    0x0800067a   0x0800067a   0x00000002   PAD
    0x0800067c   0x0800067c   0x00000024   Code   RO         2253    .text               mc_w.l(init.o)
    0x080006a0   0x080006a0   0x0000004a   Code   RO           68    .text.ADC_Config_Initial  gd32e501_initialize.o
    0x080006ea   0x080006ea   0x00000002   PAD
    0x080006ec   0x080006ec   0x00000074   Code   RO         1943    .text.Acaaia_LDD_Direct_Control  acacia_sip_ldd.o
    0x08000760   0x08000760   0x000000e0   Code   RO         1971    .text.Acaaia_TIA_Direct_Control  acacia_tia.o
    0x08000840   0x08000840   0x0000001a   Code   RO         1941    .text.Acacia_LDD_Interface_test  acacia_sip_ldd.o
    0x0800085a   0x0800085a   0x00000002   PAD
    0x0800085c   0x0800085c   0x0000012e   Code   RO         1945    .text.Acacia_LDD_Read_ALL  acacia_sip_ldd.o
    0x0800098a   0x0800098a   0x00000002   PAD
    0x0800098c   0x0800098c   0x0000010e   Code   RO         1947    .text.Acacia_LDD_Write_ALL  acacia_sip_ldd.o
    0x08000a9a   0x08000a9a   0x00000002   PAD
    0x08000a9c   0x08000a9c   0x00000032   Code   RO         1957    .text.Acacia_TIA_Interfacer_test  acacia_tia.o
    0x08000ace   0x08000ace   0x00000002   PAD
    0x08000ad0   0x08000ad0   0x000001da   Code   RO         1973    .text.Acacia_TIA_Read_ALL  acacia_tia.o
    0x08000caa   0x08000caa   0x00000002   PAD
    0x08000cac   0x08000cac   0x0000020c   Code   RO         1975    .text.Acacia_TIA_Write_ALL  acacia_tia.o
    0x08000eb8   0x08000eb8   0x0000097c   Code   RO         2045    .text.BIAS_TxPower_Monitor  qsfpdd_msa_ddmi.o
    0x08001834   0x08001834   0x000000f8   Code   RO         1799    .text.BRCM_Control_READ_Data  dsp.o
    0x0800192c   0x0800192c   0x000000f4   Code   RO         1797    .text.BRCM_Control_WRITE_Data  dsp.o
    0x08001a20   0x08001a20   0x000000f6   Code   RO         1803    .text.BRCM_READ_Data  dsp.o
    0x08001b16   0x08001b16   0x00000002   PAD
    0x08001b18   0x08001b18   0x000000ee   Code   RO         1801    .text.BRCM_WRITE_Data  dsp.o
    0x08001c06   0x08001c06   0x00000002   PAD
    0x08001c08   0x08001c08   0x00000048   Code   RO         2039    .text.CAL_Function  qsfpdd_msa_ddmi.o
    0x08001c50   0x08001c50   0x00000130   Code   RO         1996    .text.CMIS40_RXLOS_LOL_AW  qsfpdd_msa_aw.o
    0x08001d80   0x08001d80   0x00000148   Code   RO         1994    .text.CMIS40_TXLOS_LOL_AW  qsfpdd_msa_aw.o
    0x08001ec8   0x08001ec8   0x0000005c   Code   RO         2149    .text.Calculate_Page01h_Checksum  qsfpdd_msa_statemachine.o
    0x08001f24   0x08001f24   0x00000094   Code   RO          283    .text.CheckSum_Calculate  poweron_table.o
    0x08001fb8   0x08001fb8   0x000002fe   Code   RO         1998    .text.Clear_Flag    qsfpdd_msa_aw.o
    0x080022b6   0x080022b6   0x00000002   PAD
    0x080022b8   0x080022b8   0x00000052   Code   RO         2002    .text.Clear_Module_state_Byte8  qsfpdd_msa_aw.o
    0x0800230a   0x0800230a   0x00000002   PAD
    0x0800230c   0x0800230c   0x00000070   Code   RO         2000    .text.Clear_VCC_TEMP_Flag  qsfpdd_msa_aw.o
    0x0800237c   0x0800237c   0x000000ec   Code   RO         2083    .text.Configuration_Error_code_Feedback  qsfpdd_msa_optional_control.o
    0x08002468   0x08002468   0x0000000c   Code   RO         2006    .text.DDMI_AW_Monitor  qsfpdd_msa_aw.o
    0x08002474   0x08002474   0x0000003e   Code   RO         1807    .text.DSP87400_CAPI_CW_CMD  dsp.o
    0x080024b2   0x080024b2   0x00000002   PAD
    0x080024b4   0x080024b4   0x000000a8   Code   RO         1811    .text.DSP87400_CAPI_Command_response  dsp.o
    0x0800255c   0x0800255c   0x0000006a   Code   RO         1805    .text.DSP87400_EEPROM_AVS_UcReady_CHECK  dsp.o
    0x080025c6   0x080025c6   0x00000002   PAD
    0x080025c8   0x080025c8   0x000000ea   Code   RO         1809    .text.DSP87400_PAM4_COMMAND_ID_SET_CONFIG_INFO_CORE_IP_CW  dsp.o
    0x080026b2   0x080026b2   0x00000002   PAD
    0x080026b4   0x080026b4   0x0000005c   Code   RO         1819    .text.DSP87400_host_cfg_st_lane_cw_cfg_rdy  dsp.o
    0x08002710   0x08002710   0x00000084   Code   RO         1815    .text.DSP87400_host_lane_cfg_done  dsp.o
    0x08002794   0x08002794   0x00000034   Code   RO         1817    .text.DSP87400_line_cfg_st_lane_cw_cfg_rdy  dsp.o
    0x080027c8   0x080027c8   0x00000066   Code   RO         1813    .text.DSP87400_line_lane_cfg_done  dsp.o
    0x0800282e   0x0800282e   0x00000002   PAD
    0x08002830   0x08002830   0x00000054   Code   RO         1835    .text.DSP_Init      dsp.o
    0x08002884   0x08002884   0x00000192   Code   RO         1861    .text.DSP_LineSide_Loopback_SET  dsp_line_side.o
    0x08002a16   0x08002a16   0x00000002   PAD
    0x08002a18   0x08002a18   0x00000210   Code   RO         1863    .text.DSP_LineSide_PRBS_Info_GET  dsp_line_side.o
    0x08002c28   0x08002c28   0x00000248   Code   RO         1857    .text.DSP_LineSide_TRX_Polarity_SET  dsp_line_side.o
    0x08002e70   0x08002e70   0x000003ae   Code   RO         1855    .text.DSP_LineSide_TX_FIR_SET  dsp_line_side.o
    0x0800321e   0x0800321e   0x00000002   PAD
    0x08003220   0x08003220   0x00000032   Code   RO         1871    .text.DSP_Line_Side_Digital_Loopback_SET  dsp_line_side.o
    0x08003252   0x08003252   0x00000002   PAD
    0x08003254   0x08003254   0x0000005c   Code   RO         1869    .text.DSP_Line_Side_LOL  dsp_line_side.o
    0x080032b0   0x080032b0   0x000001b8   Code   RO         1875    .text.DSP_Line_Side_PRBS_SET  dsp_line_side.o
    0x08003468   0x08003468   0x00000032   Code   RO         1873    .text.DSP_Line_Side_Remote_Loopback_SET  dsp_line_side.o
    0x0800349a   0x0800349a   0x00000002   PAD
    0x0800349c   0x0800349c   0x00000052   Code   RO          256    .text.DSP_PowerON_Seq_Control  poweron_sequencing.o
    0x080034ee   0x080034ee   0x00000002   PAD
    0x080034f0   0x080034f0   0x0000029c   Code   RO         1890    .text.DSP_SystemSide_Loopback_SET  dsp_system_side.o
    0x0800378c   0x0800378c   0x00000286   Code   RO         1894    .text.DSP_SystemSide_PRBS_Info_GET  dsp_system_side.o
    0x08003a12   0x08003a12   0x00000002   PAD
    0x08003a14   0x08003a14   0x0000045c   Code   RO         1886    .text.DSP_SystemSide_TRX_Polarity_SET  dsp_system_side.o
    0x08003e70   0x08003e70   0x0000029c   Code   RO         1888    .text.DSP_SystemSide_TRX_Squelch_SET  dsp_system_side.o
    0x0800410c   0x0800410c   0x00000032   Code   RO         1906    .text.DSP_System_Side_Digital_Loopback_SET  dsp_system_side.o
    0x0800413e   0x0800413e   0x00000002   PAD
    0x08004140   0x08004140   0x000000a0   Code   RO         1904    .text.DSP_System_Side_LOL  dsp_system_side.o
    0x080041e0   0x080041e0   0x00000282   Code   RO         1910    .text.DSP_System_Side_PRBS_SET  dsp_system_side.o
    0x08004462   0x08004462   0x00000002   PAD
    0x08004464   0x08004464   0x00000032   Code   RO         1902    .text.DSP_System_Side_RX_Squelch_SET  dsp_system_side.o
    0x08004496   0x08004496   0x00000002   PAD
    0x08004498   0x08004498   0x00000032   Code   RO         1908    .text.DSP_System_Side_Remote_Loopback_SET  dsp_system_side.o
    0x080044ca   0x080044ca   0x00000002   PAD
    0x080044cc   0x080044cc   0x0000064a   Code   RO         1892    .text.DSP_System_Side_TX_FIR_SET  dsp_system_side.o
    0x08004b16   0x08004b16   0x00000002   PAD
    0x08004b18   0x08004b18   0x00000032   Code   RO         1900    .text.DSP_System_Side_TX_Squelch_SET  dsp_system_side.o
    0x08004b4a   0x08004b4a   0x00000002   PAD
    0x08004b4c   0x08004b4c   0x00000018   Code   RO          106    .text.Delay_I2C1    gd32e501_m_i2c1_pb34.o
    0x08004b64   0x08004b64   0x00000018   Code   RO          132    .text.Delay_I2C2    gd32e501_m_i2c2_pc78.o
    0x08004b7c   0x08004b7c   0x000000d0   Code   RO          291    .text.Device_Table_Get_Data  poweron_table.o
    0x08004c4c   0x08004c4c   0x00000002   Code   RO           96    .text.EXTI0_1_IRQHandler  gd32e501_it.o
    0x08004c4e   0x08004c4e   0x00000002   PAD
    0x08004c50   0x08004c50   0x000000ea   Code   RO           60    .text.GD32E501_GPIO_Analogy_initial  gd32e501_initialize.o
    0x08004d3a   0x08004d3a   0x00000002   PAD
    0x08004d3c   0x08004d3c   0x0000006c   Code   RO           56    .text.GD32E501_GPIO_OP_initial  gd32e501_initialize.o
    0x08004da8   0x08004da8   0x0000013c   Code   RO           58    .text.GD32E501_GPIO_PP_initial  gd32e501_initialize.o
    0x08004ee4   0x08004ee4   0x00000028   Code   RO           74    .text.GD32E501_Power_on_Initial  gd32e501_initialize.o
    0x08004f0c   0x08004f0c   0x00000096   Code   RO           31    .text.GDMCU_FLash_WordWrite  gd32e501_flash_rw.o
    0x08004fa2   0x08004fa2   0x00000002   PAD
    0x08004fa4   0x08004fa4   0x00000108   Code   RO           35    .text.GDMCU_FMC_BytesWRITE_FUNCTION  gd32e501_flash_rw.o
    0x080050ac   0x080050ac   0x00000018   Code   RO           37    .text.GDMCU_FMC_READ_DATA  gd32e501_flash_rw.o
    0x080050c4   0x080050c4   0x0000004a   Code   RO           39    .text.GDMCU_FMC_READ_FUNCTION  gd32e501_flash_rw.o
    0x0800510e   0x0800510e   0x00000002   PAD
    0x08005110   0x08005110   0x0000002a   Code   RO           25    .text.GDMCU_Flash_Erase  gd32e501_flash_rw.o
    0x0800513a   0x0800513a   0x00000002   PAD
    0x0800513c   0x0800513c   0x00000076   Code   RO           54    .text.GD_System_Periph_Clock_Enable  gd32e501_initialize.o
    0x080051b2   0x080051b2   0x00000006   PAD
    0x080051b8   0x080051b8   0x000000a0   Code   RO           11    .text.GET_ADC_Value_Data  gd32e501_adc_control.o
    0x08005258   0x08005258   0x000000f8   Code   RO           13    .text.GET_GD_Temperature  gd32e501_adc_control.o
    0x08005350   0x08005350   0x00000090   Code   RO          108    .text.GPIO_Configuration_I2C1  gd32e501_m_i2c1_pb34.o
    0x080053e0   0x080053e0   0x00000092   Code   RO          134    .text.GPIO_Configuration_I2C2_PC78  gd32e501_m_i2c2_pc78.o
    0x08005472   0x08005472   0x00000002   PAD
    0x08005474   0x08005474   0x00000038   Code   RO         2151    .text.Get_AppSelCode_Result  qsfpdd_msa_statemachine.o
    0x080054ac   0x080054ac   0x00000042   Code   RO          281    .text.Get_CH_Data   poweron_table.o
    0x080054ee   0x080054ee   0x00000002   PAD
    0x080054f0   0x080054f0   0x0000013e   Code   RO         2079    .text.Get_LineSide_PRBS_Pattern  qsfpdd_msa_optional_control.o
    0x0800562e   0x0800562e   0x00000002   PAD
    0x08005630   0x08005630   0x0000004c   Code   RO         1833    .text.Get_NRZ_Default_System_Side  dsp.o
    0x0800567c   0x0800567c   0x000000fe   Code   RO          260    .text.Get_Power_C_Status  poweron_sequencing.o
    0x0800577a   0x0800577a   0x00000002   PAD
    0x0800577c   0x0800577c   0x00000078   Code   RO          289    .text.Get_QDD_MSA_Optional_Control_Table  poweron_table.o
    0x080057f4   0x080057f4   0x00000040   Code   RO         2081    .text.Get_Rx_Output_Max_Value  qsfpdd_msa_optional_control.o
    0x08005834   0x08005834   0x0000013e   Code   RO         2077    .text.Get_SystemSide_PRBS_Pattern  qsfpdd_msa_optional_control.o
    0x08005972   0x08005972   0x00000002   PAD
    0x08005974   0x08005974   0x0000006e   Code   RO         2153    .text.Get_module_Power_Monitor  qsfpdd_msa_statemachine.o
    0x080059e2   0x080059e2   0x00000002   PAD
    0x080059e4   0x080059e4   0x000002be   Code   RO         2085    .text.HOST_Side_Generator_Pattern_Control_P13  qsfpdd_msa_optional_control.o
    0x08005ca2   0x08005ca2   0x00000002   PAD
    0x08005ca4   0x08005ca4   0x00000004   Code   RO           88    .text.HardFault_Handler  gd32e501_it.o
    0x08005ca8   0x08005ca8   0x000002f4   Code   RO         2091    .text.Host_Side_LoopBack_P13  qsfpdd_msa_optional_control.o
    0x08005f9c   0x08005f9c   0x00000120   Code   RO          210    .text.I2C0_ER_IRQHandler  gd32e501_s_i2c0_pb67.o
    0x080060bc   0x080060bc   0x0000088a   Code   RO          208    .text.I2C0_EV_IRQHandler  gd32e501_s_i2c0_pb67.o
    0x08006946   0x08006946   0x00000002   PAD
    0x08006948   0x08006948   0x000001aa   Code   RO          285    .text.Init_Rx_Output_Values  poweron_table.o
    0x08006af2   0x08006af2   0x00000002   PAD
    0x08006af4   0x08006af4   0x000000a8   Code   RO          252    .text.Internal_Voltage_Power_Down  poweron_sequencing.o
    0x08006b9c   0x08006b9c   0x000000f4   Code   RO          254    .text.Internal_Voltage_Power_up_Seq  poweron_sequencing.o
    0x08006c90   0x08006c90   0x00000068   Code   RO         1865    .text.Line_Side_ALL_CH1_CH4_Control_P86  dsp_line_side.o
    0x08006cf8   0x08006cf8   0x000000e4   Code   RO          264    .text.MCU_READ_WRITE_DEIVCE_COMMAND_CONTROL  poweron_sequencing.o
    0x08006ddc   0x08006ddc   0x000002b6   Code   RO          122    .text.MI2C1_WordADR_R_PB34  gd32e501_m_i2c1_pb34.o
    0x08007092   0x08007092   0x00000002   PAD
    0x08007094   0x08007094   0x00000272   Code   RO          120    .text.MI2C1_WordADR_W_PB34  gd32e501_m_i2c1_pb34.o
    0x08007306   0x08007306   0x00000002   PAD
    0x08007308   0x08007308   0x000002c0   Code   RO          148    .text.MI2C2_WordADR_R_PC78  gd32e501_m_i2c2_pc78.o
    0x080075c8   0x080075c8   0x00000242   Code   RO          146    .text.MI2C2_WordADR_W_PC78  gd32e501_m_i2c2_pc78.o
    0x0800780a   0x0800780a   0x00000002   PAD
    0x0800780c   0x0800780c   0x00000074   Code   RO         1920    .text.MP5490_Direct_Control  mps5490_idac.o
    0x08007880   0x08007880   0x000000e4   Code   RO         1926    .text.MP5490_LDD_Interface_test  mps5490_idac.o
    0x08007964   0x08007964   0x000001b8   Code   RO         1922    .text.MP5490_Read_AllData  mps5490_idac.o
    0x08007b1c   0x08007b1c   0x00000100   Code   RO         1924    .text.MP5490_Write_Control_Data  mps5490_idac.o
    0x08007c1c   0x08007c1c   0x000004f2   Code   RO         2165    .text.MSA_Configure_Appsel_CODE_Check  qsfpdd_msa_statemachine.o
    0x0800810e   0x0800810e   0x00000002   PAD
    0x08008110   0x08008110   0x000000b4   Code   RO         2173    .text.MSA_DDMI_Function  qsfpdd_msa_statemachine.o
    0x080081c4   0x080081c4   0x0000003c   Code   RO         2163    .text.MSA_DataPathState_P11H_80  qsfpdd_msa_statemachine.o
    0x08008200   0x08008200   0x00000162   Code   RO         2157    .text.MSA_Rx_OUTPUT_Control_P10H_8A  qsfpdd_msa_statemachine.o
    0x08008362   0x08008362   0x00000002   PAD
    0x08008364   0x08008364   0x0000017c   Code   RO         2155    .text.MSA_Tx_Squelch_Control_P10H_83  qsfpdd_msa_statemachine.o
    0x080084e0   0x080084e0   0x000001f4   Code   RO          114    .text.Master_I2C1_ByteREAD_PB34  gd32e501_m_i2c1_pb34.o
    0x080086d4   0x080086d4   0x000001b6   Code   RO          116    .text.Master_I2C1_ByteWrite_PB34  gd32e501_m_i2c1_pb34.o
    0x0800888a   0x0800888a   0x00000002   PAD
    0x0800888c   0x0800888c   0x00000056   Code   RO          110    .text.Master_I2C1_PB34_Init  gd32e501_m_i2c1_pb34.o
    0x080088e2   0x080088e2   0x00000002   PAD
    0x080088e4   0x080088e4   0x000000aa   Code   RO           62    .text.Master_I2C1_PB34_Initial  gd32e501_initialize.o
    0x0800898e   0x0800898e   0x00000002   PAD
    0x08008990   0x08008990   0x000001fc   Code   RO          140    .text.Master_I2C2_ByteREAD_PC78  gd32e501_m_i2c2_pc78.o
    0x08008b8c   0x08008b8c   0x0000017a   Code   RO          142    .text.Master_I2C2_ByteWrite_PC78  gd32e501_m_i2c2_pc78.o
    0x08008d06   0x08008d06   0x00000002   PAD
    0x08008d08   0x08008d08   0x00000056   Code   RO          136    .text.Master_I2C2_PB78_Init  gd32e501_m_i2c2_pc78.o
    0x08008d5e   0x08008d5e   0x00000002   PAD
    0x08008d60   0x08008d60   0x000000b0   Code   RO           64    .text.Master_I2C2_PC78_Initial  gd32e501_initialize.o
    0x08008e10   0x08008e10   0x000002be   Code   RO         2087    .text.Media_Side_Generator_Pattern_Control_P13  qsfpdd_msa_optional_control.o
    0x080090ce   0x080090ce   0x00000002   PAD
    0x080090d0   0x080090d0   0x000002f4   Code   RO         2089    .text.Media_Side_LoopBack_P13  qsfpdd_msa_optional_control.o
    0x080093c4   0x080093c4   0x00000036   Code   RO          266    .text.ModSelL_Function  poweron_sequencing.o
    0x080093fa   0x080093fa   0x00000002   PAD
    0x080093fc   0x080093fc   0x000000cc   Code   RO         2177    .text.Modeule_MGMT_INIT  qsfpdd_msa_statemachine.o
    0x080094c8   0x080094c8   0x00000048   Code   RO         2159    .text.Module_Global_Control_P0H_26  qsfpdd_msa_statemachine.o
    0x08009510   0x08009510   0x0000001c   Code   RO         2169    .text.Module_State_P0H_03  qsfpdd_msa_statemachine.o
    0x0800952c   0x0800952c   0x00000002   Code   RO           86    .text.NMI_Handler   gd32e501_it.o
    0x0800952e   0x0800952e   0x00000002   PAD
    0x08009530   0x08009530   0x00000014   Code   RO         2105    .text.P13_diagnostic_features  qsfpdd_msa_optional_control.o
    0x08009544   0x08009544   0x00000044   Code   RO          297    .text.Page13_Default  poweron_table.o
    0x08009588   0x08009588   0x000000e6   Code   RO          202    .text.PassWord_Function  gd32e501_s_i2c0_pb67.o
    0x0800966e   0x0800966e   0x00000002   PAD
    0x08009670   0x08009670   0x00000002   Code   RO           92    .text.PendSV_Handler  gd32e501_it.o
    0x08009672   0x08009672   0x00000002   PAD
    0x08009674   0x08009674   0x0000001c   Code   RO          299    .text.PowerON_Table_Init  poweron_table.o
    0x08009690   0x08009690   0x00000010   Code   RO          258    .text.PowerOn_Sequencing_Control  poweron_sequencing.o
    0x080096a0   0x080096a0   0x000001a8   Code   RO         2101    .text.QDD_DSP_Tap_ReLoader  qsfpdd_msa_optional_control.o
    0x08009848   0x08009848   0x00000048   Code   RO         2103    .text.QDD_MSA_CTLE_PRE_POST_AMP_CONTROL  qsfpdd_msa_optional_control.o
    0x08009890   0x08009890   0x00000034   Code   RO          293    .text.QDD_MSA_Init_SETTING  poweron_table.o
    0x080098c4   0x080098c4   0x000000c6   Code   RO          295    .text.QDD_MSA_PAGE11_ControlByte  poweron_table.o
    0x0800998a   0x0800998a   0x00000002   PAD
    0x0800998c   0x0800998c   0x0000001c   Code   RO         2171    .text.QSFPDD_DDMI_ONLY_ADC_GET  qsfpdd_msa_statemachine.o
    0x080099a8   0x080099a8   0x00000154   Code   RO         2049    .text.QSFPDD_DDMI_StateMachine  qsfpdd_msa_ddmi.o
    0x08009afc   0x08009afc   0x00000536   Code   RO         2179    .text.QSFPDD_MSA_StateMachine  qsfpdd_msa_statemachine.o
    0x0800a032   0x0800a032   0x00000002   PAD
    0x0800a034   0x0800a034   0x000003f0   Code   RO         1992    .text.QSFPDD_RxPower_AW  qsfpdd_msa_aw.o
    0x0800a424   0x0800a424   0x00000062   Code   RO          287    .text.QSFPDD_Table_GetDate  poweron_table.o
    0x0800a486   0x0800a486   0x00000002   PAD
    0x0800a488   0x0800a488   0x0000020a   Code   RO         1986    .text.QSFPDD_Temperature_VCC_AW  qsfpdd_msa_aw.o
    0x0800a692   0x0800a692   0x00000002   PAD
    0x0800a694   0x0800a694   0x000003b2   Code   RO         2099    .text.RX_AMP_OutSwing_Control  qsfpdd_msa_optional_control.o
    0x0800aa46   0x0800aa46   0x00000002   PAD
    0x0800aa48   0x0800aa48   0x00000772   Code   RO         2047    .text.RX_POWER_M_CH0_CH7  qsfpdd_msa_ddmi.o
    0x0800b1ba   0x0800b1ba   0x00000002   PAD
    0x0800b1bc   0x0800b1bc   0x00000332   Code   RO         2097    .text.RX_Post_Control  qsfpdd_msa_optional_control.o
    0x0800b4ee   0x0800b4ee   0x00000002   PAD
    0x0800b4f0   0x0800b4f0   0x00000332   Code   RO         2095    .text.RX_Pre_Control  qsfpdd_msa_optional_control.o
    0x0800b822   0x0800b822   0x00000002   PAD
    0x0800b824   0x0800b824   0x000000f4   Code   RO          138    .text.Resume_IIC    gd32e501_m_i2c2_pc78.o
    0x0800b918   0x0800b918   0x000000f2   Code   RO          112    .text.Resume_IIC_I2C1  gd32e501_m_i2c1_pb34.o
    0x0800ba0a   0x0800ba0a   0x00000002   PAD
    0x0800ba0c   0x0800ba0c   0x00000bc8   Code   RO         2093    .text.Rx_Output_Limit_Check  qsfpdd_msa_optional_control.o
    0x0800c5d4   0x0800c5d4   0x000000ae   Code   RO         1825    .text.SET_CHIP_MODE_2X53G_KP4PAM_TO_1X106G_KP4PAM  dsp.o
    0x0800c682   0x0800c682   0x00000002   PAD
    0x0800c684   0x0800c684   0x00000030   Code   RO         1827    .text.SET_DSP_CHIP_MODE  dsp.o
    0x0800c6b4   0x0800c6b4   0x00000142   Code   RO          262    .text.SET_Power_Control  poweron_sequencing.o
    0x0800c7f6   0x0800c7f6   0x00000002   PAD
    0x0800c7f8   0x0800c7f8   0x000000ac   Code   RO          212    .text.SRMA_Flash_Function  gd32e501_s_i2c0_pb67.o
    0x0800c8a4   0x0800c8a4   0x00000002   Code   RO           90    .text.SVC_Handler   gd32e501_it.o
    0x0800c8a6   0x0800c8a6   0x00000002   PAD
    0x0800c8a8   0x0800c8a8   0x000000bc   Code   RO           66    .text.Slave_I2C0_PB67_Initial  gd32e501_initialize.o
    0x0800c964   0x0800c964   0x0000001e   Code   RO           23    .text.Swap_Bytes    gd32e501_flash_rw.o
    0x0800c982   0x0800c982   0x00000002   PAD
    0x0800c984   0x0800c984   0x00000052   Code   RO          332    .text.SysTick_Config  systick.o
    0x0800c9d6   0x0800c9d6   0x00000002   PAD
    0x0800c9d8   0x0800c9d8   0x00000008   Code   RO           94    .text.SysTick_Handler  gd32e501_it.o
    0x0800c9e0   0x0800c9e0   0x000000d4   Code   RO         1779    .text.SystemInit    system_gd32e501.o
    0x0800cab4   0x0800cab4   0x00000068   Code   RO         1896    .text.System_Side_ALL_CH1_CH4_Control_P87  dsp_system_side.o
    0x0800cb1c   0x0800cb1c   0x00000070   Code   RO         1898    .text.System_Side_ALL_CH1_CH4_Control_P8E  dsp_system_side.o
    0x0800cb8c   0x0800cb8c   0x0000006e   Code   RO         1823    .text.TEST_DSP_Command_Direct_Control  dsp.o
    0x0800cbfa   0x0800cbfa   0x00000002   PAD
    0x0800cbfc   0x0800cbfc   0x000001b8   Code   RO         2167    .text.TX_DIS_FUNCTION  qsfpdd_msa_statemachine.o
    0x0800cdb4   0x0800cdb4   0x0000004a   Code   RO         2037    .text.Temp_CAL      qsfpdd_msa_ddmi.o
    0x0800cdfe   0x0800cdfe   0x00000002   PAD
    0x0800ce00   0x0800ce00   0x000000a8   Code   RO         2041    .text.Temperature_Monitor  qsfpdd_msa_ddmi.o
    0x0800cea8   0x0800cea8   0x00000010   Code   RO         1821    .text.Trigger_CMD_Update_DSP_REG  dsp.o
    0x0800ceb8   0x0800ceb8   0x00000762   Code   RO          204    .text.Update_SRAM_Data  gd32e501_s_i2c0_pb67.o
    0x0800d61a   0x0800d61a   0x00000002   PAD
    0x0800d61c   0x0800d61c   0x0000005c   Code   RO         2043    .text.VCC_Monitor   qsfpdd_msa_ddmi.o
    0x0800d678   0x0800d678   0x000009ba   Code   RO          206    .text.Write_SRAM_TO_Flash  gd32e501_s_i2c0_pb67.o
    0x0800e032   0x0800e032   0x00000002   PAD
    0x0800e034   0x0800e034   0x00000034   Code   RO         1085    .text.__NVIC_EnableIRQ  gd32e501_misc.o
    0x0800e068   0x0800e068   0x00000044   Code   RO          334    .text.__NVIC_SetPriority  systick.o
    0x0800e0ac   0x0800e0ac   0x00000044   Code   RO         1083    .text.__NVIC_SetPriority  gd32e501_misc.o
    0x0800e0f0   0x0800e0f0   0x00000026   Code   RO         2161    .text.__NVIC_SystemReset  qsfpdd_msa_statemachine.o
    0x0800e116   0x0800e116   0x00000002   PAD
    0x0800e118   0x0800e118   0x0000004e   Code   RO          355    .text.adc_calibration_enable  gd32e501_adc.o
    0x0800e166   0x0800e166   0x00000002   PAD
    0x0800e168   0x0800e168   0x00000076   Code   RO          375    .text.adc_channel_length_config  gd32e501_adc.o
    0x0800e1de   0x0800e1de   0x00000002   PAD
    0x0800e1e0   0x0800e1e0   0x00000034   Code   RO          373    .text.adc_data_alignment_config  gd32e501_adc.o
    0x0800e214   0x0800e214   0x00000026   Code   RO          351    .text.adc_enable    gd32e501_adc.o
    0x0800e23a   0x0800e23a   0x00000002   PAD
    0x0800e23c   0x0800e23c   0x00000098   Code   RO          385    .text.adc_external_trigger_config  gd32e501_adc.o
    0x0800e2d4   0x0800e2d4   0x00000066   Code   RO          387    .text.adc_external_trigger_source_config  gd32e501_adc.o
    0x0800e33a   0x0800e33a   0x00000002   PAD
    0x0800e33c   0x0800e33c   0x0000001a   Code   RO          413    .text.adc_flag_clear  gd32e501_adc.o
    0x0800e356   0x0800e356   0x00000002   PAD
    0x0800e358   0x0800e358   0x0000002c   Code   RO          411    .text.adc_flag_get  gd32e501_adc.o
    0x0800e384   0x0800e384   0x00000100   Code   RO          379    .text.adc_inserted_channel_config  gd32e501_adc.o
    0x0800e484   0x0800e484   0x00000048   Code   RO          389    .text.adc_software_trigger_enable  gd32e501_adc.o
    0x0800e4cc   0x0800e4cc   0x000000d0   Code   RO          371    .text.adc_special_function_config  gd32e501_adc.o
    0x0800e59c   0x0800e59c   0x00000012   Code   RO          365    .text.adc_tempsensor_vrefint_enable  gd32e501_adc.o
    0x0800e5ae   0x0800e5ae   0x00000002   PAD
    0x0800e5b0   0x0800e5b0   0x00000028   Code   RO          336    .text.delay_1ms     systick.o
    0x0800e5d8   0x0800e5d8   0x00000022   Code   RO          338    .text.delay_decrement  systick.o
    0x0800e5fa   0x0800e5fa   0x00000002   PAD
    0x0800e5fc   0x0800e5fc   0x00000018   Code   RO          803    .text.fmc_bank0_flag_clear  gd32e501_fmc.o
    0x0800e614   0x0800e614   0x0000005c   Code   RO          761    .text.fmc_bank0_ready_wait  gd32e501_fmc.o
    0x0800e670   0x0800e670   0x00000062   Code   RO          823    .text.fmc_bank0_state_get  gd32e501_fmc.o
    0x0800e6d2   0x0800e6d2   0x00000002   PAD
    0x0800e6d4   0x0800e6d4   0x0000005c   Code   RO          763    .text.fmc_bank1_ready_wait  gd32e501_fmc.o
    0x0800e730   0x0800e730   0x00000062   Code   RO          825    .text.fmc_bank1_state_get  gd32e501_fmc.o
    0x0800e792   0x0800e792   0x00000002   PAD
    0x0800e794   0x0800e794   0x00000022   Code   RO          739    .text.fmc_lock      gd32e501_fmc.o
    0x0800e7b6   0x0800e7b6   0x00000002   PAD
    0x0800e7b8   0x0800e7b8   0x000001ac   Code   RO          759    .text.fmc_page_erase  gd32e501_fmc.o
    0x0800e964   0x0800e964   0x00000062   Code   RO          733    .text.fmc_unlock    gd32e501_fmc.o
    0x0800e9c6   0x0800e9c6   0x00000002   PAD
    0x0800e9c8   0x0800e9c8   0x00000106   Code   RO          853    .text.fwdgt_config  gd32e501_fwdgt.o
    0x0800eace   0x0800eace   0x00000002   PAD
    0x0800ead0   0x0800ead0   0x00000010   Code   RO          843    .text.fwdgt_enable  gd32e501_fwdgt.o
    0x0800eae0   0x0800eae0   0x000000dc   Code   RO          887    .text.gpio_af_set   gd32e501_gpio.o
    0x0800ebbc   0x0800ebbc   0x00000010   Code   RO          873    .text.gpio_bit_reset  gd32e501_gpio.o
    0x0800ebcc   0x0800ebcc   0x00000010   Code   RO          871    .text.gpio_bit_set  gd32e501_gpio.o
    0x0800ebdc   0x0800ebdc   0x0000002a   Code   RO          879    .text.gpio_input_bit_get  gd32e501_gpio.o
    0x0800ec06   0x0800ec06   0x00000002   PAD
    0x0800ec08   0x0800ec08   0x000000a0   Code   RO          867    .text.gpio_mode_set  gd32e501_gpio.o
    0x0800eca8   0x0800eca8   0x0000002a   Code   RO          883    .text.gpio_output_bit_get  gd32e501_gpio.o
    0x0800ecd2   0x0800ecd2   0x00000002   PAD
    0x0800ecd4   0x0800ecd4   0x0000009a   Code   RO          869    .text.gpio_output_options_set  gd32e501_gpio.o
    0x0800ed6e   0x0800ed6e   0x00000002   PAD
    0x0800ed70   0x0800ed70   0x00000028   Code   RO          933    .text.i2c_address_config  gd32e501_i2c.o
    0x0800ed98   0x0800ed98   0x00000012   Code   RO          923    .text.i2c_automatic_end_disable  gd32e501_i2c.o
    0x0800edaa   0x0800edaa   0x00000002   PAD
    0x0800edac   0x0800edac   0x00000012   Code   RO          921    .text.i2c_automatic_end_enable  gd32e501_i2c.o
    0x0800edbe   0x0800edbe   0x00000002   PAD
    0x0800edc0   0x0800edc0   0x0000000e   Code   RO          963    .text.i2c_data_receive  gd32e501_i2c.o
    0x0800edce   0x0800edce   0x00000002   PAD
    0x0800edd0   0x0800edd0   0x00000012   Code   RO          961    .text.i2c_data_transmit  gd32e501_i2c.o
    0x0800ede2   0x0800ede2   0x00000002   PAD
    0x0800ede4   0x0800ede4   0x00000074   Code   RO          903    .text.i2c_deinit    gd32e501_i2c.o
    0x0800ee58   0x0800ee58   0x00000012   Code   RO          955    .text.i2c_disable   gd32e501_i2c.o
    0x0800ee6a   0x0800ee6a   0x00000002   PAD
    0x0800ee6c   0x0800ee6c   0x00000012   Code   RO          953    .text.i2c_enable    gd32e501_i2c.o
    0x0800ee7e   0x0800ee7e   0x00000002   PAD
    0x0800ee80   0x0800ee80   0x00000014   Code   RO         1011    .text.i2c_flag_clear  gd32e501_i2c.o
    0x0800ee94   0x0800ee94   0x0000002a   Code   RO         1009    .text.i2c_flag_get  gd32e501_i2c.o
    0x0800eebe   0x0800eebe   0x00000002   PAD
    0x0800eec0   0x0800eec0   0x0000001e   Code   RO         1007    .text.i2c_idle_clock_timeout_config  gd32e501_i2c.o
    0x0800eede   0x0800eede   0x00000002   PAD
    0x0800eee0   0x0800eee0   0x00000014   Code   RO         1013    .text.i2c_interrupt_enable  gd32e501_i2c.o
    0x0800eef4   0x0800eef4   0x0000001e   Code   RO         1019    .text.i2c_interrupt_flag_clear  gd32e501_i2c.o
    0x0800ef12   0x0800ef12   0x00000002   PAD
    0x0800ef14   0x0800ef14   0x00000064   Code   RO         1017    .text.i2c_interrupt_flag_get  gd32e501_i2c.o
    0x0800ef78   0x0800ef78   0x00000036   Code   RO          911    .text.i2c_master_addressing  gd32e501_i2c.o
    0x0800efae   0x0800efae   0x00000002   PAD
    0x0800efb0   0x0800efb0   0x0000003c   Code   RO          909    .text.i2c_master_clock_config  gd32e501_i2c.o
    0x0800efec   0x0800efec   0x00000012   Code   RO          967    .text.i2c_reload_disable  gd32e501_i2c.o
    0x0800effe   0x0800effe   0x00000002   PAD
    0x0800f000   0x0800f000   0x00000012   Code   RO          965    .text.i2c_reload_enable  gd32e501_i2c.o
    0x0800f012   0x0800f012   0x00000002   PAD
    0x0800f014   0x0800f014   0x00000012   Code   RO          957    .text.i2c_start_on_bus  gd32e501_i2c.o
    0x0800f026   0x0800f026   0x00000002   PAD
    0x0800f028   0x0800f028   0x00000012   Code   RO          959    .text.i2c_stop_on_bus  gd32e501_i2c.o
    0x0800f03a   0x0800f03a   0x00000002   PAD
    0x0800f03c   0x0800f03c   0x0000005c   Code   RO          905    .text.i2c_timing_config  gd32e501_i2c.o
    0x0800f098   0x0800f098   0x00000020   Code   RO          969    .text.i2c_transfer_byte_number_config  gd32e501_i2c.o
    0x0800f0b8   0x0800f0b8   0x00000018   Code   RO           52    .text.irc40k_config  gd32e501_initialize.o
    0x0800f0d0   0x0800f0d0   0x0000003c   Code   RO            2    .text.main          gd_qsfp56_fr4_main.o
    0x0800f10c   0x0800f10c   0x0000002c   Code   RO         1081    .text.nvic_irq_enable  gd32e501_misc.o
    0x0800f138   0x0800f138   0x00000024   Code   RO         1095    .text.nvic_vector_table_set  gd32e501_misc.o
    0x0800f15c   0x0800f15c   0x000001ae   Code   RO         1174    .text.rcu_adc_clock_config  gd32e501_rcu.o
    0x0800f30a   0x0800f30a   0x00000002   PAD
    0x0800f30c   0x0800f30c   0x00000042   Code   RO         1190    .text.rcu_flag_get  gd32e501_rcu.o
    0x0800f34e   0x0800f34e   0x00000002   PAD
    0x0800f350   0x0800f350   0x0000002e   Code   RO         1204    .text.rcu_osci_on   gd32e501_rcu.o
    0x0800f37e   0x0800f37e   0x00000002   PAD
    0x0800f380   0x0800f380   0x00000262   Code   RO         1202    .text.rcu_osci_stab_wait  gd32e501_rcu.o
    0x0800f5e2   0x0800f5e2   0x00000002   PAD
    0x0800f5e4   0x0800f5e4   0x0000002e   Code   RO         1150    .text.rcu_periph_clock_disable  gd32e501_rcu.o
    0x0800f612   0x0800f612   0x00000002   PAD
    0x0800f614   0x0800f614   0x0000002e   Code   RO         1148    .text.rcu_periph_clock_enable  gd32e501_rcu.o
    0x0800f642   0x0800f642   0x00000002   PAD
    0x0800f644   0x0800f644   0x0000002e   Code   RO         1158    .text.rcu_periph_reset_disable  gd32e501_rcu.o
    0x0800f672   0x0800f672   0x00000002   PAD
    0x0800f674   0x0800f674   0x0000002e   Code   RO         1156    .text.rcu_periph_reset_enable  gd32e501_rcu.o
    0x0800f6a2   0x0800f6a2   0x00000002   PAD
    0x0800f6a4   0x0800f6a4   0x00000010   Code   RO         1414    .text.syscfg_vref_enable  gd32e501_syscfg.o
    0x0800f6b4   0x0800f6b4   0x00000100   Code   RO         1785    .text.system_clock_100m_irc8m  system_gd32e501.o
    0x0800f7b4   0x0800f7b4   0x00000008   Code   RO         1781    .text.system_clock_config  system_gd32e501.o
    0x0800f7bc   0x0800f7bc   0x0000003c   Code   RO          330    .text.systick_config  systick.o
    0x0800f7f8   0x0800f7f8   0x0000000e   Code   RO         2257    i.__scatterload_copy  mc_w.l(handlers.o)
    0x0800f806   0x0800f806   0x00000002   Code   RO         2258    i.__scatterload_null  mc_w.l(handlers.o)
    0x0800f808   0x0800f808   0x0000000e   Code   RO         2259    i.__scatterload_zeroinit  mc_w.l(handlers.o)
    0x0800f816   0x0800f816   0x00000002   PAD
    0x0800f818   0x0800f818   0x00000020   Data   RO         2256    Region$$Table       anon$$obj.o


    Execution Region RW_IRAM1 (Exec base: 0x20000000, Load base: 0x0800f838, Size: 0x00000ea8, Max: 0x00008000, ABSOLUTE)

    Exec Addr    Load Addr    Size         Type   Attr      Idx    E Section Name        Object

    0x20000000   0x0800f838   0x00000001   Data   RW          311    .data.Bef_Tx_Disable  poweron_table.o
    0x20000001   0x0800f839   0x00000009   Data   RW          214    .data.ID_Debug_Info  gd32e501_s_i2c0_pb67.o
    0x2000000a   0x0800f842   0x00000002   PAD
    0x2000000c   0x0800f844   0x00000004   Data   RW         1837    .data.INTF_CAPI_SW_CMD_ADR0  dsp.o
    0x20000010   0x0800f848   0x00000004   Data   RW         1839    .data.INTF_CAPI_SW_CMD_ADR1  dsp.o
    0x20000014   0x0800f84c   0x00000004   Data   RW         1838    .data.INTF_CAPI_SW_CMD_DATA0  dsp.o
    0x20000018   0x0800f850   0x00000004   Data   RW         1840    .data.INTF_CAPI_SW_CMD_DATA1  dsp.o
    0x2000001c   0x0800f854   0x00000002   Data   RW          301    .data.MCU_FW_VERSION  poweron_table.o
    0x2000001e   0x0800f856   0x00000001   Data   RW         2051    .data.SHOW_RSSI_CH0  qsfpdd_msa_ddmi.o
    0x2000001f   0x0800f857   0x00000001   Data   RW         2052    .data.SHOW_RSSI_CH1  qsfpdd_msa_ddmi.o
    0x20000020   0x0800f858   0x00000001   Data   RW         2053    .data.SHOW_RSSI_CH2  qsfpdd_msa_ddmi.o
    0x20000021   0x0800f859   0x00000001   Data   RW         2054    .data.SHOW_RSSI_CH3  qsfpdd_msa_ddmi.o
    0x20000022   0x0800f85a   0x00000001   Data   RW         2055    .data.SHOW_RSSI_CH4  qsfpdd_msa_ddmi.o
    0x20000023   0x0800f85b   0x00000001   Data   RW         2056    .data.SHOW_RSSI_CH5  qsfpdd_msa_ddmi.o
    0x20000024   0x0800f85c   0x00000001   Data   RW         2057    .data.SHOW_RSSI_CH6  qsfpdd_msa_ddmi.o
    0x20000025   0x0800f85d   0x00000001   Data   RW         2058    .data.SHOW_RSSI_CH7  qsfpdd_msa_ddmi.o
    0x20000026   0x0800f85e   0x00000002   PAD
    0x20000028   0x0800f860   0x00000004   Data   RW         1787    .data.SystemCoreClock  system_gd32e501.o
    0x2000002c   0x0800f864   0x00000004   PAD
    0x20000030        -       0x00000001   Zero   RW         2133    .bss.AMP_C_RX1      qsfpdd_msa_optional_control.o
    0x20000031        -       0x00000001   Zero   RW         2134    .bss.AMP_C_RX2      qsfpdd_msa_optional_control.o
    0x20000032        -       0x00000001   Zero   RW         2135    .bss.AMP_C_RX3      qsfpdd_msa_optional_control.o
    0x20000033        -       0x00000001   Zero   RW         2136    .bss.AMP_C_RX4      qsfpdd_msa_optional_control.o
    0x20000034        -       0x00000001   Zero   RW         2137    .bss.AMP_C_RX5      qsfpdd_msa_optional_control.o
    0x20000035        -       0x00000001   Zero   RW         2138    .bss.AMP_C_RX6      qsfpdd_msa_optional_control.o
    0x20000036        -       0x00000001   Zero   RW         2139    .bss.AMP_C_RX7      qsfpdd_msa_optional_control.o
    0x20000037        -       0x00000001   Zero   RW         2140    .bss.AMP_C_RX8      qsfpdd_msa_optional_control.o
    0x20000038        -       0x00000001   Zero   RW         2192    .bss.AW_DDMI_Count  qsfpdd_msa_statemachine.o
    0x20000039        -       0x00000001   Zero   RW         2187    .bss.App_SELCode    qsfpdd_msa_statemachine.o
    0x2000003a        -       0x00000001   Zero   RW         2014    .bss.BIAS_HA_LATCH  qsfpdd_msa_aw.o
    0x2000003b        -       0x00000001   Zero   RW         2016    .bss.BIAS_HW_LATCH  qsfpdd_msa_aw.o
    0x2000003c        -       0x00000001   Zero   RW         2181    .bss.Bef_Module_Global_Control  qsfpdd_msa_statemachine.o
    0x2000003d        -       0x00000001   Zero   RW          321    .bss.Bef_Rx_output  poweron_table.o
    0x2000003e        -       0x00000001   Zero   RW          320    .bss.Bef_Tx_output  poweron_table.o
    0x2000003f   0x0800f864   0x00000001   PAD
    0x20000040        -       0x00000002   Zero   RW         2061    .bss.Bias_Current_CH0  qsfpdd_msa_ddmi.o
    0x20000042        -       0x00000002   Zero   RW         2062    .bss.Bias_Current_CH1  qsfpdd_msa_ddmi.o
    0x20000044        -       0x00000002   Zero   RW         2063    .bss.Bias_Current_CH2  qsfpdd_msa_ddmi.o
    0x20000046        -       0x00000002   Zero   RW         2064    .bss.Bias_Current_CH3  qsfpdd_msa_ddmi.o
    0x20000048        -       0x00000002   Zero   RW         2065    .bss.Bias_Current_CH4  qsfpdd_msa_ddmi.o
    0x2000004a        -       0x00000002   Zero   RW         2066    .bss.Bias_Current_CH5  qsfpdd_msa_ddmi.o
    0x2000004c        -       0x00000002   Zero   RW         2067    .bss.Bias_Current_CH6  qsfpdd_msa_ddmi.o
    0x2000004e        -       0x00000002   Zero   RW         2068    .bss.Bias_Current_CH7  qsfpdd_msa_ddmi.o
    0x20000050        -       0x00000080   Zero   RW          319    .bss.CALIB_MEMORY_1_MAP  poweron_table.o
    0x200000d0        -       0x00000080   Zero   RW          313    .bss.CALIB_MEMORY_MAP  poweron_table.o
    0x20000150        -       0x00000048   Zero   RW         1877    .bss.COMMAND_4700_DATA  dsp_line_side.o
    0x20000198        -       0x00000010   Zero   RW          314    .bss.CTEL_Table     poweron_table.o
    0x200001a8        -       0x00000001   Zero   RW          223    .bss.Clear_Correct_ADR  gd32e501_s_i2c0_pb67.o
    0x200001a9        -       0x00000001   Zero   RW         2115    .bss.Config_Error_flag  qsfpdd_msa_optional_control.o
    0x200001aa        -       0x00000001   Zero   RW          225    .bss.DATA_LEGHT     gd32e501_s_i2c0_pb67.o
    0x200001ab   0x0800f864   0x00000001   PAD
    0x200001ac        -       0x00000002   Zero   RW         2193    .bss.DDMI_DataCount  qsfpdd_msa_statemachine.o
    0x200001ae        -       0x00000001   Zero   RW         2188    .bss.DDMI_Enable    qsfpdd_msa_statemachine.o
    0x200001af        -       0x00000001   Zero   RW         2190    .bss.DDMI_Update_C  qsfpdd_msa_statemachine.o
    0x200001b0        -       0x00000080   Zero   RW         1842    .bss.DSP_Direct_Control_MEMORY_MAP  dsp.o
    0x20000230        -       0x00000080   Zero   RW         1843    .bss.DSP_Line_Side_PHY0_MEMORY_MAP  dsp.o
    0x200002b0        -       0x00000001   Zero   RW         2183    .bss.DSP_MODE_SET   qsfpdd_msa_statemachine.o
    0x200002b1        -       0x00000001   Zero   RW         1841    .bss.DSP_Ready_Flag  dsp.o
    0x200002b2        -       0x00000080   Zero   RW         1844    .bss.DSP_System_Side_PHY0_MEMORY_MAP  dsp.o
    0x20000332        -       0x00000080   Zero   RW         1845    .bss.DSP_System_Side_PHY1_MEMORY_MAP  dsp.o
    0x200003b2        -       0x00000001   Zero   RW          216    .bss.Data_count_I2C0  gd32e501_s_i2c0_pb67.o
    0x200003b3        -       0x00000001   Zero   RW         2189    .bss.Error_code_Pass  qsfpdd_msa_statemachine.o
    0x200003b4        -       0x00000001   Zero   RW          218    .bss.HOSTPASSWROD   gd32e501_s_i2c0_pb67.o
    0x200003b5        -       0x00000001   Zero   RW         2185    .bss.HW_Deinitialization_flag  qsfpdd_msa_statemachine.o
    0x200003b6        -       0x00000100   Zero   RW          224    .bss.I2C_Data_Buffer  gd32e501_s_i2c0_pb67.o
    0x200004b6        -       0x00000001   Zero   RW          219    .bss.I2C_READY_FLG  gd32e501_s_i2c0_pb67.o
    0x200004b7   0x0800f864   0x00000001   PAD
    0x200004b8        -       0x00000002   Zero   RW         2028    .bss.IntL_Status_RX  qsfpdd_msa_aw.o
    0x200004ba        -       0x00000002   Zero   RW         2027    .bss.IntL_Status_TX  qsfpdd_msa_aw.o
    0x200004bc        -       0x00000080   Zero   RW         1928    .bss.LDD_Control_MEMORY_MAP  mps5490_idac.o
    0x2000053c        -       0x00000001   Zero   RW          215    .bss.MSA_Memory_ADR  gd32e501_s_i2c0_pb67.o
    0x2000053d        -       0x00000001   Zero   RW         2201    .bss.ModuleDeactivatedT_Flag  qsfpdd_msa_statemachine.o
    0x2000053e        -       0x00000001   Zero   RW         2184    .bss.Module_Status  qsfpdd_msa_statemachine.o
    0x2000053f        -       0x00000010   Zero   RW          317    .bss.OP_AMP_Table   poweron_table.o
    0x2000054f        -       0x00000001   Zero   RW         2107    .bss.P13_B144_Bef   qsfpdd_msa_optional_control.o
    0x20000550        -       0x00000001   Zero   RW         2108    .bss.P13_B152_Bef   qsfpdd_msa_optional_control.o
    0x20000551        -       0x00000001   Zero   RW         2109    .bss.P13_B180_Bef   qsfpdd_msa_optional_control.o
    0x20000552        -       0x00000001   Zero   RW         2110    .bss.P13_B181_Bef   qsfpdd_msa_optional_control.o
    0x20000553        -       0x00000001   Zero   RW         2111    .bss.P13_B182_Bef   qsfpdd_msa_optional_control.o
    0x20000554        -       0x00000001   Zero   RW         2112    .bss.P13_B183_Bef   qsfpdd_msa_optional_control.o
    0x20000555        -       0x00000004   Zero   RW          316    .bss.PW_LEVE1       poweron_table.o
    0x20000559        -       0x00000001   Zero   RW         2125    .bss.Post_Cursor_RX1  qsfpdd_msa_optional_control.o
    0x2000055a        -       0x00000001   Zero   RW         2126    .bss.Post_Cursor_RX2  qsfpdd_msa_optional_control.o
    0x2000055b        -       0x00000001   Zero   RW         2127    .bss.Post_Cursor_RX3  qsfpdd_msa_optional_control.o
    0x2000055c        -       0x00000001   Zero   RW         2128    .bss.Post_Cursor_RX4  qsfpdd_msa_optional_control.o
    0x2000055d        -       0x00000001   Zero   RW         2129    .bss.Post_Cursor_RX5  qsfpdd_msa_optional_control.o
    0x2000055e        -       0x00000001   Zero   RW         2130    .bss.Post_Cursor_RX6  qsfpdd_msa_optional_control.o
    0x2000055f        -       0x00000001   Zero   RW         2131    .bss.Post_Cursor_RX7  qsfpdd_msa_optional_control.o
    0x20000560        -       0x00000001   Zero   RW         2132    .bss.Post_Cursor_RX8  qsfpdd_msa_optional_control.o
    0x20000561        -       0x00000010   Zero   RW          318    .bss.Post_Table     poweron_table.o
    0x20000571        -       0x00000001   Zero   RW         2191    .bss.PowerON_AWEN_flag  qsfpdd_msa_statemachine.o
    0x20000572        -       0x00000001   Zero   RW         2117    .bss.Pre_Cursor_RX1  qsfpdd_msa_optional_control.o
    0x20000573        -       0x00000001   Zero   RW         2118    .bss.Pre_Cursor_RX2  qsfpdd_msa_optional_control.o
    0x20000574        -       0x00000001   Zero   RW         2119    .bss.Pre_Cursor_RX3  qsfpdd_msa_optional_control.o
    0x20000575        -       0x00000001   Zero   RW         2120    .bss.Pre_Cursor_RX4  qsfpdd_msa_optional_control.o
    0x20000576        -       0x00000001   Zero   RW         2121    .bss.Pre_Cursor_RX5  qsfpdd_msa_optional_control.o
    0x20000577        -       0x00000001   Zero   RW         2122    .bss.Pre_Cursor_RX6  qsfpdd_msa_optional_control.o
    0x20000578        -       0x00000001   Zero   RW         2123    .bss.Pre_Cursor_RX7  qsfpdd_msa_optional_control.o
    0x20000579        -       0x00000001   Zero   RW         2124    .bss.Pre_Cursor_RX8  qsfpdd_msa_optional_control.o
    0x2000057a        -       0x00000010   Zero   RW          315    .bss.Pre_Table      poweron_table.o
    0x2000058a        -       0x00000100   Zero   RW          302    .bss.QSFPDD_A0      poweron_table.o
    0x2000068a        -       0x00000080   Zero   RW          303    .bss.QSFPDD_P0      poweron_table.o
    0x2000070a        -       0x00000080   Zero   RW          304    .bss.QSFPDD_P1      poweron_table.o
    0x2000078a        -       0x00000080   Zero   RW          307    .bss.QSFPDD_P10     poweron_table.o
    0x2000080a        -       0x00000080   Zero   RW          308    .bss.QSFPDD_P11     poweron_table.o
    0x2000088a        -       0x00000080   Zero   RW          309    .bss.QSFPDD_P13     poweron_table.o
    0x2000090a        -       0x00000080   Zero   RW          310    .bss.QSFPDD_P14     poweron_table.o
    0x2000098a        -       0x00000080   Zero   RW          305    .bss.QSFPDD_P2      poweron_table.o
    0x20000a0a        -       0x00000001   Zero   RW         2018    .bss.RxP_HA_LATCH   qsfpdd_msa_aw.o
    0x20000a0b        -       0x00000001   Zero   RW         2020    .bss.RxP_HW_LATCH   qsfpdd_msa_aw.o
    0x20000a0c        -       0x00000001   Zero   RW         2019    .bss.RxP_LA_LATCH   qsfpdd_msa_aw.o
    0x20000a0d        -       0x00000001   Zero   RW         2021    .bss.RxP_LW_LATCH   qsfpdd_msa_aw.o
    0x20000a0e        -       0x00000001   Zero   RW         2025    .bss.Rx_LOL_LATCH   qsfpdd_msa_aw.o
    0x20000a0f        -       0x00000001   Zero   RW         2024    .bss.Rx_LOS_LATCH   qsfpdd_msa_aw.o
    0x20000a10        -       0x00000001   Zero   RW         2195    .bss.Rx_output_flag  qsfpdd_msa_statemachine.o
    0x20000a11        -       0x00000001   Zero   RW         2186    .bss.SW_Deinitialization_flag  qsfpdd_msa_statemachine.o
    0x20000a12        -       0x00000001   Zero   RW         2200    .bss.Signal_Status  qsfpdd_msa_statemachine.o
    0x20000a13        -       0x00000001   Zero   RW         2182    .bss.SoftWare_Init_flag  qsfpdd_msa_statemachine.o
    0x20000a14        -       0x00000001   Zero   RW         2116    .bss.System_Side_Tab_Load  qsfpdd_msa_optional_control.o
    0x20000a15   0x0800f864   0x00000001   PAD
    0x20000a16        -       0x00000080   Zero   RW         1977    .bss.TIA_Control_MEMORY_MAP  acacia_tia.o
    0x20000a96        -       0x00000001   Zero   RW         2059    .bss.Temperature_Index  qsfpdd_msa_ddmi.o
    0x20000a97        -       0x00000001   Zero   RW         2194    .bss.TxDIS_Power_flag  qsfpdd_msa_statemachine.o
    0x20000a98        -       0x00000001   Zero   RW         2010    .bss.TxP_HA_LATCH   qsfpdd_msa_aw.o
    0x20000a99        -       0x00000001   Zero   RW         2012    .bss.TxP_HW_LATCH   qsfpdd_msa_aw.o
    0x20000a9a        -       0x00000001   Zero   RW         2199    .bss.Tx_Disable_Flag  qsfpdd_msa_statemachine.o
    0x20000a9b        -       0x00000001   Zero   RW         2023    .bss.Tx_LOL_LATCH   qsfpdd_msa_aw.o
    0x20000a9c        -       0x00000001   Zero   RW         2026    .bss.Tx_LOS_Buffer  qsfpdd_msa_aw.o
    0x20000a9d        -       0x00000001   Zero   RW         2022    .bss.Tx_LOS_LATCH   qsfpdd_msa_aw.o
    0x20000a9e        -       0x00000001   Zero   RW         2198    .bss.Tx_Los_Enable_Flag  qsfpdd_msa_statemachine.o
    0x20000a9f        -       0x00000001   Zero   RW         2196    .bss.Tx_output_flag  qsfpdd_msa_statemachine.o
    0x20000aa0        -       0x00000001   Zero   RW          226    .bss.UPDATE_FLAG    gd32e501_s_i2c0_pb67.o
    0x20000aa1        -       0x00000001   Zero   RW         2009    .bss.VCC_Temperature_LATCH  qsfpdd_msa_aw.o
    0x20000aa2   0x0800f864   0x00000002   PAD
    0x20000aa4        -       0x00000004   Zero   RW          340    .bss.delay          systick.o
    0x20000aa8        -       0x00000400   Zero   RW         1769    STACK               startup_gd32e501.o


==============================================================================

Image component sizes


      Code (inc. data)   RO Data    RW Data    ZI Data      Debug   Object Name

       714          0          0          0          0       1807   acacia_sip_ldd.o
      1272          0          0          0        128       4466   acacia_tia.o
      2432          0          0         16        513      11137   dsp.o
      3192          0          0          0         72       3899   dsp_line_side.o
      5926          0          0          0          0       4918   dsp_system_side.o
      1164          0          0          0          0       7941   gd32e501_adc.o
       408         40          0          0          0       1100   gd32e501_adc_control.o
       584          0          0          0          0       3305   gd32e501_flash_rw.o
       964          0          0          0          0      10465   gd32e501_fmc.o
       278          0          0          0          0       2414   gd32e501_fwdgt.o
       650          0          0          0          0       4361   gd32e501_gpio.o
       812          0          0          0          0       9930   gd32e501_i2c.o
      1448          0          0          0          0       5200   gd32e501_initialize.o
        20          0          0          0          0        753   gd32e501_it.o
      2754          0          0          0          0       5851   gd32e501_m_i2c1_pb34.o
      2668          0          0          0          0       5549   gd32e501_m_i2c2_pc78.o
       200          0          0          0          0       4795   gd32e501_misc.o
      1336         10          0          0          0      11569   gd32e501_rcu.o
      7256        512          0          9        263       4611   gd32e501_s_i2c0_pb67.o
        16          0          0          0          0       3514   gd32e501_syscfg.o
        60          0          0          0          0        396   gd_qsfp56_fr4_main.o
      1040          0          0          0        128       3424   mps5490_idac.o
      1368          0          0          0          0       2508   poweron_sequencing.o
      1412          0          0          3       1478       8722   poweron_table.o
      3134         38          0          0         18       6534   qsfpdd_msa_aw.o
      5080         44          0          8         17       5944   qsfpdd_msa_ddmi.o
      9966          0          0          0         32       8731   qsfpdd_msa_optional_control.o
      4642          0          0          0         21       7312   qsfpdd_msa_statemachine.o
        36          8        340          0       1024        860   startup_gd32e501.o
       476          0          0          4          0       2813   system_gd32e501.o
       284          0          0          0          4       3904   systick.o

    ----------------------------------------------------------------------
     61820        652        372         44       3708     158733   Object Totals
         0          0         32          0          0          0   (incl. Generated)
       228          0          0          4         10          0   (incl. Padding)

    ----------------------------------------------------------------------

      Code (inc. data)   RO Data    RW Data    ZI Data      Debug   Library Member Name

         0          0          0          0          0          0   entry.o
         0          0          0          0          0          0   entry10a.o
         0          0          0          0          0          0   entry11a.o
         8          4          0          0          0          0   entry2.o
         4          0          0          0          0          0   entry5.o
         0          0          0          0          0          0   entry7b.o
         0          0          0          0          0          0   entry8b.o
         8          4          0          0          0          0   entry9a.o
        30          0          0          0          0          0   handlers.o
        36          8          0          0          0         68   init.o
         0          0          0          0          0          0   iusefp.o
        30          0          0          0          0         68   llshl.o
        36          0          0          0          0         68   llsshr.o
        32          0          0          0          0         68   llushr.o
        36          0          0          0          0         68   memcpya.o
        36          0          0          0          0        108   memseta.o
       334          0          0          0          0        148   dadd.o
       222          0          0          0          0        100   ddiv.o
       186          0          0          0          0        176   depilogue.o
        62          0          0          0          0         80   dfixi.o
        34          0          0          0          0         76   dflti.o
        26          0          0          0          0         76   dfltui.o
       228          0          0          0          0         96   dmul.o

    ----------------------------------------------------------------------
      1352         16          0          0          0       1200   Library Totals
         4          0          0          0          0          0   (incl. Padding)

    ----------------------------------------------------------------------

      Code (inc. data)   RO Data    RW Data    ZI Data      Debug   Library Name

       256         16          0          0          0        448   mc_w.l
      1092          0          0          0          0        752   mf_w.l

    ----------------------------------------------------------------------
      1352         16          0          0          0       1200   Library Totals

    ----------------------------------------------------------------------

==============================================================================


      Code (inc. data)   RO Data    RW Data    ZI Data      Debug   

     63172        668        372         44       3708     159101   Grand Totals
     63172        668        372         44       3708     159101   ELF Image Totals
     63172        668        372         44          0          0   ROM Totals

==============================================================================

    Total RO  Size (Code + RO Data)                63544 (  62.05kB)
    Total RW  Size (RW Data + ZI Data)              3752 (   3.66kB)
    Total ROM Size (Code + RO Data + RW Data)      63588 (  62.10kB)

==============================================================================

