Component: ARM Compiler 6.13.1 Tool: armlink [5d895400]

==============================================================================

Section Cross References

    main.o(.text.main) refers to gd32e501_initialize.o(.text.GD32E501_Power_on_Initial) for GD32E501_Power_on_Initial
    main.o(.text.main) refers to poweron_sequencing.o(.text.PowerOn_Sequencing_Control) for PowerOn_Sequencing_Control
    main.o(.text.main) refers to poweron_sequencing.o(.text.PowerOn_Reset_Check) for PowerOn_Reset_Check
    main.o(.text.main) refers to poweron_table.o(.text.PowerON_Table_Init) for PowerON_Table_Init
    main.o(.text.main) refers to systick.o(.text.delay_1ms) for delay_1ms
    main.o(.text.main) refers to poweron_sequencing.o(.text.ModSelL_Function) for ModSelL_Function
    main.o(.text.main) refers to qsfpdd_msa_statemachine.o(.text.QSFPDD_MSA_StateMachine) for QSFPDD_MSA_StateMachine
    main.o(.text.main) refers to poweron_sequencing.o(.text.MCU_READ_WRITE_DEIVCE_COMMAND_CONTROL) for MCU_READ_WRITE_DEIVCE_COMMAND_CONTROL
    main.o(.text.main) refers to gd32e501_s_i2c0_pb67.o(.text.SRMA_Flash_Function) for SRMA_Flash_Function
    main.o(.text.main) refers to qsfpdd_msa_aw.o(.bss.IntL_Trigger_Flag) for IntL_Trigger_Flag
    main.o(.text.main) refers to qsfpdd_msa_aw.o(.text.IntL_Function) for IntL_Function
    main.o(.ARM.exidx.text.main) refers to main.o(.text.main) for [Anonymous Symbol]
    gd32e501_adc_control.o(.text.GET_ADC_RowData) refers to gd32e501_adc.o(.text.adc_inserted_channel_config) for adc_inserted_channel_config
    gd32e501_adc_control.o(.text.GET_ADC_RowData) refers to gd32e501_adc.o(.text.adc_software_trigger_enable) for adc_software_trigger_enable
    gd32e501_adc_control.o(.text.GET_ADC_RowData) refers to gd32e501_adc.o(.text.adc_flag_get) for adc_flag_get
    gd32e501_adc_control.o(.text.GET_ADC_RowData) refers to gd32e501_adc.o(.text.adc_flag_clear) for adc_flag_clear
    gd32e501_adc_control.o(.ARM.exidx.text.GET_ADC_RowData) refers to gd32e501_adc_control.o(.text.GET_ADC_RowData) for [Anonymous Symbol]
    gd32e501_adc_control.o(.text.GET_ADC_Value_Data) refers to gd32e501_adc.o(.text.adc_inserted_channel_config) for adc_inserted_channel_config
==============================================================================

Removing Unused input sections from the image.

    Removing main.o(.text), (0 bytes).
    Removing main.o(.ARM.exidx.text.main), (8 bytes).
    Removing gd32e501_adc_control.o(.text), (0 bytes).
    Removing gd32e501_adc_control.o(.ARM.exidx.text.GET_ADC_RowData), (8 bytes).
    Removing gd32e501_adc_control.o(.ARM.exidx.text.GET_ADC_Value_Data), (8 bytes).
    Removing gd32e501_adc_control.o(.ARM.exidx.text.GET_GD_Temperature), (8 bytes).
    Removing gd32e501_flash_rw.o(.text), (0 bytes).
    Removing gd32e501_flash_rw.o(.ARM.exidx.text.Swap_Bytes), (8 bytes).
    Removing gd32e501_flash_rw.o(.ARM.exidx.text.GDMCU_Flash_Erase), (8 bytes).
    Removing gd32e501_flash_rw.o(.text.GDMCU_Flasg_DoubleWord), (52 bytes).
    Removing gd32e501_flash_rw.o(.ARM.exidx.text.GDMCU_Flasg_DoubleWord), (8 bytes).
    Removing gd32e501_flash_rw.o(.text.GDMCU_FLash_HIGHLOEWordWrite), (100 bytes).
    Removing gd32e501_flash_rw.o(.ARM.exidx.text.GDMCU_FLash_HIGHLOEWordWrite), (8 bytes).
    Removing gd32e501_flash_rw.o(.ARM.exidx.text.GDMCU_FLash_WordWrite), (8 bytes).
    Removing gd32e501_flash_rw.o(.text.GDMCU_FMC_WRITE_FUNCTION), (168 bytes).
    Removing gd32e501_flash_rw.o(.ARM.exidx.text.GDMCU_FMC_WRITE_FUNCTION), (8 bytes).
    Removing gd32e501_flash_rw.o(.ARM.exidx.text.GDMCU_FMC_BytesWRITE_FUNCTION), (8 bytes).
    Removing gd32e501_flash_rw.o(.ARM.exidx.text.GDMCU_FMC_READ_DATA), (8 bytes).
==============================================================================

Image Symbol Table

    Local Symbols

    Symbol Name                              Value     Ov Type        Size  Object(Section)

    ../clib/microlib/errno.c                 0x00000000   Number         0  errno.o ABSOLUTE
    ../clib/microlib/init/entry.s            0x00000000   Number         0  entry.o ABSOLUTE
    ../clib/microlib/init/entry.s            0x00000000   Number         0  entry2.o ABSOLUTE
    ../clib/microlib/init/entry.s            0x00000000   Number         0  entry5.o ABSOLUTE
    ../clib/microlib/init/entry.s            0x00000000   Number         0  entry7a.o ABSOLUTE
    ../clib/microlib/init/entry.s            0x00000000   Number         0  entry7b.o ABSOLUTE
    ../clib/microlib/init/entry.s            0x00000000   Number         0  entry8a.o ABSOLUTE
    ../clib/microlib/init/entry.s            0x00000000   Number         0  entry8b.o ABSOLUTE
    ../clib/microlib/init/entry.s            0x00000000   Number         0  entry9a.o ABSOLUTE
    ../clib/microlib/init/entry.s            0x00000000   Number         0  entry9b.o ABSOLUTE
    ../clib/microlib/init/entry.s            0x00000000   Number         0  entry10a.o ABSOLUTE
    ../clib/microlib/init/entry.s            0x00000000   Number         0  entry10b.o ABSOLUTE
    ../clib/microlib/init/entry.s            0x00000000   Number         0  entry11a.o ABSOLUTE
    ../clib/microlib/init/entry.s            0x00000000   Number         0  entry11b.o ABSOLUTE
    ../clib/microlib/longlong.c              0x00000000   Number         0  llshl.o ABSOLUTE
    ../clib/microlib/longlong.c              0x00000000   Number         0  llushr.o ABSOLUTE
    ../clib/microlib/longlong.c              0x00000000   Number         0  llsshr.o ABSOLUTE
    ../clib/microlib/string/memcpy.c         0x00000000   Number         0  memcpya.o ABSOLUTE
    ../clib/microlib/string/memcpy.c         0x00000000   Number         0  memcpyb.o ABSOLUTE
    ../clib/microlib/string/memset.c         0x00000000   Number         0  memseta.o ABSOLUTE
    ../clib/microlib/stubs.s                 0x00000000   Number         0  iusefp.o ABSOLUTE
    ../fplib/microlib/d2f.c                  0x00000000   Number         0  d2f.o ABSOLUTE
    ../fplib/microlib/f2d.c                  0x00000000   Number         0  f2d.o ABSOLUTE
    ../fplib/microlib/fpadd.c                0x00000000   Number         0  dadd.o ABSOLUTE
    ../fplib/microlib/fpcmp.c                0x00000000   Number         0  dcmpgt.o ABSOLUTE
    ../fplib/microlib/fpdiv.c                0x00000000   Number         0  ddiv.o ABSOLUTE
    ../fplib/microlib/fpepilogue.c           0x00000000   Number         0  fepilogue.o ABSOLUTE
    ../fplib/microlib/fpepilogue.c           0x00000000   Number         0  depilogue.o ABSOLUTE
    ../fplib/microlib/fpfix.c                0x00000000   Number         0  dfixi.o ABSOLUTE
    ../fplib/microlib/fpfix.c                0x00000000   Number         0  dfixui.o ABSOLUTE
    ../fplib/microlib/fpflt.c                0x00000000   Number         0  dflti.o ABSOLUTE
    ../fplib/microlib/fpflt.c                0x00000000   Number         0  dfltui.o ABSOLUTE
    ../fplib/microlib/fpmul.c                0x00000000   Number         0  dmul.o ABSOLUTE
    ../fplib/microlib/fpneg.c                0x00000000   Number         0  dneg.o ABSOLUTE
    ../fplib/microlib/fpscalb.c              0x00000000   Number         0  dscalb.o ABSOLUTE
    ../fplib/microlib/fpsqrt.c               0x00000000   Number         0  dsqrt.o ABSOLUTE
    ../mathlib/dunder.c                      0x00000000   Number         0  dunder.o ABSOLUTE
    ../mathlib/exp.c                         0x00000000   Number         0  exp.o ABSOLUTE
    ../mathlib/exp.c                         0x00000000   Number         0  exp_x.o ABSOLUTE
    ../mathlib/fabs.c                        0x00000000   Number         0  fabs.o ABSOLUTE
    ../mathlib/fpclassify.c                  0x00000000   Number         0  fpclassify.o ABSOLUTE
    ../mathlib/log.c                         0x00000000   Number         0  log.o ABSOLUTE
    ../mathlib/log.c                         0x00000000   Number         0  log_x.o ABSOLUTE
    ../mathlib/log10.c                       0x00000000   Number         0  log10.o ABSOLUTE
    ../mathlib/log10.c                       0x00000000   Number         0  log10_x.o ABSOLUTE
    ../mathlib/poly.c                        0x00000000   Number         0  poly.o ABSOLUTE
    ../mathlib/pow.c                         0x00000000   Number         0  pow.o ABSOLUTE
    ../mathlib/pow.c                         0x00000000   Number         0  pow_x.o ABSOLUTE
    ../mathlib/qnan.c                        0x00000000   Number         0  qnan.o ABSOLUTE
    ../mathlib/sqrt.c                        0x00000000   Number         0  sqrt.o ABSOLUTE
    ../mathlib/sqrt.c                        0x00000000   Number         0  sqrt_x.o ABSOLUTE
    ..\GD32E501_System\startup_gd32e501.s    0x00000000   Number         0  startup_gd32e501.o ABSOLUTE
    Acacia_SIP_LDD.c                         0x00000000   Number         0  acacia_sip_ldd.o ABSOLUTE
    DSP.c                                    0x00000000   Number         0  dsp.o ABSOLUTE
    DSP_Line_Side.c                          0x00000000   Number         0  dsp_line_side.o ABSOLUTE
    DSP_System_Side.c                        0x00000000   Number         0  dsp_system_side.o ABSOLUTE
    GD32E501_ADC_Control.c                   0x00000000   Number         0  gd32e501_adc_control.o ABSOLUTE
    GD32E501_Flash_RW.c                      0x00000000   Number         0  gd32e501_flash_rw.o ABSOLUTE
    GD32E501_Initialize.c                    0x00000000   Number         0  gd32e501_initialize.o ABSOLUTE
    GD32E501_M_I2C1_PB34.c                   0x00000000   Number         0  gd32e501_m_i2c1_pb34.o ABSOLUTE
    GD32E501_M_I2C2_PC78.c                   0x00000000   Number         0  gd32e501_m_i2c2_pc78.o ABSOLUTE
    GD32E501_M_I2C3_PC1011.c                 0x00000000   Number         0  gd32e501_m_i2c3_pc1011.o ABSOLUTE
    GD32E501_SPI.c                           0x00000000   Number         0  gd32e501_spi.o ABSOLUTE
    GD32E501_S_I2C0_PB67.c                   0x00000000   Number         0  gd32e501_s_i2c0_pb67.o ABSOLUTE
    MPS5490_IDAC.c                           0x00000000   Number         0  mps5490_idac.o ABSOLUTE
    Main.c                                   0x00000000   Number         0  main.o ABSOLUTE
    PowerOn_Sequencing.c                     0x00000000   Number         0  poweron_sequencing.o ABSOLUTE
    PowerOn_Table.c                          0x00000000   Number         0  poweron_table.o ABSOLUTE
    QSFPDD_MSA_AW.c                          0x00000000   Number         0  qsfpdd_msa_aw.o ABSOLUTE
    QSFPDD_MSA_DDMI.c                        0x00000000   Number         0  qsfpdd_msa_ddmi.o ABSOLUTE
    QSFPDD_MSA_DataPathStateMachine.c        0x00000000   Number         0  qsfpdd_msa_datapathstatemachine.o ABSOLUTE
    QSFPDD_MSA_Optional_Control.c            0x00000000   Number         0  qsfpdd_msa_optional_control.o ABSOLUTE
    QSFPDD_MSA_Page10h_Control.c             0x00000000   Number         0  qsfpdd_msa_page10h_control.o ABSOLUTE
    QSFPDD_MSA_Page13h_Diagnostics.c         0x00000000   Number         0  qsfpdd_msa_page13h_diagnostics.o ABSOLUTE
    QSFPDD_MSA_Page14h_Diagnostics.c         0x00000000   Number         0  qsfpdd_msa_page14h_diagnostics.o ABSOLUTE
    QSFPDD_MSA_StateMachine.c                0x00000000   Number         0  qsfpdd_msa_statemachine.o ABSOLUTE
    TEC_APC.C                                0x00000000   Number         0  tec_apc.o ABSOLUTE
    acacia_TIA.c                             0x00000000   Number         0  acacia_tia.o ABSOLUTE
    cdcmple.s                                0x00000000   Number         0  cdcmple.o ABSOLUTE
    cdrcmple.s                               0x00000000   Number         0  cdrcmple.o ABSOLUTE
    dc.s                                     0x00000000   Number         0  dc.o ABSOLUTE
    gd32e501_adc.c                           0x00000000   Number         0  gd32e501_adc.o ABSOLUTE
    gd32e501_cla.c                           0x00000000   Number         0  gd32e501_cla.o ABSOLUTE
    gd32e501_cmp.c                           0x00000000   Number         0  gd32e501_cmp.o ABSOLUTE
    gd32e501_crc.c                           0x00000000   Number         0  gd32e501_crc.o ABSOLUTE
    gd32e501_dac.c                           0x00000000   Number         0  gd32e501_dac.o ABSOLUTE
    gd32e501_dbg.c                           0x00000000   Number         0  gd32e501_dbg.o ABSOLUTE
    gd32e501_dma.c                           0x00000000   Number         0  gd32e501_dma.o ABSOLUTE
    gd32e501_exti.c                          0x00000000   Number         0  gd32e501_exti.o ABSOLUTE
    gd32e501_fmc.c                           0x00000000   Number         0  gd32e501_fmc.o ABSOLUTE
    gd32e501_fwdgt.c                         0x00000000   Number         0  gd32e501_fwdgt.o ABSOLUTE
    gd32e501_gpio.c                          0x00000000   Number         0  gd32e501_gpio.o ABSOLUTE
    gd32e501_i2c.c                           0x00000000   Number         0  gd32e501_i2c.o ABSOLUTE
    gd32e501_it.c                            0x00000000   Number         0  gd32e501_it.o ABSOLUTE
    gd32e501_mdio.c                          0x00000000   Number         0  gd32e501_mdio.o ABSOLUTE
    gd32e501_misc.c                          0x00000000   Number         0  gd32e501_misc.o ABSOLUTE
    gd32e501_pmu.c                           0x00000000   Number         0  gd32e501_pmu.o ABSOLUTE
    gd32e501_rcu.c                           0x00000000   Number         0  gd32e501_rcu.o ABSOLUTE
    gd32e501_rtc.c                           0x00000000   Number         0  gd32e501_rtc.o ABSOLUTE
    gd32e501_spi.c                           0x00000000   Number         0  gd32e501_spi_1.o ABSOLUTE
    gd32e501_syscfg.c                        0x00000000   Number         0  gd32e501_syscfg.o ABSOLUTE
    gd32e501_timer.c                         0x00000000   Number         0  gd32e501_timer.o ABSOLUTE
    gd32e501_usart.c                         0x00000000   Number         0  gd32e501_usart.o ABSOLUTE
    gd32e501_wwdgt.c                         0x00000000   Number         0  gd32e501_wwdgt.o ABSOLUTE
    handlers.s                               0x00000000   Number         0  handlers.o ABSOLUTE
    init.s                                   0x00000000   Number         0  init.o ABSOLUTE
    system_gd32e501.c                        0x00000000   Number         0  system_gd32e501.o ABSOLUTE
    systick.c                                0x00000000   Number         0  systick.o ABSOLUTE
    RESET                                    0x08000000   Section      340  startup_gd32e501.o(RESET)
    .ARM.Collect$$$$00000000                 0x08000154   Section        0  entry.o(.ARM.Collect$$$$00000000)
    .ARM.Collect$$$$00000001                 0x08000154   Section        4  entry2.o(.ARM.Collect$$$$00000001)
    .ARM.Collect$$$$00000004                 0x08000158   Section        4  entry5.o(.ARM.Collect$$$$00000004)
    .ARM.Collect$$$$00000008                 0x0800015c   Section        0  entry7b.o(.ARM.Collect$$$$00000008)
    .ARM.Collect$$$$0000000A                 0x0800015c   Section        0  entry8b.o(.ARM.Collect$$$$0000000A)
    .ARM.Collect$$$$0000000B                 0x0800015c   Section        8  entry9a.o(.ARM.Collect$$$$0000000B)
    __lit__00000000                          0x08000164   Data           4  entry2.o(.ARM.Collect$$$$00002712)
    .ARM.Collect$$$$0000000D                 0x08000164   Section        0  entry10a.o(.ARM.Collect$$$$0000000D)
    .ARM.Collect$$$$0000000F                 0x08000164   Section        0  entry11a.o(.ARM.Collect$$$$0000000F)
    .ARM.Collect$$$$00002712                 0x08000164   Section        4  entry2.o(.ARM.Collect$$$$00002712)
    $v0                                      0x08000168   Number         0  startup_gd32e501.o(.text)
    .text                                    0x08000168   Section       36  startup_gd32e501.o(.text)
    .text                                    0x0800018c   Section        0  memcpya.o(.text)
    .text                                    0x080001b0   Section        0  memseta.o(.text)
    .text                                    0x080001d4   Section        0  dadd.o(.text)
    .text                                    0x08000322   Section        0  dmul.o(.text)
    .text                                    0x08000406   Section        0  ddiv.o(.text)
    .text                                    0x080004e4   Section        0  dcmpgt.o(.text)
    .text                                    0x0800051a   Section        0  dflti.o(.text)
    .text                                    0x0800053c   Section        0  dfltui.o(.text)
    .text                                    0x08000556   Section        0  dfixi.o(.text)
    .text                                    0x08000594   Section        0  dfixui.o(.text)
    .text                                    0x080005c6   Section        0  f2d.o(.text)
    .text                                    0x080005ec   Section        0  d2f.o(.text)
    .text                                    0x08000624   Section        0  llshl.o(.text)
    .text                                    0x08000642   Section        0  llushr.o(.text)
    .text                                    0x08000662   Section        0  llsshr.o(.text)
    .text                                    0x08000686   Section        0  iusefp.o(.text)
    .text                                    0x08000686   Section        0  fepilogue.o(.text)
    .text                                    0x080006f4   Section        0  depilogue.o(.text)
    .text                                    0x080007ae   Section        0  dscalb.o(.text)
    .text                                    0x080007dc   Section        0  dsqrt.o(.text)
    .text                                    0x08000880   Section       48  cdcmple.o(.text)
    .text                                    0x080008b0   Section       48  cdrcmple.o(.text)
    .text                                    0x080008e0   Section       36  init.o(.text)
    [Anonymous Symbol]                       0x08000904   Section        0  gd32e501_initialize.o(.text.ADC_Config_Initial)
    [Anonymous Symbol]                       0x08000950   Section        0  tec_apc.o(.text.APC_Control)
    [Anonymous Symbol]                       0x08000bd4   Section        0  acacia_sip_ldd.o(.text.Acacia_ADC_Pseudocode_Temperature)
    [Anonymous Symbol]                       0x08000d08   Section        0  acacia_sip_ldd.o(.text.Acacia_LDD_DiaTemp)
    [Anonymous Symbol]                       0x08000de0   Section        0  acacia_sip_ldd.o(.text.Acacia_LDD_LawDataSP_Update)
    [Anonymous Symbol]                       0x08000e5c   Section        0  acacia_sip_ldd.o(.text.Acacia_LDD_Read_ALL)
    [Anonymous Symbol]                       0x080010b8   Section        0  acacia_sip_ldd.o(.text.Acacia_LDD_SP_Update)
    [Anonymous Symbol]                       0x08001160   Section        0  acacia_sip_ldd.o(.text.Acacia_LDD_Write_ALL)
    [Anonymous Symbol]                       0x080012b0   Section        0  acacia_tia.o(.text.Acacia_TIA_GetSP)
    [Anonymous Symbol]                       0x08001554   Section        0  acacia_tia.o(.text.Acacia_TIA_Read_ALL)
    [Anonymous Symbol]                       0x080019f8   Section        0  acacia_tia.o(.text.Acacia_TIA_SEL_SP)
    [Anonymous Symbol]                       0x08001b90   Section        0  acacia_tia.o(.text.Acacia_TIA_SP_GETDATA)
    [Anonymous Symbol]                       0x08001c58   Section        0  acacia_tia.o(.text.Acacia_TIA_Write_ALL)
    [Anonymous Symbol]                       0x08001fd0   Section        0  qsfpdd_msa_page10h_control.o(.text.AppSelCode_Verify_Process)
    [Anonymous Symbol]                       0x080032ac   Section        0  qsfpdd_msa_page10h_control.o(.text.AppSel_Control_Feedback)
    [Anonymous Symbol]                       0x08003868   Section        0  qsfpdd_msa_page10h_control.o(.text.Apply_DataPathInit_Immediate)
    [Anonymous Symbol]                       0x080039a8   Section        0  qsfpdd_msa_page10h_control.o(.text.Auto_Squelch_Rx_Output)
    [Anonymous Symbol]                       0x08003d4c   Section        0  qsfpdd_msa_page10h_control.o(.text.Auto_Squelch_Tx_Output)
    [Anonymous Symbol]                       0x0800456c   Section        0  qsfpdd_msa_ddmi.o(.text.BIAS_TxPower_Monitor)
    [Anonymous Symbol]                       0x08004a4c   Section        0  dsp.o(.text.BRCM_Control_READ_Data)
    [Anonymous Symbol]                       0x08004b44   Section        0  dsp.o(.text.BRCM_Control_WRITE_Data)
    [Anonymous Symbol]                       0x08004c38   Section        0  dsp.o(.text.BRCM_READ_Data)
    [Anonymous Symbol]                       0x08004d30   Section        0  dsp.o(.text.BRCM_WRITE_Data)
    [Anonymous Symbol]                       0x08004e20   Section        0  mps5490_idac.o(.text.Bias_MOD_LUT_UpDate_Current)
    [Anonymous Symbol]                       0x08004ef4   Section        0  mps5490_idac.o(.text.Bias_MOD_Updata_Current_Temperature_vary)
    [Anonymous Symbol]                       0x08004f60   Section        0  dsp_line_side.o(.text.Binary32ToDouble)
    [Anonymous Symbol]                       0x0800501c   Section        0  qsfpdd_msa_ddmi.o(.text.CAL_Function)
    [Anonymous Symbol]                       0x08005064   Section        0  qsfpdd_msa_aw.o(.text.CMIS40_RXLOS_LOL_AW)
    [Anonymous Symbol]                       0x080051b4   Section        0  qsfpdd_msa_aw.o(.text.CMIS40_TXLOS_LOL_AW)
    [Anonymous Symbol]                       0x080052bc   Section        0  poweron_table.o(.text.CMIS_LOWPAGE_INIT)
    [Anonymous Symbol]                       0x08005300   Section        0  qsfpdd_msa_page10h_control.o(.text.CMIS_PAGE10h_Control)
    [Anonymous Symbol]                       0x08005338   Section        0  poweron_table.o(.text.CMIS_PAGE10h_INIT)
    [Anonymous Symbol]                       0x0800536c   Section        0  poweron_table.o(.text.CMIS_PAGE11h_INIT)
    [Anonymous Symbol]                       0x08005400   Section        0  qsfpdd_msa_page13h_diagnostics.o(.text.CMIS_PAGE13h_Diagnostics_Function)
    [Anonymous Symbol]                       0x08005414   Section        0  poweron_table.o(.text.CMIS_PAGE13h_INIT)
    [Anonymous Symbol]                       0x08005450   Section        0  qsfpdd_msa_page14h_diagnostics.o(.text.CMIS_PAGE14h_Diagnostics_Function)
    [Anonymous Symbol]                       0x0800545c   Section        0  poweron_table.o(.text.CMIS_TABLE_INIT)
    [Anonymous Symbol]                       0x080054d8   Section        0  poweron_sequencing.o(.text.CheckSum_Calculate)
    [Anonymous Symbol]                       0x0800556c   Section        0  qsfpdd_msa_aw.o(.text.Clear_Flag)
    [Anonymous Symbol]                       0x08005728   Section        0  qsfpdd_msa_aw.o(.text.Clear_Module_state_Byte8)
    [Anonymous Symbol]                       0x08005744   Section        0  qsfpdd_msa_aw.o(.text.Clear_VCC_TEMP_Flag)
    [Anonymous Symbol]                       0x0800576c   Section        0  qsfpdd_msa_page10h_control.o(.text.Configuration_Error_code_Feedback)
    [Anonymous Symbol]                       0x08005938   Section        0  gd32e501_initialize.o(.text.DAC_Config_Initial)
    [Anonymous Symbol]                       0x080059f4   Section        0  tec_apc.o(.text.DAC_TO_TOPS_SETTING)
    [Anonymous Symbol]                       0x08005a7c   Section        0  qsfpdd_msa_aw.o(.text.DDMI_AW_Monitor)
    [Anonymous Symbol]                       0x08005a90   Section        0  dsp_line_side.o(.text.DEC_EQUAL_TO_HEX)
    [Anonymous Symbol]                       0x08005b7c   Section        0  poweron_table.o(.text.DEVICE_TABLE_INIT)
    [Anonymous Symbol]                       0x08005c1c   Section        0  dsp.o(.text.DSP87400_CAPI_CW_CMD)
    [Anonymous Symbol]                       0x08005c5c   Section        0  dsp.o(.text.DSP87400_CAPI_Command_response)
    [Anonymous Symbol]                       0x08005d14   Section        0  dsp.o(.text.DSP87400_EEPROM_AVS_UcReady_CHECK)
    [Anonymous Symbol]                       0x08005d74   Section        0  dsp.o(.text.DSP87400_PAM4_COMMAND_ID_SET_CONFIG_INFO_CORE_IP_CW)
    [Anonymous Symbol]                       0x08005e60   Section        0  dsp.o(.text.DSP87400_host_cfg_st_lane_cw_cfg_rdy)
    [Anonymous Symbol]                       0x08005ebc   Section        0  dsp.o(.text.DSP87400_host_lane_cfg_done)
    [Anonymous Symbol]                       0x08005f40   Section        0  dsp.o(.text.DSP87400_line_cfg_st_lane_cw_cfg_rdy)
    [Anonymous Symbol]                       0x08005f74   Section        0  dsp.o(.text.DSP87400_line_lane_cfg_done)
    [Anonymous Symbol]                       0x08005fdc   Section        0  dsp.o(.text.DSP_GET_AVS_STATUS)
    [Anonymous Symbol]                       0x0800602c   Section        0  dsp.o(.text.DSP_GET_DOWNLOAD_STATUS)
    [Anonymous Symbol]                       0x080060ec   Section        0  dsp.o(.text.DSP_GET_REV_ID)
    [Anonymous Symbol]                       0x08006138   Section        0  dsp.o(.text.DSP_Init)
    [Anonymous Symbol]                       0x08006264   Section        0  dsp_line_side.o(.text.DSP_LineSide_Loopback_SET)
    [Anonymous Symbol]                       0x080063f8   Section        0  dsp_line_side.o(.text.DSP_LineSide_RX_Squelch_SET)
    [Anonymous Symbol]                       0x08006430   Section        0  dsp_line_side.o(.text.DSP_LineSide_SNR_LTP_GET)
    [Anonymous Symbol]                       0x08006940   Section        0  dsp_line_side.o(.text.DSP_LineSide_TRX_Polarity_SET)
    [Anonymous Symbol]                       0x08006b88   Section        0  dsp_line_side.o(.text.DSP_LineSide_TRX_Squelch_SET)
    [Anonymous Symbol]                       0x08006d44   Section        0  dsp_line_side.o(.text.DSP_LineSide_TX_FIR_SET)
    [Anonymous Symbol]                       0x08007468   Section        0  dsp_line_side.o(.text.DSP_LineSide_TX_Squelch_SET)
    [Anonymous Symbol]                       0x0800749c   Section        0  dsp_line_side.o(.text.DSP_Line_Side_Digital_Loopback_SET)
    [Anonymous Symbol]                       0x080074d0   Section        0  dsp_line_side.o(.text.DSP_Line_Side_LOL)
    [Anonymous Symbol]                       0x08007504   Section        0  dsp_line_side.o(.text.DSP_Line_Side_PRBS_SET)
    [Anonymous Symbol]                       0x080076bc   Section        0  dsp_line_side.o(.text.DSP_Line_Side_Remote_Loopback_SET)
    [Anonymous Symbol]                       0x080076f0   Section        0  dsp.o(.text.DSP_PLL_BANDWIDTH_CONFIG)
    [Anonymous Symbol]                       0x0800775c   Section        0  poweron_sequencing.o(.text.DSP_PowerON_Seq_Control)
    [Anonymous Symbol]                       0x080077c0   Section        0  dsp.o(.text.DSP_SET_0V75)
    [Anonymous Symbol]                       0x080079d8   Section        0  dsp.o(.text.DSP_SET_0V90)
    [Anonymous Symbol]                       0x08007bf0   Section        0  dsp_system_side.o(.text.DSP_SystemSide_Loopback_SET)
    [Anonymous Symbol]                       0x08007e90   Section        0  dsp_system_side.o(.text.DSP_SystemSide_SNR_LTP_GET)
    [Anonymous Symbol]                       0x08008400   Section        0  dsp_system_side.o(.text.DSP_SystemSide_TRX_Polarity_SET)
    [Anonymous Symbol]                       0x0800885c   Section        0  dsp_system_side.o(.text.DSP_SystemSide_TRX_Squelch_SET)
    [Anonymous Symbol]                       0x08008af8   Section        0  dsp_system_side.o(.text.DSP_System_Side_Digital_Loopback_SET)
    [Anonymous Symbol]                       0x08008b2c   Section        0  dsp_system_side.o(.text.DSP_System_Side_LOL)
    [Anonymous Symbol]                       0x08008b50   Section        0  dsp_system_side.o(.text.DSP_System_Side_PRBS_SET)
    [Anonymous Symbol]                       0x08008dd4   Section        0  dsp_system_side.o(.text.DSP_System_Side_RX_Squelch_SET)
    [Anonymous Symbol]                       0x08008e08   Section        0  dsp_system_side.o(.text.DSP_System_Side_Remote_Loopback_SET)
    [Anonymous Symbol]                       0x08008e3c   Section        0  dsp_system_side.o(.text.DSP_System_Side_TX_FIR_SET)
    [Anonymous Symbol]                       0x080095e4   Section        0  dsp_system_side.o(.text.DSP_System_Side_TX_Squelch_SET)
    [Anonymous Symbol]                       0x08009618   Section        0  qsfpdd_msa_datapathstatemachine.o(.text.DataPathDeactivateS)
    [Anonymous Symbol]                       0x08009650   Section        0  qsfpdd_msa_datapathstatemachine.o(.text.DataPathDeinitS)
    [Anonymous Symbol]                       0x080096b0   Section        0  qsfpdd_msa_datapathstatemachine.o(.text.DataPathDeintT)
    [Anonymous Symbol]                       0x080096d8   Section        0  qsfpdd_msa_datapathstatemachine.o(.text.DataPathReDeinitS)
    [Anonymous Symbol]                       0x08009710   Section        0  qsfpdd_msa_datapathstatemachine.o(.text.DataPathReinitT)
    [Anonymous Symbol]                       0x08009738   Section        0  qsfpdd_msa_datapathstatemachine.o(.text.DataPathTxDisableT)
    [Anonymous Symbol]                       0x08009814   Section        0  qsfpdd_msa_datapathstatemachine.o(.text.DataPathTxForceSquelchT)
    [Anonymous Symbol]                       0x08009914   Section        0  gd32e501_m_i2c1_pb34.o(.text.Delay_I2C1)
    [Anonymous Symbol]                       0x0800992c   Section        0  gd32e501_m_i2c2_pc78.o(.text.Delay_I2C2)
    [Anonymous Symbol]                       0x08009944   Section        0  acacia_sip_ldd.o(.text.Device_RESET)
    [Anonymous Symbol]                       0x08009980   Section        0  acacia_sip_ldd.o(.text.Device_UnReset)
    [Anonymous Symbol]                       0x080099d4   Section        0  gd32e501_it.o(.text.EXTI0_1_IRQHandler)
    [Anonymous Symbol]                       0x080099d8   Section        0  qsfpdd_msa_datapathstatemachine.o(.text.ForceLowPwr)
    [Anonymous Symbol]                       0x08009a20   Section        0  tec_apc.o(.text.GD32E501_DAC_Control)
    [Anonymous Symbol]                       0x08009ac0   Section        0  gd32e501_initialize.o(.text.GD32E501_GPIO_Analogy_initial)
    [Anonymous Symbol]                       0x08009bac   Section        0  gd32e501_initialize.o(.text.GD32E501_GPIO_OP_initial)
    [Anonymous Symbol]                       0x08009c18   Section        0  gd32e501_initialize.o(.text.GD32E501_GPIO_PP_initial)
    [Anonymous Symbol]                       0x08009d5c   Section        0  gd32e501_initialize.o(.text.GD32E501_Power_on_Initial)
    [Anonymous Symbol]                       0x08009d88   Section        0  gd32e501_flash_rw.o(.text.GDMCU_FLash_WordWrite)
    [Anonymous Symbol]                       0x08009e20   Section        0  gd32e501_flash_rw.o(.text.GDMCU_FMC_BytesWRITE_FUNCTION)
    [Anonymous Symbol]                       0x08009f28   Section        0  gd32e501_flash_rw.o(.text.GDMCU_FMC_READ_DATA)
    [Anonymous Symbol]                       0x08009f40   Section        0  gd32e501_flash_rw.o(.text.GDMCU_FMC_READ_FUNCTION)
    [Anonymous Symbol]                       0x08009f8c   Section        0  gd32e501_flash_rw.o(.text.GDMCU_Flash_Erase)
    [Anonymous Symbol]                       0x08009fb8   Section        0  gd32e501_initialize.o(.text.GD_System_Periph_Clock_Enable)
    [Anonymous Symbol]                       0x0800a040   Section        0  gd32e501_adc_control.o(.text.GET_ADC_RowData)
    [Anonymous Symbol]                       0x0800a0b0   Section        0  gd32e501_adc_control.o(.text.GET_ADC_Value_Data)
    [Anonymous Symbol]                       0x0800a150   Section        0  gd32e501_adc_control.o(.text.GET_GD_Temperature)
    [Anonymous Symbol]                       0x0800a248   Section        0  gd32e501_m_i2c1_pb34.o(.text.GPIO_Configuration_I2C1_PB34)
    [Anonymous Symbol]                       0x0800a2d8   Section        0  gd32e501_m_i2c2_pc78.o(.text.GPIO_Configuration_I2C2_PC78)
    [Anonymous Symbol]                       0x0800a36c   Section        0  acacia_sip_ldd.o(.text.GetDebug_SP_data)
    [Anonymous Symbol]                       0x0800a3c8   Section        0  acacia_sip_ldd.o(.text.GetSP_LawData)
    [Anonymous Symbol]                       0x0800a470   Section        0  qsfpdd_msa_page10h_control.o(.text.Get_AppSelCode_Result)
    [Anonymous Symbol]                       0x0800a508   Section        0  qsfpdd_msa_optional_control.o(.text.Get_CH_Data)
    [Anonymous Symbol]                       0x0800a54c   Section        0  qsfpdd_msa_aw.o(.text.Get_Lane_DataPathState)
    [Anonymous Symbol]                       0x0800a65c   Section        0  qsfpdd_msa_page13h_diagnostics.o(.text.Get_LineSide_PRBS_Pattern)
    [Anonymous Symbol]                       0x0800a79c   Section        0  qsfpdd_msa_optional_control.o(.text.Get_Module_Power_Monitor)
    [Anonymous Symbol]                       0x0800a818   Section        0  qsfpdd_msa_page10h_control.o(.text.Get_NRZ_Code)
    [Anonymous Symbol]                       0x0800a944   Section        0  qsfpdd_msa_page10h_control.o(.text.Get_PAM_Code)
    [Anonymous Symbol]                       0x0800aa70   Section        0  poweron_sequencing.o(.text.Get_Power_C_Status)
    [Anonymous Symbol]                       0x0800ab90   Section        0  qsfpdd_msa_statemachine.o(.text.Get_Start_AppSelCode)
    [Anonymous Symbol]                       0x0800acac   Section        0  qsfpdd_msa_aw.o(.text.Get_Support_DataPathState)
    [Anonymous Symbol]                       0x0800ad00   Section        0  qsfpdd_msa_page13h_diagnostics.o(.text.Get_SystemSide_PRBS_Pattern)
    [Anonymous Symbol]                       0x0800ae40   Section        0  gd32e501_it.o(.text.HardFault_Handler)
    [Anonymous Symbol]                       0x0800ae44   Section        0  qsfpdd_msa_page13h_diagnostics.o(.text.Host_Side_LoopBack_Control)
    [Anonymous Symbol]                       0x0800b138   Section        0  qsfpdd_msa_page13h_diagnostics.o(.text.Host_Side_Pattern_Generator_Control)
    [Anonymous Symbol]                       0x0800b3f8   Section        0  qsfpdd_msa_page14h_diagnostics.o(.text.Host_Side_SNR)
    [Anonymous Symbol]                       0x0800bd38   Section        0  gd32e501_s_i2c0_pb67.o(.text.I2C0_ER_IRQHandler)
    [Anonymous Symbol]                       0x0800be58   Section        0  gd32e501_s_i2c0_pb67.o(.text.I2C0_EV_IRQHandler)
    [Anonymous Symbol]                       0x0800c76c   Section        0  poweron_table.o(.text.Init_Rx_Output_Values)
    [Anonymous Symbol]                       0x0800c7e0   Section        0  qsfpdd_msa_ddmi.o(.text.Initialize_TRx_DDMI)
    [Anonymous Symbol]                       0x0800c7fc   Section        0  qsfpdd_msa_aw.o(.text.IntL_Function)
    [Anonymous Symbol]                       0x0800cf48   Section        0  poweron_sequencing.o(.text.Internal_Voltage_Power_Down)
    [Anonymous Symbol]                       0x0800d00c   Section        0  poweron_sequencing.o(.text.Internal_Voltage_Power_up_Seq)
    [Anonymous Symbol]                       0x0800d100   Section        0  mps5490_idac.o(.text.LDD_Trun_on)
    [Anonymous Symbol]                       0x0800d11c   Section        0  poweron_sequencing.o(.text.LPMDOE_POWER_OFF)
    [Anonymous Symbol]                       0x0800d124   Section        0  poweron_sequencing.o(.text.LPMODE_Function)
    [Anonymous Symbol]                       0x0800d1ec   Section        0  poweron_sequencing.o(.text.LPMODE_POWER_ON)
    [Anonymous Symbol]                       0x0800d1f8   Section        0  dsp_line_side.o(.text.Line_Side_ALL_CH1_CH4_Control_P86)
    [Anonymous Symbol]                       0x0800d280   Section        0  qsfpdd_msa_datapathstatemachine.o(.text.LowPwrExS)
    [Anonymous Symbol]                       0x0800d2b0   Section        0  qsfpdd_msa_datapathstatemachine.o(.text.LowPwrS)
    [Anonymous Symbol]                       0x0800d304   Section        0  poweron_table.o(.text.MCU_PAGE90h_INIT)
    [Anonymous Symbol]                       0x0800d338   Section        0  poweron_table.o(.text.MCU_PAGE91h_INIT)
    [Anonymous Symbol]                       0x0800d3f4   Section        0  poweron_table.o(.text.MCU_PAGE92h_INIT)
    [Anonymous Symbol]                       0x0800d410   Section        0  poweron_sequencing.o(.text.MCU_READ_WRITE_DEIVCE_COMMAND_CONTROL)
    [Anonymous Symbol]                       0x0800d5e4   Section        0  gd32e501_m_i2c1_pb34.o(.text.MI2C1_WordADR_HLBW_PB34)
    [Anonymous Symbol]                       0x0800d848   Section        0  gd32e501_m_i2c1_pb34.o(.text.MI2C1_WordADR_R_PB34)
    [Anonymous Symbol]                       0x0800db08   Section        0  gd32e501_m_i2c2_pc78.o(.text.MI2C2_WordADR_HLBW_PC78)
    [Anonymous Symbol]                       0x0800dd3c   Section        0  gd32e501_m_i2c2_pc78.o(.text.MI2C2_WordADR_R_PC78)
    [Anonymous Symbol]                       0x0800dffc   Section        0  mps5490_idac.o(.text.MP5490_Read_AllData)
    [Anonymous Symbol]                       0x0800e1b4   Section        0  mps5490_idac.o(.text.MP5490_Write_Control_Data)
    [Anonymous Symbol]                       0x0800e2b4   Section        0  tec_apc.o(.text.MPD_ANODE_ADC_GET)
    [Anonymous Symbol]                       0x0800e2fc   Section        0  qsfpdd_msa_ddmi.o(.text.MSA_DDMI_Function)
    [Anonymous Symbol]                       0x0800e3c4   Section        0  qsfpdd_msa_page10h_control.o(.text.MSA_DataPathState)
    [Anonymous Symbol]                       0x0800e460   Section        0  qsfpdd_msa_page10h_control.o(.text.MSA_Lane_DataPathState)
    [Anonymous Symbol]                       0x0800e748   Section        0  gd32e501_m_i2c1_pb34.o(.text.Master_I2C1_ByteREAD_PB34)
    [Anonymous Symbol]                       0x0800e944   Section        0  gd32e501_m_i2c1_pb34.o(.text.Master_I2C1_ByteWrite_PB34)
    [Anonymous Symbol]                       0x0800eac0   Section        0  gd32e501_m_i2c1_pb34.o(.text.Master_I2C1_PB34_Init)
    [Anonymous Symbol]                       0x0800eb18   Section        0  gd32e501_initialize.o(.text.Master_I2C1_PB34_Initial)
    [Anonymous Symbol]                       0x0800ebc4   Section        0  gd32e501_m_i2c2_pc78.o(.text.Master_I2C2_ByteREAD_PC78)
    [Anonymous Symbol]                       0x0800edc0   Section        0  gd32e501_m_i2c2_pc78.o(.text.Master_I2C2_ByteWrite_PC78)
    [Anonymous Symbol]                       0x0800efb0   Section        0  gd32e501_m_i2c2_pc78.o(.text.Master_I2C2_PB78_Init)
    [Anonymous Symbol]                       0x0800f008   Section        0  gd32e501_initialize.o(.text.Master_I2C2_PC78_Initial)
    [Anonymous Symbol]                       0x0800f0b0   Section        0  qsfpdd_msa_page13h_diagnostics.o(.text.Media_Side_LoopBack_Control)
    [Anonymous Symbol]                       0x0800f3a4   Section        0  qsfpdd_msa_page13h_diagnostics.o(.text.Media_Side_Pattern_Generator_Control)
    [Anonymous Symbol]                       0x0800f664   Section        0  qsfpdd_msa_page14h_diagnostics.o(.text.Media_Side_SNR)
    [Anonymous Symbol]                       0x0800fb24   Section        0  poweron_sequencing.o(.text.ModSelL_Function)
    [Anonymous Symbol]                       0x0800fb5c   Section        0  qsfpdd_msa_statemachine.o(.text.Modeule_MGMT_INIT)
    [Anonymous Symbol]                       0x0800fbf0   Section        0  qsfpdd_msa_datapathstatemachine.o(.text.ModuleDeactivatedT)
    [Anonymous Symbol]                       0x0800fc58   Section        0  qsfpdd_msa_datapathstatemachine.o(.text.ModuleReadyT)
    [Anonymous Symbol]                       0x0800fc84   Section        0  qsfpdd_msa_optional_control.o(.text.Module_State)
    [Anonymous Symbol]                       0x0800fcd0   Section        0  gd32e501_it.o(.text.NMI_Handler)
    [Anonymous Symbol]                       0x0800fcd4   Section        0  gd32e501_s_i2c0_pb67.o(.text.PassWord_Function)
    [Anonymous Symbol]                       0x0800fdbc   Section        0  gd32e501_it.o(.text.PendSV_Handler)
    [Anonymous Symbol]                       0x0800fdc0   Section        0  poweron_table.o(.text.PowerON_Table_Init)
    [Anonymous Symbol]                       0x0800fde8   Section        0  poweron_sequencing.o(.text.PowerOn_Reset_Check)
    [Anonymous Symbol]                       0x0800fe48   Section        0  poweron_sequencing.o(.text.PowerOn_Sequencing_Control)
    [Anonymous Symbol]                       0x0800fe50   Section        0  qsfpdd_msa_statemachine.o(.text.PowerUp_Device_Control)
    [Anonymous Symbol]                       0x0800feac   Section        0  qsfpdd_msa_page10h_control.o(.text.QDD_DSP_Tap_ReLoader)
    [Anonymous Symbol]                       0x08010054   Section        0  qsfpdd_msa_aw.o(.text.QSFPDD_Bias_AW)
    [Anonymous Symbol]                       0x08010310   Section        0  qsfpdd_msa_ddmi.o(.text.QSFPDD_DDMI_ONLY_ADC_GET)
    [Anonymous Symbol]                       0x08010330   Section        0  qsfpdd_msa_ddmi.o(.text.QSFPDD_DDMI_StateMachine)
    [Anonymous Symbol]                       0x0801046c   Section        0  qsfpdd_msa_statemachine.o(.text.QSFPDD_MSA_StateMachine)
    [Anonymous Symbol]                       0x080106d8   Section        0  qsfpdd_msa_aw.o(.text.QSFPDD_RxPower_AW)
    [Anonymous Symbol]                       0x080109b4   Section        0  qsfpdd_msa_aw.o(.text.QSFPDD_Temperature_VCC_AW)
    [Anonymous Symbol]                       0x08010b7c   Section        0  qsfpdd_msa_aw.o(.text.QSFPDD_TxPower_AW)
    [Anonymous Symbol]                       0x08010e2c   Section        0  poweron_sequencing.o(.text.RESET_L_Function)
    [Anonymous Symbol]                       0x08010e78   Section        0  tec_apc.o(.text.RFPD_BIAS_ADC_GET)
    [Anonymous Symbol]                       0x08010ec0   Section        0  qsfpdd_msa_page10h_control.o(.text.RX_AMP_OutSwing_Control)
    [Anonymous Symbol]                       0x08011360   Section        0  qsfpdd_msa_ddmi.o(.text.RX_POWER_M_CH0_CH3)
    [Anonymous Symbol]                       0x080117d4   Section        0  qsfpdd_msa_page10h_control.o(.text.RX_Post_Control)
    [Anonymous Symbol]                       0x08011d64   Section        0  qsfpdd_msa_page10h_control.o(.text.RX_Pre_Control)
    [Anonymous Symbol]                       0x080122f4   Section        0  qsfpdd_msa_datapathstatemachine.o(.text.ResetS)
    [Anonymous Symbol]                       0x08012300   Section        0  gd32e501_m_i2c2_pc78.o(.text.Resume_IIC)
    [Anonymous Symbol]                       0x080123f4   Section        0  gd32e501_m_i2c1_pb34.o(.text.Resume_IIC_I2C1)
    [Anonymous Symbol]                       0x080124e8   Section        0  qsfpdd_msa_page10h_control.o(.text.Rx_Output_Disable)
    [Anonymous Symbol]                       0x0801264c   Section        0  dsp.o(.text.SET_CHIP_MODE_2X53G_KP4PAM_TO_1X106G_KP4PAM)
    [Anonymous Symbol]                       0x080126fc   Section        0  dsp.o(.text.SET_DSP_CHIP_MODE)
    [Anonymous Symbol]                       0x08012734   Section        0  poweron_sequencing.o(.text.SET_Power_Control)
    [Anonymous Symbol]                       0x080128a4   Section        0  gd32e501_s_i2c0_pb67.o(.text.SRMA_Flash_Function)
    [Anonymous Symbol]                       0x08012950   Section        0  gd32e501_it.o(.text.SVC_Handler)
    [Anonymous Symbol]                       0x08012954   Section        0  qsfpdd_msa_page10h_control.o(.text.Signal_Integrity_Control_Feedback)
    [Anonymous Symbol]                       0x08012fc0   Section        0  gd32e501_initialize.o(.text.Slave_I2C0_PB67_Initial)
    [Anonymous Symbol]                       0x0801308c   Section        0  gd32e501_flash_rw.o(.text.Swap_Bytes)
    SysTick_Config                           0x080130ad   Thumb Code    82  systick.o(.text.SysTick_Config)
    [Anonymous Symbol]                       0x080130ac   Section        0  systick.o(.text.SysTick_Config)
    [Anonymous Symbol]                       0x08013100   Section        0  gd32e501_it.o(.text.SysTick_Handler)
    [Anonymous Symbol]                       0x08013108   Section        0  system_gd32e501.o(.text.SystemInit)
    [Anonymous Symbol]                       0x080131dc   Section        0  dsp_system_side.o(.text.System_Side_ALL_CH1_CH4_Control_P87)
    [Anonymous Symbol]                       0x08013244   Section        0  dsp_system_side.o(.text.System_Side_ALL_CH1_CH4_Control_P8E)
    [Anonymous Symbol]                       0x080132b8   Section        0  tec_apc.o(.text.TEC_Control)
    [Anonymous Symbol]                       0x08013614   Section        0  tec_apc.o(.text.TEC_MPD_ADC_GET)
    [Anonymous Symbol]                       0x0801365c   Section        0  dsp.o(.text.TEST_DSP_Command_Direct_Control)
    [Anonymous Symbol]                       0x080136cc   Section        0  acacia_tia.o(.text.TIA_RX1_RX4_RSSI)
    [Anonymous Symbol]                       0x08013744   Section        0  qsfpdd_msa_ddmi.o(.text.Temp_CAL)
    [Anonymous Symbol]                       0x08013790   Section        0  qsfpdd_msa_ddmi.o(.text.Temperature_Monitor)
    [Anonymous Symbol]                       0x08013854   Section        0  dsp.o(.text.Trigger_CMD_Update_DSP_REG)
    [Anonymous Symbol]                       0x08013874   Section        0  qsfpdd_msa_page10h_control.o(.text.Tx_Disable)
    [Anonymous Symbol]                       0x08013998   Section        0  mps5490_idac.o(.text.Update_Bias_Current)
    [Anonymous Symbol]                       0x08013a4c   Section        0  gd32e501_s_i2c0_pb67.o(.text.Update_SRAM_Data)
    [Anonymous Symbol]                       0x08013ebc   Section        0  acacia_sip_ldd.o(.text.Update_dia_temp)
    [Anonymous Symbol]                       0x08013f20   Section        0  qsfpdd_msa_ddmi.o(.text.VCC_Monitor)
    [Anonymous Symbol]                       0x08013f7c   Section        0  qsfpdd_msa_page10h_control.o(.text.Verify_Config_Error_Code)
    [Anonymous Symbol]                       0x080140d0   Section        0  gd32e501_s_i2c0_pb67.o(.text.Write_SRAM_TO_Flash)
    __NVIC_EnableIRQ                         0x08014715   Thumb Code    52  gd32e501_misc.o(.text.__NVIC_EnableIRQ)
    [Anonymous Symbol]                       0x08014714   Section        0  gd32e501_misc.o(.text.__NVIC_EnableIRQ)
    __NVIC_SetPriority                       0x08014749   Thumb Code    68  systick.o(.text.__NVIC_SetPriority)
    [Anonymous Symbol]                       0x08014748   Section        0  systick.o(.text.__NVIC_SetPriority)
    __NVIC_SetPriority                       0x0801478d   Thumb Code    68  gd32e501_misc.o(.text.__NVIC_SetPriority)
    [Anonymous Symbol]                       0x0801478c   Section        0  gd32e501_misc.o(.text.__NVIC_SetPriority)
    __NVIC_SystemReset                       0x080147d1   Thumb Code    38  gd32e501_misc.o(.text.__NVIC_SystemReset)
    [Anonymous Symbol]                       0x080147d0   Section        0  gd32e501_misc.o(.text.__NVIC_SystemReset)
    __NVIC_SystemReset                       0x080147f9   Thumb Code    38  qsfpdd_msa_datapathstatemachine.o(.text.__NVIC_SystemReset)
    [Anonymous Symbol]                       0x080147f8   Section        0  qsfpdd_msa_datapathstatemachine.o(.text.__NVIC_SystemReset)
    [Anonymous Symbol]                       0x08014820   Section        0  gd32e501_adc.o(.text.adc_calibration_enable)
    [Anonymous Symbol]                       0x08014870   Section        0  gd32e501_adc.o(.text.adc_channel_length_config)
    [Anonymous Symbol]                       0x080148e8   Section        0  gd32e501_adc.o(.text.adc_data_alignment_config)
    [Anonymous Symbol]                       0x0801491c   Section        0  gd32e501_adc.o(.text.adc_enable)
    [Anonymous Symbol]                       0x08014944   Section        0  gd32e501_adc.o(.text.adc_external_trigger_config)
    [Anonymous Symbol]                       0x080149dc   Section        0  gd32e501_adc.o(.text.adc_external_trigger_source_config)
    [Anonymous Symbol]                       0x08014a44   Section        0  gd32e501_adc.o(.text.adc_flag_clear)
    [Anonymous Symbol]                       0x08014a60   Section        0  gd32e501_adc.o(.text.adc_flag_get)
    [Anonymous Symbol]                       0x08014a8c   Section        0  gd32e501_adc.o(.text.adc_inserted_channel_config)
    [Anonymous Symbol]                       0x08014b8c   Section        0  gd32e501_adc.o(.text.adc_software_trigger_enable)
    [Anonymous Symbol]                       0x08014bd4   Section        0  gd32e501_adc.o(.text.adc_special_function_config)
    [Anonymous Symbol]                       0x08014ca4   Section        0  gd32e501_adc.o(.text.adc_tempsensor_vrefint_enable)
    [Anonymous Symbol]                       0x08014cb8   Section        0  gd32e501_dac.o(.text.dac_concurrent_data_set)
    [Anonymous Symbol]                       0x08014d34   Section        0  gd32e501_dac.o(.text.dac_concurrent_enable)
    [Anonymous Symbol]                       0x08014d50   Section        0  gd32e501_dac.o(.text.dac_data_set)
    [Anonymous Symbol]                       0x08014dec   Section        0  gd32e501_dac.o(.text.dac_deinit)
    [Anonymous Symbol]                       0x08014e84   Section        0  gd32e501_dac.o(.text.dac_output_buffer_enable)
    [Anonymous Symbol]                       0x08014eb4   Section        0  gd32e501_dac.o(.text.dac_trigger_disable)
    [Anonymous Symbol]                       0x08014ee4   Section        0  gd32e501_dac.o(.text.dac_wave_mode_config)
    [Anonymous Symbol]                       0x08014f2c   Section        0  systick.o(.text.delay_1ms)
    [Anonymous Symbol]                       0x08014f54   Section        0  systick.o(.text.delay_decrement)
    [Anonymous Symbol]                       0x08014f78   Section        0  gd32e501_fmc.o(.text.fmc_bank0_flag_clear)
    [Anonymous Symbol]                       0x08014f90   Section        0  gd32e501_fmc.o(.text.fmc_bank0_ready_wait)
    [Anonymous Symbol]                       0x08014fec   Section        0  gd32e501_fmc.o(.text.fmc_bank0_state_get)
    [Anonymous Symbol]                       0x08015050   Section        0  gd32e501_fmc.o(.text.fmc_bank1_ready_wait)
    [Anonymous Symbol]                       0x080150ac   Section        0  gd32e501_fmc.o(.text.fmc_bank1_state_get)
    [Anonymous Symbol]                       0x08015110   Section        0  gd32e501_fmc.o(.text.fmc_lock)
    [Anonymous Symbol]                       0x08015134   Section        0  gd32e501_fmc.o(.text.fmc_page_erase)
    [Anonymous Symbol]                       0x080152e0   Section        0  gd32e501_fmc.o(.text.fmc_unlock)
    [Anonymous Symbol]                       0x08015344   Section        0  gd32e501_fwdgt.o(.text.fwdgt_config)
    [Anonymous Symbol]                       0x0801544c   Section        0  gd32e501_fwdgt.o(.text.fwdgt_enable)
    [Anonymous Symbol]                       0x0801545c   Section        0  gd32e501_gpio.o(.text.gpio_af_set)
    [Anonymous Symbol]                       0x08015538   Section        0  gd32e501_gpio.o(.text.gpio_bit_reset)
    [Anonymous Symbol]                       0x08015548   Section        0  gd32e501_gpio.o(.text.gpio_bit_set)
    [Anonymous Symbol]                       0x08015558   Section        0  gd32e501_gpio.o(.text.gpio_input_bit_get)
    [Anonymous Symbol]                       0x08015584   Section        0  gd32e501_gpio.o(.text.gpio_mode_set)
    [Anonymous Symbol]                       0x08015624   Section        0  gd32e501_gpio.o(.text.gpio_output_bit_get)
    [Anonymous Symbol]                       0x08015650   Section        0  gd32e501_gpio.o(.text.gpio_output_options_set)
    [Anonymous Symbol]                       0x080156ec   Section        0  gd32e501_i2c.o(.text.i2c_address_config)
    [Anonymous Symbol]                       0x08015714   Section        0  gd32e501_i2c.o(.text.i2c_automatic_end_disable)
    [Anonymous Symbol]                       0x08015728   Section        0  gd32e501_i2c.o(.text.i2c_automatic_end_enable)
    [Anonymous Symbol]                       0x0801573c   Section        0  gd32e501_i2c.o(.text.i2c_data_receive)
    [Anonymous Symbol]                       0x0801574c   Section        0  gd32e501_i2c.o(.text.i2c_data_transmit)
    [Anonymous Symbol]                       0x08015760   Section        0  gd32e501_i2c.o(.text.i2c_deinit)
    [Anonymous Symbol]                       0x080157d4   Section        0  gd32e501_i2c.o(.text.i2c_disable)
    [Anonymous Symbol]                       0x080157e8   Section        0  gd32e501_i2c.o(.text.i2c_enable)
    [Anonymous Symbol]                       0x080157fc   Section        0  gd32e501_i2c.o(.text.i2c_flag_clear)
    [Anonymous Symbol]                       0x08015810   Section        0  gd32e501_i2c.o(.text.i2c_flag_get)
    [Anonymous Symbol]                       0x0801583c   Section        0  gd32e501_i2c.o(.text.i2c_idle_clock_timeout_config)
    [Anonymous Symbol]                       0x0801585c   Section        0  gd32e501_i2c.o(.text.i2c_interrupt_enable)
    [Anonymous Symbol]                       0x08015870   Section        0  gd32e501_i2c.o(.text.i2c_interrupt_flag_clear)
    [Anonymous Symbol]                       0x08015890   Section        0  gd32e501_i2c.o(.text.i2c_interrupt_flag_get)
    [Anonymous Symbol]                       0x080158f4   Section        0  gd32e501_i2c.o(.text.i2c_master_addressing)
    [Anonymous Symbol]                       0x0801592c   Section        0  gd32e501_i2c.o(.text.i2c_master_clock_config)
    [Anonymous Symbol]                       0x08015968   Section        0  gd32e501_i2c.o(.text.i2c_reload_disable)
    [Anonymous Symbol]                       0x0801597c   Section        0  gd32e501_i2c.o(.text.i2c_reload_enable)
    [Anonymous Symbol]                       0x08015990   Section        0  gd32e501_i2c.o(.text.i2c_start_on_bus)
    [Anonymous Symbol]                       0x080159a4   Section        0  gd32e501_i2c.o(.text.i2c_stop_on_bus)
    [Anonymous Symbol]                       0x080159b8   Section        0  gd32e501_i2c.o(.text.i2c_timing_config)
    [Anonymous Symbol]                       0x08015a14   Section        0  gd32e501_i2c.o(.text.i2c_transfer_byte_number_config)
    [Anonymous Symbol]                       0x08015a34   Section        0  gd32e501_initialize.o(.text.irc40k_config)
    [Anonymous Symbol]                       0x08015a4c   Section        0  main.o(.text.main)
    [Anonymous Symbol]                       0x08015aa0   Section        0  gd32e501_misc.o(.text.nvic_irq_enable)
    [Anonymous Symbol]                       0x08015acc   Section        0  gd32e501_misc.o(.text.nvic_system_reset)
    [Anonymous Symbol]                       0x08015ad0   Section        0  gd32e501_misc.o(.text.nvic_vector_table_set)
    [Anonymous Symbol]                       0x08015af4   Section        0  gd32e501_rcu.o(.text.rcu_adc_clock_config)
    [Anonymous Symbol]                       0x08015ca4   Section        0  gd32e501_rcu.o(.text.rcu_flag_get)
    [Anonymous Symbol]                       0x08015ce8   Section        0  gd32e501_rcu.o(.text.rcu_osci_on)
    [Anonymous Symbol]                       0x08015d18   Section        0  gd32e501_rcu.o(.text.rcu_osci_stab_wait)
    [Anonymous Symbol]                       0x08015f7c   Section        0  gd32e501_rcu.o(.text.rcu_periph_clock_disable)
    [Anonymous Symbol]                       0x08015fac   Section        0  gd32e501_rcu.o(.text.rcu_periph_clock_enable)
    [Anonymous Symbol]                       0x08015fdc   Section        0  gd32e501_rcu.o(.text.rcu_periph_reset_disable)
    [Anonymous Symbol]                       0x0801600c   Section        0  gd32e501_rcu.o(.text.rcu_periph_reset_enable)
    [Anonymous Symbol]                       0x0801603c   Section        0  gd32e501_syscfg.o(.text.syscfg_vref_enable)
    system_clock_100m_irc8m                  0x0801604d   Thumb Code   256  system_gd32e501.o(.text.system_clock_100m_irc8m)
    [Anonymous Symbol]                       0x0801604c   Section        0  system_gd32e501.o(.text.system_clock_100m_irc8m)
    system_clock_config                      0x0801614d   Thumb Code     8  system_gd32e501.o(.text.system_clock_config)
    [Anonymous Symbol]                       0x0801614c   Section        0  system_gd32e501.o(.text.system_clock_config)
    [Anonymous Symbol]                       0x08016154   Section        0  systick.o(.text.systick_config)
    i.__ARM_fpclassify                       0x08016190   Section        0  fpclassify.o(i.__ARM_fpclassify)
    i.__hardfp_exp                           0x080161c0   Section        0  exp.o(i.__hardfp_exp)
    i.__hardfp_log                           0x08016518   Section        0  log.o(i.__hardfp_log)
    i.__hardfp_log10                         0x080168e0   Section        0  log10.o(i.__hardfp_log10)
    i.__hardfp_pow                           0x08016a10   Section        0  pow.o(i.__hardfp_pow)
    i.__hardfp_sqrt                          0x08017660   Section        0  sqrt.o(i.__hardfp_sqrt)
    i.__kernel_poly                          0x080176da   Section        0  poly.o(i.__kernel_poly)
    i.__mathlib_dbl_divzero                  0x080177d8   Section        0  dunder.o(i.__mathlib_dbl_divzero)
    i.__mathlib_dbl_infnan                   0x08017808   Section        0  dunder.o(i.__mathlib_dbl_infnan)
    i.__mathlib_dbl_infnan2                  0x0801781c   Section        0  dunder.o(i.__mathlib_dbl_infnan2)
    i.__mathlib_dbl_invalid                  0x08017830   Section        0  dunder.o(i.__mathlib_dbl_invalid)
    i.__mathlib_dbl_overflow                 0x08017850   Section        0  dunder.o(i.__mathlib_dbl_overflow)
    i.__mathlib_dbl_underflow                0x08017870   Section        0  dunder.o(i.__mathlib_dbl_underflow)
    i.__scatterload_copy                     0x08017890   Section       14  handlers.o(i.__scatterload_copy)
    i.__scatterload_null                     0x0801789e   Section        2  handlers.o(i.__scatterload_null)
    i.__scatterload_zeroinit                 0x080178a0   Section       14  handlers.o(i.__scatterload_zeroinit)
    i.__set_errno                            0x080178b0   Section        0  errno.o(i.__set_errno)
    i.fabs                                   0x080178bc   Section        0  fabs.o(i.fabs)
    i.log                                    0x080178d4   Section        0  log.o(i.log)
    i.sqrt                                   0x080178e4   Section        0  sqrt.o(i.sqrt)
    halF                                     0x08017958   Data          16  exp.o(.constdata)
    .constdata                               0x08017958   Section       88  exp.o(.constdata)
    ln2HI                                    0x08017968   Data          16  exp.o(.constdata)
    ln2LO                                    0x08017978   Data          16  exp.o(.constdata)
    P                                        0x08017988   Data          40  exp.o(.constdata)
    bp                                       0x080179b0   Data          16  pow.o(.constdata)
    .constdata                               0x080179b0   Section      136  pow.o(.constdata)
    dp_h                                     0x080179c0   Data          16  pow.o(.constdata)
    dp_l                                     0x080179d0   Data          16  pow.o(.constdata)
    L                                        0x080179e0   Data          48  pow.o(.constdata)
    P                                        0x08017a10   Data          40  pow.o(.constdata)
    Lg2                                      0x08017a38   Data          24  log.o(.constdata)
    .constdata                               0x08017a38   Section       56  log.o(.constdata)
    Lg                                       0x08017a50   Data          32  log.o(.constdata)
    .constdata                               0x08017a70   Section        8  qnan.o(.constdata)
    _errno                                   0x20000000   Data           4  errno.o(.data)
    .data                                    0x20000000   Section        4  errno.o(.data)
    delay                                    0x20000c60   Data           4  systick.o(.bss.delay)
    [Anonymous Symbol]                       0x20000c60   Section        0  systick.o(.bss.delay)
    STACK                                    0x20000c68   Section     1024  startup_gd32e501.o(STACK)

    Global Symbols

    Symbol Name                              Value     Ov Type        Size  Object(Section)

    BuildAttributes$$THM_ISAv4$P$D$K$B$S$8M$VFPi5$EXTD16$VFPS$VFMA$PE$A:L22UL41UL21$X:L11$S22US41US21$IEEE1$IW$~IW$USESV6$~STKCKD$USESV7$~SHL$OTIME$ROPI$IEEEX$EBA8$MICROLIB$REQ8$PRES8$EABIv2 0x00000000   Number         0  anon$$obj.o ABSOLUTE
    __cpp_initialize__aeabi_                  - Undefined Weak Reference
    __cxa_finalize                            - Undefined Weak Reference
    __decompress                              - Undefined Weak Reference
    _clock_init                               - Undefined Weak Reference
    _microlib_exit                            - Undefined Weak Reference
    __Vectors_Size                           0x00000154   Number         0  startup_gd32e501.o ABSOLUTE
    __Vectors                                0x08000000   Data           4  startup_gd32e501.o(RESET)
    __Vectors_End                            0x08000154   Data           0  startup_gd32e501.o(RESET)
    __main                                   0x08000155   Thumb Code     0  entry.o(.ARM.Collect$$$$00000000)
    _main_stk                                0x08000155   Thumb Code     0  entry2.o(.ARM.Collect$$$$00000001)
    _main_scatterload                        0x08000159   Thumb Code     0  entry5.o(.ARM.Collect$$$$00000004)
    __main_after_scatterload                 0x0800015d   Thumb Code     0  entry5.o(.ARM.Collect$$$$00000004)
    _main_clock                              0x0800015d   Thumb Code     0  entry7b.o(.ARM.Collect$$$$00000008)
    _main_cpp_init                           0x0800015d   Thumb Code     0  entry8b.o(.ARM.Collect$$$$0000000A)
    _main_init                               0x0800015d   Thumb Code     0  entry9a.o(.ARM.Collect$$$$0000000B)
    __rt_final_cpp                           0x08000165   Thumb Code     0  entry10a.o(.ARM.Collect$$$$0000000D)
    __rt_final_exit                          0x08000165   Thumb Code     0  entry11a.o(.ARM.Collect$$$$0000000F)
    Reset_Handler                            0x08000169   Thumb Code     8  startup_gd32e501.o(.text)
    MemManage_Handler                        0x08000175   Thumb Code     2  startup_gd32e501.o(.text)
    BusFault_Handler                         0x08000177   Thumb Code     2  startup_gd32e501.o(.text)
    UsageFault_Handler                       0x08000179   Thumb Code     2  startup_gd32e501.o(.text)
    DebugMon_Handler                         0x0800017d   Thumb Code     2  startup_gd32e501.o(.text)
    ADC_CMP_IRQHandler                       0x08000183   Thumb Code     0  startup_gd32e501.o(.text)
    CLA_IRQHandler                           0x08000183   Thumb Code     0  startup_gd32e501.o(.text)
    DMA_Channel0_IRQHandler                  0x08000183   Thumb Code     0  startup_gd32e501.o(.text)
    DMA_Channel1_2_IRQHandler                0x08000183   Thumb Code     0  startup_gd32e501.o(.text)
    DMA_Channel3_4_IRQHandler                0x08000183   Thumb Code     0  startup_gd32e501.o(.text)
    DMA_Channel5_6_IRQHandler                0x08000183   Thumb Code     0  startup_gd32e501.o(.text)
    EXTI2_3_IRQHandler                       0x08000183   Thumb Code     0  startup_gd32e501.o(.text)
    EXTI4_15_IRQHandler                      0x08000183   Thumb Code     0  startup_gd32e501.o(.text)
    FMC_IRQHandler                           0x08000183   Thumb Code     0  startup_gd32e501.o(.text)
    FPU_IRQHandler                           0x08000183   Thumb Code     0  startup_gd32e501.o(.text)
    I2C1_ER_IRQHandler                       0x08000183   Thumb Code     0  startup_gd32e501.o(.text)
    I2C1_EV_IRQHandler                       0x08000183   Thumb Code     0  startup_gd32e501.o(.text)
    I2C2_ER_IRQHandler                       0x08000183   Thumb Code     0  startup_gd32e501.o(.text)
    I2C2_EV_IRQHandler                       0x08000183   Thumb Code     0  startup_gd32e501.o(.text)
    LVD_IRQHandler                           0x08000183   Thumb Code     0  startup_gd32e501.o(.text)
    MDIO_IRQHandler                          0x08000183   Thumb Code     0  startup_gd32e501.o(.text)
    RCU_IRQHandler                           0x08000183   Thumb Code     0  startup_gd32e501.o(.text)
    RTC_IRQHandler                           0x08000183   Thumb Code     0  startup_gd32e501.o(.text)
    SPI0_IRQHandler                          0x08000183   Thumb Code     0  startup_gd32e501.o(.text)
    SPI1_IRQHandler                          0x08000183   Thumb Code     0  startup_gd32e501.o(.text)
    SPI2_IRQHandler                          0x08000183   Thumb Code     0  startup_gd32e501.o(.text)
    TIMER0_BRK_UP_TRG_COM_IRQHandler         0x08000183   Thumb Code     0  startup_gd32e501.o(.text)
    TIMER0_Channel_IRQHandler                0x08000183   Thumb Code     0  startup_gd32e501.o(.text)
    TIMER13_IRQHandler                       0x08000183   Thumb Code     0  startup_gd32e501.o(.text)
    TIMER14_IRQHandler                       0x08000183   Thumb Code     0  startup_gd32e501.o(.text)
    TIMER15_IRQHandler                       0x08000183   Thumb Code     0  startup_gd32e501.o(.text)
    TIMER16_IRQHandler                       0x08000183   Thumb Code     0  startup_gd32e501.o(.text)
    TIMER1_IRQHandler                        0x08000183   Thumb Code     0  startup_gd32e501.o(.text)
    TIMER2_IRQHandler                        0x08000183   Thumb Code     0  startup_gd32e501.o(.text)
    TIMER5_DAC0_1_IRQHandler                 0x08000183   Thumb Code     0  startup_gd32e501.o(.text)
    TIMER6_DAC2_3_IRQHandler                 0x08000183   Thumb Code     0  startup_gd32e501.o(.text)
    USART0_IRQHandler                        0x08000183   Thumb Code     0  startup_gd32e501.o(.text)
    USART1_IRQHandler                        0x08000183   Thumb Code     0  startup_gd32e501.o(.text)
    WWDGT_IRQHandler                         0x08000183   Thumb Code     0  startup_gd32e501.o(.text)
    __aeabi_memcpy                           0x0800018d   Thumb Code    36  memcpya.o(.text)
    __aeabi_memcpy4                          0x0800018d   Thumb Code     0  memcpya.o(.text)
    __aeabi_memcpy8                          0x0800018d   Thumb Code     0  memcpya.o(.text)
    __aeabi_memset                           0x080001b1   Thumb Code    14  memseta.o(.text)
    __aeabi_memset4                          0x080001b1   Thumb Code     0  memseta.o(.text)
    __aeabi_memset8                          0x080001b1   Thumb Code     0  memseta.o(.text)
    __aeabi_memclr                           0x080001bf   Thumb Code     4  memseta.o(.text)
    __aeabi_memclr4                          0x080001bf   Thumb Code     0  memseta.o(.text)
    __aeabi_memclr8                          0x080001bf   Thumb Code     0  memseta.o(.text)
    _memset$wrapper                          0x080001c3   Thumb Code    18  memseta.o(.text)
    __aeabi_dadd                             0x080001d5   Thumb Code   322  dadd.o(.text)
    __aeabi_dsub                             0x08000317   Thumb Code     6  dadd.o(.text)
    __aeabi_drsub                            0x0800031d   Thumb Code     6  dadd.o(.text)
    __aeabi_dmul                             0x08000323   Thumb Code   228  dmul.o(.text)
    __aeabi_ddiv                             0x08000407   Thumb Code   222  ddiv.o(.text)
    __aeabi_dcmpgt                           0x080004e5   Thumb Code    54  dcmpgt.o(.text)
    __aeabi_i2d                              0x0800051b   Thumb Code    34  dflti.o(.text)
    __aeabi_ui2d                             0x0800053d   Thumb Code    26  dfltui.o(.text)
    __aeabi_d2iz                             0x08000557   Thumb Code    62  dfixi.o(.text)
    __aeabi_d2uiz                            0x08000595   Thumb Code    50  dfixui.o(.text)
    __aeabi_f2d                              0x080005c7   Thumb Code    38  f2d.o(.text)
    __aeabi_d2f                              0x080005ed   Thumb Code    56  d2f.o(.text)
    __aeabi_llsl                             0x08000625   Thumb Code    30  llshl.o(.text)
    _ll_shift_l                              0x08000625   Thumb Code     0  llshl.o(.text)
    __aeabi_llsr                             0x08000643   Thumb Code    32  llushr.o(.text)
    _ll_ushift_r                             0x08000643   Thumb Code     0  llushr.o(.text)
    __aeabi_lasr                             0x08000663   Thumb Code    36  llsshr.o(.text)
    _ll_sshift_r                             0x08000663   Thumb Code     0  llsshr.o(.text)
    __I$use$fp                               0x08000687   Thumb Code     0  iusefp.o(.text)
    _float_round                             0x08000687   Thumb Code    18  fepilogue.o(.text)
    _float_epilogue                          0x08000699   Thumb Code    92  fepilogue.o(.text)
    _double_round                            0x080006f5   Thumb Code    30  depilogue.o(.text)
    _double_epilogue                         0x08000713   Thumb Code   156  depilogue.o(.text)
    __ARM_scalbn                             0x080007af   Thumb Code    46  dscalb.o(.text)
    scalbn                                   0x080007af   Thumb Code     0  dscalb.o(.text)
    _dsqrt                                   0x080007dd   Thumb Code   162  dsqrt.o(.text)
    __aeabi_cdcmpeq                          0x08000881   Thumb Code     0  cdcmple.o(.text)
    __aeabi_cdcmple                          0x08000881   Thumb Code    48  cdcmple.o(.text)
    __aeabi_cdrcmple                         0x080008b1   Thumb Code    48  cdrcmple.o(.text)
    __scatterload                            0x080008e1   Thumb Code    28  init.o(.text)
    __scatterload_rt2                        0x080008e1   Thumb Code     0  init.o(.text)
    ADC_Config_Initial                       0x08000905   Thumb Code    74  gd32e501_initialize.o(.text.ADC_Config_Initial)
    APC_Control                              0x08000951   Thumb Code   642  tec_apc.o(.text.APC_Control)
    Acacia_ADC_Pseudocode_Temperature        0x08000bd5   Thumb Code   308  acacia_sip_ldd.o(.text.Acacia_ADC_Pseudocode_Temperature)
    Acacia_LDD_DiaTemp                       0x08000d09   Thumb Code   216  acacia_sip_ldd.o(.text.Acacia_LDD_DiaTemp)
    Acacia_LDD_LawDataSP_Update              0x08000de1   Thumb Code   124  acacia_sip_ldd.o(.text.Acacia_LDD_LawDataSP_Update)
    Acacia_LDD_Read_ALL                      0x08000e5d   Thumb Code   600  acacia_sip_ldd.o(.text.Acacia_LDD_Read_ALL)
    Acacia_LDD_SP_Update                     0x080010b9   Thumb Code   168  acacia_sip_ldd.o(.text.Acacia_LDD_SP_Update)
    Acacia_LDD_Write_ALL                     0x08001161   Thumb Code   336  acacia_sip_ldd.o(.text.Acacia_LDD_Write_ALL)
    Acacia_TIA_GetSP                         0x080012b1   Thumb Code   676  acacia_tia.o(.text.Acacia_TIA_GetSP)
    Acacia_TIA_Read_ALL                      0x08001555   Thumb Code  1188  acacia_tia.o(.text.Acacia_TIA_Read_ALL)
    Acacia_TIA_SEL_SP                        0x080019f9   Thumb Code   406  acacia_tia.o(.text.Acacia_TIA_SEL_SP)
    Acacia_TIA_SP_GETDATA                    0x08001b91   Thumb Code   200  acacia_tia.o(.text.Acacia_TIA_SP_GETDATA)
    Acacia_TIA_Write_ALL                     0x08001c59   Thumb Code   886  acacia_tia.o(.text.Acacia_TIA_Write_ALL)
    AppSelCode_Verify_Process                0x08001fd1   Thumb Code  4826  qsfpdd_msa_page10h_control.o(.text.AppSelCode_Verify_Process)
    AppSel_Control_Feedback                  0x080032ad   Thumb Code  1466  qsfpdd_msa_page10h_control.o(.text.AppSel_Control_Feedback)
    Apply_DataPathInit_Immediate             0x08003869   Thumb Code   318  qsfpdd_msa_page10h_control.o(.text.Apply_DataPathInit_Immediate)
    Auto_Squelch_Rx_Output                   0x080039a9   Thumb Code   930  qsfpdd_msa_page10h_control.o(.text.Auto_Squelch_Rx_Output)
    Auto_Squelch_Tx_Output                   0x08003d4d   Thumb Code  2080  qsfpdd_msa_page10h_control.o(.text.Auto_Squelch_Tx_Output)
    BIAS_TxPower_Monitor                     0x0800456d   Thumb Code  1248  qsfpdd_msa_ddmi.o(.text.BIAS_TxPower_Monitor)
    BRCM_Control_READ_Data                   0x08004a4d   Thumb Code   248  dsp.o(.text.BRCM_Control_READ_Data)
    BRCM_Control_WRITE_Data                  0x08004b45   Thumb Code   244  dsp.o(.text.BRCM_Control_WRITE_Data)
    BRCM_READ_Data                           0x08004c39   Thumb Code   246  dsp.o(.text.BRCM_READ_Data)
    BRCM_WRITE_Data                          0x08004d31   Thumb Code   238  dsp.o(.text.BRCM_WRITE_Data)
    Bias_MOD_LUT_UpDate_Current              0x08004e21   Thumb Code   212  mps5490_idac.o(.text.Bias_MOD_LUT_UpDate_Current)
    Bias_MOD_Updata_Current_Temperature_vary 0x08004ef5   Thumb Code   104  mps5490_idac.o(.text.Bias_MOD_Updata_Current_Temperature_vary)
    Binary32ToDouble                         0x08004f61   Thumb Code   188  dsp_line_side.o(.text.Binary32ToDouble)
    CAL_Function                             0x0800501d   Thumb Code    72  qsfpdd_msa_ddmi.o(.text.CAL_Function)
    CMIS40_RXLOS_LOL_AW                      0x08005065   Thumb Code   334  qsfpdd_msa_aw.o(.text.CMIS40_RXLOS_LOL_AW)
    CMIS40_TXLOS_LOL_AW                      0x080051b5   Thumb Code   264  qsfpdd_msa_aw.o(.text.CMIS40_TXLOS_LOL_AW)
    CMIS_LOWPAGE_INIT                        0x080052bd   Thumb Code    68  poweron_table.o(.text.CMIS_LOWPAGE_INIT)
    CMIS_PAGE10h_Control                     0x08005301   Thumb Code    54  qsfpdd_msa_page10h_control.o(.text.CMIS_PAGE10h_Control)
    CMIS_PAGE10h_INIT                        0x08005339   Thumb Code    52  poweron_table.o(.text.CMIS_PAGE10h_INIT)
    CMIS_PAGE11h_INIT                        0x0800536d   Thumb Code   146  poweron_table.o(.text.CMIS_PAGE11h_INIT)
    CMIS_PAGE13h_Diagnostics_Function        0x08005401   Thumb Code    20  qsfpdd_msa_page13h_diagnostics.o(.text.CMIS_PAGE13h_Diagnostics_Function)
    CMIS_PAGE13h_INIT                        0x08005415   Thumb Code    60  poweron_table.o(.text.CMIS_PAGE13h_INIT)
    CMIS_PAGE14h_Diagnostics_Function        0x08005451   Thumb Code    12  qsfpdd_msa_page14h_diagnostics.o(.text.CMIS_PAGE14h_Diagnostics_Function)
    CMIS_TABLE_INIT                          0x0800545d   Thumb Code   124  poweron_table.o(.text.CMIS_TABLE_INIT)
    CheckSum_Calculate                       0x080054d9   Thumb Code   148  poweron_sequencing.o(.text.CheckSum_Calculate)
    Clear_Flag                               0x0800556d   Thumb Code   444  qsfpdd_msa_aw.o(.text.Clear_Flag)
    Clear_Module_state_Byte8                 0x08005729   Thumb Code    26  qsfpdd_msa_aw.o(.text.Clear_Module_state_Byte8)
    Clear_VCC_TEMP_Flag                      0x08005745   Thumb Code    40  qsfpdd_msa_aw.o(.text.Clear_VCC_TEMP_Flag)
    Configuration_Error_code_Feedback        0x0800576d   Thumb Code   458  qsfpdd_msa_page10h_control.o(.text.Configuration_Error_code_Feedback)
    DAC_Config_Initial                       0x08005939   Thumb Code   188  gd32e501_initialize.o(.text.DAC_Config_Initial)
    DAC_TO_TOPS_SETTING                      0x080059f5   Thumb Code   136  tec_apc.o(.text.DAC_TO_TOPS_SETTING)
    DDMI_AW_Monitor                          0x08005a7d   Thumb Code    20  qsfpdd_msa_aw.o(.text.DDMI_AW_Monitor)
    DEC_EQUAL_TO_HEX                         0x08005a91   Thumb Code   236  dsp_line_side.o(.text.DEC_EQUAL_TO_HEX)
    DEVICE_TABLE_INIT                        0x08005b7d   Thumb Code   160  poweron_table.o(.text.DEVICE_TABLE_INIT)
    DSP87400_CAPI_CW_CMD                     0x08005c1d   Thumb Code    62  dsp.o(.text.DSP87400_CAPI_CW_CMD)
    DSP87400_CAPI_Command_response           0x08005c5d   Thumb Code   184  dsp.o(.text.DSP87400_CAPI_Command_response)
    DSP87400_EEPROM_AVS_UcReady_CHECK        0x08005d15   Thumb Code    94  dsp.o(.text.DSP87400_EEPROM_AVS_UcReady_CHECK)
    DSP87400_PAM4_COMMAND_ID_SET_CONFIG_INFO_CORE_IP_CW 0x08005d75   Thumb Code   234  dsp.o(.text.DSP87400_PAM4_COMMAND_ID_SET_CONFIG_INFO_CORE_IP_CW)
    DSP87400_host_cfg_st_lane_cw_cfg_rdy     0x08005e61   Thumb Code    92  dsp.o(.text.DSP87400_host_cfg_st_lane_cw_cfg_rdy)
    DSP87400_host_lane_cfg_done              0x08005ebd   Thumb Code   132  dsp.o(.text.DSP87400_host_lane_cfg_done)
    DSP87400_line_cfg_st_lane_cw_cfg_rdy     0x08005f41   Thumb Code    52  dsp.o(.text.DSP87400_line_cfg_st_lane_cw_cfg_rdy)
    DSP87400_line_lane_cfg_done              0x08005f75   Thumb Code   102  dsp.o(.text.DSP87400_line_lane_cfg_done)
    DSP_GET_AVS_STATUS                       0x08005fdd   Thumb Code    78  dsp.o(.text.DSP_GET_AVS_STATUS)
    DSP_GET_DOWNLOAD_STATUS                  0x0800602d   Thumb Code   192  dsp.o(.text.DSP_GET_DOWNLOAD_STATUS)
    DSP_GET_REV_ID                           0x080060ed   Thumb Code    74  dsp.o(.text.DSP_GET_REV_ID)
    DSP_Init                                 0x08006139   Thumb Code   300  dsp.o(.text.DSP_Init)
    DSP_LineSide_Loopback_SET                0x08006265   Thumb Code   402  dsp_line_side.o(.text.DSP_LineSide_Loopback_SET)
    DSP_LineSide_RX_Squelch_SET              0x080063f9   Thumb Code    50  dsp_line_side.o(.text.DSP_LineSide_RX_Squelch_SET)
    DSP_LineSide_SNR_LTP_GET                 0x08006431   Thumb Code  1296  dsp_line_side.o(.text.DSP_LineSide_SNR_LTP_GET)
    DSP_LineSide_TRX_Polarity_SET            0x08006941   Thumb Code   584  dsp_line_side.o(.text.DSP_LineSide_TRX_Polarity_SET)
    DSP_LineSide_TRX_Squelch_SET             0x08006b89   Thumb Code   444  dsp_line_side.o(.text.DSP_LineSide_TRX_Squelch_SET)
    DSP_LineSide_TX_FIR_SET                  0x08006d45   Thumb Code  1826  dsp_line_side.o(.text.DSP_LineSide_TX_FIR_SET)
    DSP_LineSide_TX_Squelch_SET              0x08007469   Thumb Code    50  dsp_line_side.o(.text.DSP_LineSide_TX_Squelch_SET)
    DSP_Line_Side_Digital_Loopback_SET       0x0800749d   Thumb Code    50  dsp_line_side.o(.text.DSP_Line_Side_Digital_Loopback_SET)
    DSP_Line_Side_LOL                        0x080074d1   Thumb Code    52  dsp_line_side.o(.text.DSP_Line_Side_LOL)
    DSP_Line_Side_PRBS_SET                   0x08007505   Thumb Code   440  dsp_line_side.o(.text.DSP_Line_Side_PRBS_SET)
    DSP_Line_Side_Remote_Loopback_SET        0x080076bd   Thumb Code    50  dsp_line_side.o(.text.DSP_Line_Side_Remote_Loopback_SET)
    DSP_PLL_BANDWIDTH_CONFIG                 0x080076f1   Thumb Code   108  dsp.o(.text.DSP_PLL_BANDWIDTH_CONFIG)
    DSP_PowerON_Seq_Control                  0x0800775d   Thumb Code    98  poweron_sequencing.o(.text.DSP_PowerON_Seq_Control)
    DSP_SET_0V75                             0x080077c1   Thumb Code   534  dsp.o(.text.DSP_SET_0V75)
    DSP_SET_0V90                             0x080079d9   Thumb Code   536  dsp.o(.text.DSP_SET_0V90)
    DSP_SystemSide_Loopback_SET              0x08007bf1   Thumb Code   668  dsp_system_side.o(.text.DSP_SystemSide_Loopback_SET)
    DSP_SystemSide_SNR_LTP_GET               0x08007e91   Thumb Code  1392  dsp_system_side.o(.text.DSP_SystemSide_SNR_LTP_GET)
    DSP_SystemSide_TRX_Polarity_SET          0x08008401   Thumb Code  1116  dsp_system_side.o(.text.DSP_SystemSide_TRX_Polarity_SET)
    DSP_SystemSide_TRX_Squelch_SET           0x0800885d   Thumb Code   668  dsp_system_side.o(.text.DSP_SystemSide_TRX_Squelch_SET)
    DSP_System_Side_Digital_Loopback_SET     0x08008af9   Thumb Code    50  dsp_system_side.o(.text.DSP_System_Side_Digital_Loopback_SET)
    DSP_System_Side_LOL                      0x08008b2d   Thumb Code    36  dsp_system_side.o(.text.DSP_System_Side_LOL)
    DSP_System_Side_PRBS_SET                 0x08008b51   Thumb Code   642  dsp_system_side.o(.text.DSP_System_Side_PRBS_SET)
    DSP_System_Side_RX_Squelch_SET           0x08008dd5   Thumb Code    50  dsp_system_side.o(.text.DSP_System_Side_RX_Squelch_SET)
    DSP_System_Side_Remote_Loopback_SET      0x08008e09   Thumb Code    50  dsp_system_side.o(.text.DSP_System_Side_Remote_Loopback_SET)
    DSP_System_Side_TX_FIR_SET               0x08008e3d   Thumb Code  1958  dsp_system_side.o(.text.DSP_System_Side_TX_FIR_SET)
    DSP_System_Side_TX_Squelch_SET           0x080095e5   Thumb Code    50  dsp_system_side.o(.text.DSP_System_Side_TX_Squelch_SET)
    DataPathDeactivateS                      0x08009619   Thumb Code    56  qsfpdd_msa_datapathstatemachine.o(.text.DataPathDeactivateS)
    DataPathDeinitS                          0x08009651   Thumb Code    96  qsfpdd_msa_datapathstatemachine.o(.text.DataPathDeinitS)
    DataPathDeintT                           0x080096b1   Thumb Code    40  qsfpdd_msa_datapathstatemachine.o(.text.DataPathDeintT)
    DataPathReDeinitS                        0x080096d9   Thumb Code    56  qsfpdd_msa_datapathstatemachine.o(.text.DataPathReDeinitS)
    DataPathReinitT                          0x08009711   Thumb Code    40  qsfpdd_msa_datapathstatemachine.o(.text.DataPathReinitT)
    DataPathTxDisableT                       0x08009739   Thumb Code   218  qsfpdd_msa_datapathstatemachine.o(.text.DataPathTxDisableT)
    DataPathTxForceSquelchT                  0x08009815   Thumb Code   254  qsfpdd_msa_datapathstatemachine.o(.text.DataPathTxForceSquelchT)
    Delay_I2C1                               0x08009915   Thumb Code    24  gd32e501_m_i2c1_pb34.o(.text.Delay_I2C1)
    Delay_I2C2                               0x0800992d   Thumb Code    24  gd32e501_m_i2c2_pc78.o(.text.Delay_I2C2)
    Device_RESET                             0x08009945   Thumb Code    58  acacia_sip_ldd.o(.text.Device_RESET)
    Device_UnReset                           0x08009981   Thumb Code    84  acacia_sip_ldd.o(.text.Device_UnReset)
    EXTI0_1_IRQHandler                       0x080099d5   Thumb Code     2  gd32e501_it.o(.text.EXTI0_1_IRQHandler)
    ForceLowPwr                              0x080099d9   Thumb Code    72  qsfpdd_msa_datapathstatemachine.o(.text.ForceLowPwr)
    GD32E501_DAC_Control                     0x08009a21   Thumb Code   158  tec_apc.o(.text.GD32E501_DAC_Control)
    GD32E501_GPIO_Analogy_initial            0x08009ac1   Thumb Code   234  gd32e501_initialize.o(.text.GD32E501_GPIO_Analogy_initial)
    GD32E501_GPIO_OP_initial                 0x08009bad   Thumb Code   108  gd32e501_initialize.o(.text.GD32E501_GPIO_OP_initial)
    GD32E501_GPIO_PP_initial                 0x08009c19   Thumb Code   324  gd32e501_initialize.o(.text.GD32E501_GPIO_PP_initial)
    GD32E501_Power_on_Initial                0x08009d5d   Thumb Code    44  gd32e501_initialize.o(.text.GD32E501_Power_on_Initial)
    GDMCU_FLash_WordWrite                    0x08009d89   Thumb Code   150  gd32e501_flash_rw.o(.text.GDMCU_FLash_WordWrite)
    GDMCU_FMC_BytesWRITE_FUNCTION            0x08009e21   Thumb Code   264  gd32e501_flash_rw.o(.text.GDMCU_FMC_BytesWRITE_FUNCTION)
    GDMCU_FMC_READ_DATA                      0x08009f29   Thumb Code    24  gd32e501_flash_rw.o(.text.GDMCU_FMC_READ_DATA)
    GDMCU_FMC_READ_FUNCTION                  0x08009f41   Thumb Code    74  gd32e501_flash_rw.o(.text.GDMCU_FMC_READ_FUNCTION)
    GDMCU_Flash_Erase                        0x08009f8d   Thumb Code    42  gd32e501_flash_rw.o(.text.GDMCU_Flash_Erase)
    GD_System_Periph_Clock_Enable            0x08009fb9   Thumb Code   134  gd32e501_initialize.o(.text.GD_System_Periph_Clock_Enable)
    GET_ADC_RowData                          0x0800a041   Thumb Code   110  gd32e501_adc_control.o(.text.GET_ADC_RowData)
    GET_ADC_Value_Data                       0x0800a0b1   Thumb Code   160  gd32e501_adc_control.o(.text.GET_ADC_Value_Data)
    GET_GD_Temperature                       0x0800a151   Thumb Code   248  gd32e501_adc_control.o(.text.GET_GD_Temperature)
    GPIO_Configuration_I2C1_PB34             0x0800a249   Thumb Code   144  gd32e501_m_i2c1_pb34.o(.text.GPIO_Configuration_I2C1_PB34)
    GPIO_Configuration_I2C2_PC78             0x0800a2d9   Thumb Code   146  gd32e501_m_i2c2_pc78.o(.text.GPIO_Configuration_I2C2_PC78)
    GetDebug_SP_data                         0x0800a36d   Thumb Code    92  acacia_sip_ldd.o(.text.GetDebug_SP_data)
    GetSP_LawData                            0x0800a3c9   Thumb Code   168  acacia_sip_ldd.o(.text.GetSP_LawData)
    Get_AppSelCode_Result                    0x0800a471   Thumb Code   150  qsfpdd_msa_page10h_control.o(.text.Get_AppSelCode_Result)
    Get_CH_Data                              0x0800a509   Thumb Code    66  qsfpdd_msa_optional_control.o(.text.Get_CH_Data)
    Get_Lane_DataPathState                   0x0800a54d   Thumb Code   272  qsfpdd_msa_aw.o(.text.Get_Lane_DataPathState)
    Get_LineSide_PRBS_Pattern                0x0800a65d   Thumb Code   318  qsfpdd_msa_page13h_diagnostics.o(.text.Get_LineSide_PRBS_Pattern)
    Get_Module_Power_Monitor                 0x0800a79d   Thumb Code   122  qsfpdd_msa_optional_control.o(.text.Get_Module_Power_Monitor)
    Get_NRZ_Code                             0x0800a819   Thumb Code   298  qsfpdd_msa_page10h_control.o(.text.Get_NRZ_Code)
    Get_PAM_Code                             0x0800a945   Thumb Code   298  qsfpdd_msa_page10h_control.o(.text.Get_PAM_Code)
    Get_Power_C_Status                       0x0800aa71   Thumb Code   288  poweron_sequencing.o(.text.Get_Power_C_Status)
    Get_Start_AppSelCode                     0x0800ab91   Thumb Code   282  qsfpdd_msa_statemachine.o(.text.Get_Start_AppSelCode)
    Get_Support_DataPathState                0x0800acad   Thumb Code    82  qsfpdd_msa_aw.o(.text.Get_Support_DataPathState)
    Get_SystemSide_PRBS_Pattern              0x0800ad01   Thumb Code   318  qsfpdd_msa_page13h_diagnostics.o(.text.Get_SystemSide_PRBS_Pattern)
    HardFault_Handler                        0x0800ae41   Thumb Code     4  gd32e501_it.o(.text.HardFault_Handler)
    Host_Side_LoopBack_Control               0x0800ae45   Thumb Code   756  qsfpdd_msa_page13h_diagnostics.o(.text.Host_Side_LoopBack_Control)
    Host_Side_Pattern_Generator_Control      0x0800b139   Thumb Code   702  qsfpdd_msa_page13h_diagnostics.o(.text.Host_Side_Pattern_Generator_Control)
    Host_Side_SNR                            0x0800b3f9   Thumb Code  2366  qsfpdd_msa_page14h_diagnostics.o(.text.Host_Side_SNR)
    I2C0_ER_IRQHandler                       0x0800bd39   Thumb Code   288  gd32e501_s_i2c0_pb67.o(.text.I2C0_ER_IRQHandler)
    I2C0_EV_IRQHandler                       0x0800be59   Thumb Code  2324  gd32e501_s_i2c0_pb67.o(.text.I2C0_EV_IRQHandler)
    Init_Rx_Output_Values                    0x0800c76d   Thumb Code   114  poweron_table.o(.text.Init_Rx_Output_Values)
    Initialize_TRx_DDMI                      0x0800c7e1   Thumb Code    28  qsfpdd_msa_ddmi.o(.text.Initialize_TRx_DDMI)
    IntL_Function                            0x0800c7fd   Thumb Code  1868  qsfpdd_msa_aw.o(.text.IntL_Function)
    Internal_Voltage_Power_Down              0x0800cf49   Thumb Code   194  poweron_sequencing.o(.text.Internal_Voltage_Power_Down)
    Internal_Voltage_Power_up_Seq            0x0800d00d   Thumb Code   244  poweron_sequencing.o(.text.Internal_Voltage_Power_up_Seq)
    LDD_Trun_on                              0x0800d101   Thumb Code    26  mps5490_idac.o(.text.LDD_Trun_on)
    LPMDOE_POWER_OFF                         0x0800d11d   Thumb Code     8  poweron_sequencing.o(.text.LPMDOE_POWER_OFF)
    LPMODE_Function                          0x0800d125   Thumb Code   200  poweron_sequencing.o(.text.LPMODE_Function)
    LPMODE_POWER_ON                          0x0800d1ed   Thumb Code    12  poweron_sequencing.o(.text.LPMODE_POWER_ON)
    Line_Side_ALL_CH1_CH4_Control_P86        0x0800d1f9   Thumb Code   136  dsp_line_side.o(.text.Line_Side_ALL_CH1_CH4_Control_P86)
    LowPwrExS                                0x0800d281   Thumb Code    46  qsfpdd_msa_datapathstatemachine.o(.text.LowPwrExS)
    LowPwrS                                  0x0800d2b1   Thumb Code    82  qsfpdd_msa_datapathstatemachine.o(.text.LowPwrS)
    MCU_PAGE90h_INIT                         0x0800d305   Thumb Code    52  poweron_table.o(.text.MCU_PAGE90h_INIT)
    MCU_PAGE91h_INIT                         0x0800d339   Thumb Code   186  poweron_table.o(.text.MCU_PAGE91h_INIT)
    MCU_PAGE92h_INIT                         0x0800d3f5   Thumb Code    26  poweron_table.o(.text.MCU_PAGE92h_INIT)
    MCU_READ_WRITE_DEIVCE_COMMAND_CONTROL    0x0800d411   Thumb Code   468  poweron_sequencing.o(.text.MCU_READ_WRITE_DEIVCE_COMMAND_CONTROL)
    MI2C1_WordADR_HLBW_PB34                  0x0800d5e5   Thumb Code   610  gd32e501_m_i2c1_pb34.o(.text.MI2C1_WordADR_HLBW_PB34)
    MI2C1_WordADR_R_PB34                     0x0800d849   Thumb Code   704  gd32e501_m_i2c1_pb34.o(.text.MI2C1_WordADR_R_PB34)
    MI2C2_WordADR_HLBW_PC78                  0x0800db09   Thumb Code   562  gd32e501_m_i2c2_pc78.o(.text.MI2C2_WordADR_HLBW_PC78)
    MI2C2_WordADR_R_PC78                     0x0800dd3d   Thumb Code   704  gd32e501_m_i2c2_pc78.o(.text.MI2C2_WordADR_R_PC78)
    MP5490_Read_AllData                      0x0800dffd   Thumb Code   440  mps5490_idac.o(.text.MP5490_Read_AllData)
    MP5490_Write_Control_Data                0x0800e1b5   Thumb Code   256  mps5490_idac.o(.text.MP5490_Write_Control_Data)
    MPD_ANODE_ADC_GET                        0x0800e2b5   Thumb Code    72  tec_apc.o(.text.MPD_ANODE_ADC_GET)
    MSA_DDMI_Function                        0x0800e2fd   Thumb Code   200  qsfpdd_msa_ddmi.o(.text.MSA_DDMI_Function)
    MSA_DataPathState                        0x0800e3c5   Thumb Code   156  qsfpdd_msa_page10h_control.o(.text.MSA_DataPathState)
    MSA_Lane_DataPathState                   0x0800e461   Thumb Code   744  qsfpdd_msa_page10h_control.o(.text.MSA_Lane_DataPathState)
    Master_I2C1_ByteREAD_PB34                0x0800e749   Thumb Code   508  gd32e501_m_i2c1_pb34.o(.text.Master_I2C1_ByteREAD_PB34)
    Master_I2C1_ByteWrite_PB34               0x0800e945   Thumb Code   378  gd32e501_m_i2c1_pb34.o(.text.Master_I2C1_ByteWrite_PB34)
    Master_I2C1_PB34_Init                    0x0800eac1   Thumb Code    86  gd32e501_m_i2c1_pb34.o(.text.Master_I2C1_PB34_Init)
    Master_I2C1_PB34_Initial                 0x0800eb19   Thumb Code   170  gd32e501_initialize.o(.text.Master_I2C1_PB34_Initial)
    Master_I2C2_ByteREAD_PC78                0x0800ebc5   Thumb Code   508  gd32e501_m_i2c2_pc78.o(.text.Master_I2C2_ByteREAD_PC78)
    Master_I2C2_ByteWrite_PC78               0x0800edc1   Thumb Code   494  gd32e501_m_i2c2_pc78.o(.text.Master_I2C2_ByteWrite_PC78)
    Master_I2C2_PB78_Init                    0x0800efb1   Thumb Code    86  gd32e501_m_i2c2_pc78.o(.text.Master_I2C2_PB78_Init)
    Master_I2C2_PC78_Initial                 0x0800f009   Thumb Code   166  gd32e501_initialize.o(.text.Master_I2C2_PC78_Initial)
    Media_Side_LoopBack_Control              0x0800f0b1   Thumb Code   756  qsfpdd_msa_page13h_diagnostics.o(.text.Media_Side_LoopBack_Control)
    Media_Side_Pattern_Generator_Control     0x0800f3a5   Thumb Code   702  qsfpdd_msa_page13h_diagnostics.o(.text.Media_Side_Pattern_Generator_Control)
    Media_Side_SNR                           0x0800f665   Thumb Code  1214  qsfpdd_msa_page14h_diagnostics.o(.text.Media_Side_SNR)
    ModSelL_Function                         0x0800fb25   Thumb Code    54  poweron_sequencing.o(.text.ModSelL_Function)
    Modeule_MGMT_INIT                        0x0800fb5d   Thumb Code   148  qsfpdd_msa_statemachine.o(.text.Modeule_MGMT_INIT)
    ModuleDeactivatedT                       0x0800fbf1   Thumb Code   104  qsfpdd_msa_datapathstatemachine.o(.text.ModuleDeactivatedT)
    ModuleReadyT                             0x0800fc59   Thumb Code    44  qsfpdd_msa_datapathstatemachine.o(.text.ModuleReadyT)
    Module_State                             0x0800fc85   Thumb Code    76  qsfpdd_msa_optional_control.o(.text.Module_State)
    NMI_Handler                              0x0800fcd1   Thumb Code     2  gd32e501_it.o(.text.NMI_Handler)
    PassWord_Function                        0x0800fcd5   Thumb Code   230  gd32e501_s_i2c0_pb67.o(.text.PassWord_Function)
    PendSV_Handler                           0x0800fdbd   Thumb Code     2  gd32e501_it.o(.text.PendSV_Handler)
    PowerON_Table_Init                       0x0800fdc1   Thumb Code    40  poweron_table.o(.text.PowerON_Table_Init)
    PowerOn_Reset_Check                      0x0800fde9   Thumb Code    96  poweron_sequencing.o(.text.PowerOn_Reset_Check)
    PowerOn_Sequencing_Control               0x0800fe49   Thumb Code     8  poweron_sequencing.o(.text.PowerOn_Sequencing_Control)
    PowerUp_Device_Control                   0x0800fe51   Thumb Code    92  qsfpdd_msa_statemachine.o(.text.PowerUp_Device_Control)
    QDD_DSP_Tap_ReLoader                     0x0800fead   Thumb Code   424  qsfpdd_msa_page10h_control.o(.text.QDD_DSP_Tap_ReLoader)
    QSFPDD_Bias_AW                           0x08010055   Thumb Code   698  qsfpdd_msa_aw.o(.text.QSFPDD_Bias_AW)
    QSFPDD_DDMI_ONLY_ADC_GET                 0x08010311   Thumb Code    30  qsfpdd_msa_ddmi.o(.text.QSFPDD_DDMI_ONLY_ADC_GET)
    QSFPDD_DDMI_StateMachine                 0x08010331   Thumb Code   316  qsfpdd_msa_ddmi.o(.text.QSFPDD_DDMI_StateMachine)
    QSFPDD_MSA_StateMachine                  0x0801046d   Thumb Code   618  qsfpdd_msa_statemachine.o(.text.QSFPDD_MSA_StateMachine)
    QSFPDD_RxPower_AW                        0x080106d9   Thumb Code   732  qsfpdd_msa_aw.o(.text.QSFPDD_RxPower_AW)
    QSFPDD_Temperature_VCC_AW                0x080109b5   Thumb Code   454  qsfpdd_msa_aw.o(.text.QSFPDD_Temperature_VCC_AW)
    QSFPDD_TxPower_AW                        0x08010b7d   Thumb Code   686  qsfpdd_msa_aw.o(.text.QSFPDD_TxPower_AW)
    RESET_L_Function                         0x08010e2d   Thumb Code    76  poweron_sequencing.o(.text.RESET_L_Function)
    RFPD_BIAS_ADC_GET                        0x08010e79   Thumb Code    72  tec_apc.o(.text.RFPD_BIAS_ADC_GET)
    RX_AMP_OutSwing_Control                  0x08010ec1   Thumb Code  1182  qsfpdd_msa_page10h_control.o(.text.RX_AMP_OutSwing_Control)
    RX_POWER_M_CH0_CH3                       0x08011361   Thumb Code  1138  qsfpdd_msa_ddmi.o(.text.RX_POWER_M_CH0_CH3)
    RX_Post_Control                          0x080117d5   Thumb Code  1422  qsfpdd_msa_page10h_control.o(.text.RX_Post_Control)
    RX_Pre_Control                           0x08011d65   Thumb Code  1422  qsfpdd_msa_page10h_control.o(.text.RX_Pre_Control)
    ResetS                                   0x080122f5   Thumb Code    12  qsfpdd_msa_datapathstatemachine.o(.text.ResetS)
    Resume_IIC                               0x08012301   Thumb Code   244  gd32e501_m_i2c2_pc78.o(.text.Resume_IIC)
    Resume_IIC_I2C1                          0x080123f5   Thumb Code   242  gd32e501_m_i2c1_pb34.o(.text.Resume_IIC_I2C1)
    Rx_Output_Disable                        0x080124e9   Thumb Code   354  qsfpdd_msa_page10h_control.o(.text.Rx_Output_Disable)
    SET_CHIP_MODE_2X53G_KP4PAM_TO_1X106G_KP4PAM 0x0801264d   Thumb Code   174  dsp.o(.text.SET_CHIP_MODE_2X53G_KP4PAM_TO_1X106G_KP4PAM)
    SET_DSP_CHIP_MODE                        0x080126fd   Thumb Code    54  dsp.o(.text.SET_DSP_CHIP_MODE)
    SET_Power_Control                        0x08012735   Thumb Code   366  poweron_sequencing.o(.text.SET_Power_Control)
    SRMA_Flash_Function                      0x080128a5   Thumb Code   172  gd32e501_s_i2c0_pb67.o(.text.SRMA_Flash_Function)
    SVC_Handler                              0x08012951   Thumb Code     2  gd32e501_it.o(.text.SVC_Handler)
    Signal_Integrity_Control_Feedback        0x08012955   Thumb Code  1644  qsfpdd_msa_page10h_control.o(.text.Signal_Integrity_Control_Feedback)
    Slave_I2C0_PB67_Initial                  0x08012fc1   Thumb Code   202  gd32e501_initialize.o(.text.Slave_I2C0_PB67_Initial)
    Swap_Bytes                               0x0801308d   Thumb Code    30  gd32e501_flash_rw.o(.text.Swap_Bytes)
    SysTick_Handler                          0x08013101   Thumb Code     8  gd32e501_it.o(.text.SysTick_Handler)
    SystemInit                               0x08013109   Thumb Code   212  system_gd32e501.o(.text.SystemInit)
    System_Side_ALL_CH1_CH4_Control_P87      0x080131dd   Thumb Code   104  dsp_system_side.o(.text.System_Side_ALL_CH1_CH4_Control_P87)
    System_Side_ALL_CH1_CH4_Control_P8E      0x08013245   Thumb Code   116  dsp_system_side.o(.text.System_Side_ALL_CH1_CH4_Control_P8E)
    TEC_Control                              0x080132b9   Thumb Code   860  tec_apc.o(.text.TEC_Control)
    TEC_MPD_ADC_GET                          0x08013615   Thumb Code    72  tec_apc.o(.text.TEC_MPD_ADC_GET)
    TEST_DSP_Command_Direct_Control          0x0801365d   Thumb Code   110  dsp.o(.text.TEST_DSP_Command_Direct_Control)
    TIA_RX1_RX4_RSSI                         0x080136cd   Thumb Code   118  acacia_tia.o(.text.TIA_RX1_RX4_RSSI)
    Temp_CAL                                 0x08013745   Thumb Code    74  qsfpdd_msa_ddmi.o(.text.Temp_CAL)
    Temperature_Monitor                      0x08013791   Thumb Code   196  qsfpdd_msa_ddmi.o(.text.Temperature_Monitor)
    Trigger_CMD_Update_DSP_REG               0x08013855   Thumb Code    30  dsp.o(.text.Trigger_CMD_Update_DSP_REG)
    Tx_Disable                               0x08013875   Thumb Code   290  qsfpdd_msa_page10h_control.o(.text.Tx_Disable)
    Update_Bias_Current                      0x08013999   Thumb Code   178  mps5490_idac.o(.text.Update_Bias_Current)
    Update_SRAM_Data                         0x08013a4d   Thumb Code  1134  gd32e501_s_i2c0_pb67.o(.text.Update_SRAM_Data)
    Update_dia_temp                          0x08013ebd   Thumb Code   100  acacia_sip_ldd.o(.text.Update_dia_temp)
    VCC_Monitor                              0x08013f21   Thumb Code    92  qsfpdd_msa_ddmi.o(.text.VCC_Monitor)
    Verify_Config_Error_Code                 0x08013f7d   Thumb Code   340  qsfpdd_msa_page10h_control.o(.text.Verify_Config_Error_Code)
    Write_SRAM_TO_Flash                      0x080140d1   Thumb Code  1604  gd32e501_s_i2c0_pb67.o(.text.Write_SRAM_TO_Flash)
    adc_calibration_enable                   0x08014821   Thumb Code    78  gd32e501_adc.o(.text.adc_calibration_enable)
    adc_channel_length_config                0x08014871   Thumb Code   118  gd32e501_adc.o(.text.adc_channel_length_config)
    adc_data_alignment_config                0x080148e9   Thumb Code    52  gd32e501_adc.o(.text.adc_data_alignment_config)
    adc_enable                               0x0801491d   Thumb Code    38  gd32e501_adc.o(.text.adc_enable)
    adc_external_trigger_config              0x08014945   Thumb Code   152  gd32e501_adc.o(.text.adc_external_trigger_config)
    adc_external_trigger_source_config       0x080149dd   Thumb Code   102  gd32e501_adc.o(.text.adc_external_trigger_source_config)
    adc_flag_clear                           0x08014a45   Thumb Code    26  gd32e501_adc.o(.text.adc_flag_clear)
    adc_flag_get                             0x08014a61   Thumb Code    44  gd32e501_adc.o(.text.adc_flag_get)
    adc_inserted_channel_config              0x08014a8d   Thumb Code   256  gd32e501_adc.o(.text.adc_inserted_channel_config)
    adc_software_trigger_enable              0x08014b8d   Thumb Code    72  gd32e501_adc.o(.text.adc_software_trigger_enable)
    adc_special_function_config              0x08014bd5   Thumb Code   208  gd32e501_adc.o(.text.adc_special_function_config)
    adc_tempsensor_vrefint_enable            0x08014ca5   Thumb Code    18  gd32e501_adc.o(.text.adc_tempsensor_vrefint_enable)
    dac_concurrent_data_set                  0x08014cb9   Thumb Code   122  gd32e501_dac.o(.text.dac_concurrent_data_set)
    dac_concurrent_enable                    0x08014d35   Thumb Code    28  gd32e501_dac.o(.text.dac_concurrent_enable)
    dac_data_set                             0x08014d51   Thumb Code   154  gd32e501_dac.o(.text.dac_data_set)
    dac_deinit                               0x08014ded   Thumb Code   150  gd32e501_dac.o(.text.dac_deinit)
    dac_output_buffer_enable                 0x08014e85   Thumb Code    48  gd32e501_dac.o(.text.dac_output_buffer_enable)
    dac_trigger_disable                      0x08014eb5   Thumb Code    48  gd32e501_dac.o(.text.dac_trigger_disable)
    dac_wave_mode_config                     0x08014ee5   Thumb Code    72  gd32e501_dac.o(.text.dac_wave_mode_config)
    delay_1ms                                0x08014f2d   Thumb Code    40  systick.o(.text.delay_1ms)
    delay_decrement                          0x08014f55   Thumb Code    34  systick.o(.text.delay_decrement)
    fmc_bank0_flag_clear                     0x08014f79   Thumb Code    24  gd32e501_fmc.o(.text.fmc_bank0_flag_clear)
    fmc_bank0_ready_wait                     0x08014f91   Thumb Code    92  gd32e501_fmc.o(.text.fmc_bank0_ready_wait)
    fmc_bank0_state_get                      0x08014fed   Thumb Code    98  gd32e501_fmc.o(.text.fmc_bank0_state_get)
    fmc_bank1_ready_wait                     0x08015051   Thumb Code    92  gd32e501_fmc.o(.text.fmc_bank1_ready_wait)
    fmc_bank1_state_get                      0x080150ad   Thumb Code    98  gd32e501_fmc.o(.text.fmc_bank1_state_get)
    fmc_lock                                 0x08015111   Thumb Code    34  gd32e501_fmc.o(.text.fmc_lock)
    fmc_page_erase                           0x08015135   Thumb Code   428  gd32e501_fmc.o(.text.fmc_page_erase)
    fmc_unlock                               0x080152e1   Thumb Code    98  gd32e501_fmc.o(.text.fmc_unlock)
    fwdgt_config                             0x08015345   Thumb Code   262  gd32e501_fwdgt.o(.text.fwdgt_config)
    fwdgt_enable                             0x0801544d   Thumb Code    16  gd32e501_fwdgt.o(.text.fwdgt_enable)
    gpio_af_set                              0x0801545d   Thumb Code   220  gd32e501_gpio.o(.text.gpio_af_set)
    gpio_bit_reset                           0x08015539   Thumb Code    16  gd32e501_gpio.o(.text.gpio_bit_reset)
    gpio_bit_set                             0x08015549   Thumb Code    16  gd32e501_gpio.o(.text.gpio_bit_set)
    gpio_input_bit_get                       0x08015559   Thumb Code    42  gd32e501_gpio.o(.text.gpio_input_bit_get)
    gpio_mode_set                            0x08015585   Thumb Code   160  gd32e501_gpio.o(.text.gpio_mode_set)
    gpio_output_bit_get                      0x08015625   Thumb Code    42  gd32e501_gpio.o(.text.gpio_output_bit_get)
    gpio_output_options_set                  0x08015651   Thumb Code   154  gd32e501_gpio.o(.text.gpio_output_options_set)
    i2c_address_config                       0x080156ed   Thumb Code    40  gd32e501_i2c.o(.text.i2c_address_config)
    i2c_automatic_end_disable                0x08015715   Thumb Code    18  gd32e501_i2c.o(.text.i2c_automatic_end_disable)
    i2c_automatic_end_enable                 0x08015729   Thumb Code    18  gd32e501_i2c.o(.text.i2c_automatic_end_enable)
    i2c_data_receive                         0x0801573d   Thumb Code    14  gd32e501_i2c.o(.text.i2c_data_receive)
    i2c_data_transmit                        0x0801574d   Thumb Code    18  gd32e501_i2c.o(.text.i2c_data_transmit)
    i2c_deinit                               0x08015761   Thumb Code   116  gd32e501_i2c.o(.text.i2c_deinit)
    i2c_disable                              0x080157d5   Thumb Code    18  gd32e501_i2c.o(.text.i2c_disable)
    i2c_enable                               0x080157e9   Thumb Code    18  gd32e501_i2c.o(.text.i2c_enable)
    i2c_flag_clear                           0x080157fd   Thumb Code    20  gd32e501_i2c.o(.text.i2c_flag_clear)
    i2c_flag_get                             0x08015811   Thumb Code    42  gd32e501_i2c.o(.text.i2c_flag_get)
    i2c_idle_clock_timeout_config            0x0801583d   Thumb Code    30  gd32e501_i2c.o(.text.i2c_idle_clock_timeout_config)
    i2c_interrupt_enable                     0x0801585d   Thumb Code    20  gd32e501_i2c.o(.text.i2c_interrupt_enable)
    i2c_interrupt_flag_clear                 0x08015871   Thumb Code    30  gd32e501_i2c.o(.text.i2c_interrupt_flag_clear)
    i2c_interrupt_flag_get                   0x08015891   Thumb Code   100  gd32e501_i2c.o(.text.i2c_interrupt_flag_get)
    i2c_master_addressing                    0x080158f5   Thumb Code    54  gd32e501_i2c.o(.text.i2c_master_addressing)
    i2c_master_clock_config                  0x0801592d   Thumb Code    60  gd32e501_i2c.o(.text.i2c_master_clock_config)
    i2c_reload_disable                       0x08015969   Thumb Code    18  gd32e501_i2c.o(.text.i2c_reload_disable)
    i2c_reload_enable                        0x0801597d   Thumb Code    18  gd32e501_i2c.o(.text.i2c_reload_enable)
    i2c_start_on_bus                         0x08015991   Thumb Code    18  gd32e501_i2c.o(.text.i2c_start_on_bus)
    i2c_stop_on_bus                          0x080159a5   Thumb Code    18  gd32e501_i2c.o(.text.i2c_stop_on_bus)
    i2c_timing_config                        0x080159b9   Thumb Code    92  gd32e501_i2c.o(.text.i2c_timing_config)
    i2c_transfer_byte_number_config          0x08015a15   Thumb Code    32  gd32e501_i2c.o(.text.i2c_transfer_byte_number_config)
    irc40k_config                            0x08015a35   Thumb Code    24  gd32e501_initialize.o(.text.irc40k_config)
    main                                     0x08015a4d   Thumb Code    84  main.o(.text.main)
    nvic_irq_enable                          0x08015aa1   Thumb Code    44  gd32e501_misc.o(.text.nvic_irq_enable)
    nvic_system_reset                        0x08015acd   Thumb Code     4  gd32e501_misc.o(.text.nvic_system_reset)
    nvic_vector_table_set                    0x08015ad1   Thumb Code    36  gd32e501_misc.o(.text.nvic_vector_table_set)
    rcu_adc_clock_config                     0x08015af5   Thumb Code   430  gd32e501_rcu.o(.text.rcu_adc_clock_config)
    rcu_flag_get                             0x08015ca5   Thumb Code    66  gd32e501_rcu.o(.text.rcu_flag_get)
    rcu_osci_on                              0x08015ce9   Thumb Code    46  gd32e501_rcu.o(.text.rcu_osci_on)
    rcu_osci_stab_wait                       0x08015d19   Thumb Code   610  gd32e501_rcu.o(.text.rcu_osci_stab_wait)
    rcu_periph_clock_disable                 0x08015f7d   Thumb Code    46  gd32e501_rcu.o(.text.rcu_periph_clock_disable)
    rcu_periph_clock_enable                  0x08015fad   Thumb Code    46  gd32e501_rcu.o(.text.rcu_periph_clock_enable)
    rcu_periph_reset_disable                 0x08015fdd   Thumb Code    46  gd32e501_rcu.o(.text.rcu_periph_reset_disable)
    rcu_periph_reset_enable                  0x0801600d   Thumb Code    46  gd32e501_rcu.o(.text.rcu_periph_reset_enable)
    syscfg_vref_enable                       0x0801603d   Thumb Code    16  gd32e501_syscfg.o(.text.syscfg_vref_enable)
    systick_config                           0x08016155   Thumb Code    60  systick.o(.text.systick_config)
    __ARM_fpclassify                         0x08016191   Thumb Code    48  fpclassify.o(i.__ARM_fpclassify)
    __hardfp_exp                             0x080161c1   Thumb Code   714  exp.o(i.__hardfp_exp)
    __hardfp_log                             0x08016519   Thumb Code   872  log.o(i.__hardfp_log)
    __hardfp_log10                           0x080168e1   Thumb Code   260  log10.o(i.__hardfp_log10)
    __hardfp_pow                             0x08016a11   Thumb Code  3072  pow.o(i.__hardfp_pow)
    __hardfp_sqrt                            0x08017661   Thumb Code   122  sqrt.o(i.__hardfp_sqrt)
    __kernel_poly                            0x080176db   Thumb Code   248  poly.o(i.__kernel_poly)
    __mathlib_dbl_divzero                    0x080177d9   Thumb Code    28  dunder.o(i.__mathlib_dbl_divzero)
    __mathlib_dbl_infnan                     0x08017809   Thumb Code    20  dunder.o(i.__mathlib_dbl_infnan)
    __mathlib_dbl_infnan2                    0x0801781d   Thumb Code    20  dunder.o(i.__mathlib_dbl_infnan2)
    __mathlib_dbl_invalid                    0x08017831   Thumb Code    24  dunder.o(i.__mathlib_dbl_invalid)
    __mathlib_dbl_overflow                   0x08017851   Thumb Code    24  dunder.o(i.__mathlib_dbl_overflow)
    __mathlib_dbl_underflow                  0x08017871   Thumb Code    24  dunder.o(i.__mathlib_dbl_underflow)
    __scatterload_copy                       0x08017891   Thumb Code    14  handlers.o(i.__scatterload_copy)
    __scatterload_null                       0x0801789f   Thumb Code     2  handlers.o(i.__scatterload_null)
    __scatterload_zeroinit                   0x080178a1   Thumb Code    14  handlers.o(i.__scatterload_zeroinit)
    __set_errno                              0x080178b1   Thumb Code     6  errno.o(i.__set_errno)
    fabs                                     0x080178bd   Thumb Code    24  fabs.o(i.fabs)
    log                                      0x080178d5   Thumb Code    16  log.o(i.log)
    sqrt                                     0x080178e5   Thumb Code   110  sqrt.o(i.sqrt)
    __mathlib_zero                           0x08017a70   Data           8  qnan.o(.constdata)
    Region$$Table$$Base                      0x08017a78   Number         0  anon$$obj.o(Region$$Table)
    Region$$Table$$Limit                     0x08017a98   Number         0  anon$$obj.o(Region$$Table)
    Bef_0V75                                 0x20000004   Data           2  dsp.o(.data.Bef_0V75)
    Bef_0V90                                 0x20000006   Data           2  dsp.o(.data.Bef_0V90)
    Bef_Rx_Los                               0x20000008   Data           1  qsfpdd_msa_page10h_control.o(.data.Bef_Rx_Los)
    Bef_Tx_Disable                           0x20000009   Data           1  qsfpdd_msa_page10h_control.o(.data.Bef_Tx_Disable)
    ID_Debug_Info                            0x2000000a   Data           9  gd32e501_s_i2c0_pb67.o(.data.ID_Debug_Info)
    INTF_CAPI_SW_CMD_ADR0                    0x20000014   Data           4  dsp.o(.data.INTF_CAPI_SW_CMD_ADR0)
    INTF_CAPI_SW_CMD_ADR1                    0x20000018   Data           4  dsp.o(.data.INTF_CAPI_SW_CMD_ADR1)
    INTF_CAPI_SW_CMD_DATA0                   0x2000001c   Data           4  dsp.o(.data.INTF_CAPI_SW_CMD_DATA0)
    INTF_CAPI_SW_CMD_DATA1                   0x20000020   Data           4  dsp.o(.data.INTF_CAPI_SW_CMD_DATA1)
    Internal_Config_Error_Code               0x20000024   Data           4  qsfpdd_msa_page10h_control.o(.data.Internal_Config_Error_Code)
    MCU_FW_VERSION                           0x20000028   Data           2  poweron_table.o(.data.MCU_FW_VERSION)
    MSA_Config_Error_Code                    0x2000002a   Data           1  qsfpdd_msa_page10h_control.o(.data.MSA_Config_Error_Code)
    NRZ_NPORT_0G_AOC                         0x2000002b   Data           4  qsfpdd_msa_page10h_control.o(.data.NRZ_NPORT_0G_AOC)
    PAM_1PORT_400G_DR4                       0x2000002f   Data           4  qsfpdd_msa_page10h_control.o(.data.PAM_1PORT_400G_DR4)
    PAM_4PORT_100G_DR1                       0x20000033   Data           4  qsfpdd_msa_page10h_control.o(.data.PAM_4PORT_100G_DR1)
    SHOW_RSSI_CH0                            0x20000037   Data           1  qsfpdd_msa_ddmi.o(.data.SHOW_RSSI_CH0)
    SHOW_RSSI_CH1                            0x20000038   Data           1  qsfpdd_msa_ddmi.o(.data.SHOW_RSSI_CH1)
    SHOW_RSSI_CH2                            0x20000039   Data           1  qsfpdd_msa_ddmi.o(.data.SHOW_RSSI_CH2)
    SHOW_RSSI_CH3                            0x2000003a   Data           1  qsfpdd_msa_ddmi.o(.data.SHOW_RSSI_CH3)
    SystemCoreClock                          0x2000003c   Data           4  system_gd32e501.o(.data.SystemCoreClock)
    Trigger_Host_SNR_Flag                    0x20000040   Data           1  qsfpdd_msa_page14h_diagnostics.o(.data.Trigger_Host_SNR_Flag)
    Trigger_Media_SNR_Flag                   0x20000041   Data           1  qsfpdd_msa_page14h_diagnostics.o(.data.Trigger_Media_SNR_Flag)
    Tx_Disable_Flag                          0x20000042   Data           1  qsfpdd_msa_page10h_control.o(.data.Tx_Disable_Flag)
    AW_DDMI_Count                            0x20000048   Data           1  qsfpdd_msa_ddmi.o(.bss.AW_DDMI_Count)
    Active_AppSelCode                        0x20000049   Data           8  qsfpdd_msa_page10h_control.o(.bss.Active_AppSelCode)
    AppSelCode_Buffer                        0x20000051   Data           8  qsfpdd_msa_page10h_control.o(.bss.AppSelCode_Buffer)
    BIAS_HA_LATCH                            0x20000059   Data           1  qsfpdd_msa_aw.o(.bss.BIAS_HA_LATCH)
    BIAS_HW_LATCH                            0x2000005a   Data           1  qsfpdd_msa_aw.o(.bss.BIAS_HW_LATCH)
    BIAS_LA_LATCH                            0x2000005b   Data           1  qsfpdd_msa_aw.o(.bss.BIAS_LA_LATCH)
    BIAS_LW_LATCH                            0x2000005c   Data           1  qsfpdd_msa_aw.o(.bss.BIAS_LW_LATCH)
    Bef_DSP_MODE_SET                         0x2000005d   Data           1  qsfpdd_msa_statemachine.o(.bss.Bef_DSP_MODE_SET)
    Bef_DataPathTxDisableT                   0x2000005e   Data           1  qsfpdd_msa_datapathstatemachine.o(.bss.Bef_DataPathTxDisableT)
    Bef_DataPathTxForceSquelchT              0x2000005f   Data           1  qsfpdd_msa_datapathstatemachine.o(.bss.Bef_DataPathTxForceSquelchT)
    Bef_ForceLowPwr                          0x20000060   Data           1  qsfpdd_msa_datapathstatemachine.o(.bss.Bef_ForceLowPwr)
    Bef_Lane_DataPath                        0x20000061   Data           8  qsfpdd_msa_page10h_control.o(.bss.Bef_Lane_DataPath)
    Bef_Rx_LOL_LATCH_R                       0x20000069   Data           1  qsfpdd_msa_aw.o(.bss.Bef_Rx_LOL_LATCH_R)
    Bef_Rx_output                            0x2000006a   Data           1  qsfpdd_msa_page10h_control.o(.bss.Bef_Rx_output)
    Bel_Rx_Squelch_Buffer                    0x2000006b   Data           1  qsfpdd_msa_page10h_control.o(.bss.Bel_Rx_Squelch_Buffer)
    Bel_Tx_LOS_Buffer                        0x2000006c   Data           1  qsfpdd_msa_page10h_control.o(.bss.Bel_Tx_LOS_Buffer)
    Bel_Tx_Squelch_Buffer                    0x2000006d   Data           1  qsfpdd_msa_page10h_control.o(.bss.Bel_Tx_Squelch_Buffer)
    BiasMode_Setting_flag                    0x2000006e   Data           1  mps5490_idac.o(.bss.BiasMode_Setting_flag)
    Bias_Current_CH0                         0x20000070   Data           2  qsfpdd_msa_ddmi.o(.bss.Bias_Current_CH0)
    Bias_Current_CH1                         0x20000072   Data           2  qsfpdd_msa_ddmi.o(.bss.Bias_Current_CH1)
    Bias_Current_CH2                         0x20000074   Data           2  qsfpdd_msa_ddmi.o(.bss.Bias_Current_CH2)
    Bias_Current_CH3                         0x20000076   Data           2  qsfpdd_msa_ddmi.o(.bss.Bias_Current_CH3)
    CALIB_MEMORY_1_MAP                       0x20000078   Data         128  poweron_table.o(.bss.CALIB_MEMORY_1_MAP)
    CALIB_MEMORY_MAP                         0x200000f8   Data         128  poweron_table.o(.bss.CALIB_MEMORY_MAP)
    COMMAND_4700_DATA                        0x20000178   Data          72  dsp_line_side.o(.bss.COMMAND_4700_DATA)
    CTEL_Table                               0x200001c0   Data          16  poweron_table.o(.bss.CTEL_Table)
    Clear_Correct_ADR                        0x200001d0   Data           1  gd32e501_s_i2c0_pb67.o(.bss.Clear_Correct_ADR)
    Config_Error_flag                        0x200001d1   Data           1  qsfpdd_msa_page10h_control.o(.bss.Config_Error_flag)
    DATA_LEGHT                               0x200001d2   Data           1  gd32e501_s_i2c0_pb67.o(.bss.DATA_LEGHT)
    DDMI_DataCount                           0x200001d4   Data           2  qsfpdd_msa_ddmi.o(.bss.DDMI_DataCount)
    DDMI_Update_C                            0x200001d6   Data           1  qsfpdd_msa_ddmi.o(.bss.DDMI_Update_C)
    DSP_Direct_Control_MEMORY_MAP            0x200001d7   Data         128  dsp.o(.bss.DSP_Direct_Control_MEMORY_MAP)
    DSP_INIT_Flag                            0x20000257   Data           1  dsp.o(.bss.DSP_INIT_Flag)
    DSP_LineSide_SNR                         0x20000258   Data           2  dsp_line_side.o(.bss.DSP_LineSide_SNR)
    DSP_Line_Side_PHY0_MEMORY_MAP            0x2000025a   Data         128  dsp.o(.bss.DSP_Line_Side_PHY0_MEMORY_MAP)
    DSP_MODE_SET                             0x200002da   Data           1  qsfpdd_msa_statemachine.o(.bss.DSP_MODE_SET)
    DSP_SystemSide_LTP                       0x200002dc   Data           2  dsp_system_side.o(.bss.DSP_SystemSide_LTP)
    DSP_SystemSide_SNR                       0x200002de   Data           2  dsp_system_side.o(.bss.DSP_SystemSide_SNR)
    DSP_System_Side_PHY0_MEMORY_MAP          0x200002e0   Data         128  dsp.o(.bss.DSP_System_Side_PHY0_MEMORY_MAP)
    DSP_System_Side_PHY1_MEMORY_MAP          0x20000360   Data         128  dsp.o(.bss.DSP_System_Side_PHY1_MEMORY_MAP)
    DSP_VCC_Flag                             0x200003e0   Data           1  dsp.o(.bss.DSP_VCC_Flag)
    Data_count_I2C0                          0x200003e1   Data           1  gd32e501_s_i2c0_pb67.o(.bss.Data_count_I2C0)
    Explicit_Control_Buffer                  0x200003e2   Data           1  qsfpdd_msa_page10h_control.o(.bss.Explicit_Control_Buffer)
    First_Init_Flag                          0x200003e4   Data           4  dsp.o(.bss.First_Init_Flag)
    Get_SPData                               0x200003e8   Data         128  acacia_sip_ldd.o(.bss.Get_SPData)
    Get_SPLawData                            0x20000468   Data         100  acacia_sip_ldd.o(.bss.Get_SPLawData)
    HOSTPASSWROD                             0x200004cc   Data           1  gd32e501_s_i2c0_pb67.o(.bss.HOSTPASSWROD)
    Host_SNR_Real_Data                       0x200004cd   Data           1  qsfpdd_msa_page14h_diagnostics.o(.bss.Host_SNR_Real_Data)
    I2C_Data_Buffer                          0x200004ce   Data         256  gd32e501_s_i2c0_pb67.o(.bss.I2C_Data_Buffer)
    I2C_READY_FLG                            0x200005ce   Data           1  gd32e501_s_i2c0_pb67.o(.bss.I2C_READY_FLG)
    IntL_Trigger_Flag                        0x200005cf   Data           1  qsfpdd_msa_aw.o(.bss.IntL_Trigger_Flag)
    LDD_Control_MEMORY_MAP                   0x200005d0   Data         128  mps5490_idac.o(.bss.LDD_Control_MEMORY_MAP)
    Line_Side_Squelch_Flag                   0x20000650   Data           1  qsfpdd_msa_statemachine.o(.bss.Line_Side_Squelch_Flag)
    MSA_Memory_ADR                           0x20000651   Data           1  gd32e501_s_i2c0_pb67.o(.bss.MSA_Memory_ADR)
    Max_AppSelCode                           0x20000652   Data           1  qsfpdd_msa_page10h_control.o(.bss.Max_AppSelCode)
    Media_SNR_Real_Data                      0x20000653   Data           1  qsfpdd_msa_page14h_diagnostics.o(.bss.Media_SNR_Real_Data)
    Module_Status                            0x20000654   Data           1  qsfpdd_msa_statemachine.o(.bss.Module_Status)
    NRZ_AMP_Table                            0x20000655   Data          16  poweron_table.o(.bss.NRZ_AMP_Table)
    NRZ_Post_Table                           0x20000665   Data          16  poweron_table.o(.bss.NRZ_Post_Table)
    NRZ_Pre_Table                            0x20000675   Data          16  poweron_table.o(.bss.NRZ_Pre_Table)
    P13_B144_Bef                             0x20000685   Data           1  qsfpdd_msa_page13h_diagnostics.o(.bss.P13_B144_Bef)
    P13_B152_Bef                             0x20000686   Data           1  qsfpdd_msa_page13h_diagnostics.o(.bss.P13_B152_Bef)
    P13_B180_Bef                             0x20000687   Data           1  qsfpdd_msa_page13h_diagnostics.o(.bss.P13_B180_Bef)
    P13_B181_Bef                             0x20000688   Data           1  qsfpdd_msa_page13h_diagnostics.o(.bss.P13_B181_Bef)
    P13_B182_Bef                             0x20000689   Data           1  qsfpdd_msa_page13h_diagnostics.o(.bss.P13_B182_Bef)
    P13_B183_Bef                             0x2000068a   Data           1  qsfpdd_msa_page13h_diagnostics.o(.bss.P13_B183_Bef)
    PAM4_AMP_Table                           0x2000068b   Data          16  poweron_table.o(.bss.PAM4_AMP_Table)
    PAM4_Post_Table                          0x2000069b   Data          16  poweron_table.o(.bss.PAM4_Post_Table)
    PAM4_Pre_Table                           0x200006ab   Data          16  poweron_table.o(.bss.PAM4_Pre_Table)
    PW_LEVE1                                 0x200006bb   Data           4  poweron_table.o(.bss.PW_LEVE1)
    PowerON_AWEN_flag                        0x200006bf   Data           1  qsfpdd_msa_ddmi.o(.bss.PowerON_AWEN_flag)
    Power_check_flag                         0x200006c0   Data           2  poweron_sequencing.o(.bss.Power_check_flag)
    QSFPDD_A0                                0x200006c2   Data         256  poweron_table.o(.bss.QSFPDD_A0)
    QSFPDD_P0                                0x200007c2   Data         128  poweron_table.o(.bss.QSFPDD_P0)
    QSFPDD_P1                                0x20000842   Data         128  poweron_table.o(.bss.QSFPDD_P1)
    QSFPDD_P10                               0x200008c2   Data         128  poweron_table.o(.bss.QSFPDD_P10)
    QSFPDD_P11                               0x20000942   Data         128  poweron_table.o(.bss.QSFPDD_P11)
    QSFPDD_P13                               0x200009c2   Data         128  poweron_table.o(.bss.QSFPDD_P13)
    QSFPDD_P14                               0x20000a42   Data         128  poweron_table.o(.bss.QSFPDD_P14)
    QSFPDD_P2                                0x20000ac2   Data         128  poweron_table.o(.bss.QSFPDD_P2)
    RESET_Count                              0x20000b42   Data           1  poweron_sequencing.o(.bss.RESET_Count)
    REV_ID                                   0x20000b43   Data           1  dsp.o(.bss.REV_ID)
    RxP_HA_LATCH                             0x20000b44   Data           1  qsfpdd_msa_aw.o(.bss.RxP_HA_LATCH)
    RxP_HW_LATCH                             0x20000b45   Data           1  qsfpdd_msa_aw.o(.bss.RxP_HW_LATCH)
    RxP_LA_LATCH                             0x20000b46   Data           1  qsfpdd_msa_aw.o(.bss.RxP_LA_LATCH)
    RxP_LW_LATCH                             0x20000b47   Data           1  qsfpdd_msa_aw.o(.bss.RxP_LW_LATCH)
    Rx_LOL_Buffer                            0x20000b48   Data           1  qsfpdd_msa_aw.o(.bss.Rx_LOL_Buffer)
    Rx_LOS_Buffer                            0x20000b49   Data           1  qsfpdd_msa_aw.o(.bss.Rx_LOS_Buffer)
    Rx_Los_Enable_Flag                       0x20000b4a   Data           1  qsfpdd_msa_page10h_control.o(.bss.Rx_Los_Enable_Flag)
    Rx_output_flag                           0x20000b4b   Data           1  qsfpdd_msa_page10h_control.o(.bss.Rx_output_flag)
    Signal_Status                            0x20000b4c   Data           1  qsfpdd_msa_statemachine.o(.bss.Signal_Status)
    SoftWare_Init_flag                       0x20000b4d   Data           1  qsfpdd_msa_statemachine.o(.bss.SoftWare_Init_flag)
    System_Side_Tab_Load                     0x20000b4e   Data           1  qsfpdd_msa_page10h_control.o(.bss.System_Side_Tab_Load)
    TEC_APC_Control_MEMORY_MAP               0x20000b50   Data         128  tec_apc.o(.bss.TEC_APC_Control_MEMORY_MAP)
    TIA_Control_MEMORY_MAP                   0x20000bd0   Data         128  acacia_tia.o(.bss.TIA_Control_MEMORY_MAP)
    Temperature_Index                        0x20000c50   Data           1  qsfpdd_msa_ddmi.o(.bss.Temperature_Index)
    TxDIS_Power_flag                         0x20000c51   Data           1  qsfpdd_msa_page10h_control.o(.bss.TxDIS_Power_flag)
    TxP_HA_LATCH                             0x20000c52   Data           1  qsfpdd_msa_aw.o(.bss.TxP_HA_LATCH)
    TxP_HW_LATCH                             0x20000c53   Data           1  qsfpdd_msa_aw.o(.bss.TxP_HW_LATCH)
    TxP_LA_LATCH                             0x20000c54   Data           1  qsfpdd_msa_aw.o(.bss.TxP_LA_LATCH)
    TxP_LW_LATCH                             0x20000c55   Data           1  qsfpdd_msa_aw.o(.bss.TxP_LW_LATCH)
    Tx_LOS_Buffer                            0x20000c56   Data           1  qsfpdd_msa_aw.o(.bss.Tx_LOS_Buffer)
    Tx_Los_Enable_Flag                       0x20000c57   Data           1  qsfpdd_msa_page10h_control.o(.bss.Tx_Los_Enable_Flag)
    UPDATE_FLAG                              0x20000c58   Data           1  gd32e501_s_i2c0_pb67.o(.bss.UPDATE_FLAG)
    Update_LineSide_Flash                    0x20000c59   Data           1  qsfpdd_msa_page14h_diagnostics.o(.bss.Update_LineSide_Flash)
    Update_SystemSide_Flash                  0x20000c5a   Data           1  qsfpdd_msa_page14h_diagnostics.o(.bss.Update_SystemSide_Flash)
    VCC_Temperature_LATCH                    0x20000c5b   Data           1  qsfpdd_msa_aw.o(.bss.VCC_Temperature_LATCH)
    bef_Temperature_Indx                     0x20000c5c   Data           1  mps5490_idac.o(.bss.bef_Temperature_Indx)
    __initial_sp                             0x20001068   Data           0  startup_gd32e501.o(STACK)



==============================================================================

Memory Map of the image

  Image Entry point : 0x08000155

  Load Region LR_IROM1 (Base: 0x08000000, Size: 0x00017ae0, Max: 0x00080000, ABSOLUTE)

    Execution Region ER_IROM1 (Exec base: 0x08000000, Load base: 0x08000000, Size: 0x00017a98, Max: 0x00080000, ABSOLUTE)

    Exec Addr    Load Addr    Size         Type   Attr      Idx    E Section Name        Object

    0x08000000   0x08000000   0x00000154   Data   RO         1787    RESET               startup_gd32e501.o
    0x08000154   0x08000154   0x00000000   Code   RO         2468  * .ARM.Collect$$$$00000000  mc_w.l(entry.o)
    0x08000154   0x08000154   0x00000004   Code   RO         2536    .ARM.Collect$$$$00000001  mc_w.l(entry2.o)
    0x08000158   0x08000158   0x00000004   Code   RO         2539    .ARM.Collect$$$$00000004  mc_w.l(entry5.o)
    0x0800015c   0x0800015c   0x00000000   Code   RO         2541    .ARM.Collect$$$$00000008  mc_w.l(entry7b.o)
    0x0800015c   0x0800015c   0x00000000   Code   RO         2543    .ARM.Collect$$$$0000000A  mc_w.l(entry8b.o)
    0x0800015c   0x0800015c   0x00000008   Code   RO         2544    .ARM.Collect$$$$0000000B  mc_w.l(entry9a.o)
    0x08000164   0x08000164   0x00000000   Code   RO         2546    .ARM.Collect$$$$0000000D  mc_w.l(entry10a.o)
    0x08000164   0x08000164   0x00000000   Code   RO         2548    .ARM.Collect$$$$0000000F  mc_w.l(entry11a.o)
    0x08000164   0x08000164   0x00000004   Code   RO         2537    .ARM.Collect$$$$00002712  mc_w.l(entry2.o)
    0x08000168   0x08000168   0x00000024   Code   RO         1788    .text               startup_gd32e501.o
    0x0800018c   0x0800018c   0x00000024   Code   RO         2471    .text               mc_w.l(memcpya.o)
    0x080001b0   0x080001b0   0x00000024   Code   RO         2473    .text               mc_w.l(memseta.o)
    0x080001d4   0x080001d4   0x0000014e   Code   RO         2477    .text               mf_w.l(dadd.o)
    0x08000322   0x08000322   0x000000e4   Code   RO         2479    .text               mf_w.l(dmul.o)
    0x08000406   0x08000406   0x000000de   Code   RO         2481    .text               mf_w.l(ddiv.o)
    0x080004e4   0x080004e4   0x00000036   Code   RO         2483    .text               mf_w.l(dcmpgt.o)
    0x0800051a   0x0800051a   0x00000022   Code   RO         2485    .text               mf_w.l(dflti.o)
    0x0800053c   0x0800053c   0x0000001a   Code   RO         2487    .text               mf_w.l(dfltui.o)
    0x08000556   0x08000556   0x0000003e   Code   RO         2489    .text               mf_w.l(dfixi.o)
    0x08000594   0x08000594   0x00000032   Code   RO         2491    .text               mf_w.l(dfixui.o)
    0x080005c6   0x080005c6   0x00000026   Code   RO         2493    .text               mf_w.l(f2d.o)
    0x080005ec   0x080005ec   0x00000038   Code   RO         2495    .text               mf_w.l(d2f.o)
    0x08000624   0x08000624   0x0000001e   Code   RO         2550    .text               mc_w.l(llshl.o)
    0x08000642   0x08000642   0x00000020   Code   RO         2552    .text               mc_w.l(llushr.o)
    0x08000662   0x08000662   0x00000024   Code   RO         2554    .text               mc_w.l(llsshr.o)
    0x08000686   0x08000686   0x00000000   Code   RO         2563    .text               mc_w.l(iusefp.o)
    0x08000686   0x08000686   0x0000006e   Code   RO         2564    .text               mf_w.l(fepilogue.o)
    0x080006f4   0x080006f4   0x000000ba   Code   RO         2566    .text               mf_w.l(depilogue.o)
    0x080007ae   0x080007ae   0x0000002e   Code   RO         2570    .text               mf_w.l(dscalb.o)
    0x080007dc   0x080007dc   0x000000a2   Code   RO         2572    .text               mf_w.l(dsqrt.o)
    0x0800087e   0x0800087e   0x00000002   PAD
    0x08000880   0x08000880   0x00000030   Code   RO         2574    .text               mf_w.l(cdcmple.o)
    0x080008b0   0x080008b0   0x00000030   Code   RO         2576    .text               mf_w.l(cdrcmple.o)
    0x080008e0   0x080008e0   0x00000024   Code   RO         2578    .text               mc_w.l(init.o)
    0x08000904   0x08000904   0x0000004a   Code   RO           70    .text.ADC_Config_Initial  gd32e501_initialize.o
    0x0800094e   0x0800094e   0x00000002   PAD
    0x08000950   0x08000950   0x00000282   Code   RO         2089    .text.APC_Control   tec_apc.o
    0x08000bd2   0x08000bd2   0x00000002   PAD
    0x08000bd4   0x08000bd4   0x00000134   Code   RO         2018    .text.Acacia_ADC_Pseudocode_Temperature  acacia_sip_ldd.o
    0x08000d08   0x08000d08   0x000000d8   Code   RO         2020    .text.Acacia_LDD_DiaTemp  acacia_sip_ldd.o
    0x08000de0   0x08000de0   0x0000007c   Code   RO         2022    .text.Acacia_LDD_LawDataSP_Update  acacia_sip_ldd.o
    0x08000e5c   0x08000e5c   0x00000258   Code   RO         2026    .text.Acacia_LDD_Read_ALL  acacia_sip_ldd.o
    0x080010b4   0x080010b4   0x00000004   PAD
    0x080010b8   0x080010b8   0x000000a8   Code   RO         2024    .text.Acacia_LDD_SP_Update  acacia_sip_ldd.o
    0x08001160   0x08001160   0x00000150   Code   RO         2028    .text.Acacia_LDD_Write_ALL  acacia_sip_ldd.o
    0x080012b0   0x080012b0   0x000002a4   Code   RO         2066    .text.Acacia_TIA_GetSP  acacia_tia.o
    0x08001554   0x08001554   0x000004a4   Code   RO         2062    .text.Acacia_TIA_Read_ALL  acacia_tia.o
    0x080019f8   0x080019f8   0x00000196   Code   RO         2056    .text.Acacia_TIA_SEL_SP  acacia_tia.o
    0x08001b8e   0x08001b8e   0x00000002   PAD
    0x08001b90   0x08001b90   0x000000c8   Code   RO         2058    .text.Acacia_TIA_SP_GETDATA  acacia_tia.o
    0x08001c58   0x08001c58   0x00000376   Code   RO         2064    .text.Acacia_TIA_Write_ALL  acacia_tia.o
    0x08001fce   0x08001fce   0x00000002   PAD
    0x08001fd0   0x08001fd0   0x000012da   Code   RO         2308    .text.AppSelCode_Verify_Process  qsfpdd_msa_page10h_control.o
    0x080032aa   0x080032aa   0x00000002   PAD
    0x080032ac   0x080032ac   0x000005ba   Code   RO         2310    .text.AppSel_Control_Feedback  qsfpdd_msa_page10h_control.o
    0x08003866   0x08003866   0x00000002   PAD
    0x08003868   0x08003868   0x0000013e   Code   RO         2322    .text.Apply_DataPathInit_Immediate  qsfpdd_msa_page10h_control.o
    0x080039a6   0x080039a6   0x00000002   PAD
    0x080039a8   0x080039a8   0x000003a2   Code   RO         2306    .text.Auto_Squelch_Rx_Output  qsfpdd_msa_page10h_control.o
    0x08003d4a   0x08003d4a   0x00000002   PAD
    0x08003d4c   0x08003d4c   0x00000820   Code   RO         2302    .text.Auto_Squelch_Tx_Output  qsfpdd_msa_page10h_control.o
    0x0800456c   0x0800456c   0x000004e0   Code   RO         2165    .text.BIAS_TxPower_Monitor  qsfpdd_msa_ddmi.o
    0x08004a4c   0x08004a4c   0x000000f8   Code   RO         1815    .text.BRCM_Control_READ_Data  dsp.o
    0x08004b44   0x08004b44   0x000000f4   Code   RO         1813    .text.BRCM_Control_WRITE_Data  dsp.o
    0x08004c38   0x08004c38   0x000000f6   Code   RO         1819    .text.BRCM_READ_Data  dsp.o
    0x08004d2e   0x08004d2e   0x00000002   PAD
    0x08004d30   0x08004d30   0x000000ee   Code   RO         1817    .text.BRCM_WRITE_Data  dsp.o
    0x08004e1e   0x08004e1e   0x00000002   PAD
    0x08004e20   0x08004e20   0x000000d4   Code   RO         1990    .text.Bias_MOD_LUT_UpDate_Current  mps5490_idac.o
    0x08004ef4   0x08004ef4   0x00000068   Code   RO         1994    .text.Bias_MOD_Updata_Current_Temperature_vary  mps5490_idac.o
    0x08004f5c   0x08004f5c   0x00000004   PAD
    0x08004f60   0x08004f60   0x000000bc   Code   RO         1922    .text.Binary32ToDouble  dsp_line_side.o
    0x0800501c   0x0800501c   0x00000048   Code   RO         2159    .text.CAL_Function  qsfpdd_msa_ddmi.o
    0x08005064   0x08005064   0x0000014e   Code   RO         2120    .text.CMIS40_RXLOS_LOL_AW  qsfpdd_msa_aw.o
    0x080051b2   0x080051b2   0x00000002   PAD
    0x080051b4   0x080051b4   0x00000108   Code   RO         2118    .text.CMIS40_TXLOS_LOL_AW  qsfpdd_msa_aw.o
    0x080052bc   0x080052bc   0x00000044   Code   RO          308    .text.CMIS_LOWPAGE_INIT  poweron_table.o
    0x08005300   0x08005300   0x00000036   Code   RO         2324    .text.CMIS_PAGE10h_Control  qsfpdd_msa_page10h_control.o
    0x08005336   0x08005336   0x00000002   PAD
    0x08005338   0x08005338   0x00000034   Code   RO          310    .text.CMIS_PAGE10h_INIT  poweron_table.o
    0x0800536c   0x0800536c   0x00000092   Code   RO          312    .text.CMIS_PAGE11h_INIT  poweron_table.o
    0x080053fe   0x080053fe   0x00000002   PAD
    0x08005400   0x08005400   0x00000014   Code   RO         2379    .text.CMIS_PAGE13h_Diagnostics_Function  qsfpdd_msa_page13h_diagnostics.o
    0x08005414   0x08005414   0x0000003c   Code   RO          314    .text.CMIS_PAGE13h_INIT  poweron_table.o
    0x08005450   0x08005450   0x0000000c   Code   RO         2401    .text.CMIS_PAGE14h_Diagnostics_Function  qsfpdd_msa_page14h_diagnostics.o
    0x0800545c   0x0800545c   0x0000007c   Code   RO          298    .text.CMIS_TABLE_INIT  poweron_table.o
    0x080054d8   0x080054d8   0x00000094   Code   RO          258    .text.CheckSum_Calculate  poweron_sequencing.o
    0x0800556c   0x0800556c   0x000001bc   Code   RO         2122    .text.Clear_Flag    qsfpdd_msa_aw.o
    0x08005728   0x08005728   0x0000001a   Code   RO         2126    .text.Clear_Module_state_Byte8  qsfpdd_msa_aw.o
    0x08005742   0x08005742   0x00000002   PAD
    0x08005744   0x08005744   0x00000028   Code   RO         2124    .text.Clear_VCC_TEMP_Flag  qsfpdd_msa_aw.o
    0x0800576c   0x0800576c   0x000001ca   Code   RO         2298    .text.Configuration_Error_code_Feedback  qsfpdd_msa_page10h_control.o
    0x08005936   0x08005936   0x00000002   PAD
    0x08005938   0x08005938   0x000000bc   Code   RO           72    .text.DAC_Config_Initial  gd32e501_initialize.o
    0x080059f4   0x080059f4   0x00000088   Code   RO         2085    .text.DAC_TO_TOPS_SETTING  tec_apc.o
    0x08005a7c   0x08005a7c   0x00000014   Code   RO         2128    .text.DDMI_AW_Monitor  qsfpdd_msa_aw.o
    0x08005a90   0x08005a90   0x000000ec   Code   RO         1892    .text.DEC_EQUAL_TO_HEX  dsp_line_side.o
    0x08005b7c   0x08005b7c   0x000000a0   Code   RO          300    .text.DEVICE_TABLE_INIT  poweron_table.o
    0x08005c1c   0x08005c1c   0x0000003e   Code   RO         1823    .text.DSP87400_CAPI_CW_CMD  dsp.o
    0x08005c5a   0x08005c5a   0x00000002   PAD
    0x08005c5c   0x08005c5c   0x000000b8   Code   RO         1827    .text.DSP87400_CAPI_Command_response  dsp.o
    0x08005d14   0x08005d14   0x0000005e   Code   RO         1821    .text.DSP87400_EEPROM_AVS_UcReady_CHECK  dsp.o
    0x08005d72   0x08005d72   0x00000002   PAD
    0x08005d74   0x08005d74   0x000000ea   Code   RO         1825    .text.DSP87400_PAM4_COMMAND_ID_SET_CONFIG_INFO_CORE_IP_CW  dsp.o
    0x08005e5e   0x08005e5e   0x00000002   PAD
    0x08005e60   0x08005e60   0x0000005c   Code   RO         1835    .text.DSP87400_host_cfg_st_lane_cw_cfg_rdy  dsp.o
    0x08005ebc   0x08005ebc   0x00000084   Code   RO         1831    .text.DSP87400_host_lane_cfg_done  dsp.o
    0x08005f40   0x08005f40   0x00000034   Code   RO         1833    .text.DSP87400_line_cfg_st_lane_cw_cfg_rdy  dsp.o
    0x08005f74   0x08005f74   0x00000066   Code   RO         1829    .text.DSP87400_line_lane_cfg_done  dsp.o
    0x08005fda   0x08005fda   0x00000002   PAD
    0x08005fdc   0x08005fdc   0x0000004e   Code   RO         1847    .text.DSP_GET_AVS_STATUS  dsp.o
    0x0800602a   0x0800602a   0x00000002   PAD
    0x0800602c   0x0800602c   0x000000c0   Code   RO         1849    .text.DSP_GET_DOWNLOAD_STATUS  dsp.o
    0x080060ec   0x080060ec   0x0000004a   Code   RO         1851    .text.DSP_GET_REV_ID  dsp.o
    0x08006136   0x08006136   0x00000002   PAD
    0x08006138   0x08006138   0x0000012c   Code   RO         1867    .text.DSP_Init      dsp.o
    0x08006264   0x08006264   0x00000192   Code   RO         1900    .text.DSP_LineSide_Loopback_SET  dsp_line_side.o
    0x080063f6   0x080063f6   0x00000002   PAD
    0x080063f8   0x080063f8   0x00000032   Code   RO         1920    .text.DSP_LineSide_RX_Squelch_SET  dsp_line_side.o
    0x0800642a   0x0800642a   0x00000006   PAD
    0x08006430   0x08006430   0x00000510   Code   RO         1924    .text.DSP_LineSide_SNR_LTP_GET  dsp_line_side.o
    0x08006940   0x08006940   0x00000248   Code   RO         1896    .text.DSP_LineSide_TRX_Polarity_SET  dsp_line_side.o
    0x08006b88   0x08006b88   0x000001bc   Code   RO         1898    .text.DSP_LineSide_TRX_Squelch_SET  dsp_line_side.o
    0x08006d44   0x08006d44   0x00000722   Code   RO         1894    .text.DSP_LineSide_TX_FIR_SET  dsp_line_side.o
    0x08007466   0x08007466   0x00000002   PAD
    0x08007468   0x08007468   0x00000032   Code   RO         1918    .text.DSP_LineSide_TX_Squelch_SET  dsp_line_side.o
    0x0800749a   0x0800749a   0x00000002   PAD
    0x0800749c   0x0800749c   0x00000032   Code   RO         1912    .text.DSP_Line_Side_Digital_Loopback_SET  dsp_line_side.o
    0x080074ce   0x080074ce   0x00000002   PAD
    0x080074d0   0x080074d0   0x00000034   Code   RO         1910    .text.DSP_Line_Side_LOL  dsp_line_side.o
    0x08007504   0x08007504   0x000001b8   Code   RO         1916    .text.DSP_Line_Side_PRBS_SET  dsp_line_side.o
    0x080076bc   0x080076bc   0x00000032   Code   RO         1914    .text.DSP_Line_Side_Remote_Loopback_SET  dsp_line_side.o
    0x080076ee   0x080076ee   0x00000002   PAD
    0x080076f0   0x080076f0   0x0000006c   Code   RO         1843    .text.DSP_PLL_BANDWIDTH_CONFIG  dsp.o
    0x0800775c   0x0800775c   0x00000062   Code   RO          264    .text.DSP_PowerON_Seq_Control  poweron_sequencing.o
    0x080077be   0x080077be   0x00000002   PAD
    0x080077c0   0x080077c0   0x00000216   Code   RO         1837    .text.DSP_SET_0V75  dsp.o
    0x080079d6   0x080079d6   0x00000002   PAD
    0x080079d8   0x080079d8   0x00000218   Code   RO         1839    .text.DSP_SET_0V90  dsp.o
    0x08007bf0   0x08007bf0   0x0000029c   Code   RO         1941    .text.DSP_SystemSide_Loopback_SET  dsp_system_side.o
    0x08007e8c   0x08007e8c   0x00000004   PAD
    0x08007e90   0x08007e90   0x00000570   Code   RO         1967    .text.DSP_SystemSide_SNR_LTP_GET  dsp_system_side.o
    0x08008400   0x08008400   0x0000045c   Code   RO         1937    .text.DSP_SystemSide_TRX_Polarity_SET  dsp_system_side.o
    0x0800885c   0x0800885c   0x0000029c   Code   RO         1939    .text.DSP_SystemSide_TRX_Squelch_SET  dsp_system_side.o
    0x08008af8   0x08008af8   0x00000032   Code   RO         1961    .text.DSP_System_Side_Digital_Loopback_SET  dsp_system_side.o
    0x08008b2a   0x08008b2a   0x00000002   PAD
    0x08008b2c   0x08008b2c   0x00000024   Code   RO         1959    .text.DSP_System_Side_LOL  dsp_system_side.o
    0x08008b50   0x08008b50   0x00000282   Code   RO         1965    .text.DSP_System_Side_PRBS_SET  dsp_system_side.o
    0x08008dd2   0x08008dd2   0x00000002   PAD
    0x08008dd4   0x08008dd4   0x00000032   Code   RO         1955    .text.DSP_System_Side_RX_Squelch_SET  dsp_system_side.o
    0x08008e06   0x08008e06   0x00000002   PAD
    0x08008e08   0x08008e08   0x00000032   Code   RO         1963    .text.DSP_System_Side_Remote_Loopback_SET  dsp_system_side.o
    0x08008e3a   0x08008e3a   0x00000002   PAD
    0x08008e3c   0x08008e3c   0x000007a6   Code   RO         1943    .text.DSP_System_Side_TX_FIR_SET  dsp_system_side.o
    0x080095e2   0x080095e2   0x00000002   PAD
    0x080095e4   0x080095e4   0x00000032   Code   RO         1953    .text.DSP_System_Side_TX_Squelch_SET  dsp_system_side.o
    0x08009616   0x08009616   0x00000002   PAD
    0x08009618   0x08009618   0x00000038   Code   RO         2270    .text.DataPathDeactivateS  qsfpdd_msa_datapathstatemachine.o
    0x08009650   0x08009650   0x00000060   Code   RO         2260    .text.DataPathDeinitS  qsfpdd_msa_datapathstatemachine.o
    0x080096b0   0x080096b0   0x00000028   Code   RO         2258    .text.DataPathDeintT  qsfpdd_msa_datapathstatemachine.o
    0x080096d8   0x080096d8   0x00000038   Code   RO         2264    .text.DataPathReDeinitS  qsfpdd_msa_datapathstatemachine.o
    0x08009710   0x08009710   0x00000028   Code   RO         2262    .text.DataPathReinitT  qsfpdd_msa_datapathstatemachine.o
    0x08009738   0x08009738   0x000000da   Code   RO         2266    .text.DataPathTxDisableT  qsfpdd_msa_datapathstatemachine.o
    0x08009812   0x08009812   0x00000002   PAD
    0x08009814   0x08009814   0x000000fe   Code   RO         2268    .text.DataPathTxForceSquelchT  qsfpdd_msa_datapathstatemachine.o
    0x08009912   0x08009912   0x00000002   PAD
    0x08009914   0x08009914   0x00000018   Code   RO          108    .text.Delay_I2C1    gd32e501_m_i2c1_pb34.o
    0x0800992c   0x0800992c   0x00000018   Code   RO          136    .text.Delay_I2C2    gd32e501_m_i2c2_pc78.o
    0x08009944   0x08009944   0x0000003a   Code   RO         2038    .text.Device_RESET  acacia_sip_ldd.o
    0x0800997e   0x0800997e   0x00000002   PAD
    0x08009980   0x08009980   0x00000054   Code   RO         2040    .text.Device_UnReset  acacia_sip_ldd.o
    0x080099d4   0x080099d4   0x00000002   Code   RO           98    .text.EXTI0_1_IRQHandler  gd32e501_it.o
    0x080099d6   0x080099d6   0x00000002   PAD
    0x080099d8   0x080099d8   0x00000048   Code   RO         2246    .text.ForceLowPwr   qsfpdd_msa_datapathstatemachine.o
    0x08009a20   0x08009a20   0x0000009e   Code   RO         2083    .text.GD32E501_DAC_Control  tec_apc.o
    0x08009abe   0x08009abe   0x00000002   PAD
    0x08009ac0   0x08009ac0   0x000000ea   Code   RO           62    .text.GD32E501_GPIO_Analogy_initial  gd32e501_initialize.o
    0x08009baa   0x08009baa   0x00000002   PAD
    0x08009bac   0x08009bac   0x0000006c   Code   RO           58    .text.GD32E501_GPIO_OP_initial  gd32e501_initialize.o
    0x08009c18   0x08009c18   0x00000144   Code   RO           60    .text.GD32E501_GPIO_PP_initial  gd32e501_initialize.o
    0x08009d5c   0x08009d5c   0x0000002c   Code   RO           76    .text.GD32E501_Power_on_Initial  gd32e501_initialize.o
    0x08009d88   0x08009d88   0x00000096   Code   RO           33    .text.GDMCU_FLash_WordWrite  gd32e501_flash_rw.o
    0x08009e1e   0x08009e1e   0x00000002   PAD
    0x08009e20   0x08009e20   0x00000108   Code   RO           37    .text.GDMCU_FMC_BytesWRITE_FUNCTION  gd32e501_flash_rw.o
    0x08009f28   0x08009f28   0x00000018   Code   RO           39    .text.GDMCU_FMC_READ_DATA  gd32e501_flash_rw.o
    0x08009f40   0x08009f40   0x0000004a   Code   RO           41    .text.GDMCU_FMC_READ_FUNCTION  gd32e501_flash_rw.o
    0x08009f8a   0x08009f8a   0x00000002   PAD
    0x08009f8c   0x08009f8c   0x0000002a   Code   RO           27    .text.GDMCU_Flash_Erase  gd32e501_flash_rw.o
    0x08009fb6   0x08009fb6   0x00000002   PAD
    0x08009fb8   0x08009fb8   0x00000086   Code   RO           56    .text.GD_System_Periph_Clock_Enable  gd32e501_initialize.o
    0x0800a03e   0x0800a03e   0x00000002   PAD
    0x0800a040   0x0800a040   0x0000006e   Code   RO           11    .text.GET_ADC_RowData  gd32e501_adc_control.o
    0x0800a0ae   0x0800a0ae   0x00000002   PAD
    0x0800a0b0   0x0800a0b0   0x000000a0   Code   RO           13    .text.GET_ADC_Value_Data  gd32e501_adc_control.o
    0x0800a150   0x0800a150   0x000000f8   Code   RO           15    .text.GET_GD_Temperature  gd32e501_adc_control.o
    0x0800a248   0x0800a248   0x00000090   Code   RO          110    .text.GPIO_Configuration_I2C1_PB34  gd32e501_m_i2c1_pb34.o
    0x0800a2d8   0x0800a2d8   0x00000092   Code   RO          138    .text.GPIO_Configuration_I2C2_PC78  gd32e501_m_i2c2_pc78.o
    0x0800a36a   0x0800a36a   0x00000002   PAD
    0x0800a36c   0x0800a36c   0x0000005c   Code   RO         2034    .text.GetDebug_SP_data  acacia_sip_ldd.o
    0x0800a3c8   0x0800a3c8   0x000000a8   Code   RO         2032    .text.GetSP_LawData  acacia_sip_ldd.o
    0x0800a470   0x0800a470   0x00000096   Code   RO         2286    .text.Get_AppSelCode_Result  qsfpdd_msa_page10h_control.o
    0x0800a506   0x0800a506   0x00000002   PAD
    0x0800a508   0x0800a508   0x00000042   Code   RO         2208    .text.Get_CH_Data   qsfpdd_msa_optional_control.o
    0x0800a54a   0x0800a54a   0x00000002   PAD
    0x0800a54c   0x0800a54c   0x00000110   Code   RO         2104    .text.Get_Lane_DataPathState  qsfpdd_msa_aw.o
    0x0800a65c   0x0800a65c   0x0000013e   Code   RO         2369    .text.Get_LineSide_PRBS_Pattern  qsfpdd_msa_page13h_diagnostics.o
    0x0800a79a   0x0800a79a   0x00000002   PAD
    0x0800a79c   0x0800a79c   0x0000007a   Code   RO         2206    .text.Get_Module_Power_Monitor  qsfpdd_msa_optional_control.o
    0x0800a816   0x0800a816   0x00000002   PAD
    0x0800a818   0x0800a818   0x0000012a   Code   RO         2290    .text.Get_NRZ_Code  qsfpdd_msa_page10h_control.o
    0x0800a942   0x0800a942   0x00000002   PAD
    0x0800a944   0x0800a944   0x0000012a   Code   RO         2288    .text.Get_PAM_Code  qsfpdd_msa_page10h_control.o
    0x0800aa6e   0x0800aa6e   0x00000002   PAD
    0x0800aa70   0x0800aa70   0x00000120   Code   RO          272    .text.Get_Power_C_Status  poweron_sequencing.o
    0x0800ab90   0x0800ab90   0x0000011a   Code   RO         2220    .text.Get_Start_AppSelCode  qsfpdd_msa_statemachine.o
    0x0800acaa   0x0800acaa   0x00000002   PAD
    0x0800acac   0x0800acac   0x00000052   Code   RO         2106    .text.Get_Support_DataPathState  qsfpdd_msa_aw.o
    0x0800acfe   0x0800acfe   0x00000002   PAD
    0x0800ad00   0x0800ad00   0x0000013e   Code   RO         2367    .text.Get_SystemSide_PRBS_Pattern  qsfpdd_msa_page13h_diagnostics.o
    0x0800ae3e   0x0800ae3e   0x00000002   PAD
    0x0800ae40   0x0800ae40   0x00000004   Code   RO           90    .text.HardFault_Handler  gd32e501_it.o
    0x0800ae44   0x0800ae44   0x000002f4   Code   RO         2377    .text.Host_Side_LoopBack_Control  qsfpdd_msa_page13h_diagnostics.o
    0x0800b138   0x0800b138   0x000002be   Code   RO         2371    .text.Host_Side_Pattern_Generator_Control  qsfpdd_msa_page13h_diagnostics.o
    0x0800b3f6   0x0800b3f6   0x00000002   PAD
    0x0800b3f8   0x0800b3f8   0x0000093e   Code   RO         2399    .text.Host_Side_SNR  qsfpdd_msa_page14h_diagnostics.o
    0x0800bd36   0x0800bd36   0x00000002   PAD
    0x0800bd38   0x0800bd38   0x00000120   Code   RO          216    .text.I2C0_ER_IRQHandler  gd32e501_s_i2c0_pb67.o
    0x0800be58   0x0800be58   0x00000914   Code   RO          214    .text.I2C0_EV_IRQHandler  gd32e501_s_i2c0_pb67.o
    0x0800c76c   0x0800c76c   0x00000072   Code   RO          296    .text.Init_Rx_Output_Values  poweron_table.o
    0x0800c7de   0x0800c7de   0x00000002   PAD
    0x0800c7e0   0x0800c7e0   0x0000001c   Code   RO         2171    .text.Initialize_TRx_DDMI  qsfpdd_msa_ddmi.o
    0x0800c7fc   0x0800c7fc   0x0000074c   Code   RO         2108    .text.IntL_Function  qsfpdd_msa_aw.o
    0x0800cf48   0x0800cf48   0x000000c2   Code   RO          260    .text.Internal_Voltage_Power_Down  poweron_sequencing.o
    0x0800d00a   0x0800d00a   0x00000002   PAD
    0x0800d00c   0x0800d00c   0x000000f4   Code   RO          262    .text.Internal_Voltage_Power_up_Seq  poweron_sequencing.o
    0x0800d100   0x0800d100   0x0000001a   Code   RO         1996    .text.LDD_Trun_on   mps5490_idac.o
    0x0800d11a   0x0800d11a   0x00000002   PAD
    0x0800d11c   0x0800d11c   0x00000008   Code   RO          268    .text.LPMDOE_POWER_OFF  poweron_sequencing.o
    0x0800d124   0x0800d124   0x000000c8   Code   RO          284    .text.LPMODE_Function  poweron_sequencing.o
    0x0800d1ec   0x0800d1ec   0x0000000c   Code   RO          270    .text.LPMODE_POWER_ON  poweron_sequencing.o
    0x0800d1f8   0x0800d1f8   0x00000088   Code   RO         1904    .text.Line_Side_ALL_CH1_CH4_Control_P86  dsp_line_side.o
    0x0800d280   0x0800d280   0x0000002e   Code   RO         2256    .text.LowPwrExS     qsfpdd_msa_datapathstatemachine.o
    0x0800d2ae   0x0800d2ae   0x00000002   PAD
    0x0800d2b0   0x0800d2b0   0x00000052   Code   RO         2252    .text.LowPwrS       qsfpdd_msa_datapathstatemachine.o
    0x0800d302   0x0800d302   0x00000002   PAD
    0x0800d304   0x0800d304   0x00000034   Code   RO          302    .text.MCU_PAGE90h_INIT  poweron_table.o
    0x0800d338   0x0800d338   0x000000ba   Code   RO          304    .text.MCU_PAGE91h_INIT  poweron_table.o
    0x0800d3f2   0x0800d3f2   0x00000002   PAD
    0x0800d3f4   0x0800d3f4   0x0000001a   Code   RO          306    .text.MCU_PAGE92h_INIT  poweron_table.o
    0x0800d40e   0x0800d40e   0x00000002   PAD
    0x0800d410   0x0800d410   0x000001d4   Code   RO          276    .text.MCU_READ_WRITE_DEIVCE_COMMAND_CONTROL  poweron_sequencing.o
    0x0800d5e4   0x0800d5e4   0x00000262   Code   RO          126    .text.MI2C1_WordADR_HLBW_PB34  gd32e501_m_i2c1_pb34.o
    0x0800d846   0x0800d846   0x00000002   PAD
    0x0800d848   0x0800d848   0x000002c0   Code   RO          124    .text.MI2C1_WordADR_R_PB34  gd32e501_m_i2c1_pb34.o
    0x0800db08   0x0800db08   0x00000232   Code   RO          154    .text.MI2C2_WordADR_HLBW_PC78  gd32e501_m_i2c2_pc78.o
    0x0800dd3a   0x0800dd3a   0x00000002   PAD
    0x0800dd3c   0x0800dd3c   0x000002c0   Code   RO          152    .text.MI2C2_WordADR_R_PC78  gd32e501_m_i2c2_pc78.o
    0x0800dffc   0x0800dffc   0x000001b8   Code   RO         1982    .text.MP5490_Read_AllData  mps5490_idac.o
    0x0800e1b4   0x0800e1b4   0x00000100   Code   RO         1984    .text.MP5490_Write_Control_Data  mps5490_idac.o
    0x0800e2b4   0x0800e2b4   0x00000048   Code   RO         2077    .text.MPD_ANODE_ADC_GET  tec_apc.o
    0x0800e2fc   0x0800e2fc   0x000000c8   Code   RO         2173    .text.MSA_DDMI_Function  qsfpdd_msa_ddmi.o
    0x0800e3c4   0x0800e3c4   0x0000009c   Code   RO         2292    .text.MSA_DataPathState  qsfpdd_msa_page10h_control.o
    0x0800e460   0x0800e460   0x000002e8   Code   RO         2294    .text.MSA_Lane_DataPathState  qsfpdd_msa_page10h_control.o
    0x0800e748   0x0800e748   0x000001fc   Code   RO          116    .text.Master_I2C1_ByteREAD_PB34  gd32e501_m_i2c1_pb34.o
    0x0800e944   0x0800e944   0x0000017a   Code   RO          118    .text.Master_I2C1_ByteWrite_PB34  gd32e501_m_i2c1_pb34.o
    0x0800eabe   0x0800eabe   0x00000002   PAD
    0x0800eac0   0x0800eac0   0x00000056   Code   RO          112    .text.Master_I2C1_PB34_Init  gd32e501_m_i2c1_pb34.o
    0x0800eb16   0x0800eb16   0x00000002   PAD
    0x0800eb18   0x0800eb18   0x000000aa   Code   RO           64    .text.Master_I2C1_PB34_Initial  gd32e501_initialize.o
    0x0800ebc2   0x0800ebc2   0x00000002   PAD
    0x0800ebc4   0x0800ebc4   0x000001fc   Code   RO          144    .text.Master_I2C2_ByteREAD_PC78  gd32e501_m_i2c2_pc78.o
    0x0800edc0   0x0800edc0   0x000001ee   Code   RO          146    .text.Master_I2C2_ByteWrite_PC78  gd32e501_m_i2c2_pc78.o
    0x0800efae   0x0800efae   0x00000002   PAD
    0x0800efb0   0x0800efb0   0x00000056   Code   RO          140    .text.Master_I2C2_PB78_Init  gd32e501_m_i2c2_pc78.o
    0x0800f006   0x0800f006   0x00000002   PAD
    0x0800f008   0x0800f008   0x000000a6   Code   RO           66    .text.Master_I2C2_PC78_Initial  gd32e501_initialize.o
    0x0800f0ae   0x0800f0ae   0x00000002   PAD
    0x0800f0b0   0x0800f0b0   0x000002f4   Code   RO         2375    .text.Media_Side_LoopBack_Control  qsfpdd_msa_page13h_diagnostics.o
    0x0800f3a4   0x0800f3a4   0x000002be   Code   RO         2373    .text.Media_Side_Pattern_Generator_Control  qsfpdd_msa_page13h_diagnostics.o
    0x0800f662   0x0800f662   0x00000002   PAD
    0x0800f664   0x0800f664   0x000004be   Code   RO         2397    .text.Media_Side_SNR  qsfpdd_msa_page14h_diagnostics.o
    0x0800fb22   0x0800fb22   0x00000002   PAD
    0x0800fb24   0x0800fb24   0x00000036   Code   RO          278    .text.ModSelL_Function  poweron_sequencing.o
    0x0800fb5a   0x0800fb5a   0x00000002   PAD
    0x0800fb5c   0x0800fb5c   0x00000094   Code   RO         2224    .text.Modeule_MGMT_INIT  qsfpdd_msa_statemachine.o
    0x0800fbf0   0x0800fbf0   0x00000068   Code   RO         2254    .text.ModuleDeactivatedT  qsfpdd_msa_datapathstatemachine.o
    0x0800fc58   0x0800fc58   0x0000002c   Code   RO         2244    .text.ModuleReadyT  qsfpdd_msa_datapathstatemachine.o
    0x0800fc84   0x0800fc84   0x0000004c   Code   RO         2210    .text.Module_State  qsfpdd_msa_optional_control.o
    0x0800fcd0   0x0800fcd0   0x00000002   Code   RO           88    .text.NMI_Handler   gd32e501_it.o
    0x0800fcd2   0x0800fcd2   0x00000002   PAD
    0x0800fcd4   0x0800fcd4   0x000000e6   Code   RO          208    .text.PassWord_Function  gd32e501_s_i2c0_pb67.o
    0x0800fdba   0x0800fdba   0x00000002   PAD
    0x0800fdbc   0x0800fdbc   0x00000002   Code   RO           94    .text.PendSV_Handler  gd32e501_it.o
    0x0800fdbe   0x0800fdbe   0x00000002   PAD
    0x0800fdc0   0x0800fdc0   0x00000028   Code   RO          316    .text.PowerON_Table_Init  poweron_table.o
    0x0800fde8   0x0800fde8   0x00000060   Code   RO          280    .text.PowerOn_Reset_Check  poweron_sequencing.o
    0x0800fe48   0x0800fe48   0x00000008   Code   RO          266    .text.PowerOn_Sequencing_Control  poweron_sequencing.o
    0x0800fe50   0x0800fe50   0x0000005c   Code   RO         2222    .text.PowerUp_Device_Control  qsfpdd_msa_statemachine.o
    0x0800feac   0x0800feac   0x000001a8   Code   RO         2320    .text.QDD_DSP_Tap_ReLoader  qsfpdd_msa_page10h_control.o
    0x08010054   0x08010054   0x000002ba   Code   RO         2114    .text.QSFPDD_Bias_AW  qsfpdd_msa_aw.o
    0x0801030e   0x0801030e   0x00000002   PAD
    0x08010310   0x08010310   0x0000001e   Code   RO         2175    .text.QSFPDD_DDMI_ONLY_ADC_GET  qsfpdd_msa_ddmi.o
    0x0801032e   0x0801032e   0x00000002   PAD
    0x08010330   0x08010330   0x0000013c   Code   RO         2169    .text.QSFPDD_DDMI_StateMachine  qsfpdd_msa_ddmi.o
    0x0801046c   0x0801046c   0x0000026a   Code   RO         2226    .text.QSFPDD_MSA_StateMachine  qsfpdd_msa_statemachine.o
    0x080106d6   0x080106d6   0x00000002   PAD
    0x080106d8   0x080106d8   0x000002dc   Code   RO         2116    .text.QSFPDD_RxPower_AW  qsfpdd_msa_aw.o
    0x080109b4   0x080109b4   0x000001c6   Code   RO         2110    .text.QSFPDD_Temperature_VCC_AW  qsfpdd_msa_aw.o
    0x08010b7a   0x08010b7a   0x00000002   PAD
    0x08010b7c   0x08010b7c   0x000002ae   Code   RO         2112    .text.QSFPDD_TxPower_AW  qsfpdd_msa_aw.o
    0x08010e2a   0x08010e2a   0x00000002   PAD
    0x08010e2c   0x08010e2c   0x0000004c   Code   RO          282    .text.RESET_L_Function  poweron_sequencing.o
    0x08010e78   0x08010e78   0x00000048   Code   RO         2081    .text.RFPD_BIAS_ADC_GET  tec_apc.o
    0x08010ec0   0x08010ec0   0x0000049e   Code   RO         2318    .text.RX_AMP_OutSwing_Control  qsfpdd_msa_page10h_control.o
    0x0801135e   0x0801135e   0x00000002   PAD
    0x08011360   0x08011360   0x00000472   Code   RO         2167    .text.RX_POWER_M_CH0_CH3  qsfpdd_msa_ddmi.o
    0x080117d2   0x080117d2   0x00000002   PAD
    0x080117d4   0x080117d4   0x0000058e   Code   RO         2316    .text.RX_Post_Control  qsfpdd_msa_page10h_control.o
    0x08011d62   0x08011d62   0x00000002   PAD
    0x08011d64   0x08011d64   0x0000058e   Code   RO         2314    .text.RX_Pre_Control  qsfpdd_msa_page10h_control.o
    0x080122f2   0x080122f2   0x00000002   PAD
    0x080122f4   0x080122f4   0x0000000c   Code   RO         2250    .text.ResetS        qsfpdd_msa_datapathstatemachine.o
    0x08012300   0x08012300   0x000000f4   Code   RO          142    .text.Resume_IIC    gd32e501_m_i2c2_pc78.o
    0x080123f4   0x080123f4   0x000000f2   Code   RO          114    .text.Resume_IIC_I2C1  gd32e501_m_i2c1_pb34.o
    0x080124e6   0x080124e6   0x00000002   PAD
    0x080124e8   0x080124e8   0x00000162   Code   RO         2304    .text.Rx_Output_Disable  qsfpdd_msa_page10h_control.o
    0x0801264a   0x0801264a   0x00000002   PAD
    0x0801264c   0x0801264c   0x000000ae   Code   RO         1857    .text.SET_CHIP_MODE_2X53G_KP4PAM_TO_1X106G_KP4PAM  dsp.o
    0x080126fa   0x080126fa   0x00000002   PAD
    0x080126fc   0x080126fc   0x00000036   Code   RO         1859    .text.SET_DSP_CHIP_MODE  dsp.o
    0x08012732   0x08012732   0x00000002   PAD
    0x08012734   0x08012734   0x0000016e   Code   RO          274    .text.SET_Power_Control  poweron_sequencing.o
    0x080128a2   0x080128a2   0x00000002   PAD
    0x080128a4   0x080128a4   0x000000ac   Code   RO          218    .text.SRMA_Flash_Function  gd32e501_s_i2c0_pb67.o
    0x08012950   0x08012950   0x00000002   Code   RO           92    .text.SVC_Handler   gd32e501_it.o
    0x08012952   0x08012952   0x00000002   PAD
    0x08012954   0x08012954   0x0000066c   Code   RO         2312    .text.Signal_Integrity_Control_Feedback  qsfpdd_msa_page10h_control.o
    0x08012fc0   0x08012fc0   0x000000ca   Code   RO           68    .text.Slave_I2C0_PB67_Initial  gd32e501_initialize.o
    0x0801308a   0x0801308a   0x00000002   PAD
    0x0801308c   0x0801308c   0x0000001e   Code   RO           25    .text.Swap_Bytes    gd32e501_flash_rw.o
    0x080130aa   0x080130aa   0x00000002   PAD
    0x080130ac   0x080130ac   0x00000052   Code   RO          348    .text.SysTick_Config  systick.o
    0x080130fe   0x080130fe   0x00000002   PAD
    0x08013100   0x08013100   0x00000008   Code   RO           96    .text.SysTick_Handler  gd32e501_it.o
    0x08013108   0x08013108   0x000000d4   Code   RO         1795    .text.SystemInit    system_gd32e501.o
    0x080131dc   0x080131dc   0x00000068   Code   RO         1949    .text.System_Side_ALL_CH1_CH4_Control_P87  dsp_system_side.o
    0x08013244   0x08013244   0x00000074   Code   RO         1951    .text.System_Side_ALL_CH1_CH4_Control_P8E  dsp_system_side.o
    0x080132b8   0x080132b8   0x0000035c   Code   RO         2091    .text.TEC_Control   tec_apc.o
    0x08013614   0x08013614   0x00000048   Code   RO         2079    .text.TEC_MPD_ADC_GET  tec_apc.o
    0x0801365c   0x0801365c   0x0000006e   Code   RO         1845    .text.TEST_DSP_Command_Direct_Control  dsp.o
    0x080136ca   0x080136ca   0x00000002   PAD
    0x080136cc   0x080136cc   0x00000076   Code   RO         2054    .text.TIA_RX1_RX4_RSSI  acacia_tia.o
    0x08013742   0x08013742   0x00000002   PAD
    0x08013744   0x08013744   0x0000004a   Code   RO         2157    .text.Temp_CAL      qsfpdd_msa_ddmi.o
    0x0801378e   0x0801378e   0x00000002   PAD
    0x08013790   0x08013790   0x000000c4   Code   RO         2161    .text.Temperature_Monitor  qsfpdd_msa_ddmi.o
    0x08013854   0x08013854   0x0000001e   Code   RO         1841    .text.Trigger_CMD_Update_DSP_REG  dsp.o
    0x08013872   0x08013872   0x00000002   PAD
    0x08013874   0x08013874   0x00000122   Code   RO         2300    .text.Tx_Disable    qsfpdd_msa_page10h_control.o
    0x08013996   0x08013996   0x00000002   PAD
    0x08013998   0x08013998   0x000000b2   Code   RO         1992    .text.Update_Bias_Current  mps5490_idac.o
    0x08013a4a   0x08013a4a   0x00000002   PAD
    0x08013a4c   0x08013a4c   0x0000046e   Code   RO          210    .text.Update_SRAM_Data  gd32e501_s_i2c0_pb67.o
    0x08013eba   0x08013eba   0x00000002   PAD
    0x08013ebc   0x08013ebc   0x00000064   Code   RO         2030    .text.Update_dia_temp  acacia_sip_ldd.o
    0x08013f20   0x08013f20   0x0000005c   Code   RO         2163    .text.VCC_Monitor   qsfpdd_msa_ddmi.o
    0x08013f7c   0x08013f7c   0x00000154   Code   RO         2296    .text.Verify_Config_Error_Code  qsfpdd_msa_page10h_control.o
    0x080140d0   0x080140d0   0x00000644   Code   RO          212    .text.Write_SRAM_TO_Flash  gd32e501_s_i2c0_pb67.o
    0x08014714   0x08014714   0x00000034   Code   RO         1101    .text.__NVIC_EnableIRQ  gd32e501_misc.o
    0x08014748   0x08014748   0x00000044   Code   RO          350    .text.__NVIC_SetPriority  systick.o
    0x0801478c   0x0801478c   0x00000044   Code   RO         1099    .text.__NVIC_SetPriority  gd32e501_misc.o
    0x080147d0   0x080147d0   0x00000026   Code   RO         1109    .text.__NVIC_SystemReset  gd32e501_misc.o
    0x080147f6   0x080147f6   0x00000002   PAD
    0x080147f8   0x080147f8   0x00000026   Code   RO         2248    .text.__NVIC_SystemReset  qsfpdd_msa_datapathstatemachine.o
    0x0801481e   0x0801481e   0x00000002   PAD
    0x08014820   0x08014820   0x0000004e   Code   RO          371    .text.adc_calibration_enable  gd32e501_adc.o
    0x0801486e   0x0801486e   0x00000002   PAD
    0x08014870   0x08014870   0x00000076   Code   RO          391    .text.adc_channel_length_config  gd32e501_adc.o
    0x080148e6   0x080148e6   0x00000002   PAD
    0x080148e8   0x080148e8   0x00000034   Code   RO          389    .text.adc_data_alignment_config  gd32e501_adc.o
    0x0801491c   0x0801491c   0x00000026   Code   RO          367    .text.adc_enable    gd32e501_adc.o
    0x08014942   0x08014942   0x00000002   PAD
    0x08014944   0x08014944   0x00000098   Code   RO          401    .text.adc_external_trigger_config  gd32e501_adc.o
    0x080149dc   0x080149dc   0x00000066   Code   RO          403    .text.adc_external_trigger_source_config  gd32e501_adc.o
    0x08014a42   0x08014a42   0x00000002   PAD
    0x08014a44   0x08014a44   0x0000001a   Code   RO          429    .text.adc_flag_clear  gd32e501_adc.o
    0x08014a5e   0x08014a5e   0x00000002   PAD
    0x08014a60   0x08014a60   0x0000002c   Code   RO          427    .text.adc_flag_get  gd32e501_adc.o
    0x08014a8c   0x08014a8c   0x00000100   Code   RO          395    .text.adc_inserted_channel_config  gd32e501_adc.o
    0x08014b8c   0x08014b8c   0x00000048   Code   RO          405    .text.adc_software_trigger_enable  gd32e501_adc.o
    0x08014bd4   0x08014bd4   0x000000d0   Code   RO          387    .text.adc_special_function_config  gd32e501_adc.o
    0x08014ca4   0x08014ca4   0x00000012   Code   RO          381    .text.adc_tempsensor_vrefint_enable  gd32e501_adc.o
    0x08014cb6   0x08014cb6   0x00000002   PAD
    0x08014cb8   0x08014cb8   0x0000007a   Code   RO          613    .text.dac_concurrent_data_set  gd32e501_dac.o
    0x08014d32   0x08014d32   0x00000002   PAD
    0x08014d34   0x08014d34   0x0000001c   Code   RO          601    .text.dac_concurrent_enable  gd32e501_dac.o
    0x08014d50   0x08014d50   0x0000009a   Code   RO          575    .text.dac_data_set  gd32e501_dac.o
    0x08014dea   0x08014dea   0x00000002   PAD
    0x08014dec   0x08014dec   0x00000096   Code   RO          559    .text.dac_deinit    gd32e501_dac.o
    0x08014e82   0x08014e82   0x00000002   PAD
    0x08014e84   0x08014e84   0x00000030   Code   RO          569    .text.dac_output_buffer_enable  gd32e501_dac.o
    0x08014eb4   0x08014eb4   0x00000030   Code   RO          583    .text.dac_trigger_disable  gd32e501_dac.o
    0x08014ee4   0x08014ee4   0x00000048   Code   RO          591    .text.dac_wave_mode_config  gd32e501_dac.o
    0x08014f2c   0x08014f2c   0x00000028   Code   RO          352    .text.delay_1ms     systick.o
    0x08014f54   0x08014f54   0x00000022   Code   RO          354    .text.delay_decrement  systick.o
    0x08014f76   0x08014f76   0x00000002   PAD
    0x08014f78   0x08014f78   0x00000018   Code   RO          819    .text.fmc_bank0_flag_clear  gd32e501_fmc.o
    0x08014f90   0x08014f90   0x0000005c   Code   RO          777    .text.fmc_bank0_ready_wait  gd32e501_fmc.o
    0x08014fec   0x08014fec   0x00000062   Code   RO          839    .text.fmc_bank0_state_get  gd32e501_fmc.o
    0x0801504e   0x0801504e   0x00000002   PAD
    0x08015050   0x08015050   0x0000005c   Code   RO          779    .text.fmc_bank1_ready_wait  gd32e501_fmc.o
    0x080150ac   0x080150ac   0x00000062   Code   RO          841    .text.fmc_bank1_state_get  gd32e501_fmc.o
    0x0801510e   0x0801510e   0x00000002   PAD
    0x08015110   0x08015110   0x00000022   Code   RO          755    .text.fmc_lock      gd32e501_fmc.o
    0x08015132   0x08015132   0x00000002   PAD
    0x08015134   0x08015134   0x000001ac   Code   RO          775    .text.fmc_page_erase  gd32e501_fmc.o
    0x080152e0   0x080152e0   0x00000062   Code   RO          749    .text.fmc_unlock    gd32e501_fmc.o
    0x08015342   0x08015342   0x00000002   PAD
    0x08015344   0x08015344   0x00000106   Code   RO          869    .text.fwdgt_config  gd32e501_fwdgt.o
    0x0801544a   0x0801544a   0x00000002   PAD
    0x0801544c   0x0801544c   0x00000010   Code   RO          859    .text.fwdgt_enable  gd32e501_fwdgt.o
    0x0801545c   0x0801545c   0x000000dc   Code   RO          903    .text.gpio_af_set   gd32e501_gpio.o
    0x08015538   0x08015538   0x00000010   Code   RO          889    .text.gpio_bit_reset  gd32e501_gpio.o
    0x08015548   0x08015548   0x00000010   Code   RO          887    .text.gpio_bit_set  gd32e501_gpio.o
    0x08015558   0x08015558   0x0000002a   Code   RO          895    .text.gpio_input_bit_get  gd32e501_gpio.o
    0x08015582   0x08015582   0x00000002   PAD
    0x08015584   0x08015584   0x000000a0   Code   RO          883    .text.gpio_mode_set  gd32e501_gpio.o
    0x08015624   0x08015624   0x0000002a   Code   RO          899    .text.gpio_output_bit_get  gd32e501_gpio.o
    0x0801564e   0x0801564e   0x00000002   PAD
    0x08015650   0x08015650   0x0000009a   Code   RO          885    .text.gpio_output_options_set  gd32e501_gpio.o
    0x080156ea   0x080156ea   0x00000002   PAD
    0x080156ec   0x080156ec   0x00000028   Code   RO          949    .text.i2c_address_config  gd32e501_i2c.o
    0x08015714   0x08015714   0x00000012   Code   RO          939    .text.i2c_automatic_end_disable  gd32e501_i2c.o
    0x08015726   0x08015726   0x00000002   PAD
    0x08015728   0x08015728   0x00000012   Code   RO          937    .text.i2c_automatic_end_enable  gd32e501_i2c.o
    0x0801573a   0x0801573a   0x00000002   PAD
    0x0801573c   0x0801573c   0x0000000e   Code   RO          979    .text.i2c_data_receive  gd32e501_i2c.o
    0x0801574a   0x0801574a   0x00000002   PAD
    0x0801574c   0x0801574c   0x00000012   Code   RO          977    .text.i2c_data_transmit  gd32e501_i2c.o
    0x0801575e   0x0801575e   0x00000002   PAD
    0x08015760   0x08015760   0x00000074   Code   RO          919    .text.i2c_deinit    gd32e501_i2c.o
    0x080157d4   0x080157d4   0x00000012   Code   RO          971    .text.i2c_disable   gd32e501_i2c.o
    0x080157e6   0x080157e6   0x00000002   PAD
    0x080157e8   0x080157e8   0x00000012   Code   RO          969    .text.i2c_enable    gd32e501_i2c.o
    0x080157fa   0x080157fa   0x00000002   PAD
    0x080157fc   0x080157fc   0x00000014   Code   RO         1027    .text.i2c_flag_clear  gd32e501_i2c.o
    0x08015810   0x08015810   0x0000002a   Code   RO         1025    .text.i2c_flag_get  gd32e501_i2c.o
    0x0801583a   0x0801583a   0x00000002   PAD
    0x0801583c   0x0801583c   0x0000001e   Code   RO         1023    .text.i2c_idle_clock_timeout_config  gd32e501_i2c.o
    0x0801585a   0x0801585a   0x00000002   PAD
    0x0801585c   0x0801585c   0x00000014   Code   RO         1029    .text.i2c_interrupt_enable  gd32e501_i2c.o
    0x08015870   0x08015870   0x0000001e   Code   RO         1035    .text.i2c_interrupt_flag_clear  gd32e501_i2c.o
    0x0801588e   0x0801588e   0x00000002   PAD
    0x08015890   0x08015890   0x00000064   Code   RO         1033    .text.i2c_interrupt_flag_get  gd32e501_i2c.o
    0x080158f4   0x080158f4   0x00000036   Code   RO          927    .text.i2c_master_addressing  gd32e501_i2c.o
    0x0801592a   0x0801592a   0x00000002   PAD
    0x0801592c   0x0801592c   0x0000003c   Code   RO          925    .text.i2c_master_clock_config  gd32e501_i2c.o
    0x08015968   0x08015968   0x00000012   Code   RO          983    .text.i2c_reload_disable  gd32e501_i2c.o
    0x0801597a   0x0801597a   0x00000002   PAD
    0x0801597c   0x0801597c   0x00000012   Code   RO          981    .text.i2c_reload_enable  gd32e501_i2c.o
    0x0801598e   0x0801598e   0x00000002   PAD
    0x08015990   0x08015990   0x00000012   Code   RO          973    .text.i2c_start_on_bus  gd32e501_i2c.o
    0x080159a2   0x080159a2   0x00000002   PAD
    0x080159a4   0x080159a4   0x00000012   Code   RO          975    .text.i2c_stop_on_bus  gd32e501_i2c.o
    0x080159b6   0x080159b6   0x00000002   PAD
    0x080159b8   0x080159b8   0x0000005c   Code   RO          921    .text.i2c_timing_config  gd32e501_i2c.o
    0x08015a14   0x08015a14   0x00000020   Code   RO          985    .text.i2c_transfer_byte_number_config  gd32e501_i2c.o
    0x08015a34   0x08015a34   0x00000018   Code   RO           54    .text.irc40k_config  gd32e501_initialize.o
    0x08015a4c   0x08015a4c   0x00000054   Code   RO            2    .text.main          main.o
    0x08015aa0   0x08015aa0   0x0000002c   Code   RO         1097    .text.nvic_irq_enable  gd32e501_misc.o
    0x08015acc   0x08015acc   0x00000004   Code   RO         1107    .text.nvic_system_reset  gd32e501_misc.o
    0x08015ad0   0x08015ad0   0x00000024   Code   RO         1111    .text.nvic_vector_table_set  gd32e501_misc.o
    0x08015af4   0x08015af4   0x000001ae   Code   RO         1190    .text.rcu_adc_clock_config  gd32e501_rcu.o
    0x08015ca2   0x08015ca2   0x00000002   PAD
    0x08015ca4   0x08015ca4   0x00000042   Code   RO         1206    .text.rcu_flag_get  gd32e501_rcu.o
    0x08015ce6   0x08015ce6   0x00000002   PAD
    0x08015ce8   0x08015ce8   0x0000002e   Code   RO         1220    .text.rcu_osci_on   gd32e501_rcu.o
    0x08015d16   0x08015d16   0x00000002   PAD
    0x08015d18   0x08015d18   0x00000262   Code   RO         1218    .text.rcu_osci_stab_wait  gd32e501_rcu.o
    0x08015f7a   0x08015f7a   0x00000002   PAD
    0x08015f7c   0x08015f7c   0x0000002e   Code   RO         1166    .text.rcu_periph_clock_disable  gd32e501_rcu.o
    0x08015faa   0x08015faa   0x00000002   PAD
    0x08015fac   0x08015fac   0x0000002e   Code   RO         1164    .text.rcu_periph_clock_enable  gd32e501_rcu.o
    0x08015fda   0x08015fda   0x00000002   PAD
    0x08015fdc   0x08015fdc   0x0000002e   Code   RO         1174    .text.rcu_periph_reset_disable  gd32e501_rcu.o
    0x0801600a   0x0801600a   0x00000002   PAD
    0x0801600c   0x0801600c   0x0000002e   Code   RO         1172    .text.rcu_periph_reset_enable  gd32e501_rcu.o
    0x0801603a   0x0801603a   0x00000002   PAD
    0x0801603c   0x0801603c   0x00000010   Code   RO         1430    .text.syscfg_vref_enable  gd32e501_syscfg.o
    0x0801604c   0x0801604c   0x00000100   Code   RO         1801    .text.system_clock_100m_irc8m  system_gd32e501.o
    0x0801614c   0x0801614c   0x00000008   Code   RO         1797    .text.system_clock_config  system_gd32e501.o
    0x08016154   0x08016154   0x0000003c   Code   RO          346    .text.systick_config  systick.o
    0x08016190   0x08016190   0x00000030   Code   RO         2517    i.__ARM_fpclassify  m_wm.l(fpclassify.o)
    0x080161c0   0x080161c0   0x00000358   Code   RO         2416    i.__hardfp_exp      m_wm.l(exp.o)
    0x08016518   0x08016518   0x000003c4   Code   RO         2519    i.__hardfp_log      m_wm.l(log.o)
    0x080168dc   0x080168dc   0x00000004   PAD
    0x080168e0   0x080168e0   0x00000130   Code   RO         2430    i.__hardfp_log10    m_wm.l(log10.o)
    0x08016a10   0x08016a10   0x00000c50   Code   RO         2442    i.__hardfp_pow      m_wm.l(pow.o)
    0x08017660   0x08017660   0x0000007a   Code   RO         2456    i.__hardfp_sqrt     m_wm.l(sqrt.o)
    0x080176da   0x080176da   0x000000f8   Code   RO         2533    i.__kernel_poly     m_wm.l(poly.o)
    0x080177d2   0x080177d2   0x00000006   PAD
    0x080177d8   0x080177d8   0x00000030   Code   RO         2497    i.__mathlib_dbl_divzero  m_wm.l(dunder.o)
    0x08017808   0x08017808   0x00000014   Code   RO         2498    i.__mathlib_dbl_infnan  m_wm.l(dunder.o)
    0x0801781c   0x0801781c   0x00000014   Code   RO         2499    i.__mathlib_dbl_infnan2  m_wm.l(dunder.o)
    0x08017830   0x08017830   0x00000020   Code   RO         2500    i.__mathlib_dbl_invalid  m_wm.l(dunder.o)
    0x08017850   0x08017850   0x00000020   Code   RO         2501    i.__mathlib_dbl_overflow  m_wm.l(dunder.o)
    0x08017870   0x08017870   0x00000020   Code   RO         2503    i.__mathlib_dbl_underflow  m_wm.l(dunder.o)
    0x08017890   0x08017890   0x0000000e   Code   RO         2582    i.__scatterload_copy  mc_w.l(handlers.o)
    0x0801789e   0x0801789e   0x00000002   Code   RO         2583    i.__scatterload_null  mc_w.l(handlers.o)
    0x080178a0   0x080178a0   0x0000000e   Code   RO         2584    i.__scatterload_zeroinit  mc_w.l(handlers.o)
    0x080178ae   0x080178ae   0x00000002   PAD
    0x080178b0   0x080178b0   0x0000000c   Code   RO         2558    i.__set_errno       mc_w.l(errno.o)
    0x080178bc   0x080178bc   0x00000018   Code   RO         2513    i.fabs              m_wm.l(fabs.o)
    0x080178d4   0x080178d4   0x00000010   Code   RO         2521    i.log               m_wm.l(log.o)
    0x080178e4   0x080178e4   0x0000006e   Code   RO         2458    i.sqrt              m_wm.l(sqrt.o)
    0x08017952   0x08017952   0x00000006   PAD
    0x08017958   0x08017958   0x00000058   Data   RO         2419    .constdata          m_wm.l(exp.o)
    0x080179b0   0x080179b0   0x00000088   Data   RO         2445    .constdata          m_wm.l(pow.o)
    0x08017a38   0x08017a38   0x00000038   Data   RO         2522    .constdata          m_wm.l(log.o)
    0x08017a70   0x08017a70   0x00000008   Data   RO         2535    .constdata          m_wm.l(qnan.o)
    0x08017a78   0x08017a78   0x00000020   Data   RO         2581    Region$$Table       anon$$obj.o


    Execution Region RW_IRAM1 (Exec base: 0x20000000, Load base: 0x08017a98, Size: 0x00001068, Max: 0x00008000, ABSOLUTE)

    Exec Addr    Load Addr    Size         Type   Attr      Idx    E Section Name        Object

    0x20000000   0x08017a98   0x00000004   Data   RW         2559    .data               mc_w.l(errno.o)
    0x20000004   0x08017a9c   0x00000002   Data   RW         1876    .data.Bef_0V75      dsp.o
    0x20000006   0x08017a9e   0x00000002   Data   RW         1877    .data.Bef_0V90      dsp.o
    0x20000008   0x08017aa0   0x00000001   Data   RW         2345    .data.Bef_Rx_Los    qsfpdd_msa_page10h_control.o
    0x20000009   0x08017aa1   0x00000001   Data   RW         2339    .data.Bef_Tx_Disable  qsfpdd_msa_page10h_control.o
    0x2000000a   0x08017aa2   0x00000009   Data   RW          220    .data.ID_Debug_Info  gd32e501_s_i2c0_pb67.o
    0x20000013   0x08017aab   0x00000001   PAD
    0x20000014   0x08017aac   0x00000004   Data   RW         1869    .data.INTF_CAPI_SW_CMD_ADR0  dsp.o
    0x20000018   0x08017ab0   0x00000004   Data   RW         1871    .data.INTF_CAPI_SW_CMD_ADR1  dsp.o
    0x2000001c   0x08017ab4   0x00000004   Data   RW         1870    .data.INTF_CAPI_SW_CMD_DATA0  dsp.o
    0x20000020   0x08017ab8   0x00000004   Data   RW         1872    .data.INTF_CAPI_SW_CMD_DATA1  dsp.o
    0x20000024   0x08017abc   0x00000004   Data   RW         2350    .data.Internal_Config_Error_Code  qsfpdd_msa_page10h_control.o
    0x20000028   0x08017ac0   0x00000002   Data   RW          318    .data.MCU_FW_VERSION  poweron_table.o
    0x2000002a   0x08017ac2   0x00000001   Data   RW         2351    .data.MSA_Config_Error_Code  qsfpdd_msa_page10h_control.o
    0x2000002b   0x08017ac3   0x00000004   Data   RW         2329    .data.NRZ_NPORT_0G_AOC  qsfpdd_msa_page10h_control.o
    0x2000002f   0x08017ac7   0x00000004   Data   RW         2336    .data.PAM_1PORT_400G_DR4  qsfpdd_msa_page10h_control.o
    0x20000033   0x08017acb   0x00000004   Data   RW         2337    .data.PAM_4PORT_100G_DR1  qsfpdd_msa_page10h_control.o
    0x20000037   0x08017acf   0x00000001   Data   RW         2177    .data.SHOW_RSSI_CH0  qsfpdd_msa_ddmi.o
    0x20000038   0x08017ad0   0x00000001   Data   RW         2178    .data.SHOW_RSSI_CH1  qsfpdd_msa_ddmi.o
    0x20000039   0x08017ad1   0x00000001   Data   RW         2179    .data.SHOW_RSSI_CH2  qsfpdd_msa_ddmi.o
    0x2000003a   0x08017ad2   0x00000001   Data   RW         2180    .data.SHOW_RSSI_CH3  qsfpdd_msa_ddmi.o
    0x2000003b   0x08017ad3   0x00000001   PAD
    0x2000003c   0x08017ad4   0x00000004   Data   RW         1803    .data.SystemCoreClock  system_gd32e501.o
    0x20000040   0x08017ad8   0x00000001   Data   RW         2404    .data.Trigger_Host_SNR_Flag  qsfpdd_msa_page14h_diagnostics.o
    0x20000041   0x08017ad9   0x00000001   Data   RW         2403    .data.Trigger_Media_SNR_Flag  qsfpdd_msa_page14h_diagnostics.o
    0x20000042   0x08017ada   0x00000001   Data   RW         2340    .data.Tx_Disable_Flag  qsfpdd_msa_page10h_control.o
    0x20000043   0x08017adb   0x00000005   PAD
    0x20000048        -       0x00000001   Zero   RW         2188    .bss.AW_DDMI_Count  qsfpdd_msa_ddmi.o
    0x20000049        -       0x00000008   Zero   RW         2348    .bss.Active_AppSelCode  qsfpdd_msa_page10h_control.o
    0x20000051        -       0x00000008   Zero   RW         2349    .bss.AppSelCode_Buffer  qsfpdd_msa_page10h_control.o
    0x20000059        -       0x00000001   Zero   RW         2136    .bss.BIAS_HA_LATCH  qsfpdd_msa_aw.o
    0x2000005a        -       0x00000001   Zero   RW         2138    .bss.BIAS_HW_LATCH  qsfpdd_msa_aw.o
    0x2000005b        -       0x00000001   Zero   RW         2137    .bss.BIAS_LA_LATCH  qsfpdd_msa_aw.o
    0x2000005c        -       0x00000001   Zero   RW         2139    .bss.BIAS_LW_LATCH  qsfpdd_msa_aw.o
    0x2000005d        -       0x00000001   Zero   RW         2233    .bss.Bef_DSP_MODE_SET  qsfpdd_msa_statemachine.o
    0x2000005e        -       0x00000001   Zero   RW         2275    .bss.Bef_DataPathTxDisableT  qsfpdd_msa_datapathstatemachine.o
    0x2000005f        -       0x00000001   Zero   RW         2276    .bss.Bef_DataPathTxForceSquelchT  qsfpdd_msa_datapathstatemachine.o
    0x20000060        -       0x00000001   Zero   RW         2277    .bss.Bef_ForceLowPwr  qsfpdd_msa_datapathstatemachine.o
    0x20000061        -       0x00000008   Zero   RW         2356    .bss.Bef_Lane_DataPath  qsfpdd_msa_page10h_control.o
    0x20000069        -       0x00000001   Zero   RW         2148    .bss.Bef_Rx_LOL_LATCH_R  qsfpdd_msa_aw.o
    0x2000006a        -       0x00000001   Zero   RW         2358    .bss.Bef_Rx_output  qsfpdd_msa_page10h_control.o
    0x2000006b        -       0x00000001   Zero   RW         2346    .bss.Bel_Rx_Squelch_Buffer  qsfpdd_msa_page10h_control.o
    0x2000006c        -       0x00000001   Zero   RW         2341    .bss.Bel_Tx_LOS_Buffer  qsfpdd_msa_page10h_control.o
    0x2000006d        -       0x00000001   Zero   RW         2342    .bss.Bel_Tx_Squelch_Buffer  qsfpdd_msa_page10h_control.o
    0x2000006e        -       0x00000001   Zero   RW         1999    .bss.BiasMode_Setting_flag  mps5490_idac.o
    0x2000006f   0x08017adb   0x00000001   PAD
    0x20000070        -       0x00000002   Zero   RW         2190    .bss.Bias_Current_CH0  qsfpdd_msa_ddmi.o
    0x20000072        -       0x00000002   Zero   RW         2191    .bss.Bias_Current_CH1  qsfpdd_msa_ddmi.o
    0x20000074        -       0x00000002   Zero   RW         2192    .bss.Bias_Current_CH2  qsfpdd_msa_ddmi.o
    0x20000076        -       0x00000002   Zero   RW         2193    .bss.Bias_Current_CH3  qsfpdd_msa_ddmi.o
    0x20000078        -       0x00000080   Zero   RW          337    .bss.CALIB_MEMORY_1_MAP  poweron_table.o
    0x200000f8        -       0x00000080   Zero   RW          328    .bss.CALIB_MEMORY_MAP  poweron_table.o
    0x20000178        -       0x00000048   Zero   RW         1926    .bss.COMMAND_4700_DATA  dsp_line_side.o
    0x200001c0        -       0x00000010   Zero   RW          329    .bss.CTEL_Table     poweron_table.o
    0x200001d0        -       0x00000001   Zero   RW          229    .bss.Clear_Correct_ADR  gd32e501_s_i2c0_pb67.o
    0x200001d1        -       0x00000001   Zero   RW         2353    .bss.Config_Error_flag  qsfpdd_msa_page10h_control.o
    0x200001d2        -       0x00000001   Zero   RW          231    .bss.DATA_LEGHT     gd32e501_s_i2c0_pb67.o
    0x200001d3   0x08017adb   0x00000001   PAD
    0x200001d4        -       0x00000002   Zero   RW         2189    .bss.DDMI_DataCount  qsfpdd_msa_ddmi.o
    0x200001d6        -       0x00000001   Zero   RW         2186    .bss.DDMI_Update_C  qsfpdd_msa_ddmi.o
    0x200001d7        -       0x00000080   Zero   RW         1880    .bss.DSP_Direct_Control_MEMORY_MAP  dsp.o
    0x20000257        -       0x00000001   Zero   RW         1875    .bss.DSP_INIT_Flag  dsp.o
    0x20000258        -       0x00000002   Zero   RW         1927    .bss.DSP_LineSide_SNR  dsp_line_side.o
    0x2000025a        -       0x00000080   Zero   RW         1879    .bss.DSP_Line_Side_PHY0_MEMORY_MAP  dsp.o
    0x200002da        -       0x00000001   Zero   RW         2232    .bss.DSP_MODE_SET   qsfpdd_msa_statemachine.o
    0x200002db   0x08017adb   0x00000001   PAD
    0x200002dc        -       0x00000002   Zero   RW         1971    .bss.DSP_SystemSide_LTP  dsp_system_side.o
    0x200002de        -       0x00000002   Zero   RW         1970    .bss.DSP_SystemSide_SNR  dsp_system_side.o
    0x200002e0        -       0x00000080   Zero   RW         1881    .bss.DSP_System_Side_PHY0_MEMORY_MAP  dsp.o
    0x20000360        -       0x00000080   Zero   RW         1882    .bss.DSP_System_Side_PHY1_MEMORY_MAP  dsp.o
    0x200003e0        -       0x00000001   Zero   RW         1878    .bss.DSP_VCC_Flag   dsp.o
    0x200003e1        -       0x00000001   Zero   RW          222    .bss.Data_count_I2C0  gd32e501_s_i2c0_pb67.o
    0x200003e2        -       0x00000001   Zero   RW         2352    .bss.Explicit_Control_Buffer  qsfpdd_msa_page10h_control.o
    0x200003e3   0x08017adb   0x00000001   PAD
    0x200003e4        -       0x00000004   Zero   RW         1873    .bss.First_Init_Flag  dsp.o
    0x200003e8        -       0x00000080   Zero   RW         2044    .bss.Get_SPData     acacia_sip_ldd.o
    0x20000468        -       0x00000064   Zero   RW         2045    .bss.Get_SPLawData  acacia_sip_ldd.o
    0x200004cc        -       0x00000001   Zero   RW          224    .bss.HOSTPASSWROD   gd32e501_s_i2c0_pb67.o
    0x200004cd        -       0x00000001   Zero   RW         2406    .bss.Host_SNR_Real_Data  qsfpdd_msa_page14h_diagnostics.o
    0x200004ce        -       0x00000100   Zero   RW          230    .bss.I2C_Data_Buffer  gd32e501_s_i2c0_pb67.o
    0x200005ce        -       0x00000001   Zero   RW          225    .bss.I2C_READY_FLG  gd32e501_s_i2c0_pb67.o
    0x200005cf        -       0x00000001   Zero   RW         2147    .bss.IntL_Trigger_Flag  qsfpdd_msa_aw.o
    0x200005d0        -       0x00000080   Zero   RW         2001    .bss.LDD_Control_MEMORY_MAP  mps5490_idac.o
    0x20000650        -       0x00000001   Zero   RW         2229    .bss.Line_Side_Squelch_Flag  qsfpdd_msa_statemachine.o
    0x20000651        -       0x00000001   Zero   RW          221    .bss.MSA_Memory_ADR  gd32e501_s_i2c0_pb67.o
    0x20000652        -       0x00000001   Zero   RW         2357    .bss.Max_AppSelCode  qsfpdd_msa_page10h_control.o
    0x20000653        -       0x00000001   Zero   RW         2405    .bss.Media_SNR_Real_Data  qsfpdd_msa_page14h_diagnostics.o
    0x20000654        -       0x00000001   Zero   RW         2231    .bss.Module_Status  qsfpdd_msa_statemachine.o
    0x20000655        -       0x00000010   Zero   RW          335    .bss.NRZ_AMP_Table  poweron_table.o
    0x20000665        -       0x00000010   Zero   RW          336    .bss.NRZ_Post_Table  poweron_table.o
    0x20000675        -       0x00000010   Zero   RW          334    .bss.NRZ_Pre_Table  poweron_table.o
    0x20000685        -       0x00000001   Zero   RW         2381    .bss.P13_B144_Bef   qsfpdd_msa_page13h_diagnostics.o
    0x20000686        -       0x00000001   Zero   RW         2382    .bss.P13_B152_Bef   qsfpdd_msa_page13h_diagnostics.o
    0x20000687        -       0x00000001   Zero   RW         2383    .bss.P13_B180_Bef   qsfpdd_msa_page13h_diagnostics.o
    0x20000688        -       0x00000001   Zero   RW         2384    .bss.P13_B181_Bef   qsfpdd_msa_page13h_diagnostics.o
    0x20000689        -       0x00000001   Zero   RW         2385    .bss.P13_B182_Bef   qsfpdd_msa_page13h_diagnostics.o
    0x2000068a        -       0x00000001   Zero   RW         2386    .bss.P13_B183_Bef   qsfpdd_msa_page13h_diagnostics.o
    0x2000068b        -       0x00000010   Zero   RW          332    .bss.PAM4_AMP_Table  poweron_table.o
    0x2000069b        -       0x00000010   Zero   RW          333    .bss.PAM4_Post_Table  poweron_table.o
    0x200006ab        -       0x00000010   Zero   RW          331    .bss.PAM4_Pre_Table  poweron_table.o
    0x200006bb        -       0x00000004   Zero   RW          330    .bss.PW_LEVE1       poweron_table.o
    0x200006bf        -       0x00000001   Zero   RW         2187    .bss.PowerON_AWEN_flag  qsfpdd_msa_ddmi.o
    0x200006c0        -       0x00000002   Zero   RW          287    .bss.Power_check_flag  poweron_sequencing.o
    0x200006c2        -       0x00000100   Zero   RW          319    .bss.QSFPDD_A0      poweron_table.o
    0x200007c2        -       0x00000080   Zero   RW          320    .bss.QSFPDD_P0      poweron_table.o
    0x20000842        -       0x00000080   Zero   RW          321    .bss.QSFPDD_P1      poweron_table.o
    0x200008c2        -       0x00000080   Zero   RW          324    .bss.QSFPDD_P10     poweron_table.o
    0x20000942        -       0x00000080   Zero   RW          325    .bss.QSFPDD_P11     poweron_table.o
    0x200009c2        -       0x00000080   Zero   RW          326    .bss.QSFPDD_P13     poweron_table.o
    0x20000a42        -       0x00000080   Zero   RW          327    .bss.QSFPDD_P14     poweron_table.o
    0x20000ac2        -       0x00000080   Zero   RW          322    .bss.QSFPDD_P2      poweron_table.o
    0x20000b42        -       0x00000001   Zero   RW          286    .bss.RESET_Count    poweron_sequencing.o
    0x20000b43        -       0x00000001   Zero   RW         1874    .bss.REV_ID         dsp.o
    0x20000b44        -       0x00000001   Zero   RW         2140    .bss.RxP_HA_LATCH   qsfpdd_msa_aw.o
    0x20000b45        -       0x00000001   Zero   RW         2142    .bss.RxP_HW_LATCH   qsfpdd_msa_aw.o
    0x20000b46        -       0x00000001   Zero   RW         2141    .bss.RxP_LA_LATCH   qsfpdd_msa_aw.o
    0x20000b47        -       0x00000001   Zero   RW         2143    .bss.RxP_LW_LATCH   qsfpdd_msa_aw.o
    0x20000b48        -       0x00000001   Zero   RW         2145    .bss.Rx_LOL_Buffer  qsfpdd_msa_aw.o
    0x20000b49        -       0x00000001   Zero   RW         2144    .bss.Rx_LOS_Buffer  qsfpdd_msa_aw.o
    0x20000b4a        -       0x00000001   Zero   RW         2344    .bss.Rx_Los_Enable_Flag  qsfpdd_msa_page10h_control.o
    0x20000b4b        -       0x00000001   Zero   RW         2347    .bss.Rx_output_flag  qsfpdd_msa_page10h_control.o
    0x20000b4c        -       0x00000001   Zero   RW         2230    .bss.Signal_Status  qsfpdd_msa_statemachine.o
    0x20000b4d        -       0x00000001   Zero   RW         2228    .bss.SoftWare_Init_flag  qsfpdd_msa_statemachine.o
    0x20000b4e        -       0x00000001   Zero   RW         2354    .bss.System_Side_Tab_Load  qsfpdd_msa_page10h_control.o
    0x20000b4f   0x08017adb   0x00000001   PAD
    0x20000b50        -       0x00000080   Zero   RW         2095    .bss.TEC_APC_Control_MEMORY_MAP  tec_apc.o
    0x20000bd0        -       0x00000080   Zero   RW         2068    .bss.TIA_Control_MEMORY_MAP  acacia_tia.o
    0x20000c50        -       0x00000001   Zero   RW         2185    .bss.Temperature_Index  qsfpdd_msa_ddmi.o
    0x20000c51        -       0x00000001   Zero   RW         2338    .bss.TxDIS_Power_flag  qsfpdd_msa_page10h_control.o
    0x20000c52        -       0x00000001   Zero   RW         2132    .bss.TxP_HA_LATCH   qsfpdd_msa_aw.o
    0x20000c53        -       0x00000001   Zero   RW         2134    .bss.TxP_HW_LATCH   qsfpdd_msa_aw.o
    0x20000c54        -       0x00000001   Zero   RW         2133    .bss.TxP_LA_LATCH   qsfpdd_msa_aw.o
    0x20000c55        -       0x00000001   Zero   RW         2135    .bss.TxP_LW_LATCH   qsfpdd_msa_aw.o
    0x20000c56        -       0x00000001   Zero   RW         2146    .bss.Tx_LOS_Buffer  qsfpdd_msa_aw.o
    0x20000c57        -       0x00000001   Zero   RW         2343    .bss.Tx_Los_Enable_Flag  qsfpdd_msa_page10h_control.o
    0x20000c58        -       0x00000001   Zero   RW          232    .bss.UPDATE_FLAG    gd32e501_s_i2c0_pb67.o
    0x20000c59        -       0x00000001   Zero   RW         2407    .bss.Update_LineSide_Flash  qsfpdd_msa_page14h_diagnostics.o
    0x20000c5a        -       0x00000001   Zero   RW         2408    .bss.Update_SystemSide_Flash  qsfpdd_msa_page14h_diagnostics.o
    0x20000c5b        -       0x00000001   Zero   RW         2131    .bss.VCC_Temperature_LATCH  qsfpdd_msa_aw.o
    0x20000c5c        -       0x00000001   Zero   RW         1998    .bss.bef_Temperature_Indx  mps5490_idac.o
    0x20000c5d   0x08017adb   0x00000003   PAD
    0x20000c60        -       0x00000004   Zero   RW          356    .bss.delay          systick.o
    0x20000c64   0x08017adb   0x00000004   PAD
    0x20000c68        -       0x00000400   Zero   RW         1785    STACK               startup_gd32e501.o


==============================================================================

Image component sizes


      Code (inc. data)   RO Data    RW Data    ZI Data      Debug   Object Name

      2254         32          0          0        228       4691   acacia_sip_ldd.o
      3474          8          0          0        128       7397   acacia_tia.o
      4118          0          0         20        519      14784   dsp.o
      5804         28          0          0         74       6958   dsp_line_side.o
      6900         80          0          0          4       6268   dsp_system_side.o
      1164          0          0          0          0       8005   gd32e501_adc.o
       518         40          0          0          0       1372   gd32e501_adc_control.o
       622          0          0          0          0       7528   gd32e501_dac.o
       584          0          0          0          0       3369   gd32e501_flash_rw.o
       964          0          0          0          0      10529   gd32e501_fmc.o
       278          0          0          0          0       2478   gd32e501_fwdgt.o
       650          0          0          0          0       4425   gd32e501_gpio.o
       812          0          0          0          0       9994   gd32e501_i2c.o
      1668          0          0          0          0       5267   gd32e501_initialize.o
        20          0          0          0          0        816   gd32e501_it.o
      2696          0          0          0          0       6236   gd32e501_m_i2c1_pb34.o
      2768          0          0          0          0       6284   gd32e501_m_i2c2_pc78.o
       242          0          0          0          0       4859   gd32e501_misc.o
      1336         10          0          0          0      11633   gd32e501_rcu.o
      5752         98          0          9        263       4269   gd32e501_s_i2c0_pb67.o
        16          0          0          0          0       3578   gd32e501_syscfg.o
        84          0          0          0          0        440   main.o
      1216          0          0          0        130       6263   mps5490_idac.o
      2260          0          0          0          3       3594   poweron_sequencing.o
      1028          0          0          2       1524       8278   poweron_table.o
      5920         20          0          0         18       7802   qsfpdd_msa_aw.o
      1158          0          0          0          3       4528   qsfpdd_msa_datapathstatemachine.o
      3394         28          0          4         14       5495   qsfpdd_msa_ddmi.o
       264          0          0          0          0       1167   qsfpdd_msa_optional_control.o
     18856          0          0         20         36      17932   qsfpdd_msa_page10h_control.o
      3572          0          0          0          6       3796   qsfpdd_msa_page13h_diagnostics.o
      3592          0          0          2          4       3002   qsfpdd_msa_page14h_diagnostics.o
      1140         22          0          0          6       1915   qsfpdd_msa_statemachine.o
        36          8        340          0       1024        924   startup_gd32e501.o
       476          0          0          4          0       2877   system_gd32e501.o
       284          0          0          0          4       3968   systick.o
      2012          0          0          0        128       4449   tec_apc.o

    ----------------------------------------------------------------------
     88240        374        372         64       4132     207170   Object Totals
         0          0         32          0          0          0   (incl. Generated)
       308          0          0          3         16          0   (incl. Padding)

    ----------------------------------------------------------------------

      Code (inc. data)   RO Data    RW Data    ZI Data      Debug   Library Member Name

       184         44          0          0          0        744   dunder.o
       856        142         88          0          0        288   exp.o
        24          0          0          0          0        124   fabs.o
        48          0          0          0          0        124   fpclassify.o
       980         92         56          0          0        440   log.o
       304         44          0          0          0        200   log10.o
       248          0          0          0          0        152   poly.o
      3152        296        136          0          0        352   pow.o
         0          0          8          0          0          0   qnan.o
       232          0          0          0          0        296   sqrt.o
         0          0          0          0          0          0   entry.o
         0          0          0          0          0          0   entry10a.o
         0          0          0          0          0          0   entry11a.o
         8          4          0          0          0          0   entry2.o
         4          0          0          0          0          0   entry5.o
         0          0          0          0          0          0   entry7b.o
         0          0          0          0          0          0   entry8b.o
         8          4          0          0          0          0   entry9a.o
        12          6          0          4          0         68   errno.o
        30          0          0          0          0          0   handlers.o
        36          8          0          0          0         68   init.o
         0          0          0          0          0          0   iusefp.o
        30          0          0          0          0         68   llshl.o
        36          0          0          0          0         68   llsshr.o
        32          0          0          0          0         68   llushr.o
        36          0          0          0          0         68   memcpya.o
        36          0          0          0          0        108   memseta.o
        48          0          0          0          0         68   cdcmple.o
        48          0          0          0          0         68   cdrcmple.o
        56          0          0          0          0         88   d2f.o
       334          0          0          0          0        148   dadd.o
        54          0          0          0          0         80   dcmpgt.o
       222          0          0          0          0        100   ddiv.o
       186          0          0          0          0        176   depilogue.o
        62          0          0          0          0         80   dfixi.o
        50          0          0          0          0         76   dfixui.o
        34          0          0          0          0         76   dflti.o
        26          0          0          0          0         76   dfltui.o
       228          0          0          0          0         96   dmul.o
        46          0          0          0          0         80   dscalb.o
       162          0          0          0          0        100   dsqrt.o
        38          0          0          0          0         68   f2d.o
       110          0          0          0          0        168   fepilogue.o

    ----------------------------------------------------------------------
      8020        644        288          4          0       4784   Library Totals
        20          4          0          0          0          0   (incl. Padding)

    ----------------------------------------------------------------------

      Code (inc. data)   RO Data    RW Data    ZI Data      Debug   Library Name

      6028        618        288          0          0       2720   m_wm.l
       268         22          0          4          0        516   mc_w.l
      1704          0          0          0          0       1548   mf_w.l

    ----------------------------------------------------------------------
      8020        644        288          4          0       4784   Library Totals

    ----------------------------------------------------------------------

==============================================================================


      Code (inc. data)   RO Data    RW Data    ZI Data      Debug   

     96260       1018        660         68       4132     209058   Grand Totals
     96260       1018        660         68       4132     209058   ELF Image Totals
     96260       1018        660         68          0          0   ROM Totals

==============================================================================

    Total RO  Size (Code + RO Data)                96920 (  94.65kB)
    Total RW  Size (RW Data + ZI Data)              4200 (   4.10kB)
    Total ROM Size (Code + RO Data + RW Data)      96988 (  94.71kB)

==============================================================================

